{
  "contractName": "AllowanceCrowdsaleContract",
  "abi": [
    {
      "inputs": [
        {
          "internalType": "uint256",
          "name": "rate",
          "type": "uint256"
        },
        {
          "internalType": "address payable",
          "name": "wallet",
          "type": "address"
        },
        {
          "internalType": "contract IERC20",
          "name": "token",
          "type": "address"
        },
        {
          "internalType": "address",
          "name": "tokenWallet",
          "type": "address"
        }
      ],
      "stateMutability": "nonpayable",
      "type": "constructor"
    },
    {
      "anonymous": false,
      "inputs": [
        {
          "indexed": true,
          "internalType": "address",
          "name": "purchaser",
          "type": "address"
        },
        {
          "indexed": true,
          "internalType": "address",
          "name": "beneficiary",
          "type": "address"
        },
        {
          "indexed": false,
          "internalType": "uint256",
          "name": "value",
          "type": "uint256"
        },
        {
          "indexed": false,
          "internalType": "uint256",
          "name": "amount",
          "type": "uint256"
        }
      ],
      "name": "TokensPurchased",
      "type": "event"
    },
    {
      "inputs": [
        {
          "internalType": "address",
          "name": "beneficiary",
          "type": "address"
        }
      ],
      "name": "buyTokens",
      "outputs": [],
      "stateMutability": "payable",
      "type": "function"
    },
    {
      "inputs": [],
      "name": "rate",
      "outputs": [
        {
          "internalType": "uint256",
          "name": "",
          "type": "uint256"
        }
      ],
      "stateMutability": "view",
      "type": "function"
    },
    {
      "inputs": [],
      "name": "remainingTokens",
      "outputs": [
        {
          "internalType": "uint256",
          "name": "",
          "type": "uint256"
        }
      ],
      "stateMutability": "view",
      "type": "function"
    },
    {
      "inputs": [],
      "name": "token",
      "outputs": [
        {
          "internalType": "contract IERC20",
          "name": "",
          "type": "address"
        }
      ],
      "stateMutability": "view",
      "type": "function"
    },
    {
      "inputs": [],
      "name": "tokenWallet",
      "outputs": [
        {
          "internalType": "address",
          "name": "",
          "type": "address"
        }
      ],
      "stateMutability": "view",
      "type": "function"
    },
    {
      "inputs": [],
      "name": "wallet",
      "outputs": [
        {
          "internalType": "address payable",
          "name": "",
          "type": "address"
        }
      ],
      "stateMutability": "view",
      "type": "function"
    },
    {
      "inputs": [],
      "name": "weiRaised",
      "outputs": [
        {
          "internalType": "uint256",
          "name": "",
          "type": "uint256"
        }
      ],
      "stateMutability": "view",
      "type": "function"
    },
    {
      "stateMutability": "payable",
      "type": "receive"
    }
  ],
  "bytecode": "0x60806040523480156200001157600080fd5b506040516200187a3803806200187a8339818101604052810190620000379190620003e9565b8084848460016000819055506000831162000089576040517f08c379a00000000000000000000000000000000000000000000000000000000081526004016200008090620004bc565b60405180910390fd5b600073ffffffffffffffffffffffffffffffffffffffff168273ffffffffffffffffffffffffffffffffffffffff161415620000fc576040517f08c379a0000000000000000000000000000000000000000000000000000000008152600401620000f39062000554565b60405180910390fd5b600073ffffffffffffffffffffffffffffffffffffffff168173ffffffffffffffffffffffffffffffffffffffff1614156200016f576040517f08c379a00000000000000000000000000000000000000000000000000000000081526004016200016690620005ec565b60405180910390fd5b8260038190555081600260006101000a81548173ffffffffffffffffffffffffffffffffffffffff021916908373ffffffffffffffffffffffffffffffffffffffff16021790555080600160006101000a81548173ffffffffffffffffffffffffffffffffffffffff021916908373ffffffffffffffffffffffffffffffffffffffff160217905550505050600073ffffffffffffffffffffffffffffffffffffffff168173ffffffffffffffffffffffffffffffffffffffff1614156200026e576040517f08c379a0000000000000000000000000000000000000000000000000000000008152600401620002659062000684565b60405180910390fd5b80600560006101000a81548173ffffffffffffffffffffffffffffffffffffffff021916908373ffffffffffffffffffffffffffffffffffffffff1602179055505050505050620006a6565b600080fd5b6000819050919050565b620002d481620002bf565b8114620002e057600080fd5b50565b600081519050620002f481620002c9565b92915050565b600073ffffffffffffffffffffffffffffffffffffffff82169050919050565b60006200032782620002fa565b9050919050565b62000339816200031a565b81146200034557600080fd5b50565b60008151905062000359816200032e565b92915050565b60006200036c82620002fa565b9050919050565b600062000380826200035f565b9050919050565b620003928162000373565b81146200039e57600080fd5b50565b600081519050620003b28162000387565b92915050565b620003c3816200035f565b8114620003cf57600080fd5b50565b600081519050620003e381620003b8565b92915050565b60008060008060808587031215620004065762000405620002ba565b5b60006200041687828801620002e3565b9450506020620004298782880162000348565b93505060406200043c87828801620003a1565b92505060606200044f87828801620003d2565b91505092959194509250565b600082825260208201905092915050565b7f43726f776473616c653a20726174652069732030000000000000000000000000600082015250565b6000620004a46014836200045b565b9150620004b1826200046c565b602082019050919050565b60006020820190508181036000830152620004d78162000495565b9050919050565b7f43726f776473616c653a2077616c6c657420697320746865207a65726f20616460008201527f6472657373000000000000000000000000000000000000000000000000000000602082015250565b60006200053c6025836200045b565b91506200054982620004de565b604082019050919050565b600060208201905081810360008301526200056f816200052d565b9050919050565b7f43726f776473616c653a20746f6b656e20697320746865207a65726f2061646460008201527f7265737300000000000000000000000000000000000000000000000000000000602082015250565b6000620005d46024836200045b565b9150620005e18262000576565b604082019050919050565b600060208201905081810360008301526200060781620005c5565b9050919050565b7f416c6c6f77616e636543726f776473616c653a20746f6b656e2077616c6c657460008201527f20697320746865207a65726f2061646472657373000000000000000000000000602082015250565b60006200066c6034836200045b565b915062000679826200060e565b604082019050919050565b600060208201905081810360008301526200069f816200065d565b9050919050565b6111c480620006b66000396000f3fe6080604052600436106100745760003560e01c8063bf5839031161004e578063bf58390314610111578063bff99c6c1461013c578063ec8ac4d814610167578063fc0c546a146101835761008b565b80632c4e722e146100905780634042b66f146100bb578063521eb273146100e65761008b565b3661008b576100896100846101ae565b6101b6565b005b600080fd5b34801561009c57600080fd5b506100a56102dc565b6040516100b291906109ca565b60405180910390f35b3480156100c757600080fd5b506100d06102e6565b6040516100dd91906109ca565b60405180910390f35b3480156100f257600080fd5b506100fb6102f0565b6040516101089190610a26565b60405180910390f35b34801561011d57600080fd5b5061012661031a565b60405161013391906109ca565b60405180910390f35b34801561014857600080fd5b50610151610471565b60405161015e9190610a62565b60405180910390f35b610181600480360381019061017c9190610aae565b6101b6565b005b34801561018f57600080fd5b5061019861049b565b6040516101a59190610b3a565b60405180910390f35b600033905090565b600260005414156101fc576040517f08c379a00000000000000000000000000000000000000000000000000000000081526004016101f390610bb2565b60405180910390fd5b6002600081905550600034905061021382826104c5565b600061021e8261057d565b90506102358260045461059b90919063ffffffff16565b60048190555061024583826105b1565b8273ffffffffffffffffffffffffffffffffffffffff166102646101ae565b73ffffffffffffffffffffffffffffffffffffffff167f6faf93231a456e552dbc9961f58d9713ee4f2e69d15f1975b050ef0911053a7b84846040516102ab929190610bd2565b60405180910390a36102bd83836105bf565b6102c56105c3565b6102cf838361062e565b5050600160008190555050565b6000600354905090565b6000600454905090565b6000600260009054906101000a900473ffffffffffffffffffffffffffffffffffffffff16905090565b600061046c61032761049b565b73ffffffffffffffffffffffffffffffffffffffff166370a08231600560009054906101000a900473ffffffffffffffffffffffffffffffffffffffff166040518263ffffffff1660e01b81526004016103819190610a62565b602060405180830381865afa15801561039e573d6000803e3d6000fd5b505050506040513d601f19601f820116820180604052508101906103c29190610c27565b6103ca61049b565b73ffffffffffffffffffffffffffffffffffffffff1663dd62ed3e600560009054906101000a900473ffffffffffffffffffffffffffffffffffffffff16306040518363ffffffff1660e01b8152600401610426929190610c54565b602060405180830381865afa158015610443573d6000803e3d6000fd5b505050506040513d601f19601f820116820180604052508101906104679190610c27565b610632565b905090565b6000600560009054906101000a900473ffffffffffffffffffffffffffffffffffffffff16905090565b6000600160009054906101000a900473ffffffffffffffffffffffffffffffffffffffff16905090565b600073ffffffffffffffffffffffffffffffffffffffff168273ffffffffffffffffffffffffffffffffffffffff161415610535576040517f08c379a000000000000000000000000000000000000000000000000000000000815260040161052c90610cef565b60405180910390fd5b6000811415610579576040517f08c379a000000000000000000000000000000000000000000000000000000000815260040161057090610d5b565b60405180910390fd5b5050565b60006105946003548361064b90919063ffffffff16565b9050919050565b600081836105a99190610daa565b905092915050565b6105bb8282610661565b5050565b5050565b600260009054906101000a900473ffffffffffffffffffffffffffffffffffffffff1673ffffffffffffffffffffffffffffffffffffffff166108fc349081150290604051600060405180830381858888f1935050505015801561062b573d6000803e3d6000fd5b50565b5050565b60008183106106415781610643565b825b905092915050565b600081836106599190610e00565b905092915050565b6106b7600560009054906101000a900473ffffffffffffffffffffffffffffffffffffffff16838361069161049b565b73ffffffffffffffffffffffffffffffffffffffff166106bb909392919063ffffffff16565b5050565b61073e846323b872dd60e01b8585856040516024016106dc93929190610e5a565b604051602081830303815290604052907bffffffffffffffffffffffffffffffffffffffffffffffffffffffff19166020820180517bffffffffffffffffffffffffffffffffffffffffffffffffffffffff8381831617835250505050610744565b50505050565b60006107a6826040518060400160405280602081526020017f5361666545524332303a206c6f772d6c6576656c2063616c6c206661696c65648152508573ffffffffffffffffffffffffffffffffffffffff1661080b9092919063ffffffff16565b905060008151111561080657808060200190518101906107c69190610ec9565b610805576040517f08c379a00000000000000000000000000000000000000000000000000000000081526004016107fc90610f68565b60405180910390fd5b5b505050565b606061081a8484600085610823565b90509392505050565b606082471015610868576040517f08c379a000000000000000000000000000000000000000000000000000000000815260040161085f90610ffa565b60405180910390fd5b61087185610937565b6108b0576040517f08c379a00000000000000000000000000000000000000000000000000000000081526004016108a790611066565b60405180910390fd5b6000808673ffffffffffffffffffffffffffffffffffffffff1685876040516108d99190611100565b60006040518083038185875af1925050503d8060008114610916576040519150601f19603f3d011682016040523d82523d6000602084013e61091b565b606091505b509150915061092b82828661094a565b92505050949350505050565b600080823b905060008111915050919050565b6060831561095a578290506109aa565b60008351111561096d5782518084602001fd5b816040517f08c379a00000000000000000000000000000000000000000000000000000000081526004016109a1919061116c565b60405180910390fd5b9392505050565b6000819050919050565b6109c4816109b1565b82525050565b60006020820190506109df60008301846109bb565b92915050565b600073ffffffffffffffffffffffffffffffffffffffff82169050919050565b6000610a10826109e5565b9050919050565b610a2081610a05565b82525050565b6000602082019050610a3b6000830184610a17565b92915050565b6000610a4c826109e5565b9050919050565b610a5c81610a41565b82525050565b6000602082019050610a776000830184610a53565b92915050565b600080fd5b610a8b81610a41565b8114610a9657600080fd5b50565b600081359050610aa881610a82565b92915050565b600060208284031215610ac457610ac3610a7d565b5b6000610ad284828501610a99565b91505092915050565b6000819050919050565b6000610b00610afb610af6846109e5565b610adb565b6109e5565b9050919050565b6000610b1282610ae5565b9050919050565b6000610b2482610b07565b9050919050565b610b3481610b19565b82525050565b6000602082019050610b4f6000830184610b2b565b92915050565b600082825260208201905092915050565b7f5265656e7472616e637947756172643a207265656e7472616e742063616c6c00600082015250565b6000610b9c601f83610b55565b9150610ba782610b66565b602082019050919050565b60006020820190508181036000830152610bcb81610b8f565b9050919050565b6000604082019050610be760008301856109bb565b610bf460208301846109bb565b9392505050565b610c04816109b1565b8114610c0f57600080fd5b50565b600081519050610c2181610bfb565b92915050565b600060208284031215610c3d57610c3c610a7d565b5b6000610c4b84828501610c12565b91505092915050565b6000604082019050610c696000830185610a53565b610c766020830184610a53565b9392505050565b7f43726f776473616c653a2062656e656669636961727920697320746865207a6560008201527f726f206164647265737300000000000000000000000000000000000000000000602082015250565b6000610cd9602a83610b55565b9150610ce482610c7d565b604082019050919050565b60006020820190508181036000830152610d0881610ccc565b9050919050565b7f43726f776473616c653a20776569416d6f756e74206973203000000000000000600082015250565b6000610d45601983610b55565b9150610d5082610d0f565b602082019050919050565b60006020820190508181036000830152610d7481610d38565b9050919050565b7f4e487b7100000000000000000000000000000000000000000000000000000000600052601160045260246000fd5b6000610db5826109b1565b9150610dc0836109b1565b9250827fffffffffffffffffffffffffffffffffffffffffffffffffffffffffffffffff03821115610df557610df4610d7b565b5b828201905092915050565b6000610e0b826109b1565b9150610e16836109b1565b9250817fffffffffffffffffffffffffffffffffffffffffffffffffffffffffffffffff0483118215151615610e4f57610e4e610d7b565b5b828202905092915050565b6000606082019050610e6f6000830186610a53565b610e7c6020830185610a53565b610e8960408301846109bb565b949350505050565b60008115159050919050565b610ea681610e91565b8114610eb157600080fd5b50565b600081519050610ec381610e9d565b92915050565b600060208284031215610edf57610ede610a7d565b5b6000610eed84828501610eb4565b91505092915050565b7f5361666545524332303a204552433230206f7065726174696f6e20646964206e60008201527f6f74207375636365656400000000000000000000000000000000000000000000602082015250565b6000610f52602a83610b55565b9150610f5d82610ef6565b604082019050919050565b60006020820190508181036000830152610f8181610f45565b9050919050565b7f416464726573733a20696e73756666696369656e742062616c616e636520666f60008201527f722063616c6c0000000000000000000000000000000000000000000000000000602082015250565b6000610fe4602683610b55565b9150610fef82610f88565b604082019050919050565b6000602082019050818103600083015261101381610fd7565b9050919050565b7f416464726573733a2063616c6c20746f206e6f6e2d636f6e7472616374000000600082015250565b6000611050601d83610b55565b915061105b8261101a565b602082019050919050565b6000602082019050818103600083015261107f81611043565b9050919050565b600081519050919050565b600081905092915050565b60005b838110156110ba57808201518184015260208101905061109f565b838111156110c9576000848401525b50505050565b60006110da82611086565b6110e48185611091565b93506110f481856020860161109c565b80840191505092915050565b600061110c82846110cf565b915081905092915050565b600081519050919050565b6000601f19601f8301169050919050565b600061113e82611117565b6111488185610b55565b935061115881856020860161109c565b61116181611122565b840191505092915050565b600060208201905081810360008301526111868184611133565b90509291505056fea26469706673582212209b04e8156ed174ddafd5f8ccc681c7cb7f57c74716ca1a6b5212c607fc8d487664736f6c634300080a0033",
  "immutableReferences": {},
  "source": "// SPDX-License-Identifier: MIT\npragma solidity ^0.8.0;\n\nimport \"./Crowdsale.sol\";\nimport \"./Allowance.sol\";\n\n//\ncontract AllowanceCrowdsaleContract is Allowance {\n    constructor(\n        uint256 rate, // \n        address payable wallet, // ETH\n        IERC20 token, // \n        address tokenWallet // \n    ) Allowance(tokenWallet) Crowdsale(rate, wallet, token) {}\n}\n",
  "sourcePath": "/Users/q/study/ethereum/mint-coin/contracts/Crowdsale/AllowanceCrowdsale.sol",
  "compiler": {
    "name": "solc",
    "version": "0.8.10+commit.fc410830.Emscripten.clang"
  },
  "schemaVersion": "3.4.1",
  "updatedAt": "2021-12-10T17:03:14.847Z",
  "devdoc": {
    "kind": "dev",
    "methods": {
      "buyTokens(address)": {
        "details": "low level token purchase ***DO NOT OVERRIDE*** This function has a non-reentrancy guard, so it shouldn't be called by another `nonReentrant` function.",
        "params": {
          "beneficiary": "Recipient of the token purchase"
        }
      },
      "rate()": {
        "returns": {
          "_0": "the number of token units a buyer gets per wei."
        }
      },
      "remainingTokens()": {
        "details": "Checks the amount of tokens left in the allowance.",
        "returns": {
          "_0": "Amount of tokens left in the allowance"
        }
      },
      "token()": {
        "returns": {
          "_0": "the token being sold."
        }
      },
      "tokenWallet()": {
        "returns": {
          "_0": "the address of the wallet that will hold the tokens."
        }
      },
      "wallet()": {
        "returns": {
          "_0": "the address where funds are collected."
        }
      },
      "weiRaised()": {
        "returns": {
          "_0": "the amount of wei raised."
        }
      }
    },
    "version": 1
  },
  "userdoc": {
    "events": {
      "TokensPurchased(address,address,uint256,uint256)": {
        "notice": "Event for token purchase logging"
      }
    },
    "kind": "user",
    "methods": {},
    "version": 1
  }
}