{
  "contractName": "ERC20WithPausable",
  "abi": [
    {
      "inputs": [
        {
          "internalType": "string",
          "name": "name",
          "type": "string"
        },
        {
          "internalType": "string",
          "name": "symbol",
          "type": "string"
        },
        {
          "internalType": "uint256",
          "name": "totalSupply",
          "type": "uint256"
        }
      ],
      "stateMutability": "nonpayable",
      "type": "constructor"
    },
    {
      "anonymous": false,
      "inputs": [
        {
          "indexed": true,
          "internalType": "address",
          "name": "owner",
          "type": "address"
        },
        {
          "indexed": true,
          "internalType": "address",
          "name": "spender",
          "type": "address"
        },
        {
          "indexed": false,
          "internalType": "uint256",
          "name": "value",
          "type": "uint256"
        }
      ],
      "name": "Approval",
      "type": "event"
    },
    {
      "anonymous": false,
      "inputs": [
        {
          "indexed": false,
          "internalType": "address",
          "name": "account",
          "type": "address"
        }
      ],
      "name": "Paused",
      "type": "event"
    },
    {
      "anonymous": false,
      "inputs": [
        {
          "indexed": true,
          "internalType": "bytes32",
          "name": "role",
          "type": "bytes32"
        },
        {
          "indexed": true,
          "internalType": "bytes32",
          "name": "previousAdminRole",
          "type": "bytes32"
        },
        {
          "indexed": true,
          "internalType": "bytes32",
          "name": "newAdminRole",
          "type": "bytes32"
        }
      ],
      "name": "RoleAdminChanged",
      "type": "event"
    },
    {
      "anonymous": false,
      "inputs": [
        {
          "indexed": true,
          "internalType": "bytes32",
          "name": "role",
          "type": "bytes32"
        },
        {
          "indexed": true,
          "internalType": "address",
          "name": "account",
          "type": "address"
        },
        {
          "indexed": true,
          "internalType": "address",
          "name": "sender",
          "type": "address"
        }
      ],
      "name": "RoleGranted",
      "type": "event"
    },
    {
      "anonymous": false,
      "inputs": [
        {
          "indexed": true,
          "internalType": "bytes32",
          "name": "role",
          "type": "bytes32"
        },
        {
          "indexed": true,
          "internalType": "address",
          "name": "account",
          "type": "address"
        },
        {
          "indexed": true,
          "internalType": "address",
          "name": "sender",
          "type": "address"
        }
      ],
      "name": "RoleRevoked",
      "type": "event"
    },
    {
      "anonymous": false,
      "inputs": [
        {
          "indexed": true,
          "internalType": "address",
          "name": "from",
          "type": "address"
        },
        {
          "indexed": true,
          "internalType": "address",
          "name": "to",
          "type": "address"
        },
        {
          "indexed": false,
          "internalType": "uint256",
          "name": "value",
          "type": "uint256"
        }
      ],
      "name": "Transfer",
      "type": "event"
    },
    {
      "anonymous": false,
      "inputs": [
        {
          "indexed": false,
          "internalType": "address",
          "name": "account",
          "type": "address"
        }
      ],
      "name": "Unpaused",
      "type": "event"
    },
    {
      "inputs": [],
      "name": "DEFAULT_ADMIN_ROLE",
      "outputs": [
        {
          "internalType": "bytes32",
          "name": "",
          "type": "bytes32"
        }
      ],
      "stateMutability": "view",
      "type": "function"
    },
    {
      "inputs": [],
      "name": "PAUSER_ROLE",
      "outputs": [
        {
          "internalType": "bytes32",
          "name": "",
          "type": "bytes32"
        }
      ],
      "stateMutability": "view",
      "type": "function"
    },
    {
      "inputs": [
        {
          "internalType": "address",
          "name": "owner",
          "type": "address"
        },
        {
          "internalType": "address",
          "name": "spender",
          "type": "address"
        }
      ],
      "name": "allowance",
      "outputs": [
        {
          "internalType": "uint256",
          "name": "",
          "type": "uint256"
        }
      ],
      "stateMutability": "view",
      "type": "function"
    },
    {
      "inputs": [
        {
          "internalType": "address",
          "name": "spender",
          "type": "address"
        },
        {
          "internalType": "uint256",
          "name": "amount",
          "type": "uint256"
        }
      ],
      "name": "approve",
      "outputs": [
        {
          "internalType": "bool",
          "name": "",
          "type": "bool"
        }
      ],
      "stateMutability": "nonpayable",
      "type": "function"
    },
    {
      "inputs": [
        {
          "internalType": "address",
          "name": "account",
          "type": "address"
        }
      ],
      "name": "balanceOf",
      "outputs": [
        {
          "internalType": "uint256",
          "name": "",
          "type": "uint256"
        }
      ],
      "stateMutability": "view",
      "type": "function"
    },
    {
      "inputs": [],
      "name": "decimals",
      "outputs": [
        {
          "internalType": "uint8",
          "name": "",
          "type": "uint8"
        }
      ],
      "stateMutability": "view",
      "type": "function"
    },
    {
      "inputs": [
        {
          "internalType": "address",
          "name": "spender",
          "type": "address"
        },
        {
          "internalType": "uint256",
          "name": "subtractedValue",
          "type": "uint256"
        }
      ],
      "name": "decreaseAllowance",
      "outputs": [
        {
          "internalType": "bool",
          "name": "",
          "type": "bool"
        }
      ],
      "stateMutability": "nonpayable",
      "type": "function"
    },
    {
      "inputs": [
        {
          "internalType": "bytes32",
          "name": "role",
          "type": "bytes32"
        }
      ],
      "name": "getRoleAdmin",
      "outputs": [
        {
          "internalType": "bytes32",
          "name": "",
          "type": "bytes32"
        }
      ],
      "stateMutability": "view",
      "type": "function"
    },
    {
      "inputs": [
        {
          "internalType": "bytes32",
          "name": "role",
          "type": "bytes32"
        },
        {
          "internalType": "uint256",
          "name": "index",
          "type": "uint256"
        }
      ],
      "name": "getRoleMember",
      "outputs": [
        {
          "internalType": "address",
          "name": "",
          "type": "address"
        }
      ],
      "stateMutability": "view",
      "type": "function"
    },
    {
      "inputs": [
        {
          "internalType": "bytes32",
          "name": "role",
          "type": "bytes32"
        }
      ],
      "name": "getRoleMemberCount",
      "outputs": [
        {
          "internalType": "uint256",
          "name": "",
          "type": "uint256"
        }
      ],
      "stateMutability": "view",
      "type": "function"
    },
    {
      "inputs": [
        {
          "internalType": "bytes32",
          "name": "role",
          "type": "bytes32"
        },
        {
          "internalType": "address",
          "name": "account",
          "type": "address"
        }
      ],
      "name": "grantRole",
      "outputs": [],
      "stateMutability": "nonpayable",
      "type": "function"
    },
    {
      "inputs": [
        {
          "internalType": "bytes32",
          "name": "role",
          "type": "bytes32"
        },
        {
          "internalType": "address",
          "name": "account",
          "type": "address"
        }
      ],
      "name": "hasRole",
      "outputs": [
        {
          "internalType": "bool",
          "name": "",
          "type": "bool"
        }
      ],
      "stateMutability": "view",
      "type": "function"
    },
    {
      "inputs": [
        {
          "internalType": "address",
          "name": "spender",
          "type": "address"
        },
        {
          "internalType": "uint256",
          "name": "addedValue",
          "type": "uint256"
        }
      ],
      "name": "increaseAllowance",
      "outputs": [
        {
          "internalType": "bool",
          "name": "",
          "type": "bool"
        }
      ],
      "stateMutability": "nonpayable",
      "type": "function"
    },
    {
      "inputs": [],
      "name": "name",
      "outputs": [
        {
          "internalType": "string",
          "name": "",
          "type": "string"
        }
      ],
      "stateMutability": "view",
      "type": "function"
    },
    {
      "inputs": [],
      "name": "paused",
      "outputs": [
        {
          "internalType": "bool",
          "name": "",
          "type": "bool"
        }
      ],
      "stateMutability": "view",
      "type": "function"
    },
    {
      "inputs": [
        {
          "internalType": "bytes32",
          "name": "role",
          "type": "bytes32"
        },
        {
          "internalType": "address",
          "name": "account",
          "type": "address"
        }
      ],
      "name": "renounceRole",
      "outputs": [],
      "stateMutability": "nonpayable",
      "type": "function"
    },
    {
      "inputs": [
        {
          "internalType": "bytes32",
          "name": "role",
          "type": "bytes32"
        },
        {
          "internalType": "address",
          "name": "account",
          "type": "address"
        }
      ],
      "name": "revokeRole",
      "outputs": [],
      "stateMutability": "nonpayable",
      "type": "function"
    },
    {
      "inputs": [
        {
          "internalType": "bytes4",
          "name": "interfaceId",
          "type": "bytes4"
        }
      ],
      "name": "supportsInterface",
      "outputs": [
        {
          "internalType": "bool",
          "name": "",
          "type": "bool"
        }
      ],
      "stateMutability": "view",
      "type": "function"
    },
    {
      "inputs": [],
      "name": "symbol",
      "outputs": [
        {
          "internalType": "string",
          "name": "",
          "type": "string"
        }
      ],
      "stateMutability": "view",
      "type": "function"
    },
    {
      "inputs": [],
      "name": "totalSupply",
      "outputs": [
        {
          "internalType": "uint256",
          "name": "",
          "type": "uint256"
        }
      ],
      "stateMutability": "view",
      "type": "function"
    },
    {
      "inputs": [
        {
          "internalType": "address",
          "name": "recipient",
          "type": "address"
        },
        {
          "internalType": "uint256",
          "name": "amount",
          "type": "uint256"
        }
      ],
      "name": "transfer",
      "outputs": [
        {
          "internalType": "bool",
          "name": "",
          "type": "bool"
        }
      ],
      "stateMutability": "nonpayable",
      "type": "function"
    },
    {
      "inputs": [
        {
          "internalType": "address",
          "name": "sender",
          "type": "address"
        },
        {
          "internalType": "address",
          "name": "recipient",
          "type": "address"
        },
        {
          "internalType": "uint256",
          "name": "amount",
          "type": "uint256"
        }
      ],
      "name": "transferFrom",
      "outputs": [
        {
          "internalType": "bool",
          "name": "",
          "type": "bool"
        }
      ],
      "stateMutability": "nonpayable",
      "type": "function"
    },
    {
      "inputs": [],
      "name": "pause",
      "outputs": [],
      "stateMutability": "nonpayable",
      "type": "function"
    },
    {
      "inputs": [],
      "name": "unpause",
      "outputs": [],
      "stateMutability": "nonpayable",
      "type": "function"
    },
    {
      "inputs": [
        {
          "internalType": "address",
          "name": "account",
          "type": "address"
        }
      ],
      "name": "addRole",
      "outputs": [],
      "stateMutability": "nonpayable",
      "type": "function"
    },
    {
      "inputs": [],
      "name": "delRole",
      "outputs": [],
      "stateMutability": "nonpayable",
      "type": "function"
    },
    {
      "inputs": [
        {
          "internalType": "address",
          "name": "account",
          "type": "address"
        }
      ],
      "name": "isRole",
      "outputs": [
        {
          "internalType": "bool",
          "name": "",
          "type": "bool"
        }
      ],
      "stateMutability": "view",
      "type": "function"
    }
  ],
  "bytecode": "0x60806040523480156200001157600080fd5b5060405162003884380380620038848339818101604052810190620000379190620008df565b828281600590805190602001906200005192919062000657565b5080600690805190602001906200006a92919062000657565b5050506000600760006101000a81548160ff021916908315150217905550620000af33670de0b6b3a764000083620000a39190620009a8565b6200013460201b60201c565b620000c46000801b33620002ae60201b60201c565b620000f67f65d7a28e3265b37a6474929f336521b332c1681b933f6cb9f3376673440d862a33620002ae60201b60201c565b6200012b7f65d7a28e3265b37a6474929f336521b332c1681b933f6cb9f3376673440d862a6000801b620002c460201b60201c565b50505062000c14565b600073ffffffffffffffffffffffffffffffffffffffff168273ffffffffffffffffffffffffffffffffffffffff161415620001a7576040517f08c379a00000000000000000000000000000000000000000000000000000000081526004016200019e9062000a6a565b60405180910390fd5b620001bb600083836200032760201b60201c565b8060046000828254620001cf919062000a8c565b9250508190555080600260008473ffffffffffffffffffffffffffffffffffffffff1673ffffffffffffffffffffffffffffffffffffffff168152602001908152602001600020600082825462000227919062000a8c565b925050819055508173ffffffffffffffffffffffffffffffffffffffff16600073ffffffffffffffffffffffffffffffffffffffff167fddf252ad1be2c89b69c2b068fc378daa952ba7f163c4a11628f55a4df523b3ef836040516200028e919062000afa565b60405180910390a3620002aa600083836200039760201b60201c565b5050565b620002c082826200039c60201b60201c565b5050565b6000620002d783620003e460201b60201c565b905081600080858152602001908152602001600020600101819055508181847fbd79b86ffe0ab8e8776151514217cd7cacd52c909f66475c3af44e129f0b00ff60405160405180910390a4505050565b6200033f8383836200040360201b62000e6a1760201c565b6200034f6200040860201b60201c565b1562000392576040517f08c379a0000000000000000000000000000000000000000000000000000000008152600401620003899062000b8d565b60405180910390fd5b505050565b505050565b620003b382826200041f60201b62000e6f1760201c565b620003df81600160008581526020019081526020016000206200051060201b62000f4f1790919060201c565b505050565b6000806000838152602001908152602001600020600101549050919050565b505050565b6000600760009054906101000a900460ff16905090565b6200043182826200054860201b60201c565b6200050c57600160008084815260200190815260200160002060000160008373ffffffffffffffffffffffffffffffffffffffff1673ffffffffffffffffffffffffffffffffffffffff16815260200190815260200160002060006101000a81548160ff021916908315150217905550620004b1620005b260201b60201c565b73ffffffffffffffffffffffffffffffffffffffff168173ffffffffffffffffffffffffffffffffffffffff16837f2f8788117e7eff1d82e926ec794901d17c78024a50270940304540a733656f0d60405160405180910390a45b5050565b600062000540836000018373ffffffffffffffffffffffffffffffffffffffff1660001b620005ba60201b60201c565b905092915050565b600080600084815260200190815260200160002060000160008373ffffffffffffffffffffffffffffffffffffffff1673ffffffffffffffffffffffffffffffffffffffff16815260200190815260200160002060009054906101000a900460ff16905092915050565b600033905090565b6000620005ce83836200063460201b60201c565b620006295782600001829080600181540180825580915050600190039060005260206000200160009091909190915055826000018054905083600101600084815260200190815260200160002081905550600190506200062e565b600090505b92915050565b600080836001016000848152602001908152602001600020541415905092915050565b828054620006659062000bde565b90600052602060002090601f016020900481019282620006895760008555620006d5565b82601f10620006a457805160ff1916838001178555620006d5565b82800160010185558215620006d5579182015b82811115620006d4578251825591602001919060010190620006b7565b5b509050620006e49190620006e8565b5090565b5b8082111562000703576000816000905550600101620006e9565b5090565b6000604051905090565b600080fd5b600080fd5b600080fd5b600080fd5b6000601f19601f8301169050919050565b7f4e487b7100000000000000000000000000000000000000000000000000000000600052604160045260246000fd5b620007708262000725565b810181811067ffffffffffffffff8211171562000792576200079162000736565b5b80604052505050565b6000620007a762000707565b9050620007b5828262000765565b919050565b600067ffffffffffffffff821115620007d857620007d762000736565b5b620007e38262000725565b9050602081019050919050565b60005b8381101562000810578082015181840152602081019050620007f3565b8381111562000820576000848401525b50505050565b60006200083d6200083784620007ba565b6200079b565b9050828152602081018484840111156200085c576200085b62000720565b5b62000869848285620007f0565b509392505050565b600082601f8301126200088957620008886200071b565b5b81516200089b84826020860162000826565b91505092915050565b6000819050919050565b620008b981620008a4565b8114620008c557600080fd5b50565b600081519050620008d981620008ae565b92915050565b600080600060608486031215620008fb57620008fa62000711565b5b600084015167ffffffffffffffff8111156200091c576200091b62000716565b5b6200092a8682870162000871565b935050602084015167ffffffffffffffff8111156200094e576200094d62000716565b5b6200095c8682870162000871565b92505060406200096f86828701620008c8565b9150509250925092565b7f4e487b7100000000000000000000000000000000000000000000000000000000600052601160045260246000fd5b6000620009b582620008a4565b9150620009c283620008a4565b9250817fffffffffffffffffffffffffffffffffffffffffffffffffffffffffffffffff0483118215151615620009fe57620009fd62000979565b5b828202905092915050565b600082825260208201905092915050565b7f45524332303a206d696e7420746f20746865207a65726f206164647265737300600082015250565b600062000a52601f8362000a09565b915062000a5f8262000a1a565b602082019050919050565b6000602082019050818103600083015262000a858162000a43565b9050919050565b600062000a9982620008a4565b915062000aa683620008a4565b9250827fffffffffffffffffffffffffffffffffffffffffffffffffffffffffffffffff0382111562000ade5762000add62000979565b5b828201905092915050565b62000af481620008a4565b82525050565b600060208201905062000b11600083018462000ae9565b92915050565b7f45524332305061757361626c653a20746f6b656e207472616e7366657220776860008201527f696c652070617573656400000000000000000000000000000000000000000000602082015250565b600062000b75602a8362000a09565b915062000b828262000b17565b604082019050919050565b6000602082019050818103600083015262000ba88162000b66565b9050919050565b7f4e487b7100000000000000000000000000000000000000000000000000000000600052602260045260246000fd5b6000600282049050600182168062000bf757607f821691505b6020821081141562000c0e5762000c0d62000baf565b5b50919050565b612c608062000c246000396000f3fe608060405234801561001057600080fd5b50600436106101a95760003560e01c806370a08231116100f9578063a457c2d711610097578063d547741f11610071578063d547741f1461050a578063d801ef5014610526578063dd62ed3e14610530578063e63ab1e914610560576101a9565b8063a457c2d71461047a578063a9059cbb146104aa578063ca15c873146104da576101a9565b80639010d07c116100d35780639010d07c146103de57806391d148541461040e57806395d89b411461043e578063a217fddf1461045c576101a9565b806370a08231146103745780637beeb945146103a45780638456cb59146103d4576101a9565b80632f2ff15d11610166578063395093511161014057806339509351146103005780633f4ba83a146103305780633f877f721461033a5780635c975abb14610356576101a9565b80632f2ff15d146102aa578063313ce567146102c657806336568abe146102e4576101a9565b806301ffc9a7146101ae57806306fdde03146101de578063095ea7b3146101fc57806318160ddd1461022c57806323b872dd1461024a578063248a9ca31461027a575b600080fd5b6101c860048036038101906101c39190611d1d565b61057e565b6040516101d59190611d65565b60405180910390f35b6101e66105f8565b6040516101f39190611e19565b60405180910390f35b61021660048036038101906102119190611ecf565b61068a565b6040516102239190611d65565b60405180910390f35b6102346106a8565b6040516102419190611f1e565b60405180910390f35b610264600480360381019061025f9190611f39565b6106b2565b6040516102719190611d65565b60405180910390f35b610294600480360381019061028f9190611fc2565b6107aa565b6040516102a19190611ffe565b60405180910390f35b6102c460048036038101906102bf9190612019565b6107c9565b005b6102ce6107f2565b6040516102db9190612075565b60405180910390f35b6102fe60048036038101906102f99190612019565b6107fb565b005b61031a60048036038101906103159190611ecf565b61087e565b6040516103279190611d65565b60405180910390f35b61033861092a565b005b610354600480360381019061034f9190612090565b61099d565b005b61035e610a05565b60405161036b9190611d65565b60405180910390f35b61038e60048036038101906103899190612090565b610a1c565b60405161039b9190611f1e565b60405180910390f35b6103be60048036038101906103b99190612090565b610a65565b6040516103cb9190611d65565b60405180910390f35b6103dc610a98565b005b6103f860048036038101906103f391906120bd565b610b0b565b604051610405919061210c565b60405180910390f35b61042860048036038101906104239190612019565b610b3a565b6040516104359190611d65565b60405180910390f35b610446610ba4565b6040516104539190611e19565b60405180910390f35b610464610c36565b6040516104719190611ffe565b60405180910390f35b610494600480360381019061048f9190611ecf565b610c3d565b6040516104a19190611d65565b60405180910390f35b6104c460048036038101906104bf9190611ecf565b610d28565b6040516104d19190611d65565b60405180910390f35b6104f460048036038101906104ef9190611fc2565b610d46565b6040516105019190611f1e565b60405180910390f35b610524600480360381019061051f9190612019565b610d6a565b005b61052e610d93565b005b61054a60048036038101906105459190612127565b610dbf565b6040516105579190611f1e565b60405180910390f35b610568610e46565b6040516105759190611ffe565b60405180910390f35b60007f5a05180f000000000000000000000000000000000000000000000000000000007bffffffffffffffffffffffffffffffffffffffffffffffffffffffff1916827bffffffffffffffffffffffffffffffffffffffffffffffffffffffff191614806105f157506105f082610f7f565b5b9050919050565b60606005805461060790612196565b80601f016020809104026020016040519081016040528092919081815260200182805461063390612196565b80156106805780601f1061065557610100808354040283529160200191610680565b820191906000526020600020905b81548152906001019060200180831161066357829003601f168201915b5050505050905090565b600061069e610697610ff9565b8484611001565b6001905092915050565b6000600454905090565b60006106bf8484846111cc565b6000600360008673ffffffffffffffffffffffffffffffffffffffff1673ffffffffffffffffffffffffffffffffffffffff168152602001908152602001600020600061070a610ff9565b73ffffffffffffffffffffffffffffffffffffffff1673ffffffffffffffffffffffffffffffffffffffff1681526020019081526020016000205490508281101561078a576040517f08c379a00000000000000000000000000000000000000000000000000000000081526004016107819061223a565b60405180910390fd5b61079e85610796610ff9565b858403611001565b60019150509392505050565b6000806000838152602001908152602001600020600101549050919050565b6107d2826107aa565b6107e3816107de610ff9565b611450565b6107ed83836114ed565b505050565b60006012905090565b610803610ff9565b73ffffffffffffffffffffffffffffffffffffffff168173ffffffffffffffffffffffffffffffffffffffff1614610870576040517f08c379a0000000000000000000000000000000000000000000000000000000008152600401610867906122cc565b60405180910390fd5b61087a8282611521565b5050565b600061092061088b610ff9565b848460036000610899610ff9565b73ffffffffffffffffffffffffffffffffffffffff1673ffffffffffffffffffffffffffffffffffffffff16815260200190815260200160002060008873ffffffffffffffffffffffffffffffffffffffff1673ffffffffffffffffffffffffffffffffffffffff1681526020019081526020016000205461091b919061231b565b611001565b6001905092915050565b6109547f65d7a28e3265b37a6474929f336521b332c1681b933f6cb9f3376673440d862a33610b3a565b610993576040517f08c379a000000000000000000000000000000000000000000000000000000000815260040161098a906123e3565b60405180910390fd5b61099b611555565b565b6109c67f65d7a28e3265b37a6474929f336521b332c1681b933f6cb9f3376673440d862a6107aa565b6109d7816109d2610ff9565b611450565b610a017f65d7a28e3265b37a6474929f336521b332c1681b933f6cb9f3376673440d862a836114ed565b5050565b6000600760009054906101000a900460ff16905090565b6000600260008373ffffffffffffffffffffffffffffffffffffffff1673ffffffffffffffffffffffffffffffffffffffff168152602001908152602001600020549050919050565b6000610a917f65d7a28e3265b37a6474929f336521b332c1681b933f6cb9f3376673440d862a83610b3a565b9050919050565b610ac27f65d7a28e3265b37a6474929f336521b332c1681b933f6cb9f3376673440d862a33610b3a565b610b01576040517f08c379a0000000000000000000000000000000000000000000000000000000008152600401610af890612475565b60405180910390fd5b610b096115f7565b565b6000610b32826001600086815260200190815260200160002061169a90919063ffffffff16565b905092915050565b600080600084815260200190815260200160002060000160008373ffffffffffffffffffffffffffffffffffffffff1673ffffffffffffffffffffffffffffffffffffffff16815260200190815260200160002060009054906101000a900460ff16905092915050565b606060068054610bb390612196565b80601f0160208091040260200160405190810160405280929190818152602001828054610bdf90612196565b8015610c2c5780601f10610c0157610100808354040283529160200191610c2c565b820191906000526020600020905b815481529060010190602001808311610c0f57829003601f168201915b5050505050905090565b6000801b81565b60008060036000610c4c610ff9565b73ffffffffffffffffffffffffffffffffffffffff1673ffffffffffffffffffffffffffffffffffffffff16815260200190815260200160002060008573ffffffffffffffffffffffffffffffffffffffff1673ffffffffffffffffffffffffffffffffffffffff16815260200190815260200160002054905082811015610d09576040517f08c379a0000000000000000000000000000000000000000000000000000000008152600401610d0090612507565b60405180910390fd5b610d1d610d14610ff9565b85858403611001565b600191505092915050565b6000610d3c610d35610ff9565b84846111cc565b6001905092915050565b6000610d63600160008481526020019081526020016000206116b4565b9050919050565b610d73826107aa565b610d8481610d7f610ff9565b611450565b610d8e8383611521565b505050565b610dbd7f65d7a28e3265b37a6474929f336521b332c1681b933f6cb9f3376673440d862a33611521565b565b6000600360008473ffffffffffffffffffffffffffffffffffffffff1673ffffffffffffffffffffffffffffffffffffffff16815260200190815260200160002060008373ffffffffffffffffffffffffffffffffffffffff1673ffffffffffffffffffffffffffffffffffffffff16815260200190815260200160002054905092915050565b7f65d7a28e3265b37a6474929f336521b332c1681b933f6cb9f3376673440d862a81565b505050565b610e798282610b3a565b610f4b57600160008084815260200190815260200160002060000160008373ffffffffffffffffffffffffffffffffffffffff1673ffffffffffffffffffffffffffffffffffffffff16815260200190815260200160002060006101000a81548160ff021916908315150217905550610ef0610ff9565b73ffffffffffffffffffffffffffffffffffffffff168173ffffffffffffffffffffffffffffffffffffffff16837f2f8788117e7eff1d82e926ec794901d17c78024a50270940304540a733656f0d60405160405180910390a45b5050565b6000610f77836000018373ffffffffffffffffffffffffffffffffffffffff1660001b6116c9565b905092915050565b60007f7965db0b000000000000000000000000000000000000000000000000000000007bffffffffffffffffffffffffffffffffffffffffffffffffffffffff1916827bffffffffffffffffffffffffffffffffffffffffffffffffffffffff19161480610ff25750610ff182611739565b5b9050919050565b600033905090565b600073ffffffffffffffffffffffffffffffffffffffff168373ffffffffffffffffffffffffffffffffffffffff161415611071576040517f08c379a000000000000000000000000000000000000000000000000000000000815260040161106890612599565b60405180910390fd5b600073ffffffffffffffffffffffffffffffffffffffff168273ffffffffffffffffffffffffffffffffffffffff1614156110e1576040517f08c379a00000000000000000000000000000000000000000000000000000000081526004016110d89061262b565b60405180910390fd5b80600360008573ffffffffffffffffffffffffffffffffffffffff1673ffffffffffffffffffffffffffffffffffffffff16815260200190815260200160002060008473ffffffffffffffffffffffffffffffffffffffff1673ffffffffffffffffffffffffffffffffffffffff168152602001908152602001600020819055508173ffffffffffffffffffffffffffffffffffffffff168373ffffffffffffffffffffffffffffffffffffffff167f8c5be1e5ebec7d5bd14f71427d1e84f3dd0314c0f7b2291e5b200ac8c7c3b925836040516111bf9190611f1e565b60405180910390a3505050565b600073ffffffffffffffffffffffffffffffffffffffff168373ffffffffffffffffffffffffffffffffffffffff16141561123c576040517f08c379a0000000000000000000000000000000000000000000000000000000008152600401611233906126bd565b60405180910390fd5b600073ffffffffffffffffffffffffffffffffffffffff168273ffffffffffffffffffffffffffffffffffffffff1614156112ac576040517f08c379a00000000000000000000000000000000000000000000000000000000081526004016112a39061274f565b60405180910390fd5b6112b78383836117a3565b6000600260008573ffffffffffffffffffffffffffffffffffffffff1673ffffffffffffffffffffffffffffffffffffffff1681526020019081526020016000205490508181101561133e576040517f08c379a0000000000000000000000000000000000000000000000000000000008152600401611335906127e1565b60405180910390fd5b818103600260008673ffffffffffffffffffffffffffffffffffffffff1673ffffffffffffffffffffffffffffffffffffffff1681526020019081526020016000208190555081600260008573ffffffffffffffffffffffffffffffffffffffff1673ffffffffffffffffffffffffffffffffffffffff16815260200190815260200160002060008282546113d3919061231b565b925050819055508273ffffffffffffffffffffffffffffffffffffffff168473ffffffffffffffffffffffffffffffffffffffff167fddf252ad1be2c89b69c2b068fc378daa952ba7f163c4a11628f55a4df523b3ef846040516114379190611f1e565b60405180910390a361144a8484846117fb565b50505050565b61145a8282610b3a565b6114e95761147f8173ffffffffffffffffffffffffffffffffffffffff166014611800565b61148d8360001c6020611800565b60405160200161149e9291906128d5565b6040516020818303038152906040526040517f08c379a00000000000000000000000000000000000000000000000000000000081526004016114e09190611e19565b60405180910390fd5b5050565b6114f78282610e6f565b61151c8160016000858152602001908152602001600020610f4f90919063ffffffff16565b505050565b61152b8282611a3c565b6115508160016000858152602001908152602001600020611b1d90919063ffffffff16565b505050565b61155d610a05565b61159c576040517f08c379a00000000000000000000000000000000000000000000000000000000081526004016115939061295b565b60405180910390fd5b6000600760006101000a81548160ff0219169083151502179055507f5db9ee0a495bf2e6ff9c91a7834c1ba4fdd244a5e8aa4e537bd38aeae4b073aa6115e0610ff9565b6040516115ed919061210c565b60405180910390a1565b6115ff610a05565b1561163f576040517f08c379a0000000000000000000000000000000000000000000000000000000008152600401611636906129c7565b60405180910390fd5b6001600760006101000a81548160ff0219169083151502179055507f62e78cea01bee320cd4e420270b5ea74000d11b0c9f74754ebdbfc544b05a258611683610ff9565b604051611690919061210c565b60405180910390a1565b60006116a98360000183611b4d565b60001c905092915050565b60006116c282600001611b78565b9050919050565b60006116d58383611b89565b61172e578260000182908060018154018082558091505060019003906000526020600020016000909190919091505582600001805490508360010160008481526020019081526020016000208190555060019050611733565b600090505b92915050565b60007f01ffc9a7000000000000000000000000000000000000000000000000000000007bffffffffffffffffffffffffffffffffffffffffffffffffffffffff1916827bffffffffffffffffffffffffffffffffffffffffffffffffffffffff1916149050919050565b6117ae838383610e6a565b6117b6610a05565b156117f6576040517f08c379a00000000000000000000000000000000000000000000000000000000081526004016117ed90612a59565b60405180910390fd5b505050565b505050565b6060600060028360026118139190612a79565b61181d919061231b565b67ffffffffffffffff81111561183657611835612ad3565b5b6040519080825280601f01601f1916602001820160405280156118685781602001600182028036833780820191505090505b5090507f3000000000000000000000000000000000000000000000000000000000000000816000815181106118a05761189f612b02565b5b60200101907effffffffffffffffffffffffffffffffffffffffffffffffffffffffffffff1916908160001a9053507f78000000000000000000000000000000000000000000000000000000000000008160018151811061190457611903612b02565b5b60200101907effffffffffffffffffffffffffffffffffffffffffffffffffffffffffffff1916908160001a905350600060018460026119449190612a79565b61194e919061231b565b90505b60018111156119ee577f3031323334353637383961626364656600000000000000000000000000000000600f8616601081106119905761198f612b02565b5b1a60f81b8282815181106119a7576119a6612b02565b5b60200101907effffffffffffffffffffffffffffffffffffffffffffffffffffffffffffff1916908160001a905350600485901c9450806119e790612b31565b9050611951565b5060008414611a32576040517f08c379a0000000000000000000000000000000000000000000000000000000008152600401611a2990612ba7565b60405180910390fd5b8091505092915050565b611a468282610b3a565b15611b1957600080600084815260200190815260200160002060000160008373ffffffffffffffffffffffffffffffffffffffff1673ffffffffffffffffffffffffffffffffffffffff16815260200190815260200160002060006101000a81548160ff021916908315150217905550611abe610ff9565b73ffffffffffffffffffffffffffffffffffffffff168173ffffffffffffffffffffffffffffffffffffffff16837ff6391f5c32d9c69d2a47ea670b442974b53935d1edc7fd64eb21e047a839171b60405160405180910390a45b5050565b6000611b45836000018373ffffffffffffffffffffffffffffffffffffffff1660001b611bac565b905092915050565b6000826000018281548110611b6557611b64612b02565b5b9060005260206000200154905092915050565b600081600001805490509050919050565b600080836001016000848152602001908152602001600020541415905092915050565b60008083600101600084815260200190815260200160002054905060008114611cb4576000600182611bde9190612bc7565b9050600060018660000180549050611bf69190612bc7565b9050818114611c65576000866000018281548110611c1757611c16612b02565b5b9060005260206000200154905080876000018481548110611c3b57611c3a612b02565b5b90600052602060002001819055508387600101600083815260200190815260200160002081905550505b85600001805480611c7957611c78612bfb565b5b600190038181906000526020600020016000905590558560010160008681526020019081526020016000206000905560019350505050611cba565b60009150505b92915050565b600080fd5b60007fffffffff0000000000000000000000000000000000000000000000000000000082169050919050565b611cfa81611cc5565b8114611d0557600080fd5b50565b600081359050611d1781611cf1565b92915050565b600060208284031215611d3357611d32611cc0565b5b6000611d4184828501611d08565b91505092915050565b60008115159050919050565b611d5f81611d4a565b82525050565b6000602082019050611d7a6000830184611d56565b92915050565b600081519050919050565b600082825260208201905092915050565b60005b83811015611dba578082015181840152602081019050611d9f565b83811115611dc9576000848401525b50505050565b6000601f19601f8301169050919050565b6000611deb82611d80565b611df58185611d8b565b9350611e05818560208601611d9c565b611e0e81611dcf565b840191505092915050565b60006020820190508181036000830152611e338184611de0565b905092915050565b600073ffffffffffffffffffffffffffffffffffffffff82169050919050565b6000611e6682611e3b565b9050919050565b611e7681611e5b565b8114611e8157600080fd5b50565b600081359050611e9381611e6d565b92915050565b6000819050919050565b611eac81611e99565b8114611eb757600080fd5b50565b600081359050611ec981611ea3565b92915050565b60008060408385031215611ee657611ee5611cc0565b5b6000611ef485828601611e84565b9250506020611f0585828601611eba565b9150509250929050565b611f1881611e99565b82525050565b6000602082019050611f336000830184611f0f565b92915050565b600080600060608486031215611f5257611f51611cc0565b5b6000611f6086828701611e84565b9350506020611f7186828701611e84565b9250506040611f8286828701611eba565b9150509250925092565b6000819050919050565b611f9f81611f8c565b8114611faa57600080fd5b50565b600081359050611fbc81611f96565b92915050565b600060208284031215611fd857611fd7611cc0565b5b6000611fe684828501611fad565b91505092915050565b611ff881611f8c565b82525050565b60006020820190506120136000830184611fef565b92915050565b600080604083850312156120305761202f611cc0565b5b600061203e85828601611fad565b925050602061204f85828601611e84565b9150509250929050565b600060ff82169050919050565b61206f81612059565b82525050565b600060208201905061208a6000830184612066565b92915050565b6000602082840312156120a6576120a5611cc0565b5b60006120b484828501611e84565b91505092915050565b600080604083850312156120d4576120d3611cc0565b5b60006120e285828601611fad565b92505060206120f385828601611eba565b9150509250929050565b61210681611e5b565b82525050565b600060208201905061212160008301846120fd565b92915050565b6000806040838503121561213e5761213d611cc0565b5b600061214c85828601611e84565b925050602061215d85828601611e84565b9150509250929050565b7f4e487b7100000000000000000000000000000000000000000000000000000000600052602260045260246000fd5b600060028204905060018216806121ae57607f821691505b602082108114156121c2576121c1612167565b5b50919050565b7f45524332303a207472616e7366657220616d6f756e742065786365656473206160008201527f6c6c6f77616e6365000000000000000000000000000000000000000000000000602082015250565b6000612224602883611d8b565b915061222f826121c8565b604082019050919050565b6000602082019050818103600083015261225381612217565b9050919050565b7f416363657373436f6e74726f6c3a2063616e206f6e6c792072656e6f756e636560008201527f20726f6c657320666f722073656c660000000000000000000000000000000000602082015250565b60006122b6602f83611d8b565b91506122c18261225a565b604082019050919050565b600060208201905081810360008301526122e5816122a9565b9050919050565b7f4e487b7100000000000000000000000000000000000000000000000000000000600052601160045260246000fd5b600061232682611e99565b915061233183611e99565b9250827fffffffffffffffffffffffffffffffffffffffffffffffffffffffffffffffff03821115612366576123656122ec565b5b828201905092915050565b7f45524332305072657365744d696e7465725061757365723a206d75737420686160008201527f76652070617573657220726f6c6520746f20756e706175736500000000000000602082015250565b60006123cd603983611d8b565b91506123d882612371565b604082019050919050565b600060208201905081810360008301526123fc816123c0565b9050919050565b7f45524332305072657365744d696e7465725061757365723a206d75737420686160008201527f76652070617573657220726f6c6520746f207061757365000000000000000000602082015250565b600061245f603783611d8b565b915061246a82612403565b604082019050919050565b6000602082019050818103600083015261248e81612452565b9050919050565b7f45524332303a2064656372656173656420616c6c6f77616e63652062656c6f7760008201527f207a65726f000000000000000000000000000000000000000000000000000000602082015250565b60006124f1602583611d8b565b91506124fc82612495565b604082019050919050565b60006020820190508181036000830152612520816124e4565b9050919050565b7f45524332303a20617070726f76652066726f6d20746865207a65726f2061646460008201527f7265737300000000000000000000000000000000000000000000000000000000602082015250565b6000612583602483611d8b565b915061258e82612527565b604082019050919050565b600060208201905081810360008301526125b281612576565b9050919050565b7f45524332303a20617070726f766520746f20746865207a65726f20616464726560008201527f7373000000000000000000000000000000000000000000000000000000000000602082015250565b6000612615602283611d8b565b9150612620826125b9565b604082019050919050565b6000602082019050818103600083015261264481612608565b9050919050565b7f45524332303a207472616e736665722066726f6d20746865207a65726f20616460008201527f6472657373000000000000000000000000000000000000000000000000000000602082015250565b60006126a7602583611d8b565b91506126b28261264b565b604082019050919050565b600060208201905081810360008301526126d68161269a565b9050919050565b7f45524332303a207472616e7366657220746f20746865207a65726f206164647260008201527f6573730000000000000000000000000000000000000000000000000000000000602082015250565b6000612739602383611d8b565b9150612744826126dd565b604082019050919050565b600060208201905081810360008301526127688161272c565b9050919050565b7f45524332303a207472616e7366657220616d6f756e742065786365656473206260008201527f616c616e63650000000000000000000000000000000000000000000000000000602082015250565b60006127cb602683611d8b565b91506127d68261276f565b604082019050919050565b600060208201905081810360008301526127fa816127be565b9050919050565b600081905092915050565b7f416363657373436f6e74726f6c3a206163636f756e7420000000000000000000600082015250565b6000612842601783612801565b915061284d8261280c565b601782019050919050565b600061286382611d80565b61286d8185612801565b935061287d818560208601611d9c565b80840191505092915050565b7f206973206d697373696e6720726f6c6520000000000000000000000000000000600082015250565b60006128bf601183612801565b91506128ca82612889565b601182019050919050565b60006128e082612835565b91506128ec8285612858565b91506128f7826128b2565b91506129038284612858565b91508190509392505050565b7f5061757361626c653a206e6f7420706175736564000000000000000000000000600082015250565b6000612945601483611d8b565b91506129508261290f565b602082019050919050565b6000602082019050818103600083015261297481612938565b9050919050565b7f5061757361626c653a2070617573656400000000000000000000000000000000600082015250565b60006129b1601083611d8b565b91506129bc8261297b565b602082019050919050565b600060208201905081810360008301526129e0816129a4565b9050919050565b7f45524332305061757361626c653a20746f6b656e207472616e7366657220776860008201527f696c652070617573656400000000000000000000000000000000000000000000602082015250565b6000612a43602a83611d8b565b9150612a4e826129e7565b604082019050919050565b60006020820190508181036000830152612a7281612a36565b9050919050565b6000612a8482611e99565b9150612a8f83611e99565b9250817fffffffffffffffffffffffffffffffffffffffffffffffffffffffffffffffff0483118215151615612ac857612ac76122ec565b5b828202905092915050565b7f4e487b7100000000000000000000000000000000000000000000000000000000600052604160045260246000fd5b7f4e487b7100000000000000000000000000000000000000000000000000000000600052603260045260246000fd5b6000612b3c82611e99565b91506000821415612b5057612b4f6122ec565b5b600182039050919050565b7f537472696e67733a20686578206c656e67746820696e73756666696369656e74600082015250565b6000612b91602083611d8b565b9150612b9c82612b5b565b602082019050919050565b60006020820190508181036000830152612bc081612b84565b9050919050565b6000612bd282611e99565b9150612bdd83611e99565b925082821015612bf057612bef6122ec565b5b828203905092915050565b7f4e487b7100000000000000000000000000000000000000000000000000000000600052603160045260246000fdfea2646970667358221220ec6c873816e330cb4e728a6e04315e06926fd25a7433f383bc64015588d4b96a64736f6c634300080a0033",
  "immutableReferences": {},
  "source": "// SPDX-License-Identifier: MIT\npragma solidity ^0.8.0;\n\nimport \"@openzeppelin/contracts/token/ERC20/ERC20.sol\";\nimport \"@openzeppelin/contracts/token/ERC20/extensions/ERC20Pausable.sol\";\nimport \"@openzeppelin/contracts/access/AccessControlEnumerable.sol\";\n\n//\ncontract ERC20WithPausable is AccessControlEnumerable, ERC20Pausable {\n    bytes32 public constant PAUSER_ROLE = keccak256(\"PAUSER_ROLE\");\n\n    constructor(\n        string memory name, //\n        string memory symbol, //\n        uint256 totalSupply //\n    ) ERC20(name, symbol) {\n        _mint(msg.sender, totalSupply * 10**18);\n\n        _setupRole(DEFAULT_ADMIN_ROLE, msg.sender);\n        _setupRole(PAUSER_ROLE, msg.sender);\n        _setRoleAdmin(PAUSER_ROLE, DEFAULT_ADMIN_ROLE);\n    }\n\n    /**\n     * @dev Pauses all token transfers.\n     *\n     * See {ERC20Pausable} and {Pausable-_pause}.\n     *\n     * Requirements:\n     *\n     * - the caller must have the `PAUSER_ROLE`.\n     */\n    function pause() public virtual {\n        require(\n            hasRole(PAUSER_ROLE, msg.sender),\n            \"ERC20PresetMinterPauser: must have pauser role to pause\"\n        );\n        _pause();\n    }\n\n    /**\n     * @dev Unpauses all token transfers.\n     *\n     * See {ERC20Pausable} and {Pausable-_unpause}.\n     *\n     * Requirements:\n     *\n     * - the caller must have the `PAUSER_ROLE`.\n     */\n    function unpause() public virtual {\n        require(\n            hasRole(PAUSER_ROLE, msg.sender),\n            \"ERC20PresetMinterPauser: must have pauser role to unpause\"\n        );\n        _unpause();\n    }\n\n    function addRole(address account)\n        external\n        onlyRole(getRoleAdmin(PAUSER_ROLE))\n    {\n        _grantRole(PAUSER_ROLE, account);\n    }\n\n    function delRole() external {\n        _revokeRole(PAUSER_ROLE, msg.sender);\n    }\n\n    function isRole(address account) external view returns (bool) {\n        return hasRole(PAUSER_ROLE, account);\n    }\n}\n",
  "sourcePath": "/Users/q/study/ethereum/mint-coin/contracts/ERC20/ERC20WithPausable.sol",
  "compiler": {
    "name": "solc",
    "version": "0.8.10+commit.fc410830.Emscripten.clang"
  },
  "schemaVersion": "3.4.1",
  "updatedAt": "2021-12-10T13:15:37.821Z",
  "devdoc": {
    "kind": "dev",
    "methods": {
      "allowance(address,address)": {
        "details": "See {IERC20-allowance}."
      },
      "approve(address,uint256)": {
        "details": "See {IERC20-approve}. Requirements: - `spender` cannot be the zero address."
      },
      "balanceOf(address)": {
        "details": "See {IERC20-balanceOf}."
      },
      "decimals()": {
        "details": "Returns the number of decimals used to get its user representation. For example, if `decimals` equals `2`, a balance of `505` tokens should be displayed to a user as `5.05` (`505 / 10 ** 2`). Tokens usually opt for a value of 18, imitating the relationship between Ether and Wei. This is the value {ERC20} uses, unless this function is overridden; NOTE: This information is only used for _display_ purposes: it in no way affects any of the arithmetic of the contract, including {IERC20-balanceOf} and {IERC20-transfer}."
      },
      "decreaseAllowance(address,uint256)": {
        "details": "Atomically decreases the allowance granted to `spender` by the caller. This is an alternative to {approve} that can be used as a mitigation for problems described in {IERC20-approve}. Emits an {Approval} event indicating the updated allowance. Requirements: - `spender` cannot be the zero address. - `spender` must have allowance for the caller of at least `subtractedValue`."
      },
      "getRoleAdmin(bytes32)": {
        "details": "Returns the admin role that controls `role`. See {grantRole} and {revokeRole}. To change a role's admin, use {_setRoleAdmin}."
      },
      "getRoleMember(bytes32,uint256)": {
        "details": "Returns one of the accounts that have `role`. `index` must be a value between 0 and {getRoleMemberCount}, non-inclusive. Role bearers are not sorted in any particular way, and their ordering may change at any point. WARNING: When using {getRoleMember} and {getRoleMemberCount}, make sure you perform all queries on the same block. See the following https://forum.openzeppelin.com/t/iterating-over-elements-on-enumerableset-in-openzeppelin-contracts/2296[forum post] for more information."
      },
      "getRoleMemberCount(bytes32)": {
        "details": "Returns the number of accounts that have `role`. Can be used together with {getRoleMember} to enumerate all bearers of a role."
      },
      "grantRole(bytes32,address)": {
        "details": "Grants `role` to `account`. If `account` had not been already granted `role`, emits a {RoleGranted} event. Requirements: - the caller must have ``role``'s admin role."
      },
      "hasRole(bytes32,address)": {
        "details": "Returns `true` if `account` has been granted `role`."
      },
      "increaseAllowance(address,uint256)": {
        "details": "Atomically increases the allowance granted to `spender` by the caller. This is an alternative to {approve} that can be used as a mitigation for problems described in {IERC20-approve}. Emits an {Approval} event indicating the updated allowance. Requirements: - `spender` cannot be the zero address."
      },
      "name()": {
        "details": "Returns the name of the token."
      },
      "pause()": {
        "details": "Pauses all token transfers. See {ERC20Pausable} and {Pausable-_pause}. Requirements: - the caller must have the `PAUSER_ROLE`."
      },
      "paused()": {
        "details": "Returns true if the contract is paused, and false otherwise."
      },
      "renounceRole(bytes32,address)": {
        "details": "Revokes `role` from the calling account. Roles are often managed via {grantRole} and {revokeRole}: this function's purpose is to provide a mechanism for accounts to lose their privileges if they are compromised (such as when a trusted device is misplaced). If the calling account had been revoked `role`, emits a {RoleRevoked} event. Requirements: - the caller must be `account`."
      },
      "revokeRole(bytes32,address)": {
        "details": "Revokes `role` from `account`. If `account` had been granted `role`, emits a {RoleRevoked} event. Requirements: - the caller must have ``role``'s admin role."
      },
      "supportsInterface(bytes4)": {
        "details": "See {IERC165-supportsInterface}."
      },
      "symbol()": {
        "details": "Returns the symbol of the token, usually a shorter version of the name."
      },
      "totalSupply()": {
        "details": "See {IERC20-totalSupply}."
      },
      "transfer(address,uint256)": {
        "details": "See {IERC20-transfer}. Requirements: - `recipient` cannot be the zero address. - the caller must have a balance of at least `amount`."
      },
      "transferFrom(address,address,uint256)": {
        "details": "See {IERC20-transferFrom}. Emits an {Approval} event indicating the updated allowance. This is not required by the EIP. See the note at the beginning of {ERC20}. Requirements: - `sender` and `recipient` cannot be the zero address. - `sender` must have a balance of at least `amount`. - the caller must have allowance for ``sender``'s tokens of at least `amount`."
      },
      "unpause()": {
        "details": "Unpauses all token transfers. See {ERC20Pausable} and {Pausable-_unpause}. Requirements: - the caller must have the `PAUSER_ROLE`."
      }
    },
    "version": 1
  },
  "userdoc": {
    "kind": "user",
    "methods": {},
    "version": 1
  }
}