{
  "contractName": "ERC20WithCapped",
  "abi": [
    {
      "inputs": [
        {
          "internalType": "string",
          "name": "name",
          "type": "string"
        },
        {
          "internalType": "string",
          "name": "symbol",
          "type": "string"
        },
        {
          "internalType": "uint256",
          "name": "initalSupply",
          "type": "uint256"
        },
        {
          "internalType": "uint256",
          "name": "cap",
          "type": "uint256"
        }
      ],
      "stateMutability": "nonpayable",
      "type": "constructor"
    },
    {
      "anonymous": false,
      "inputs": [
        {
          "indexed": true,
          "internalType": "address",
          "name": "owner",
          "type": "address"
        },
        {
          "indexed": true,
          "internalType": "address",
          "name": "spender",
          "type": "address"
        },
        {
          "indexed": false,
          "internalType": "uint256",
          "name": "value",
          "type": "uint256"
        }
      ],
      "name": "Approval",
      "type": "event"
    },
    {
      "anonymous": false,
      "inputs": [
        {
          "indexed": true,
          "internalType": "bytes32",
          "name": "role",
          "type": "bytes32"
        },
        {
          "indexed": true,
          "internalType": "bytes32",
          "name": "previousAdminRole",
          "type": "bytes32"
        },
        {
          "indexed": true,
          "internalType": "bytes32",
          "name": "newAdminRole",
          "type": "bytes32"
        }
      ],
      "name": "RoleAdminChanged",
      "type": "event"
    },
    {
      "anonymous": false,
      "inputs": [
        {
          "indexed": true,
          "internalType": "bytes32",
          "name": "role",
          "type": "bytes32"
        },
        {
          "indexed": true,
          "internalType": "address",
          "name": "account",
          "type": "address"
        },
        {
          "indexed": true,
          "internalType": "address",
          "name": "sender",
          "type": "address"
        }
      ],
      "name": "RoleGranted",
      "type": "event"
    },
    {
      "anonymous": false,
      "inputs": [
        {
          "indexed": true,
          "internalType": "bytes32",
          "name": "role",
          "type": "bytes32"
        },
        {
          "indexed": true,
          "internalType": "address",
          "name": "account",
          "type": "address"
        },
        {
          "indexed": true,
          "internalType": "address",
          "name": "sender",
          "type": "address"
        }
      ],
      "name": "RoleRevoked",
      "type": "event"
    },
    {
      "anonymous": false,
      "inputs": [
        {
          "indexed": true,
          "internalType": "address",
          "name": "from",
          "type": "address"
        },
        {
          "indexed": true,
          "internalType": "address",
          "name": "to",
          "type": "address"
        },
        {
          "indexed": false,
          "internalType": "uint256",
          "name": "value",
          "type": "uint256"
        }
      ],
      "name": "Transfer",
      "type": "event"
    },
    {
      "inputs": [],
      "name": "DEFAULT_ADMIN_ROLE",
      "outputs": [
        {
          "internalType": "bytes32",
          "name": "",
          "type": "bytes32"
        }
      ],
      "stateMutability": "view",
      "type": "function"
    },
    {
      "inputs": [],
      "name": "MINTER_ROLE",
      "outputs": [
        {
          "internalType": "bytes32",
          "name": "",
          "type": "bytes32"
        }
      ],
      "stateMutability": "view",
      "type": "function"
    },
    {
      "inputs": [
        {
          "internalType": "address",
          "name": "owner",
          "type": "address"
        },
        {
          "internalType": "address",
          "name": "spender",
          "type": "address"
        }
      ],
      "name": "allowance",
      "outputs": [
        {
          "internalType": "uint256",
          "name": "",
          "type": "uint256"
        }
      ],
      "stateMutability": "view",
      "type": "function"
    },
    {
      "inputs": [
        {
          "internalType": "address",
          "name": "spender",
          "type": "address"
        },
        {
          "internalType": "uint256",
          "name": "amount",
          "type": "uint256"
        }
      ],
      "name": "approve",
      "outputs": [
        {
          "internalType": "bool",
          "name": "",
          "type": "bool"
        }
      ],
      "stateMutability": "nonpayable",
      "type": "function"
    },
    {
      "inputs": [
        {
          "internalType": "address",
          "name": "account",
          "type": "address"
        }
      ],
      "name": "balanceOf",
      "outputs": [
        {
          "internalType": "uint256",
          "name": "",
          "type": "uint256"
        }
      ],
      "stateMutability": "view",
      "type": "function"
    },
    {
      "inputs": [],
      "name": "cap",
      "outputs": [
        {
          "internalType": "uint256",
          "name": "",
          "type": "uint256"
        }
      ],
      "stateMutability": "view",
      "type": "function"
    },
    {
      "inputs": [],
      "name": "decimals",
      "outputs": [
        {
          "internalType": "uint8",
          "name": "",
          "type": "uint8"
        }
      ],
      "stateMutability": "view",
      "type": "function"
    },
    {
      "inputs": [
        {
          "internalType": "address",
          "name": "spender",
          "type": "address"
        },
        {
          "internalType": "uint256",
          "name": "subtractedValue",
          "type": "uint256"
        }
      ],
      "name": "decreaseAllowance",
      "outputs": [
        {
          "internalType": "bool",
          "name": "",
          "type": "bool"
        }
      ],
      "stateMutability": "nonpayable",
      "type": "function"
    },
    {
      "inputs": [
        {
          "internalType": "bytes32",
          "name": "role",
          "type": "bytes32"
        }
      ],
      "name": "getRoleAdmin",
      "outputs": [
        {
          "internalType": "bytes32",
          "name": "",
          "type": "bytes32"
        }
      ],
      "stateMutability": "view",
      "type": "function"
    },
    {
      "inputs": [
        {
          "internalType": "bytes32",
          "name": "role",
          "type": "bytes32"
        },
        {
          "internalType": "uint256",
          "name": "index",
          "type": "uint256"
        }
      ],
      "name": "getRoleMember",
      "outputs": [
        {
          "internalType": "address",
          "name": "",
          "type": "address"
        }
      ],
      "stateMutability": "view",
      "type": "function"
    },
    {
      "inputs": [
        {
          "internalType": "bytes32",
          "name": "role",
          "type": "bytes32"
        }
      ],
      "name": "getRoleMemberCount",
      "outputs": [
        {
          "internalType": "uint256",
          "name": "",
          "type": "uint256"
        }
      ],
      "stateMutability": "view",
      "type": "function"
    },
    {
      "inputs": [
        {
          "internalType": "bytes32",
          "name": "role",
          "type": "bytes32"
        },
        {
          "internalType": "address",
          "name": "account",
          "type": "address"
        }
      ],
      "name": "grantRole",
      "outputs": [],
      "stateMutability": "nonpayable",
      "type": "function"
    },
    {
      "inputs": [
        {
          "internalType": "bytes32",
          "name": "role",
          "type": "bytes32"
        },
        {
          "internalType": "address",
          "name": "account",
          "type": "address"
        }
      ],
      "name": "hasRole",
      "outputs": [
        {
          "internalType": "bool",
          "name": "",
          "type": "bool"
        }
      ],
      "stateMutability": "view",
      "type": "function"
    },
    {
      "inputs": [
        {
          "internalType": "address",
          "name": "spender",
          "type": "address"
        },
        {
          "internalType": "uint256",
          "name": "addedValue",
          "type": "uint256"
        }
      ],
      "name": "increaseAllowance",
      "outputs": [
        {
          "internalType": "bool",
          "name": "",
          "type": "bool"
        }
      ],
      "stateMutability": "nonpayable",
      "type": "function"
    },
    {
      "inputs": [],
      "name": "name",
      "outputs": [
        {
          "internalType": "string",
          "name": "",
          "type": "string"
        }
      ],
      "stateMutability": "view",
      "type": "function"
    },
    {
      "inputs": [
        {
          "internalType": "bytes32",
          "name": "role",
          "type": "bytes32"
        },
        {
          "internalType": "address",
          "name": "account",
          "type": "address"
        }
      ],
      "name": "renounceRole",
      "outputs": [],
      "stateMutability": "nonpayable",
      "type": "function"
    },
    {
      "inputs": [
        {
          "internalType": "bytes32",
          "name": "role",
          "type": "bytes32"
        },
        {
          "internalType": "address",
          "name": "account",
          "type": "address"
        }
      ],
      "name": "revokeRole",
      "outputs": [],
      "stateMutability": "nonpayable",
      "type": "function"
    },
    {
      "inputs": [
        {
          "internalType": "bytes4",
          "name": "interfaceId",
          "type": "bytes4"
        }
      ],
      "name": "supportsInterface",
      "outputs": [
        {
          "internalType": "bool",
          "name": "",
          "type": "bool"
        }
      ],
      "stateMutability": "view",
      "type": "function"
    },
    {
      "inputs": [],
      "name": "symbol",
      "outputs": [
        {
          "internalType": "string",
          "name": "",
          "type": "string"
        }
      ],
      "stateMutability": "view",
      "type": "function"
    },
    {
      "inputs": [],
      "name": "totalSupply",
      "outputs": [
        {
          "internalType": "uint256",
          "name": "",
          "type": "uint256"
        }
      ],
      "stateMutability": "view",
      "type": "function"
    },
    {
      "inputs": [
        {
          "internalType": "address",
          "name": "recipient",
          "type": "address"
        },
        {
          "internalType": "uint256",
          "name": "amount",
          "type": "uint256"
        }
      ],
      "name": "transfer",
      "outputs": [
        {
          "internalType": "bool",
          "name": "",
          "type": "bool"
        }
      ],
      "stateMutability": "nonpayable",
      "type": "function"
    },
    {
      "inputs": [
        {
          "internalType": "address",
          "name": "sender",
          "type": "address"
        },
        {
          "internalType": "address",
          "name": "recipient",
          "type": "address"
        },
        {
          "internalType": "uint256",
          "name": "amount",
          "type": "uint256"
        }
      ],
      "name": "transferFrom",
      "outputs": [
        {
          "internalType": "bool",
          "name": "",
          "type": "bool"
        }
      ],
      "stateMutability": "nonpayable",
      "type": "function"
    },
    {
      "inputs": [
        {
          "internalType": "address",
          "name": "to",
          "type": "address"
        },
        {
          "internalType": "uint256",
          "name": "amount",
          "type": "uint256"
        }
      ],
      "name": "mint",
      "outputs": [],
      "stateMutability": "nonpayable",
      "type": "function"
    }
  ],
  "bytecode": "0x60a06040523480156200001157600080fd5b50604051620035e6380380620035e6833981810160405281019062000037919062000891565b670de0b6b3a7640000816200004d919062000970565b848481600590805190602001906200006792919062000609565b5080600690805190602001906200008092919062000609565b50505060008111620000c9576040517f08c379a0000000000000000000000000000000000000000000000000000000008152600401620000c09062000a32565b60405180910390fd5b806080818152505050620000f933670de0b6b3a764000084620000ed919062000970565b6200014a60201b60201c565b6200010e6000801b33620001db60201b60201c565b620001407f9f2df0fed2c77648de5860a4cc508cd0818c85b8b8a1ab4ceeef8d981c8956a633620001db60201b60201c565b5050505062000c28565b6200015a620001f160201b60201c565b8162000170620001fb60201b620005fe1760201c565b6200017c919062000a54565b1115620001c0576040517f08c379a0000000000000000000000000000000000000000000000000000000008152600401620001b79062000b01565b60405180910390fd5b620001d782826200020560201b62000ca21760201c565b5050565b620001ed82826200037f60201b60201c565b5050565b6000608051905090565b6000600454905090565b600073ffffffffffffffffffffffffffffffffffffffff168273ffffffffffffffffffffffffffffffffffffffff16141562000278576040517f08c379a00000000000000000000000000000000000000000000000000000000081526004016200026f9062000b73565b60405180910390fd5b6200028c60008383620003c760201b60201c565b8060046000828254620002a0919062000a54565b9250508190555080600260008473ffffffffffffffffffffffffffffffffffffffff1673ffffffffffffffffffffffffffffffffffffffff1681526020019081526020016000206000828254620002f8919062000a54565b925050819055508173ffffffffffffffffffffffffffffffffffffffff16600073ffffffffffffffffffffffffffffffffffffffff167fddf252ad1be2c89b69c2b068fc378daa952ba7f163c4a11628f55a4df523b3ef836040516200035f919062000ba6565b60405180910390a36200037b60008383620003cc60201b60201c565b5050565b620003968282620003d160201b62000e031760201c565b620003c28160016000858152602001908152602001600020620004c260201b62000ee31790919060201c565b505050565b505050565b505050565b620003e38282620004fa60201b60201c565b620004be57600160008084815260200190815260200160002060000160008373ffffffffffffffffffffffffffffffffffffffff1673ffffffffffffffffffffffffffffffffffffffff16815260200190815260200160002060006101000a81548160ff021916908315150217905550620004636200056460201b60201c565b73ffffffffffffffffffffffffffffffffffffffff168173ffffffffffffffffffffffffffffffffffffffff16837f2f8788117e7eff1d82e926ec794901d17c78024a50270940304540a733656f0d60405160405180910390a45b5050565b6000620004f2836000018373ffffffffffffffffffffffffffffffffffffffff1660001b6200056c60201b60201c565b905092915050565b600080600084815260200190815260200160002060000160008373ffffffffffffffffffffffffffffffffffffffff1673ffffffffffffffffffffffffffffffffffffffff16815260200190815260200160002060009054906101000a900460ff16905092915050565b600033905090565b6000620005808383620005e660201b60201c565b620005db578260000182908060018154018082558091505060019003906000526020600020016000909190919091505582600001805490508360010160008481526020019081526020016000208190555060019050620005e0565b600090505b92915050565b600080836001016000848152602001908152602001600020541415905092915050565b828054620006179062000bf2565b90600052602060002090601f0160209004810192826200063b576000855562000687565b82601f106200065657805160ff191683800117855562000687565b8280016001018555821562000687579182015b828111156200068657825182559160200191906001019062000669565b5b5090506200069691906200069a565b5090565b5b80821115620006b55760008160009055506001016200069b565b5090565b6000604051905090565b600080fd5b600080fd5b600080fd5b600080fd5b6000601f19601f8301169050919050565b7f4e487b7100000000000000000000000000000000000000000000000000000000600052604160045260246000fd5b6200072282620006d7565b810181811067ffffffffffffffff82111715620007445762000743620006e8565b5b80604052505050565b600062000759620006b9565b905062000767828262000717565b919050565b600067ffffffffffffffff8211156200078a5762000789620006e8565b5b6200079582620006d7565b9050602081019050919050565b60005b83811015620007c2578082015181840152602081019050620007a5565b83811115620007d2576000848401525b50505050565b6000620007ef620007e9846200076c565b6200074d565b9050828152602081018484840111156200080e576200080d620006d2565b5b6200081b848285620007a2565b509392505050565b600082601f8301126200083b576200083a620006cd565b5b81516200084d848260208601620007d8565b91505092915050565b6000819050919050565b6200086b8162000856565b81146200087757600080fd5b50565b6000815190506200088b8162000860565b92915050565b60008060008060808587031215620008ae57620008ad620006c3565b5b600085015167ffffffffffffffff811115620008cf57620008ce620006c8565b5b620008dd8782880162000823565b945050602085015167ffffffffffffffff811115620009015762000900620006c8565b5b6200090f8782880162000823565b935050604062000922878288016200087a565b925050606062000935878288016200087a565b91505092959194509250565b7f4e487b7100000000000000000000000000000000000000000000000000000000600052601160045260246000fd5b60006200097d8262000856565b91506200098a8362000856565b9250817fffffffffffffffffffffffffffffffffffffffffffffffffffffffffffffffff0483118215151615620009c657620009c562000941565b5b828202905092915050565b600082825260208201905092915050565b7f45524332304361707065643a2063617020697320300000000000000000000000600082015250565b600062000a1a601583620009d1565b915062000a2782620009e2565b602082019050919050565b6000602082019050818103600083015262000a4d8162000a0b565b9050919050565b600062000a618262000856565b915062000a6e8362000856565b9250827fffffffffffffffffffffffffffffffffffffffffffffffffffffffffffffffff0382111562000aa65762000aa562000941565b5b828201905092915050565b7f45524332304361707065643a2063617020657863656564656400000000000000600082015250565b600062000ae9601983620009d1565b915062000af68262000ab1565b602082019050919050565b6000602082019050818103600083015262000b1c8162000ada565b9050919050565b7f45524332303a206d696e7420746f20746865207a65726f206164647265737300600082015250565b600062000b5b601f83620009d1565b915062000b688262000b23565b602082019050919050565b6000602082019050818103600083015262000b8e8162000b4c565b9050919050565b62000ba08162000856565b82525050565b600060208201905062000bbd600083018462000b95565b92915050565b7f4e487b7100000000000000000000000000000000000000000000000000000000600052602260045260246000fd5b6000600282049050600182168062000c0b57607f821691505b6020821081141562000c225762000c2162000bc3565b5b50919050565b6080516129a262000c44600039600061075501526129a26000f3fe608060405234801561001057600080fd5b506004361061014d5760003560e01c806340c10f19116100c3578063a457c2d71161007c578063a457c2d7146103da578063a9059cbb1461040a578063ca15c8731461043a578063d53913931461046a578063d547741f14610488578063dd62ed3e146104a45761014d565b806340c10f19146102f257806370a082311461030e5780639010d07c1461033e57806391d148541461036e57806395d89b411461039e578063a217fddf146103bc5761014d565b8063248a9ca311610115578063248a9ca31461021e5780632f2ff15d1461024e578063313ce5671461026a578063355274ea1461028857806336568abe146102a657806339509351146102c25761014d565b806301ffc9a71461015257806306fdde0314610182578063095ea7b3146101a057806318160ddd146101d057806323b872dd146101ee575b600080fd5b61016c60048036038101906101679190611b83565b6104d4565b6040516101799190611bcb565b60405180910390f35b61018a61054e565b6040516101979190611c7f565b60405180910390f35b6101ba60048036038101906101b59190611d35565b6105e0565b6040516101c79190611bcb565b60405180910390f35b6101d86105fe565b6040516101e59190611d84565b60405180910390f35b61020860048036038101906102039190611d9f565b610608565b6040516102159190611bcb565b60405180910390f35b61023860048036038101906102339190611e28565b610700565b6040516102459190611e64565b60405180910390f35b61026860048036038101906102639190611e7f565b61071f565b005b610272610748565b60405161027f9190611edb565b60405180910390f35b610290610751565b60405161029d9190611d84565b60405180910390f35b6102c060048036038101906102bb9190611e7f565b610779565b005b6102dc60048036038101906102d79190611d35565b6107fc565b6040516102e99190611bcb565b60405180910390f35b61030c60048036038101906103079190611d35565b6108a8565b005b61032860048036038101906103239190611ef6565b610926565b6040516103359190611d84565b60405180910390f35b61035860048036038101906103539190611f23565b61096f565b6040516103659190611f72565b60405180910390f35b61038860048036038101906103839190611e7f565b61099e565b6040516103959190611bcb565b60405180910390f35b6103a6610a08565b6040516103b39190611c7f565b60405180910390f35b6103c4610a9a565b6040516103d19190611e64565b60405180910390f35b6103f460048036038101906103ef9190611d35565b610aa1565b6040516104019190611bcb565b60405180910390f35b610424600480360381019061041f9190611d35565b610b8c565b6040516104319190611bcb565b60405180910390f35b610454600480360381019061044f9190611e28565b610baa565b6040516104619190611d84565b60405180910390f35b610472610bce565b60405161047f9190611e64565b60405180910390f35b6104a2600480360381019061049d9190611e7f565b610bf2565b005b6104be60048036038101906104b99190611f8d565b610c1b565b6040516104cb9190611d84565b60405180910390f35b60007f5a05180f000000000000000000000000000000000000000000000000000000007bffffffffffffffffffffffffffffffffffffffffffffffffffffffff1916827bffffffffffffffffffffffffffffffffffffffffffffffffffffffff19161480610547575061054682610f13565b5b9050919050565b60606005805461055d90611ffc565b80601f016020809104026020016040519081016040528092919081815260200182805461058990611ffc565b80156105d65780601f106105ab576101008083540402835291602001916105d6565b820191906000526020600020905b8154815290600101906020018083116105b957829003601f168201915b5050505050905090565b60006105f46105ed610f8d565b8484610f95565b6001905092915050565b6000600454905090565b6000610615848484611160565b6000600360008673ffffffffffffffffffffffffffffffffffffffff1673ffffffffffffffffffffffffffffffffffffffff1681526020019081526020016000206000610660610f8d565b73ffffffffffffffffffffffffffffffffffffffff1673ffffffffffffffffffffffffffffffffffffffff168152602001908152602001600020549050828110156106e0576040517f08c379a00000000000000000000000000000000000000000000000000000000081526004016106d7906120a0565b60405180910390fd5b6106f4856106ec610f8d565b858403610f95565b60019150509392505050565b6000806000838152602001908152602001600020600101549050919050565b61072882610700565b61073981610734610f8d565b6113e4565b6107438383611481565b505050565b60006012905090565b60007f0000000000000000000000000000000000000000000000000000000000000000905090565b610781610f8d565b73ffffffffffffffffffffffffffffffffffffffff168173ffffffffffffffffffffffffffffffffffffffff16146107ee576040517f08c379a00000000000000000000000000000000000000000000000000000000081526004016107e590612132565b60405180910390fd5b6107f882826114b5565b5050565b600061089e610809610f8d565b848460036000610817610f8d565b73ffffffffffffffffffffffffffffffffffffffff1673ffffffffffffffffffffffffffffffffffffffff16815260200190815260200160002060008873ffffffffffffffffffffffffffffffffffffffff1673ffffffffffffffffffffffffffffffffffffffff168152602001908152602001600020546108999190612181565b610f95565b6001905092915050565b6108d97f9f2df0fed2c77648de5860a4cc508cd0818c85b8b8a1ab4ceeef8d981c8956a66108d4610f8d565b61099e565b610918576040517f08c379a000000000000000000000000000000000000000000000000000000000815260040161090f90612249565b60405180910390fd5b61092282826114e9565b5050565b6000600260008373ffffffffffffffffffffffffffffffffffffffff1673ffffffffffffffffffffffffffffffffffffffff168152602001908152602001600020549050919050565b6000610996826001600086815260200190815260200160002061155390919063ffffffff16565b905092915050565b600080600084815260200190815260200160002060000160008373ffffffffffffffffffffffffffffffffffffffff1673ffffffffffffffffffffffffffffffffffffffff16815260200190815260200160002060009054906101000a900460ff16905092915050565b606060068054610a1790611ffc565b80601f0160208091040260200160405190810160405280929190818152602001828054610a4390611ffc565b8015610a905780601f10610a6557610100808354040283529160200191610a90565b820191906000526020600020905b815481529060010190602001808311610a7357829003601f168201915b5050505050905090565b6000801b81565b60008060036000610ab0610f8d565b73ffffffffffffffffffffffffffffffffffffffff1673ffffffffffffffffffffffffffffffffffffffff16815260200190815260200160002060008573ffffffffffffffffffffffffffffffffffffffff1673ffffffffffffffffffffffffffffffffffffffff16815260200190815260200160002054905082811015610b6d576040517f08c379a0000000000000000000000000000000000000000000000000000000008152600401610b64906122db565b60405180910390fd5b610b81610b78610f8d565b85858403610f95565b600191505092915050565b6000610ba0610b99610f8d565b8484611160565b6001905092915050565b6000610bc76001600084815260200190815260200160002061156d565b9050919050565b7f9f2df0fed2c77648de5860a4cc508cd0818c85b8b8a1ab4ceeef8d981c8956a681565b610bfb82610700565b610c0c81610c07610f8d565b6113e4565b610c1683836114b5565b505050565b6000600360008473ffffffffffffffffffffffffffffffffffffffff1673ffffffffffffffffffffffffffffffffffffffff16815260200190815260200160002060008373ffffffffffffffffffffffffffffffffffffffff1673ffffffffffffffffffffffffffffffffffffffff16815260200190815260200160002054905092915050565b600073ffffffffffffffffffffffffffffffffffffffff168273ffffffffffffffffffffffffffffffffffffffff161415610d12576040517f08c379a0000000000000000000000000000000000000000000000000000000008152600401610d0990612347565b60405180910390fd5b610d1e60008383611582565b8060046000828254610d309190612181565b9250508190555080600260008473ffffffffffffffffffffffffffffffffffffffff1673ffffffffffffffffffffffffffffffffffffffff1681526020019081526020016000206000828254610d869190612181565b925050819055508173ffffffffffffffffffffffffffffffffffffffff16600073ffffffffffffffffffffffffffffffffffffffff167fddf252ad1be2c89b69c2b068fc378daa952ba7f163c4a11628f55a4df523b3ef83604051610deb9190611d84565b60405180910390a3610dff60008383611587565b5050565b610e0d828261099e565b610edf57600160008084815260200190815260200160002060000160008373ffffffffffffffffffffffffffffffffffffffff1673ffffffffffffffffffffffffffffffffffffffff16815260200190815260200160002060006101000a81548160ff021916908315150217905550610e84610f8d565b73ffffffffffffffffffffffffffffffffffffffff168173ffffffffffffffffffffffffffffffffffffffff16837f2f8788117e7eff1d82e926ec794901d17c78024a50270940304540a733656f0d60405160405180910390a45b5050565b6000610f0b836000018373ffffffffffffffffffffffffffffffffffffffff1660001b61158c565b905092915050565b60007f7965db0b000000000000000000000000000000000000000000000000000000007bffffffffffffffffffffffffffffffffffffffffffffffffffffffff1916827bffffffffffffffffffffffffffffffffffffffffffffffffffffffff19161480610f865750610f85826115fc565b5b9050919050565b600033905090565b600073ffffffffffffffffffffffffffffffffffffffff168373ffffffffffffffffffffffffffffffffffffffff161415611005576040517f08c379a0000000000000000000000000000000000000000000000000000000008152600401610ffc906123d9565b60405180910390fd5b600073ffffffffffffffffffffffffffffffffffffffff168273ffffffffffffffffffffffffffffffffffffffff161415611075576040517f08c379a000000000000000000000000000000000000000000000000000000000815260040161106c9061246b565b60405180910390fd5b80600360008573ffffffffffffffffffffffffffffffffffffffff1673ffffffffffffffffffffffffffffffffffffffff16815260200190815260200160002060008473ffffffffffffffffffffffffffffffffffffffff1673ffffffffffffffffffffffffffffffffffffffff168152602001908152602001600020819055508173ffffffffffffffffffffffffffffffffffffffff168373ffffffffffffffffffffffffffffffffffffffff167f8c5be1e5ebec7d5bd14f71427d1e84f3dd0314c0f7b2291e5b200ac8c7c3b925836040516111539190611d84565b60405180910390a3505050565b600073ffffffffffffffffffffffffffffffffffffffff168373ffffffffffffffffffffffffffffffffffffffff1614156111d0576040517f08c379a00000000000000000000000000000000000000000000000000000000081526004016111c7906124fd565b60405180910390fd5b600073ffffffffffffffffffffffffffffffffffffffff168273ffffffffffffffffffffffffffffffffffffffff161415611240576040517f08c379a00000000000000000000000000000000000000000000000000000000081526004016112379061258f565b60405180910390fd5b61124b838383611582565b6000600260008573ffffffffffffffffffffffffffffffffffffffff1673ffffffffffffffffffffffffffffffffffffffff168152602001908152602001600020549050818110156112d2576040517f08c379a00000000000000000000000000000000000000000000000000000000081526004016112c990612621565b60405180910390fd5b818103600260008673ffffffffffffffffffffffffffffffffffffffff1673ffffffffffffffffffffffffffffffffffffffff1681526020019081526020016000208190555081600260008573ffffffffffffffffffffffffffffffffffffffff1673ffffffffffffffffffffffffffffffffffffffff16815260200190815260200160002060008282546113679190612181565b925050819055508273ffffffffffffffffffffffffffffffffffffffff168473ffffffffffffffffffffffffffffffffffffffff167fddf252ad1be2c89b69c2b068fc378daa952ba7f163c4a11628f55a4df523b3ef846040516113cb9190611d84565b60405180910390a36113de848484611587565b50505050565b6113ee828261099e565b61147d576114138173ffffffffffffffffffffffffffffffffffffffff166014611666565b6114218360001c6020611666565b604051602001611432929190612715565b6040516020818303038152906040526040517f08c379a00000000000000000000000000000000000000000000000000000000081526004016114749190611c7f565b60405180910390fd5b5050565b61148b8282610e03565b6114b08160016000858152602001908152602001600020610ee390919063ffffffff16565b505050565b6114bf82826118a2565b6114e4816001600085815260200190815260200160002061198390919063ffffffff16565b505050565b6114f1610751565b816114fa6105fe565b6115049190612181565b1115611545576040517f08c379a000000000000000000000000000000000000000000000000000000000815260040161153c9061279b565b60405180910390fd5b61154f8282610ca2565b5050565b600061156283600001836119b3565b60001c905092915050565b600061157b826000016119de565b9050919050565b505050565b505050565b600061159883836119ef565b6115f15782600001829080600181540180825580915050600190039060005260206000200160009091909190915055826000018054905083600101600084815260200190815260200160002081905550600190506115f6565b600090505b92915050565b60007f01ffc9a7000000000000000000000000000000000000000000000000000000007bffffffffffffffffffffffffffffffffffffffffffffffffffffffff1916827bffffffffffffffffffffffffffffffffffffffffffffffffffffffff1916149050919050565b60606000600283600261167991906127bb565b6116839190612181565b67ffffffffffffffff81111561169c5761169b612815565b5b6040519080825280601f01601f1916602001820160405280156116ce5781602001600182028036833780820191505090505b5090507f30000000000000000000000000000000000000000000000000000000000000008160008151811061170657611705612844565b5b60200101907effffffffffffffffffffffffffffffffffffffffffffffffffffffffffffff1916908160001a9053507f78000000000000000000000000000000000000000000000000000000000000008160018151811061176a57611769612844565b5b60200101907effffffffffffffffffffffffffffffffffffffffffffffffffffffffffffff1916908160001a905350600060018460026117aa91906127bb565b6117b49190612181565b90505b6001811115611854577f3031323334353637383961626364656600000000000000000000000000000000600f8616601081106117f6576117f5612844565b5b1a60f81b82828151811061180d5761180c612844565b5b60200101907effffffffffffffffffffffffffffffffffffffffffffffffffffffffffffff1916908160001a905350600485901c94508061184d90612873565b90506117b7565b5060008414611898576040517f08c379a000000000000000000000000000000000000000000000000000000000815260040161188f906128e9565b60405180910390fd5b8091505092915050565b6118ac828261099e565b1561197f57600080600084815260200190815260200160002060000160008373ffffffffffffffffffffffffffffffffffffffff1673ffffffffffffffffffffffffffffffffffffffff16815260200190815260200160002060006101000a81548160ff021916908315150217905550611924610f8d565b73ffffffffffffffffffffffffffffffffffffffff168173ffffffffffffffffffffffffffffffffffffffff16837ff6391f5c32d9c69d2a47ea670b442974b53935d1edc7fd64eb21e047a839171b60405160405180910390a45b5050565b60006119ab836000018373ffffffffffffffffffffffffffffffffffffffff1660001b611a12565b905092915050565b60008260000182815481106119cb576119ca612844565b5b9060005260206000200154905092915050565b600081600001805490509050919050565b600080836001016000848152602001908152602001600020541415905092915050565b60008083600101600084815260200190815260200160002054905060008114611b1a576000600182611a449190612909565b9050600060018660000180549050611a5c9190612909565b9050818114611acb576000866000018281548110611a7d57611a7c612844565b5b9060005260206000200154905080876000018481548110611aa157611aa0612844565b5b90600052602060002001819055508387600101600083815260200190815260200160002081905550505b85600001805480611adf57611ade61293d565b5b600190038181906000526020600020016000905590558560010160008681526020019081526020016000206000905560019350505050611b20565b60009150505b92915050565b600080fd5b60007fffffffff0000000000000000000000000000000000000000000000000000000082169050919050565b611b6081611b2b565b8114611b6b57600080fd5b50565b600081359050611b7d81611b57565b92915050565b600060208284031215611b9957611b98611b26565b5b6000611ba784828501611b6e565b91505092915050565b60008115159050919050565b611bc581611bb0565b82525050565b6000602082019050611be06000830184611bbc565b92915050565b600081519050919050565b600082825260208201905092915050565b60005b83811015611c20578082015181840152602081019050611c05565b83811115611c2f576000848401525b50505050565b6000601f19601f8301169050919050565b6000611c5182611be6565b611c5b8185611bf1565b9350611c6b818560208601611c02565b611c7481611c35565b840191505092915050565b60006020820190508181036000830152611c998184611c46565b905092915050565b600073ffffffffffffffffffffffffffffffffffffffff82169050919050565b6000611ccc82611ca1565b9050919050565b611cdc81611cc1565b8114611ce757600080fd5b50565b600081359050611cf981611cd3565b92915050565b6000819050919050565b611d1281611cff565b8114611d1d57600080fd5b50565b600081359050611d2f81611d09565b92915050565b60008060408385031215611d4c57611d4b611b26565b5b6000611d5a85828601611cea565b9250506020611d6b85828601611d20565b9150509250929050565b611d7e81611cff565b82525050565b6000602082019050611d996000830184611d75565b92915050565b600080600060608486031215611db857611db7611b26565b5b6000611dc686828701611cea565b9350506020611dd786828701611cea565b9250506040611de886828701611d20565b9150509250925092565b6000819050919050565b611e0581611df2565b8114611e1057600080fd5b50565b600081359050611e2281611dfc565b92915050565b600060208284031215611e3e57611e3d611b26565b5b6000611e4c84828501611e13565b91505092915050565b611e5e81611df2565b82525050565b6000602082019050611e796000830184611e55565b92915050565b60008060408385031215611e9657611e95611b26565b5b6000611ea485828601611e13565b9250506020611eb585828601611cea565b9150509250929050565b600060ff82169050919050565b611ed581611ebf565b82525050565b6000602082019050611ef06000830184611ecc565b92915050565b600060208284031215611f0c57611f0b611b26565b5b6000611f1a84828501611cea565b91505092915050565b60008060408385031215611f3a57611f39611b26565b5b6000611f4885828601611e13565b9250506020611f5985828601611d20565b9150509250929050565b611f6c81611cc1565b82525050565b6000602082019050611f876000830184611f63565b92915050565b60008060408385031215611fa457611fa3611b26565b5b6000611fb285828601611cea565b9250506020611fc385828601611cea565b9150509250929050565b7f4e487b7100000000000000000000000000000000000000000000000000000000600052602260045260246000fd5b6000600282049050600182168061201457607f821691505b6020821081141561202857612027611fcd565b5b50919050565b7f45524332303a207472616e7366657220616d6f756e742065786365656473206160008201527f6c6c6f77616e6365000000000000000000000000000000000000000000000000602082015250565b600061208a602883611bf1565b91506120958261202e565b604082019050919050565b600060208201905081810360008301526120b98161207d565b9050919050565b7f416363657373436f6e74726f6c3a2063616e206f6e6c792072656e6f756e636560008201527f20726f6c657320666f722073656c660000000000000000000000000000000000602082015250565b600061211c602f83611bf1565b9150612127826120c0565b604082019050919050565b6000602082019050818103600083015261214b8161210f565b9050919050565b7f4e487b7100000000000000000000000000000000000000000000000000000000600052601160045260246000fd5b600061218c82611cff565b915061219783611cff565b9250827fffffffffffffffffffffffffffffffffffffffffffffffffffffffffffffffff038211156121cc576121cb612152565b5b828201905092915050565b7f45524332305072657365744d696e7465725061757365723a206d75737420686160008201527f7665206d696e74657220726f6c6520746f206d696e7400000000000000000000602082015250565b6000612233603683611bf1565b915061223e826121d7565b604082019050919050565b6000602082019050818103600083015261226281612226565b9050919050565b7f45524332303a2064656372656173656420616c6c6f77616e63652062656c6f7760008201527f207a65726f000000000000000000000000000000000000000000000000000000602082015250565b60006122c5602583611bf1565b91506122d082612269565b604082019050919050565b600060208201905081810360008301526122f4816122b8565b9050919050565b7f45524332303a206d696e7420746f20746865207a65726f206164647265737300600082015250565b6000612331601f83611bf1565b915061233c826122fb565b602082019050919050565b6000602082019050818103600083015261236081612324565b9050919050565b7f45524332303a20617070726f76652066726f6d20746865207a65726f2061646460008201527f7265737300000000000000000000000000000000000000000000000000000000602082015250565b60006123c3602483611bf1565b91506123ce82612367565b604082019050919050565b600060208201905081810360008301526123f2816123b6565b9050919050565b7f45524332303a20617070726f766520746f20746865207a65726f20616464726560008201527f7373000000000000000000000000000000000000000000000000000000000000602082015250565b6000612455602283611bf1565b9150612460826123f9565b604082019050919050565b6000602082019050818103600083015261248481612448565b9050919050565b7f45524332303a207472616e736665722066726f6d20746865207a65726f20616460008201527f6472657373000000000000000000000000000000000000000000000000000000602082015250565b60006124e7602583611bf1565b91506124f28261248b565b604082019050919050565b60006020820190508181036000830152612516816124da565b9050919050565b7f45524332303a207472616e7366657220746f20746865207a65726f206164647260008201527f6573730000000000000000000000000000000000000000000000000000000000602082015250565b6000612579602383611bf1565b91506125848261251d565b604082019050919050565b600060208201905081810360008301526125a88161256c565b9050919050565b7f45524332303a207472616e7366657220616d6f756e742065786365656473206260008201527f616c616e63650000000000000000000000000000000000000000000000000000602082015250565b600061260b602683611bf1565b9150612616826125af565b604082019050919050565b6000602082019050818103600083015261263a816125fe565b9050919050565b600081905092915050565b7f416363657373436f6e74726f6c3a206163636f756e7420000000000000000000600082015250565b6000612682601783612641565b915061268d8261264c565b601782019050919050565b60006126a382611be6565b6126ad8185612641565b93506126bd818560208601611c02565b80840191505092915050565b7f206973206d697373696e6720726f6c6520000000000000000000000000000000600082015250565b60006126ff601183612641565b915061270a826126c9565b601182019050919050565b600061272082612675565b915061272c8285612698565b9150612737826126f2565b91506127438284612698565b91508190509392505050565b7f45524332304361707065643a2063617020657863656564656400000000000000600082015250565b6000612785601983611bf1565b91506127908261274f565b602082019050919050565b600060208201905081810360008301526127b481612778565b9050919050565b60006127c682611cff565b91506127d183611cff565b9250817fffffffffffffffffffffffffffffffffffffffffffffffffffffffffffffffff048311821515161561280a57612809612152565b5b828202905092915050565b7f4e487b7100000000000000000000000000000000000000000000000000000000600052604160045260246000fd5b7f4e487b7100000000000000000000000000000000000000000000000000000000600052603260045260246000fd5b600061287e82611cff565b9150600082141561289257612891612152565b5b600182039050919050565b7f537472696e67733a20686578206c656e67746820696e73756666696369656e74600082015250565b60006128d3602083611bf1565b91506128de8261289d565b602082019050919050565b60006020820190508181036000830152612902816128c6565b9050919050565b600061291482611cff565b915061291f83611cff565b92508282101561293257612931612152565b5b828203905092915050565b7f4e487b7100000000000000000000000000000000000000000000000000000000600052603160045260246000fdfea2646970667358221220fc0ab7f4af7b904e4a66b3160f4383e22605dd98d4d303f56ca953c5359d3bd464736f6c634300080a0033",
  "immutableReferences": {
    "1317": [
      {
        "length": 32,
        "start": 1877
      }
    ]
  },
  "source": "// SPDX-License-Identifier: MIT\npragma solidity ^0.8.0;\n\nimport \"@openzeppelin/contracts/token/ERC20/ERC20.sol\";\nimport \"@openzeppelin/contracts/token/ERC20/extensions/ERC20Capped.sol\";\nimport \"@openzeppelin/contracts/access/AccessControlEnumerable.sol\";\n\n//\ncontract ERC20WithCapped is AccessControlEnumerable, ERC20Capped {\n    bytes32 public constant MINTER_ROLE = keccak256(\"MINTER_ROLE\");\n\n    constructor(\n        string memory name, //\n        string memory symbol, //\n        uint256 initalSupply, //\n        uint256 cap //\n    ) ERC20(name, symbol) ERC20Capped(cap * 10**18) {\n        _mint(msg.sender, initalSupply * 10**18);\n\n        _setupRole(DEFAULT_ADMIN_ROLE, msg.sender);\n        _setupRole(MINTER_ROLE, msg.sender);\n    }\n\n    /**\n     * @dev Creates `amount` new tokens for `to`.\n     *\n     * See {ERC20-_mint}.\n     *\n     * Requirements:\n     *\n     * - the caller must have the `MINTER_ROLE`.\n     */\n    function mint(address to, uint256 amount) public virtual {\n        require(\n            hasRole(MINTER_ROLE, _msgSender()),\n            \"ERC20PresetMinterPauser: must have minter role to mint\"\n        );\n        _mint(to, amount);\n    }\n}\n",
  "sourcePath": "/Users/q/study/ethereum/mint-coin/contracts/ERC20/ERC20WithCapped.sol",
  "compiler": {
    "name": "solc",
    "version": "0.8.10+commit.fc410830.Emscripten.clang"
  },
  "schemaVersion": "3.4.1",
  "updatedAt": "2021-12-10T12:16:18.053Z",
  "devdoc": {
    "kind": "dev",
    "methods": {
      "allowance(address,address)": {
        "details": "See {IERC20-allowance}."
      },
      "approve(address,uint256)": {
        "details": "See {IERC20-approve}. Requirements: - `spender` cannot be the zero address."
      },
      "balanceOf(address)": {
        "details": "See {IERC20-balanceOf}."
      },
      "cap()": {
        "details": "Returns the cap on the token's total supply."
      },
      "decimals()": {
        "details": "Returns the number of decimals used to get its user representation. For example, if `decimals` equals `2`, a balance of `505` tokens should be displayed to a user as `5.05` (`505 / 10 ** 2`). Tokens usually opt for a value of 18, imitating the relationship between Ether and Wei. This is the value {ERC20} uses, unless this function is overridden; NOTE: This information is only used for _display_ purposes: it in no way affects any of the arithmetic of the contract, including {IERC20-balanceOf} and {IERC20-transfer}."
      },
      "decreaseAllowance(address,uint256)": {
        "details": "Atomically decreases the allowance granted to `spender` by the caller. This is an alternative to {approve} that can be used as a mitigation for problems described in {IERC20-approve}. Emits an {Approval} event indicating the updated allowance. Requirements: - `spender` cannot be the zero address. - `spender` must have allowance for the caller of at least `subtractedValue`."
      },
      "getRoleAdmin(bytes32)": {
        "details": "Returns the admin role that controls `role`. See {grantRole} and {revokeRole}. To change a role's admin, use {_setRoleAdmin}."
      },
      "getRoleMember(bytes32,uint256)": {
        "details": "Returns one of the accounts that have `role`. `index` must be a value between 0 and {getRoleMemberCount}, non-inclusive. Role bearers are not sorted in any particular way, and their ordering may change at any point. WARNING: When using {getRoleMember} and {getRoleMemberCount}, make sure you perform all queries on the same block. See the following https://forum.openzeppelin.com/t/iterating-over-elements-on-enumerableset-in-openzeppelin-contracts/2296[forum post] for more information."
      },
      "getRoleMemberCount(bytes32)": {
        "details": "Returns the number of accounts that have `role`. Can be used together with {getRoleMember} to enumerate all bearers of a role."
      },
      "grantRole(bytes32,address)": {
        "details": "Grants `role` to `account`. If `account` had not been already granted `role`, emits a {RoleGranted} event. Requirements: - the caller must have ``role``'s admin role."
      },
      "hasRole(bytes32,address)": {
        "details": "Returns `true` if `account` has been granted `role`."
      },
      "increaseAllowance(address,uint256)": {
        "details": "Atomically increases the allowance granted to `spender` by the caller. This is an alternative to {approve} that can be used as a mitigation for problems described in {IERC20-approve}. Emits an {Approval} event indicating the updated allowance. Requirements: - `spender` cannot be the zero address."
      },
      "mint(address,uint256)": {
        "details": "Creates `amount` new tokens for `to`. See {ERC20-_mint}. Requirements: - the caller must have the `MINTER_ROLE`."
      },
      "name()": {
        "details": "Returns the name of the token."
      },
      "renounceRole(bytes32,address)": {
        "details": "Revokes `role` from the calling account. Roles are often managed via {grantRole} and {revokeRole}: this function's purpose is to provide a mechanism for accounts to lose their privileges if they are compromised (such as when a trusted device is misplaced). If the calling account had been revoked `role`, emits a {RoleRevoked} event. Requirements: - the caller must be `account`."
      },
      "revokeRole(bytes32,address)": {
        "details": "Revokes `role` from `account`. If `account` had been granted `role`, emits a {RoleRevoked} event. Requirements: - the caller must have ``role``'s admin role."
      },
      "supportsInterface(bytes4)": {
        "details": "See {IERC165-supportsInterface}."
      },
      "symbol()": {
        "details": "Returns the symbol of the token, usually a shorter version of the name."
      },
      "totalSupply()": {
        "details": "See {IERC20-totalSupply}."
      },
      "transfer(address,uint256)": {
        "details": "See {IERC20-transfer}. Requirements: - `recipient` cannot be the zero address. - the caller must have a balance of at least `amount`."
      },
      "transferFrom(address,address,uint256)": {
        "details": "See {IERC20-transferFrom}. Emits an {Approval} event indicating the updated allowance. This is not required by the EIP. See the note at the beginning of {ERC20}. Requirements: - `sender` and `recipient` cannot be the zero address. - `sender` must have a balance of at least `amount`. - the caller must have allowance for ``sender``'s tokens of at least `amount`."
      }
    },
    "version": 1
  },
  "userdoc": {
    "kind": "user",
    "methods": {},
    "version": 1
  }
}