{
  "contractName": "ERC721PausableContract",
  "abi": [
    {
      "inputs": [
        {
          "internalType": "string",
          "name": "name",
          "type": "string"
        },
        {
          "internalType": "string",
          "name": "symbol",
          "type": "string"
        },
        {
          "internalType": "string",
          "name": "baseTokenURI",
          "type": "string"
        }
      ],
      "stateMutability": "nonpayable",
      "type": "constructor"
    },
    {
      "anonymous": false,
      "inputs": [
        {
          "indexed": true,
          "internalType": "address",
          "name": "owner",
          "type": "address"
        },
        {
          "indexed": true,
          "internalType": "address",
          "name": "approved",
          "type": "address"
        },
        {
          "indexed": true,
          "internalType": "uint256",
          "name": "tokenId",
          "type": "uint256"
        }
      ],
      "name": "Approval",
      "type": "event"
    },
    {
      "anonymous": false,
      "inputs": [
        {
          "indexed": true,
          "internalType": "address",
          "name": "owner",
          "type": "address"
        },
        {
          "indexed": true,
          "internalType": "address",
          "name": "operator",
          "type": "address"
        },
        {
          "indexed": false,
          "internalType": "bool",
          "name": "approved",
          "type": "bool"
        }
      ],
      "name": "ApprovalForAll",
      "type": "event"
    },
    {
      "anonymous": false,
      "inputs": [
        {
          "indexed": false,
          "internalType": "address",
          "name": "account",
          "type": "address"
        }
      ],
      "name": "Paused",
      "type": "event"
    },
    {
      "anonymous": false,
      "inputs": [
        {
          "indexed": true,
          "internalType": "bytes32",
          "name": "role",
          "type": "bytes32"
        },
        {
          "indexed": true,
          "internalType": "bytes32",
          "name": "previousAdminRole",
          "type": "bytes32"
        },
        {
          "indexed": true,
          "internalType": "bytes32",
          "name": "newAdminRole",
          "type": "bytes32"
        }
      ],
      "name": "RoleAdminChanged",
      "type": "event"
    },
    {
      "anonymous": false,
      "inputs": [
        {
          "indexed": true,
          "internalType": "bytes32",
          "name": "role",
          "type": "bytes32"
        },
        {
          "indexed": true,
          "internalType": "address",
          "name": "account",
          "type": "address"
        },
        {
          "indexed": true,
          "internalType": "address",
          "name": "sender",
          "type": "address"
        }
      ],
      "name": "RoleGranted",
      "type": "event"
    },
    {
      "anonymous": false,
      "inputs": [
        {
          "indexed": true,
          "internalType": "bytes32",
          "name": "role",
          "type": "bytes32"
        },
        {
          "indexed": true,
          "internalType": "address",
          "name": "account",
          "type": "address"
        },
        {
          "indexed": true,
          "internalType": "address",
          "name": "sender",
          "type": "address"
        }
      ],
      "name": "RoleRevoked",
      "type": "event"
    },
    {
      "anonymous": false,
      "inputs": [
        {
          "indexed": true,
          "internalType": "address",
          "name": "from",
          "type": "address"
        },
        {
          "indexed": true,
          "internalType": "address",
          "name": "to",
          "type": "address"
        },
        {
          "indexed": true,
          "internalType": "uint256",
          "name": "tokenId",
          "type": "uint256"
        }
      ],
      "name": "Transfer",
      "type": "event"
    },
    {
      "anonymous": false,
      "inputs": [
        {
          "indexed": false,
          "internalType": "address",
          "name": "account",
          "type": "address"
        }
      ],
      "name": "Unpaused",
      "type": "event"
    },
    {
      "inputs": [],
      "name": "DEFAULT_ADMIN_ROLE",
      "outputs": [
        {
          "internalType": "bytes32",
          "name": "",
          "type": "bytes32"
        }
      ],
      "stateMutability": "view",
      "type": "function"
    },
    {
      "inputs": [],
      "name": "PAUSER_ROLE",
      "outputs": [
        {
          "internalType": "bytes32",
          "name": "",
          "type": "bytes32"
        }
      ],
      "stateMutability": "view",
      "type": "function"
    },
    {
      "inputs": [
        {
          "internalType": "address",
          "name": "to",
          "type": "address"
        },
        {
          "internalType": "uint256",
          "name": "tokenId",
          "type": "uint256"
        }
      ],
      "name": "approve",
      "outputs": [],
      "stateMutability": "nonpayable",
      "type": "function"
    },
    {
      "inputs": [
        {
          "internalType": "address",
          "name": "owner",
          "type": "address"
        }
      ],
      "name": "balanceOf",
      "outputs": [
        {
          "internalType": "uint256",
          "name": "",
          "type": "uint256"
        }
      ],
      "stateMutability": "view",
      "type": "function"
    },
    {
      "inputs": [
        {
          "internalType": "uint256",
          "name": "tokenId",
          "type": "uint256"
        }
      ],
      "name": "getApproved",
      "outputs": [
        {
          "internalType": "address",
          "name": "",
          "type": "address"
        }
      ],
      "stateMutability": "view",
      "type": "function"
    },
    {
      "inputs": [
        {
          "internalType": "bytes32",
          "name": "role",
          "type": "bytes32"
        }
      ],
      "name": "getRoleAdmin",
      "outputs": [
        {
          "internalType": "bytes32",
          "name": "",
          "type": "bytes32"
        }
      ],
      "stateMutability": "view",
      "type": "function"
    },
    {
      "inputs": [
        {
          "internalType": "bytes32",
          "name": "role",
          "type": "bytes32"
        },
        {
          "internalType": "uint256",
          "name": "index",
          "type": "uint256"
        }
      ],
      "name": "getRoleMember",
      "outputs": [
        {
          "internalType": "address",
          "name": "",
          "type": "address"
        }
      ],
      "stateMutability": "view",
      "type": "function"
    },
    {
      "inputs": [
        {
          "internalType": "bytes32",
          "name": "role",
          "type": "bytes32"
        }
      ],
      "name": "getRoleMemberCount",
      "outputs": [
        {
          "internalType": "uint256",
          "name": "",
          "type": "uint256"
        }
      ],
      "stateMutability": "view",
      "type": "function"
    },
    {
      "inputs": [
        {
          "internalType": "bytes32",
          "name": "role",
          "type": "bytes32"
        },
        {
          "internalType": "address",
          "name": "account",
          "type": "address"
        }
      ],
      "name": "grantRole",
      "outputs": [],
      "stateMutability": "nonpayable",
      "type": "function"
    },
    {
      "inputs": [
        {
          "internalType": "bytes32",
          "name": "role",
          "type": "bytes32"
        },
        {
          "internalType": "address",
          "name": "account",
          "type": "address"
        }
      ],
      "name": "hasRole",
      "outputs": [
        {
          "internalType": "bool",
          "name": "",
          "type": "bool"
        }
      ],
      "stateMutability": "view",
      "type": "function"
    },
    {
      "inputs": [
        {
          "internalType": "address",
          "name": "owner",
          "type": "address"
        },
        {
          "internalType": "address",
          "name": "operator",
          "type": "address"
        }
      ],
      "name": "isApprovedForAll",
      "outputs": [
        {
          "internalType": "bool",
          "name": "",
          "type": "bool"
        }
      ],
      "stateMutability": "view",
      "type": "function"
    },
    {
      "inputs": [],
      "name": "name",
      "outputs": [
        {
          "internalType": "string",
          "name": "",
          "type": "string"
        }
      ],
      "stateMutability": "view",
      "type": "function"
    },
    {
      "inputs": [
        {
          "internalType": "uint256",
          "name": "tokenId",
          "type": "uint256"
        }
      ],
      "name": "ownerOf",
      "outputs": [
        {
          "internalType": "address",
          "name": "",
          "type": "address"
        }
      ],
      "stateMutability": "view",
      "type": "function"
    },
    {
      "inputs": [],
      "name": "paused",
      "outputs": [
        {
          "internalType": "bool",
          "name": "",
          "type": "bool"
        }
      ],
      "stateMutability": "view",
      "type": "function"
    },
    {
      "inputs": [
        {
          "internalType": "bytes32",
          "name": "role",
          "type": "bytes32"
        },
        {
          "internalType": "address",
          "name": "account",
          "type": "address"
        }
      ],
      "name": "renounceRole",
      "outputs": [],
      "stateMutability": "nonpayable",
      "type": "function"
    },
    {
      "inputs": [
        {
          "internalType": "bytes32",
          "name": "role",
          "type": "bytes32"
        },
        {
          "internalType": "address",
          "name": "account",
          "type": "address"
        }
      ],
      "name": "revokeRole",
      "outputs": [],
      "stateMutability": "nonpayable",
      "type": "function"
    },
    {
      "inputs": [
        {
          "internalType": "address",
          "name": "from",
          "type": "address"
        },
        {
          "internalType": "address",
          "name": "to",
          "type": "address"
        },
        {
          "internalType": "uint256",
          "name": "tokenId",
          "type": "uint256"
        }
      ],
      "name": "safeTransferFrom",
      "outputs": [],
      "stateMutability": "nonpayable",
      "type": "function"
    },
    {
      "inputs": [
        {
          "internalType": "address",
          "name": "from",
          "type": "address"
        },
        {
          "internalType": "address",
          "name": "to",
          "type": "address"
        },
        {
          "internalType": "uint256",
          "name": "tokenId",
          "type": "uint256"
        },
        {
          "internalType": "bytes",
          "name": "_data",
          "type": "bytes"
        }
      ],
      "name": "safeTransferFrom",
      "outputs": [],
      "stateMutability": "nonpayable",
      "type": "function"
    },
    {
      "inputs": [
        {
          "internalType": "address",
          "name": "operator",
          "type": "address"
        },
        {
          "internalType": "bool",
          "name": "approved",
          "type": "bool"
        }
      ],
      "name": "setApprovalForAll",
      "outputs": [],
      "stateMutability": "nonpayable",
      "type": "function"
    },
    {
      "inputs": [],
      "name": "symbol",
      "outputs": [
        {
          "internalType": "string",
          "name": "",
          "type": "string"
        }
      ],
      "stateMutability": "view",
      "type": "function"
    },
    {
      "inputs": [
        {
          "internalType": "uint256",
          "name": "index",
          "type": "uint256"
        }
      ],
      "name": "tokenByIndex",
      "outputs": [
        {
          "internalType": "uint256",
          "name": "",
          "type": "uint256"
        }
      ],
      "stateMutability": "view",
      "type": "function"
    },
    {
      "inputs": [
        {
          "internalType": "address",
          "name": "owner",
          "type": "address"
        },
        {
          "internalType": "uint256",
          "name": "index",
          "type": "uint256"
        }
      ],
      "name": "tokenOfOwnerByIndex",
      "outputs": [
        {
          "internalType": "uint256",
          "name": "",
          "type": "uint256"
        }
      ],
      "stateMutability": "view",
      "type": "function"
    },
    {
      "inputs": [
        {
          "internalType": "uint256",
          "name": "tokenId",
          "type": "uint256"
        }
      ],
      "name": "tokenURI",
      "outputs": [
        {
          "internalType": "string",
          "name": "",
          "type": "string"
        }
      ],
      "stateMutability": "view",
      "type": "function"
    },
    {
      "inputs": [],
      "name": "totalSupply",
      "outputs": [
        {
          "internalType": "uint256",
          "name": "",
          "type": "uint256"
        }
      ],
      "stateMutability": "view",
      "type": "function"
    },
    {
      "inputs": [
        {
          "internalType": "address",
          "name": "from",
          "type": "address"
        },
        {
          "internalType": "address",
          "name": "to",
          "type": "address"
        },
        {
          "internalType": "uint256",
          "name": "tokenId",
          "type": "uint256"
        }
      ],
      "name": "transferFrom",
      "outputs": [],
      "stateMutability": "nonpayable",
      "type": "function"
    },
    {
      "inputs": [],
      "name": "baseURI",
      "outputs": [
        {
          "internalType": "string",
          "name": "",
          "type": "string"
        }
      ],
      "stateMutability": "view",
      "type": "function"
    },
    {
      "inputs": [],
      "name": "pause",
      "outputs": [],
      "stateMutability": "nonpayable",
      "type": "function"
    },
    {
      "inputs": [],
      "name": "unpause",
      "outputs": [],
      "stateMutability": "nonpayable",
      "type": "function"
    },
    {
      "inputs": [
        {
          "internalType": "bytes4",
          "name": "interfaceId",
          "type": "bytes4"
        }
      ],
      "name": "supportsInterface",
      "outputs": [
        {
          "internalType": "bool",
          "name": "",
          "type": "bool"
        }
      ],
      "stateMutability": "view",
      "type": "function"
    }
  ],
  "bytecode": "0x60806040523480156200001157600080fd5b5060405162004896380380620048968339818101604052810190620000379190620005f2565b8282816002908051906020019062000051929190620003a5565b5080600390805190602001906200006a929190620003a5565b5050506000600c60006101000a81548160ff02191690831515021790555080600e9080519060200190620000a0929190620003a5565b50620000c56000801b620000b96200010f60201b60201c565b6200011760201b60201c565b620001067f65d7a28e3265b37a6474929f336521b332c1681b933f6cb9f3376673440d862a620000fa6200010f60201b60201c565b6200011760201b60201c565b50505062000710565b600033905090565b6200012982826200012d60201b60201c565b5050565b6200014482826200017560201b620010e61760201c565b6200017081600160008581526020019081526020016000206200026660201b620011c61790919060201c565b505050565b6200018782826200029e60201b60201c565b6200026257600160008084815260200190815260200160002060000160008373ffffffffffffffffffffffffffffffffffffffff1673ffffffffffffffffffffffffffffffffffffffff16815260200190815260200160002060006101000a81548160ff021916908315150217905550620002076200010f60201b60201c565b73ffffffffffffffffffffffffffffffffffffffff168173ffffffffffffffffffffffffffffffffffffffff16837f2f8788117e7eff1d82e926ec794901d17c78024a50270940304540a733656f0d60405160405180910390a45b5050565b600062000296836000018373ffffffffffffffffffffffffffffffffffffffff1660001b6200030860201b60201c565b905092915050565b600080600084815260200190815260200160002060000160008373ffffffffffffffffffffffffffffffffffffffff1673ffffffffffffffffffffffffffffffffffffffff16815260200190815260200160002060009054906101000a900460ff16905092915050565b60006200031c83836200038260201b60201c565b620003775782600001829080600181540180825580915050600190039060005260206000200160009091909190915055826000018054905083600101600084815260200190815260200160002081905550600190506200037c565b600090505b92915050565b600080836001016000848152602001908152602001600020541415905092915050565b828054620003b390620006da565b90600052602060002090601f016020900481019282620003d7576000855562000423565b82601f10620003f257805160ff191683800117855562000423565b8280016001018555821562000423579182015b828111156200042257825182559160200191906001019062000405565b5b50905062000432919062000436565b5090565b5b808211156200045157600081600090555060010162000437565b5090565b6000604051905090565b600080fd5b600080fd5b600080fd5b600080fd5b6000601f19601f8301169050919050565b7f4e487b7100000000000000000000000000000000000000000000000000000000600052604160045260246000fd5b620004be8262000473565b810181811067ffffffffffffffff82111715620004e057620004df62000484565b5b80604052505050565b6000620004f562000455565b9050620005038282620004b3565b919050565b600067ffffffffffffffff82111562000526576200052562000484565b5b620005318262000473565b9050602081019050919050565b60005b838110156200055e57808201518184015260208101905062000541565b838111156200056e576000848401525b50505050565b60006200058b620005858462000508565b620004e9565b905082815260208101848484011115620005aa57620005a96200046e565b5b620005b78482856200053e565b509392505050565b600082601f830112620005d757620005d662000469565b5b8151620005e984826020860162000574565b91505092915050565b6000806000606084860312156200060e576200060d6200045f565b5b600084015167ffffffffffffffff8111156200062f576200062e62000464565b5b6200063d86828701620005bf565b935050602084015167ffffffffffffffff81111562000661576200066062000464565b5b6200066f86828701620005bf565b925050604084015167ffffffffffffffff81111562000693576200069262000464565b5b620006a186828701620005bf565b9150509250925092565b7f4e487b7100000000000000000000000000000000000000000000000000000000600052602260045260246000fd5b60006002820490506001821680620006f357607f821691505b602082108114156200070a5762000709620006ab565b5b50919050565b61417680620007206000396000f3fe608060405234801561001057600080fd5b50600436106101cf5760003560e01c80636352211e11610104578063a217fddf116100a2578063ca15c87311610071578063ca15c87314610540578063d547741f14610570578063e63ab1e91461058c578063e985e9c5146105aa576101cf565b8063a217fddf146104ba578063a22cb465146104d8578063b88d4fde146104f4578063c87b56dd14610510576101cf565b80638456cb59116100de5780638456cb59146104325780639010d07c1461043c57806391d148541461046c57806395d89b411461049c576101cf565b80636352211e146103b45780636c0360eb146103e457806370a0823114610402576101cf565b80632f2ff15d116101715780633f4ba83a1161014b5780633f4ba83a1461034057806342842e0e1461034a5780634f6ccce7146103665780635c975abb14610396576101cf565b80632f2ff15d146102d85780632f745c59146102f457806336568abe14610324576101cf565b8063095ea7b3116101ad578063095ea7b31461025257806318160ddd1461026e57806323b872dd1461028c578063248a9ca3146102a8576101cf565b806301ffc9a7146101d457806306fdde0314610204578063081812fc14610222575b600080fd5b6101ee60048036038101906101e99190612a8f565b6105da565b6040516101fb9190612ad7565b60405180910390f35b61020c6105ec565b6040516102199190612b8b565b60405180910390f35b61023c60048036038101906102379190612be3565b61067e565b6040516102499190612c51565b60405180910390f35b61026c60048036038101906102679190612c98565b610703565b005b61027661081b565b6040516102839190612ce7565b60405180910390f35b6102a660048036038101906102a19190612d02565b610828565b005b6102c260048036038101906102bd9190612d8b565b610888565b6040516102cf9190612dc7565b60405180910390f35b6102f260048036038101906102ed9190612de2565b6108a7565b005b61030e60048036038101906103099190612c98565b6108d0565b60405161031b9190612ce7565b60405180910390f35b61033e60048036038101906103399190612de2565b610975565b005b6103486109f8565b005b610364600480360381019061035f9190612d02565b610a72565b005b610380600480360381019061037b9190612be3565b610a92565b60405161038d9190612ce7565b60405180910390f35b61039e610b03565b6040516103ab9190612ad7565b60405180910390f35b6103ce60048036038101906103c99190612be3565b610b1a565b6040516103db9190612c51565b60405180910390f35b6103ec610bcc565b6040516103f99190612b8b565b60405180910390f35b61041c60048036038101906104179190612e22565b610c5e565b6040516104299190612ce7565b60405180910390f35b61043a610d16565b005b61045660048036038101906104519190612e4f565b610d90565b6040516104639190612c51565b60405180910390f35b61048660048036038101906104819190612de2565b610dbf565b6040516104939190612ad7565b60405180910390f35b6104a4610e29565b6040516104b19190612b8b565b60405180910390f35b6104c2610ebb565b6040516104cf9190612dc7565b60405180910390f35b6104f260048036038101906104ed9190612ebb565b610ec2565b005b61050e60048036038101906105099190613030565b610ed8565b005b61052a60048036038101906105259190612be3565b610f3a565b6040516105379190612b8b565b60405180910390f35b61055a60048036038101906105559190612d8b565b610fe1565b6040516105679190612ce7565b60405180910390f35b61058a60048036038101906105859190612de2565b611005565b005b61059461102e565b6040516105a19190612dc7565b60405180910390f35b6105c460048036038101906105bf91906130b3565b611052565b6040516105d19190612ad7565b60405180910390f35b60006105e5826111f6565b9050919050565b6060600280546105fb90613122565b80601f016020809104026020016040519081016040528092919081815260200182805461062790613122565b80156106745780601f1061064957610100808354040283529160200191610674565b820191906000526020600020905b81548152906001019060200180831161065757829003601f168201915b5050505050905090565b600061068982611270565b6106c8576040517f08c379a00000000000000000000000000000000000000000000000000000000081526004016106bf906131c6565b60405180910390fd5b6006600083815260200190815260200160002060009054906101000a900473ffffffffffffffffffffffffffffffffffffffff169050919050565b600061070e82610b1a565b90508073ffffffffffffffffffffffffffffffffffffffff168373ffffffffffffffffffffffffffffffffffffffff16141561077f576040517f08c379a000000000000000000000000000000000000000000000000000000000815260040161077690613258565b60405180910390fd5b8073ffffffffffffffffffffffffffffffffffffffff1661079e6112dc565b73ffffffffffffffffffffffffffffffffffffffff1614806107cd57506107cc816107c76112dc565b611052565b5b61080c576040517f08c379a0000000000000000000000000000000000000000000000000000000008152600401610803906132ea565b60405180910390fd5b61081683836112e4565b505050565b6000600a80549050905090565b6108396108336112dc565b8261139d565b610878576040517f08c379a000000000000000000000000000000000000000000000000000000000815260040161086f9061337c565b60405180910390fd5b61088383838361147b565b505050565b6000806000838152602001908152602001600020600101549050919050565b6108b082610888565b6108c1816108bc6112dc565b6116d7565b6108cb8383611774565b505050565b60006108db83610c5e565b821061091c576040517f08c379a00000000000000000000000000000000000000000000000000000000081526004016109139061340e565b60405180910390fd5b600860008473ffffffffffffffffffffffffffffffffffffffff1673ffffffffffffffffffffffffffffffffffffffff168152602001908152602001600020600083815260200190815260200160002054905092915050565b61097d6112dc565b73ffffffffffffffffffffffffffffffffffffffff168173ffffffffffffffffffffffffffffffffffffffff16146109ea576040517f08c379a00000000000000000000000000000000000000000000000000000000081526004016109e1906134a0565b60405180910390fd5b6109f482826117a8565b5050565b610a297f65d7a28e3265b37a6474929f336521b332c1681b933f6cb9f3376673440d862a610a246112dc565b610dbf565b610a68576040517f08c379a0000000000000000000000000000000000000000000000000000000008152600401610a5f90613532565b60405180910390fd5b610a706117dc565b565b610a8d83838360405180602001604052806000815250610ed8565b505050565b6000610a9c61081b565b8210610add576040517f08c379a0000000000000000000000000000000000000000000000000000000008152600401610ad4906135c4565b60405180910390fd5b600a8281548110610af157610af06135e4565b5b90600052602060002001549050919050565b6000600c60009054906101000a900460ff16905090565b6000806004600084815260200190815260200160002060009054906101000a900473ffffffffffffffffffffffffffffffffffffffff169050600073ffffffffffffffffffffffffffffffffffffffff168173ffffffffffffffffffffffffffffffffffffffff161415610bc3576040517f08c379a0000000000000000000000000000000000000000000000000000000008152600401610bba90613685565b60405180910390fd5b80915050919050565b6060600e8054610bdb90613122565b80601f0160208091040260200160405190810160405280929190818152602001828054610c0790613122565b8015610c545780601f10610c2957610100808354040283529160200191610c54565b820191906000526020600020905b815481529060010190602001808311610c3757829003601f168201915b5050505050905090565b60008073ffffffffffffffffffffffffffffffffffffffff168273ffffffffffffffffffffffffffffffffffffffff161415610ccf576040517f08c379a0000000000000000000000000000000000000000000000000000000008152600401610cc690613717565b60405180910390fd5b600560008373ffffffffffffffffffffffffffffffffffffffff1673ffffffffffffffffffffffffffffffffffffffff168152602001908152602001600020549050919050565b610d477f65d7a28e3265b37a6474929f336521b332c1681b933f6cb9f3376673440d862a610d426112dc565b610dbf565b610d86576040517f08c379a0000000000000000000000000000000000000000000000000000000008152600401610d7d906137a9565b60405180910390fd5b610d8e61187e565b565b6000610db7826001600086815260200190815260200160002061192190919063ffffffff16565b905092915050565b600080600084815260200190815260200160002060000160008373ffffffffffffffffffffffffffffffffffffffff1673ffffffffffffffffffffffffffffffffffffffff16815260200190815260200160002060009054906101000a900460ff16905092915050565b606060038054610e3890613122565b80601f0160208091040260200160405190810160405280929190818152602001828054610e6490613122565b8015610eb15780601f10610e8657610100808354040283529160200191610eb1565b820191906000526020600020905b815481529060010190602001808311610e9457829003601f168201915b5050505050905090565b6000801b81565b610ed4610ecd6112dc565b838361193b565b5050565b610ee9610ee36112dc565b8361139d565b610f28576040517f08c379a0000000000000000000000000000000000000000000000000000000008152600401610f1f9061337c565b60405180910390fd5b610f3484848484611aa8565b50505050565b6060610f4582611270565b610f84576040517f08c379a0000000000000000000000000000000000000000000000000000000008152600401610f7b9061383b565b60405180910390fd5b6000610f8e611b04565b90506000815111610fae5760405180602001604052806000815250610fd9565b80610fb884611b1b565b604051602001610fc9929190613897565b6040516020818303038152906040525b915050919050565b6000610ffe60016000848152602001908152602001600020611c7c565b9050919050565b61100e82610888565b61101f8161101a6112dc565b6116d7565b61102983836117a8565b505050565b7f65d7a28e3265b37a6474929f336521b332c1681b933f6cb9f3376673440d862a81565b6000600760008473ffffffffffffffffffffffffffffffffffffffff1673ffffffffffffffffffffffffffffffffffffffff16815260200190815260200160002060008373ffffffffffffffffffffffffffffffffffffffff1673ffffffffffffffffffffffffffffffffffffffff16815260200190815260200160002060009054906101000a900460ff16905092915050565b6110f08282610dbf565b6111c257600160008084815260200190815260200160002060000160008373ffffffffffffffffffffffffffffffffffffffff1673ffffffffffffffffffffffffffffffffffffffff16815260200190815260200160002060006101000a81548160ff0219169083151502179055506111676112dc565b73ffffffffffffffffffffffffffffffffffffffff168173ffffffffffffffffffffffffffffffffffffffff16837f2f8788117e7eff1d82e926ec794901d17c78024a50270940304540a733656f0d60405160405180910390a45b5050565b60006111ee836000018373ffffffffffffffffffffffffffffffffffffffff1660001b611c91565b905092915050565b60007f780e9d63000000000000000000000000000000000000000000000000000000007bffffffffffffffffffffffffffffffffffffffffffffffffffffffff1916827bffffffffffffffffffffffffffffffffffffffffffffffffffffffff19161480611269575061126882611d01565b5b9050919050565b60008073ffffffffffffffffffffffffffffffffffffffff166004600084815260200190815260200160002060009054906101000a900473ffffffffffffffffffffffffffffffffffffffff1673ffffffffffffffffffffffffffffffffffffffff1614159050919050565b600033905090565b816006600083815260200190815260200160002060006101000a81548173ffffffffffffffffffffffffffffffffffffffff021916908373ffffffffffffffffffffffffffffffffffffffff160217905550808273ffffffffffffffffffffffffffffffffffffffff1661135783610b1a565b73ffffffffffffffffffffffffffffffffffffffff167f8c5be1e5ebec7d5bd14f71427d1e84f3dd0314c0f7b2291e5b200ac8c7c3b92560405160405180910390a45050565b60006113a882611270565b6113e7576040517f08c379a00000000000000000000000000000000000000000000000000000000081526004016113de9061392d565b60405180910390fd5b60006113f283610b1a565b90508073ffffffffffffffffffffffffffffffffffffffff168473ffffffffffffffffffffffffffffffffffffffff16148061146157508373ffffffffffffffffffffffffffffffffffffffff166114498461067e565b73ffffffffffffffffffffffffffffffffffffffff16145b8061147257506114718185611052565b5b91505092915050565b8273ffffffffffffffffffffffffffffffffffffffff1661149b82610b1a565b73ffffffffffffffffffffffffffffffffffffffff16146114f1576040517f08c379a00000000000000000000000000000000000000000000000000000000081526004016114e8906139bf565b60405180910390fd5b600073ffffffffffffffffffffffffffffffffffffffff168273ffffffffffffffffffffffffffffffffffffffff161415611561576040517f08c379a000000000000000000000000000000000000000000000000000000000815260040161155890613a51565b60405180910390fd5b61156c838383611de3565b6115776000826112e4565b6001600560008573ffffffffffffffffffffffffffffffffffffffff1673ffffffffffffffffffffffffffffffffffffffff16815260200190815260200160002060008282546115c79190613aa0565b925050819055506001600560008473ffffffffffffffffffffffffffffffffffffffff1673ffffffffffffffffffffffffffffffffffffffff168152602001908152602001600020600082825461161e9190613ad4565b92505081905550816004600083815260200190815260200160002060006101000a81548173ffffffffffffffffffffffffffffffffffffffff021916908373ffffffffffffffffffffffffffffffffffffffff160217905550808273ffffffffffffffffffffffffffffffffffffffff168473ffffffffffffffffffffffffffffffffffffffff167fddf252ad1be2c89b69c2b068fc378daa952ba7f163c4a11628f55a4df523b3ef60405160405180910390a4505050565b6116e18282610dbf565b611770576117068173ffffffffffffffffffffffffffffffffffffffff166014611df3565b6117148360001c6020611df3565b604051602001611725929190613bc2565b6040516020818303038152906040526040517f08c379a00000000000000000000000000000000000000000000000000000000081526004016117679190612b8b565b60405180910390fd5b5050565b61177e82826110e6565b6117a381600160008581526020019081526020016000206111c690919063ffffffff16565b505050565b6117b2828261202f565b6117d7816001600085815260200190815260200160002061211090919063ffffffff16565b505050565b6117e4610b03565b611823576040517f08c379a000000000000000000000000000000000000000000000000000000000815260040161181a90613c48565b60405180910390fd5b6000600c60006101000a81548160ff0219169083151502179055507f5db9ee0a495bf2e6ff9c91a7834c1ba4fdd244a5e8aa4e537bd38aeae4b073aa6118676112dc565b6040516118749190612c51565b60405180910390a1565b611886610b03565b156118c6576040517f08c379a00000000000000000000000000000000000000000000000000000000081526004016118bd90613cb4565b60405180910390fd5b6001600c60006101000a81548160ff0219169083151502179055507f62e78cea01bee320cd4e420270b5ea74000d11b0c9f74754ebdbfc544b05a25861190a6112dc565b6040516119179190612c51565b60405180910390a1565b60006119308360000183612140565b60001c905092915050565b8173ffffffffffffffffffffffffffffffffffffffff168373ffffffffffffffffffffffffffffffffffffffff1614156119aa576040517f08c379a00000000000000000000000000000000000000000000000000000000081526004016119a190613d20565b60405180910390fd5b80600760008573ffffffffffffffffffffffffffffffffffffffff1673ffffffffffffffffffffffffffffffffffffffff16815260200190815260200160002060008473ffffffffffffffffffffffffffffffffffffffff1673ffffffffffffffffffffffffffffffffffffffff16815260200190815260200160002060006101000a81548160ff0219169083151502179055508173ffffffffffffffffffffffffffffffffffffffff168373ffffffffffffffffffffffffffffffffffffffff167f17307eab39ab6107e8899845ad3d59bd9653f200f220920489ca2b5937696c3183604051611a9b9190612ad7565b60405180910390a3505050565b611ab384848461147b565b611abf8484848461216b565b611afe576040517f08c379a0000000000000000000000000000000000000000000000000000000008152600401611af590613db2565b60405180910390fd5b50505050565b606060405180602001604052806000815250905090565b60606000821415611b63576040518060400160405280600181526020017f30000000000000000000000000000000000000000000000000000000000000008152509050611c77565b600082905060005b60008214611b95578080611b7e90613dd2565b915050600a82611b8e9190613e4a565b9150611b6b565b60008167ffffffffffffffff811115611bb157611bb0612f05565b5b6040519080825280601f01601f191660200182016040528015611be35781602001600182028036833780820191505090505b5090505b60008514611c7057600182611bfc9190613aa0565b9150600a85611c0b9190613e7b565b6030611c179190613ad4565b60f81b818381518110611c2d57611c2c6135e4565b5b60200101907effffffffffffffffffffffffffffffffffffffffffffffffffffffffffffff1916908160001a905350600a85611c699190613e4a565b9450611be7565b8093505050505b919050565b6000611c8a826000016122f3565b9050919050565b6000611c9d8383612304565b611cf6578260000182908060018154018082558091505060019003906000526020600020016000909190919091505582600001805490508360010160008481526020019081526020016000208190555060019050611cfb565b600090505b92915050565b60007f80ac58cd000000000000000000000000000000000000000000000000000000007bffffffffffffffffffffffffffffffffffffffffffffffffffffffff1916827bffffffffffffffffffffffffffffffffffffffffffffffffffffffff19161480611dcc57507f5b5e139f000000000000000000000000000000000000000000000000000000007bffffffffffffffffffffffffffffffffffffffffffffffffffffffff1916827bffffffffffffffffffffffffffffffffffffffffffffffffffffffff1916145b80611ddc5750611ddb82612327565b5b9050919050565b611dee8383836123a1565b505050565b606060006002836002611e069190613eac565b611e109190613ad4565b67ffffffffffffffff811115611e2957611e28612f05565b5b6040519080825280601f01601f191660200182016040528015611e5b5781602001600182028036833780820191505090505b5090507f300000000000000000000000000000000000000000000000000000000000000081600081518110611e9357611e926135e4565b5b60200101907effffffffffffffffffffffffffffffffffffffffffffffffffffffffffffff1916908160001a9053507f780000000000000000000000000000000000000000000000000000000000000081600181518110611ef757611ef66135e4565b5b60200101907effffffffffffffffffffffffffffffffffffffffffffffffffffffffffffff1916908160001a90535060006001846002611f379190613eac565b611f419190613ad4565b90505b6001811115611fe1577f3031323334353637383961626364656600000000000000000000000000000000600f861660108110611f8357611f826135e4565b5b1a60f81b828281518110611f9a57611f996135e4565b5b60200101907effffffffffffffffffffffffffffffffffffffffffffffffffffffffffffff1916908160001a905350600485901c945080611fda90613f06565b9050611f44565b5060008414612025576040517f08c379a000000000000000000000000000000000000000000000000000000000815260040161201c90613f7c565b60405180910390fd5b8091505092915050565b6120398282610dbf565b1561210c57600080600084815260200190815260200160002060000160008373ffffffffffffffffffffffffffffffffffffffff1673ffffffffffffffffffffffffffffffffffffffff16815260200190815260200160002060006101000a81548160ff0219169083151502179055506120b16112dc565b73ffffffffffffffffffffffffffffffffffffffff168173ffffffffffffffffffffffffffffffffffffffff16837ff6391f5c32d9c69d2a47ea670b442974b53935d1edc7fd64eb21e047a839171b60405160405180910390a45b5050565b6000612138836000018373ffffffffffffffffffffffffffffffffffffffff1660001b6123f9565b905092915050565b6000826000018281548110612158576121576135e4565b5b9060005260206000200154905092915050565b600061218c8473ffffffffffffffffffffffffffffffffffffffff1661250d565b156122e6578373ffffffffffffffffffffffffffffffffffffffff1663150b7a026121b56112dc565b8786866040518563ffffffff1660e01b81526004016121d79493929190613ff1565b6020604051808303816000875af192505050801561221357506040513d601f19601f820116820180604052508101906122109190614052565b60015b612296573d8060008114612243576040519150601f19603f3d011682016040523d82523d6000602084013e612248565b606091505b5060008151141561228e576040517f08c379a000000000000000000000000000000000000000000000000000000000815260040161228590613db2565b60405180910390fd5b805181602001fd5b63150b7a0260e01b7bffffffffffffffffffffffffffffffffffffffffffffffffffffffff1916817bffffffffffffffffffffffffffffffffffffffffffffffffffffffff1916149150506122eb565b600190505b949350505050565b600081600001805490509050919050565b600080836001016000848152602001908152602001600020541415905092915050565b60007f5a05180f000000000000000000000000000000000000000000000000000000007bffffffffffffffffffffffffffffffffffffffffffffffffffffffff1916827bffffffffffffffffffffffffffffffffffffffffffffffffffffffff1916148061239a575061239982612520565b5b9050919050565b6123ac83838361259a565b6123b4610b03565b156123f4576040517f08c379a00000000000000000000000000000000000000000000000000000000081526004016123eb906140f1565b60405180910390fd5b505050565b6000808360010160008481526020019081526020016000205490506000811461250157600060018261242b9190613aa0565b90506000600186600001805490506124439190613aa0565b90508181146124b2576000866000018281548110612464576124636135e4565b5b9060005260206000200154905080876000018481548110612488576124876135e4565b5b90600052602060002001819055508387600101600083815260200190815260200160002081905550505b856000018054806124c6576124c5614111565b5b600190038181906000526020600020016000905590558560010160008681526020019081526020016000206000905560019350505050612507565b60009150505b92915050565b600080823b905060008111915050919050565b60007f7965db0b000000000000000000000000000000000000000000000000000000007bffffffffffffffffffffffffffffffffffffffffffffffffffffffff1916827bffffffffffffffffffffffffffffffffffffffffffffffffffffffff191614806125935750612592826126ae565b5b9050919050565b6125a5838383612718565b600073ffffffffffffffffffffffffffffffffffffffff168373ffffffffffffffffffffffffffffffffffffffff1614156125e8576125e38161271d565b612627565b8173ffffffffffffffffffffffffffffffffffffffff168373ffffffffffffffffffffffffffffffffffffffff1614612626576126258382612766565b5b5b600073ffffffffffffffffffffffffffffffffffffffff168273ffffffffffffffffffffffffffffffffffffffff16141561266a57612665816128d3565b6126a9565b8273ffffffffffffffffffffffffffffffffffffffff168273ffffffffffffffffffffffffffffffffffffffff16146126a8576126a782826129a4565b5b5b505050565b60007f01ffc9a7000000000000000000000000000000000000000000000000000000007bffffffffffffffffffffffffffffffffffffffffffffffffffffffff1916827bffffffffffffffffffffffffffffffffffffffffffffffffffffffff1916149050919050565b505050565b600a80549050600b600083815260200190815260200160002081905550600a81908060018154018082558091505060019003906000526020600020016000909190919091505550565b6000600161277384610c5e565b61277d9190613aa0565b9050600060096000848152602001908152602001600020549050818114612862576000600860008673ffffffffffffffffffffffffffffffffffffffff1673ffffffffffffffffffffffffffffffffffffffff168152602001908152602001600020600084815260200190815260200160002054905080600860008773ffffffffffffffffffffffffffffffffffffffff1673ffffffffffffffffffffffffffffffffffffffff168152602001908152602001600020600084815260200190815260200160002081905550816009600083815260200190815260200160002081905550505b6009600084815260200190815260200160002060009055600860008573ffffffffffffffffffffffffffffffffffffffff1673ffffffffffffffffffffffffffffffffffffffff16815260200190815260200160002060008381526020019081526020016000206000905550505050565b60006001600a805490506128e79190613aa0565b90506000600b60008481526020019081526020016000205490506000600a8381548110612917576129166135e4565b5b9060005260206000200154905080600a8381548110612939576129386135e4565b5b906000526020600020018190555081600b600083815260200190815260200160002081905550600b600085815260200190815260200160002060009055600a80548061298857612987614111565b5b6001900381819060005260206000200160009055905550505050565b60006129af83610c5e565b905081600860008573ffffffffffffffffffffffffffffffffffffffff1673ffffffffffffffffffffffffffffffffffffffff168152602001908152602001600020600083815260200190815260200160002081905550806009600084815260200190815260200160002081905550505050565b6000604051905090565b600080fd5b600080fd5b60007fffffffff0000000000000000000000000000000000000000000000000000000082169050919050565b612a6c81612a37565b8114612a7757600080fd5b50565b600081359050612a8981612a63565b92915050565b600060208284031215612aa557612aa4612a2d565b5b6000612ab384828501612a7a565b91505092915050565b60008115159050919050565b612ad181612abc565b82525050565b6000602082019050612aec6000830184612ac8565b92915050565b600081519050919050565b600082825260208201905092915050565b60005b83811015612b2c578082015181840152602081019050612b11565b83811115612b3b576000848401525b50505050565b6000601f19601f8301169050919050565b6000612b5d82612af2565b612b678185612afd565b9350612b77818560208601612b0e565b612b8081612b41565b840191505092915050565b60006020820190508181036000830152612ba58184612b52565b905092915050565b6000819050919050565b612bc081612bad565b8114612bcb57600080fd5b50565b600081359050612bdd81612bb7565b92915050565b600060208284031215612bf957612bf8612a2d565b5b6000612c0784828501612bce565b91505092915050565b600073ffffffffffffffffffffffffffffffffffffffff82169050919050565b6000612c3b82612c10565b9050919050565b612c4b81612c30565b82525050565b6000602082019050612c666000830184612c42565b92915050565b612c7581612c30565b8114612c8057600080fd5b50565b600081359050612c9281612c6c565b92915050565b60008060408385031215612caf57612cae612a2d565b5b6000612cbd85828601612c83565b9250506020612cce85828601612bce565b9150509250929050565b612ce181612bad565b82525050565b6000602082019050612cfc6000830184612cd8565b92915050565b600080600060608486031215612d1b57612d1a612a2d565b5b6000612d2986828701612c83565b9350506020612d3a86828701612c83565b9250506040612d4b86828701612bce565b9150509250925092565b6000819050919050565b612d6881612d55565b8114612d7357600080fd5b50565b600081359050612d8581612d5f565b92915050565b600060208284031215612da157612da0612a2d565b5b6000612daf84828501612d76565b91505092915050565b612dc181612d55565b82525050565b6000602082019050612ddc6000830184612db8565b92915050565b60008060408385031215612df957612df8612a2d565b5b6000612e0785828601612d76565b9250506020612e1885828601612c83565b9150509250929050565b600060208284031215612e3857612e37612a2d565b5b6000612e4684828501612c83565b91505092915050565b60008060408385031215612e6657612e65612a2d565b5b6000612e7485828601612d76565b9250506020612e8585828601612bce565b9150509250929050565b612e9881612abc565b8114612ea357600080fd5b50565b600081359050612eb581612e8f565b92915050565b60008060408385031215612ed257612ed1612a2d565b5b6000612ee085828601612c83565b9250506020612ef185828601612ea6565b9150509250929050565b600080fd5b600080fd5b7f4e487b7100000000000000000000000000000000000000000000000000000000600052604160045260246000fd5b612f3d82612b41565b810181811067ffffffffffffffff82111715612f5c57612f5b612f05565b5b80604052505050565b6000612f6f612a23565b9050612f7b8282612f34565b919050565b600067ffffffffffffffff821115612f9b57612f9a612f05565b5b612fa482612b41565b9050602081019050919050565b82818337600083830152505050565b6000612fd3612fce84612f80565b612f65565b905082815260208101848484011115612fef57612fee612f00565b5b612ffa848285612fb1565b509392505050565b600082601f83011261301757613016612efb565b5b8135613027848260208601612fc0565b91505092915050565b6000806000806080858703121561304a57613049612a2d565b5b600061305887828801612c83565b945050602061306987828801612c83565b935050604061307a87828801612bce565b925050606085013567ffffffffffffffff81111561309b5761309a612a32565b5b6130a787828801613002565b91505092959194509250565b600080604083850312156130ca576130c9612a2d565b5b60006130d885828601612c83565b92505060206130e985828601612c83565b9150509250929050565b7f4e487b7100000000000000000000000000000000000000000000000000000000600052602260045260246000fd5b6000600282049050600182168061313a57607f821691505b6020821081141561314e5761314d6130f3565b5b50919050565b7f4552433732313a20617070726f76656420717565727920666f72206e6f6e657860008201527f697374656e7420746f6b656e0000000000000000000000000000000000000000602082015250565b60006131b0602c83612afd565b91506131bb82613154565b604082019050919050565b600060208201905081810360008301526131df816131a3565b9050919050565b7f4552433732313a20617070726f76616c20746f2063757272656e74206f776e6560008201527f7200000000000000000000000000000000000000000000000000000000000000602082015250565b6000613242602183612afd565b915061324d826131e6565b604082019050919050565b6000602082019050818103600083015261327181613235565b9050919050565b7f4552433732313a20617070726f76652063616c6c6572206973206e6f74206f7760008201527f6e6572206e6f7220617070726f76656420666f7220616c6c0000000000000000602082015250565b60006132d4603883612afd565b91506132df82613278565b604082019050919050565b60006020820190508181036000830152613303816132c7565b9050919050565b7f4552433732313a207472616e736665722063616c6c6572206973206e6f74206f60008201527f776e6572206e6f7220617070726f766564000000000000000000000000000000602082015250565b6000613366603183612afd565b91506133718261330a565b604082019050919050565b6000602082019050818103600083015261339581613359565b9050919050565b7f455243373231456e756d657261626c653a206f776e657220696e646578206f7560008201527f74206f6620626f756e6473000000000000000000000000000000000000000000602082015250565b60006133f8602b83612afd565b91506134038261339c565b604082019050919050565b60006020820190508181036000830152613427816133eb565b9050919050565b7f416363657373436f6e74726f6c3a2063616e206f6e6c792072656e6f756e636560008201527f20726f6c657320666f722073656c660000000000000000000000000000000000602082015250565b600061348a602f83612afd565b91506134958261342e565b604082019050919050565b600060208201905081810360008301526134b98161347d565b9050919050565b7f4552433732315072657365744d696e7465725061757365724175746f49643a2060008201527f6d75737420686176652070617573657220726f6c6520746f20756e7061757365602082015250565b600061351c604083612afd565b9150613527826134c0565b604082019050919050565b6000602082019050818103600083015261354b8161350f565b9050919050565b7f455243373231456e756d657261626c653a20676c6f62616c20696e646578206f60008201527f7574206f6620626f756e64730000000000000000000000000000000000000000602082015250565b60006135ae602c83612afd565b91506135b982613552565b604082019050919050565b600060208201905081810360008301526135dd816135a1565b9050919050565b7f4e487b7100000000000000000000000000000000000000000000000000000000600052603260045260246000fd5b7f4552433732313a206f776e657220717565727920666f72206e6f6e657869737460008201527f656e7420746f6b656e0000000000000000000000000000000000000000000000602082015250565b600061366f602983612afd565b915061367a82613613565b604082019050919050565b6000602082019050818103600083015261369e81613662565b9050919050565b7f4552433732313a2062616c616e636520717565727920666f7220746865207a6560008201527f726f206164647265737300000000000000000000000000000000000000000000602082015250565b6000613701602a83612afd565b915061370c826136a5565b604082019050919050565b60006020820190508181036000830152613730816136f4565b9050919050565b7f4552433732315072657365744d696e7465725061757365724175746f49643a2060008201527f6d75737420686176652070617573657220726f6c6520746f2070617573650000602082015250565b6000613793603e83612afd565b915061379e82613737565b604082019050919050565b600060208201905081810360008301526137c281613786565b9050919050565b7f4552433732314d657461646174613a2055524920717565727920666f72206e6f60008201527f6e6578697374656e7420746f6b656e0000000000000000000000000000000000602082015250565b6000613825602f83612afd565b9150613830826137c9565b604082019050919050565b6000602082019050818103600083015261385481613818565b9050919050565b600081905092915050565b600061387182612af2565b61387b818561385b565b935061388b818560208601612b0e565b80840191505092915050565b60006138a38285613866565b91506138af8284613866565b91508190509392505050565b7f4552433732313a206f70657261746f7220717565727920666f72206e6f6e657860008201527f697374656e7420746f6b656e0000000000000000000000000000000000000000602082015250565b6000613917602c83612afd565b9150613922826138bb565b604082019050919050565b600060208201905081810360008301526139468161390a565b9050919050565b7f4552433732313a207472616e73666572206f6620746f6b656e2074686174206960008201527f73206e6f74206f776e0000000000000000000000000000000000000000000000602082015250565b60006139a9602983612afd565b91506139b48261394d565b604082019050919050565b600060208201905081810360008301526139d88161399c565b9050919050565b7f4552433732313a207472616e7366657220746f20746865207a65726f2061646460008201527f7265737300000000000000000000000000000000000000000000000000000000602082015250565b6000613a3b602483612afd565b9150613a46826139df565b604082019050919050565b60006020820190508181036000830152613a6a81613a2e565b9050919050565b7f4e487b7100000000000000000000000000000000000000000000000000000000600052601160045260246000fd5b6000613aab82612bad565b9150613ab683612bad565b925082821015613ac957613ac8613a71565b5b828203905092915050565b6000613adf82612bad565b9150613aea83612bad565b9250827fffffffffffffffffffffffffffffffffffffffffffffffffffffffffffffffff03821115613b1f57613b1e613a71565b5b828201905092915050565b7f416363657373436f6e74726f6c3a206163636f756e7420000000000000000000600082015250565b6000613b6060178361385b565b9150613b6b82613b2a565b601782019050919050565b7f206973206d697373696e6720726f6c6520000000000000000000000000000000600082015250565b6000613bac60118361385b565b9150613bb782613b76565b601182019050919050565b6000613bcd82613b53565b9150613bd98285613866565b9150613be482613b9f565b9150613bf08284613866565b91508190509392505050565b7f5061757361626c653a206e6f7420706175736564000000000000000000000000600082015250565b6000613c32601483612afd565b9150613c3d82613bfc565b602082019050919050565b60006020820190508181036000830152613c6181613c25565b9050919050565b7f5061757361626c653a2070617573656400000000000000000000000000000000600082015250565b6000613c9e601083612afd565b9150613ca982613c68565b602082019050919050565b60006020820190508181036000830152613ccd81613c91565b9050919050565b7f4552433732313a20617070726f766520746f2063616c6c657200000000000000600082015250565b6000613d0a601983612afd565b9150613d1582613cd4565b602082019050919050565b60006020820190508181036000830152613d3981613cfd565b9050919050565b7f4552433732313a207472616e7366657220746f206e6f6e20455243373231526560008201527f63656976657220696d706c656d656e7465720000000000000000000000000000602082015250565b6000613d9c603283612afd565b9150613da782613d40565b604082019050919050565b60006020820190508181036000830152613dcb81613d8f565b9050919050565b6000613ddd82612bad565b91507fffffffffffffffffffffffffffffffffffffffffffffffffffffffffffffffff821415613e1057613e0f613a71565b5b600182019050919050565b7f4e487b7100000000000000000000000000000000000000000000000000000000600052601260045260246000fd5b6000613e5582612bad565b9150613e6083612bad565b925082613e7057613e6f613e1b565b5b828204905092915050565b6000613e8682612bad565b9150613e9183612bad565b925082613ea157613ea0613e1b565b5b828206905092915050565b6000613eb782612bad565b9150613ec283612bad565b9250817fffffffffffffffffffffffffffffffffffffffffffffffffffffffffffffffff0483118215151615613efb57613efa613a71565b5b828202905092915050565b6000613f1182612bad565b91506000821415613f2557613f24613a71565b5b600182039050919050565b7f537472696e67733a20686578206c656e67746820696e73756666696369656e74600082015250565b6000613f66602083612afd565b9150613f7182613f30565b602082019050919050565b60006020820190508181036000830152613f9581613f59565b9050919050565b600081519050919050565b600082825260208201905092915050565b6000613fc382613f9c565b613fcd8185613fa7565b9350613fdd818560208601612b0e565b613fe681612b41565b840191505092915050565b60006080820190506140066000830187612c42565b6140136020830186612c42565b6140206040830185612cd8565b81810360608301526140328184613fb8565b905095945050505050565b60008151905061404c81612a63565b92915050565b60006020828403121561406857614067612a2d565b5b60006140768482850161403d565b91505092915050565b7f4552433732315061757361626c653a20746f6b656e207472616e73666572207760008201527f68696c6520706175736564000000000000000000000000000000000000000000602082015250565b60006140db602b83612afd565b91506140e68261407f565b604082019050919050565b6000602082019050818103600083015261410a816140ce565b9050919050565b7f4e487b7100000000000000000000000000000000000000000000000000000000600052603160045260246000fdfea2646970667358221220d2cb899e0d346e72595483b7fff8bd91978ff21500f89be985a102dd7455319764736f6c634300080a0033",
  "immutableReferences": {},
  "source": "// SPDX-License-Identifier: MIT\npragma solidity ^0.8.0;\n\nimport \"@openzeppelin/contracts/token/ERC721/extensions/ERC721Enumerable.sol\";\nimport \"@openzeppelin/contracts/token/ERC721/extensions/ERC721Pausable.sol\";\nimport \"@openzeppelin/contracts/token/ERC721/ERC721.sol\";\nimport \"@openzeppelin/contracts/utils/Counters.sol\";\nimport \"@openzeppelin/contracts/access/AccessControlEnumerable.sol\";\n\n//ERC721\ncontract ERC721PausableContract is\n    AccessControlEnumerable,\n    ERC721Enumerable,\n    ERC721Pausable\n{\n    using Counters for Counters.Counter;\n    Counters.Counter private _tokenIds;\n\n    bytes32 public constant PAUSER_ROLE = keccak256(\"PAUSER_ROLE\");\n\n    string private _baseTokenURI;\n\n    constructor(\n        string memory name,\n        string memory symbol,\n        string memory baseTokenURI\n    ) ERC721(name, symbol) {\n        _baseTokenURI = baseTokenURI;\n\n        _setupRole(DEFAULT_ADMIN_ROLE, _msgSender());\n\n        _setupRole(PAUSER_ROLE, _msgSender());\n    }\n\n    function baseURI() external view returns (string memory) {\n        return _baseTokenURI;\n    }\n\n    function pause() public virtual {\n        require(\n            hasRole(PAUSER_ROLE, _msgSender()),\n            \"ERC721PresetMinterPauserAutoId: must have pauser role to pause\"\n        );\n        _pause();\n    }\n\n    function unpause() public virtual {\n        require(\n            hasRole(PAUSER_ROLE, _msgSender()),\n            \"ERC721PresetMinterPauserAutoId: must have pauser role to unpause\"\n        );\n        _unpause();\n    }\n\n    function _beforeTokenTransfer(\n        address from,\n        address to,\n        uint256 tokenId\n    ) internal virtual override(ERC721Enumerable, ERC721Pausable) {\n        super._beforeTokenTransfer(from, to, tokenId);\n    }\n\n    function supportsInterface(bytes4 interfaceId)\n        public\n        view\n        virtual\n        override(AccessControlEnumerable, ERC721, ERC721Enumerable)\n        returns (bool)\n    {\n        return super.supportsInterface(interfaceId);\n    }\n}\n",
  "sourcePath": "/Users/q/study/ethereum/mint-coin/contracts/ERC721/ERC721Pausable.sol",
  "compiler": {
    "name": "solc",
    "version": "0.8.10+commit.fc410830.Emscripten.clang"
  },
  "schemaVersion": "3.4.1",
  "updatedAt": "2021-12-12T16:45:31.264Z",
  "devdoc": {
    "kind": "dev",
    "methods": {
      "approve(address,uint256)": {
        "details": "See {IERC721-approve}."
      },
      "balanceOf(address)": {
        "details": "See {IERC721-balanceOf}."
      },
      "getApproved(uint256)": {
        "details": "See {IERC721-getApproved}."
      },
      "getRoleAdmin(bytes32)": {
        "details": "Returns the admin role that controls `role`. See {grantRole} and {revokeRole}. To change a role's admin, use {_setRoleAdmin}."
      },
      "getRoleMember(bytes32,uint256)": {
        "details": "Returns one of the accounts that have `role`. `index` must be a value between 0 and {getRoleMemberCount}, non-inclusive. Role bearers are not sorted in any particular way, and their ordering may change at any point. WARNING: When using {getRoleMember} and {getRoleMemberCount}, make sure you perform all queries on the same block. See the following https://forum.openzeppelin.com/t/iterating-over-elements-on-enumerableset-in-openzeppelin-contracts/2296[forum post] for more information."
      },
      "getRoleMemberCount(bytes32)": {
        "details": "Returns the number of accounts that have `role`. Can be used together with {getRoleMember} to enumerate all bearers of a role."
      },
      "grantRole(bytes32,address)": {
        "details": "Grants `role` to `account`. If `account` had not been already granted `role`, emits a {RoleGranted} event. Requirements: - the caller must have ``role``'s admin role."
      },
      "hasRole(bytes32,address)": {
        "details": "Returns `true` if `account` has been granted `role`."
      },
      "isApprovedForAll(address,address)": {
        "details": "See {IERC721-isApprovedForAll}."
      },
      "name()": {
        "details": "See {IERC721Metadata-name}."
      },
      "ownerOf(uint256)": {
        "details": "See {IERC721-ownerOf}."
      },
      "paused()": {
        "details": "Returns true if the contract is paused, and false otherwise."
      },
      "renounceRole(bytes32,address)": {
        "details": "Revokes `role` from the calling account. Roles are often managed via {grantRole} and {revokeRole}: this function's purpose is to provide a mechanism for accounts to lose their privileges if they are compromised (such as when a trusted device is misplaced). If the calling account had been revoked `role`, emits a {RoleRevoked} event. Requirements: - the caller must be `account`."
      },
      "revokeRole(bytes32,address)": {
        "details": "Revokes `role` from `account`. If `account` had been granted `role`, emits a {RoleRevoked} event. Requirements: - the caller must have ``role``'s admin role."
      },
      "safeTransferFrom(address,address,uint256)": {
        "details": "See {IERC721-safeTransferFrom}."
      },
      "safeTransferFrom(address,address,uint256,bytes)": {
        "details": "See {IERC721-safeTransferFrom}."
      },
      "setApprovalForAll(address,bool)": {
        "details": "See {IERC721-setApprovalForAll}."
      },
      "symbol()": {
        "details": "See {IERC721Metadata-symbol}."
      },
      "tokenByIndex(uint256)": {
        "details": "See {IERC721Enumerable-tokenByIndex}."
      },
      "tokenOfOwnerByIndex(address,uint256)": {
        "details": "See {IERC721Enumerable-tokenOfOwnerByIndex}."
      },
      "tokenURI(uint256)": {
        "details": "See {IERC721Metadata-tokenURI}."
      },
      "totalSupply()": {
        "details": "See {IERC721Enumerable-totalSupply}."
      },
      "transferFrom(address,address,uint256)": {
        "details": "See {IERC721-transferFrom}."
      }
    },
    "version": 1
  },
  "userdoc": {
    "kind": "user",
    "methods": {},
    "version": 1
  }
}