{
  "contractName": "ERC721FullContract",
  "abi": [
    {
      "inputs": [
        {
          "internalType": "string",
          "name": "name",
          "type": "string"
        },
        {
          "internalType": "string",
          "name": "symbol",
          "type": "string"
        },
        {
          "internalType": "string",
          "name": "baseTokenURI",
          "type": "string"
        }
      ],
      "stateMutability": "nonpayable",
      "type": "constructor"
    },
    {
      "anonymous": false,
      "inputs": [
        {
          "indexed": true,
          "internalType": "address",
          "name": "owner",
          "type": "address"
        },
        {
          "indexed": true,
          "internalType": "address",
          "name": "approved",
          "type": "address"
        },
        {
          "indexed": true,
          "internalType": "uint256",
          "name": "tokenId",
          "type": "uint256"
        }
      ],
      "name": "Approval",
      "type": "event"
    },
    {
      "anonymous": false,
      "inputs": [
        {
          "indexed": true,
          "internalType": "address",
          "name": "owner",
          "type": "address"
        },
        {
          "indexed": true,
          "internalType": "address",
          "name": "operator",
          "type": "address"
        },
        {
          "indexed": false,
          "internalType": "bool",
          "name": "approved",
          "type": "bool"
        }
      ],
      "name": "ApprovalForAll",
      "type": "event"
    },
    {
      "anonymous": false,
      "inputs": [
        {
          "indexed": true,
          "internalType": "address",
          "name": "from",
          "type": "address"
        },
        {
          "indexed": true,
          "internalType": "address",
          "name": "to",
          "type": "address"
        },
        {
          "indexed": true,
          "internalType": "uint256",
          "name": "tokenId",
          "type": "uint256"
        }
      ],
      "name": "Transfer",
      "type": "event"
    },
    {
      "inputs": [
        {
          "internalType": "address",
          "name": "to",
          "type": "address"
        },
        {
          "internalType": "uint256",
          "name": "tokenId",
          "type": "uint256"
        }
      ],
      "name": "approve",
      "outputs": [],
      "stateMutability": "nonpayable",
      "type": "function"
    },
    {
      "inputs": [
        {
          "internalType": "address",
          "name": "owner",
          "type": "address"
        }
      ],
      "name": "balanceOf",
      "outputs": [
        {
          "internalType": "uint256",
          "name": "",
          "type": "uint256"
        }
      ],
      "stateMutability": "view",
      "type": "function"
    },
    {
      "inputs": [
        {
          "internalType": "uint256",
          "name": "tokenId",
          "type": "uint256"
        }
      ],
      "name": "getApproved",
      "outputs": [
        {
          "internalType": "address",
          "name": "",
          "type": "address"
        }
      ],
      "stateMutability": "view",
      "type": "function"
    },
    {
      "inputs": [
        {
          "internalType": "address",
          "name": "owner",
          "type": "address"
        },
        {
          "internalType": "address",
          "name": "operator",
          "type": "address"
        }
      ],
      "name": "isApprovedForAll",
      "outputs": [
        {
          "internalType": "bool",
          "name": "",
          "type": "bool"
        }
      ],
      "stateMutability": "view",
      "type": "function"
    },
    {
      "inputs": [],
      "name": "name",
      "outputs": [
        {
          "internalType": "string",
          "name": "",
          "type": "string"
        }
      ],
      "stateMutability": "view",
      "type": "function"
    },
    {
      "inputs": [
        {
          "internalType": "uint256",
          "name": "tokenId",
          "type": "uint256"
        }
      ],
      "name": "ownerOf",
      "outputs": [
        {
          "internalType": "address",
          "name": "",
          "type": "address"
        }
      ],
      "stateMutability": "view",
      "type": "function"
    },
    {
      "inputs": [
        {
          "internalType": "address",
          "name": "from",
          "type": "address"
        },
        {
          "internalType": "address",
          "name": "to",
          "type": "address"
        },
        {
          "internalType": "uint256",
          "name": "tokenId",
          "type": "uint256"
        }
      ],
      "name": "safeTransferFrom",
      "outputs": [],
      "stateMutability": "nonpayable",
      "type": "function"
    },
    {
      "inputs": [
        {
          "internalType": "address",
          "name": "from",
          "type": "address"
        },
        {
          "internalType": "address",
          "name": "to",
          "type": "address"
        },
        {
          "internalType": "uint256",
          "name": "tokenId",
          "type": "uint256"
        },
        {
          "internalType": "bytes",
          "name": "_data",
          "type": "bytes"
        }
      ],
      "name": "safeTransferFrom",
      "outputs": [],
      "stateMutability": "nonpayable",
      "type": "function"
    },
    {
      "inputs": [
        {
          "internalType": "address",
          "name": "operator",
          "type": "address"
        },
        {
          "internalType": "bool",
          "name": "approved",
          "type": "bool"
        }
      ],
      "name": "setApprovalForAll",
      "outputs": [],
      "stateMutability": "nonpayable",
      "type": "function"
    },
    {
      "inputs": [
        {
          "internalType": "bytes4",
          "name": "interfaceId",
          "type": "bytes4"
        }
      ],
      "name": "supportsInterface",
      "outputs": [
        {
          "internalType": "bool",
          "name": "",
          "type": "bool"
        }
      ],
      "stateMutability": "view",
      "type": "function"
    },
    {
      "inputs": [],
      "name": "symbol",
      "outputs": [
        {
          "internalType": "string",
          "name": "",
          "type": "string"
        }
      ],
      "stateMutability": "view",
      "type": "function"
    },
    {
      "inputs": [
        {
          "internalType": "uint256",
          "name": "tokenId",
          "type": "uint256"
        }
      ],
      "name": "tokenURI",
      "outputs": [
        {
          "internalType": "string",
          "name": "",
          "type": "string"
        }
      ],
      "stateMutability": "view",
      "type": "function"
    },
    {
      "inputs": [
        {
          "internalType": "address",
          "name": "from",
          "type": "address"
        },
        {
          "internalType": "address",
          "name": "to",
          "type": "address"
        },
        {
          "internalType": "uint256",
          "name": "tokenId",
          "type": "uint256"
        }
      ],
      "name": "transferFrom",
      "outputs": [],
      "stateMutability": "nonpayable",
      "type": "function"
    },
    {
      "inputs": [],
      "name": "baseURI",
      "outputs": [
        {
          "internalType": "string",
          "name": "",
          "type": "string"
        }
      ],
      "stateMutability": "view",
      "type": "function"
    },
    {
      "inputs": [
        {
          "internalType": "address",
          "name": "player",
          "type": "address"
        },
        {
          "internalType": "string",
          "name": "tokenURI",
          "type": "string"
        }
      ],
      "name": "awardItem",
      "outputs": [
        {
          "internalType": "uint256",
          "name": "",
          "type": "uint256"
        }
      ],
      "stateMutability": "nonpayable",
      "type": "function"
    }
  ],
  "bytecode": "0x60806040523480156200001157600080fd5b506040516200305b3803806200305b8339818101604052810190620000379190620002dc565b82828160009080519060200190620000519291906200008f565b5080600190805190602001906200006a9291906200008f565b5050508060089080519060200190620000859291906200008f565b50505050620003fa565b8280546200009d90620003c4565b90600052602060002090601f016020900481019282620000c157600085556200010d565b82601f10620000dc57805160ff19168380011785556200010d565b828001600101855582156200010d579182015b828111156200010c578251825591602001919060010190620000ef565b5b5090506200011c919062000120565b5090565b5b808211156200013b57600081600090555060010162000121565b5090565b6000604051905090565b600080fd5b600080fd5b600080fd5b600080fd5b6000601f19601f8301169050919050565b7f4e487b7100000000000000000000000000000000000000000000000000000000600052604160045260246000fd5b620001a8826200015d565b810181811067ffffffffffffffff82111715620001ca57620001c96200016e565b5b80604052505050565b6000620001df6200013f565b9050620001ed82826200019d565b919050565b600067ffffffffffffffff82111562000210576200020f6200016e565b5b6200021b826200015d565b9050602081019050919050565b60005b83811015620002485780820151818401526020810190506200022b565b8381111562000258576000848401525b50505050565b6000620002756200026f84620001f2565b620001d3565b90508281526020810184848401111562000294576200029362000158565b5b620002a184828562000228565b509392505050565b600082601f830112620002c157620002c062000153565b5b8151620002d38482602086016200025e565b91505092915050565b600080600060608486031215620002f857620002f762000149565b5b600084015167ffffffffffffffff8111156200031957620003186200014e565b5b6200032786828701620002a9565b935050602084015167ffffffffffffffff8111156200034b576200034a6200014e565b5b6200035986828701620002a9565b925050604084015167ffffffffffffffff8111156200037d576200037c6200014e565b5b6200038b86828701620002a9565b9150509250925092565b7f4e487b7100000000000000000000000000000000000000000000000000000000600052602260045260246000fd5b60006002820490506001821680620003dd57607f821691505b60208210811415620003f457620003f362000395565b5b50919050565b612c51806200040a6000396000f3fe608060405234801561001057600080fd5b50600436106100f55760003560e01c80636c0360eb11610097578063b88d4fde11610066578063b88d4fde14610284578063c87b56dd146102a0578063cf378343146102d0578063e985e9c514610300576100f5565b80636c0360eb146101fc57806370a082311461021a57806395d89b411461024a578063a22cb46514610268576100f5565b8063095ea7b3116100d3578063095ea7b31461017857806323b872dd1461019457806342842e0e146101b05780636352211e146101cc576100f5565b806301ffc9a7146100fa57806306fdde031461012a578063081812fc14610148575b600080fd5b610114600480360381019061010f91906119b3565b610330565b60405161012191906119fb565b60405180910390f35b610132610412565b60405161013f9190611aaf565b60405180910390f35b610162600480360381019061015d9190611b07565b6104a4565b60405161016f9190611b75565b60405180910390f35b610192600480360381019061018d9190611bbc565b610529565b005b6101ae60048036038101906101a99190611bfc565b610641565b005b6101ca60048036038101906101c59190611bfc565b6106a1565b005b6101e660048036038101906101e19190611b07565b6106c1565b6040516101f39190611b75565b60405180910390f35b610204610773565b6040516102119190611aaf565b60405180910390f35b610234600480360381019061022f9190611c4f565b610805565b6040516102419190611c8b565b60405180910390f35b6102526108bd565b60405161025f9190611aaf565b60405180910390f35b610282600480360381019061027d9190611cd2565b61094f565b005b61029e60048036038101906102999190611e47565b610965565b005b6102ba60048036038101906102b59190611b07565b6109c7565b6040516102c79190611aaf565b60405180910390f35b6102ea60048036038101906102e59190611f6b565b610b19565b6040516102f79190611c8b565b60405180910390f35b61031a60048036038101906103159190611fc7565b610b51565b60405161032791906119fb565b60405180910390f35b60007f80ac58cd000000000000000000000000000000000000000000000000000000007bffffffffffffffffffffffffffffffffffffffffffffffffffffffff1916827bffffffffffffffffffffffffffffffffffffffffffffffffffffffff191614806103fb57507f5b5e139f000000000000000000000000000000000000000000000000000000007bffffffffffffffffffffffffffffffffffffffffffffffffffffffff1916827bffffffffffffffffffffffffffffffffffffffffffffffffffffffff1916145b8061040b575061040a82610be5565b5b9050919050565b60606000805461042190612036565b80601f016020809104026020016040519081016040528092919081815260200182805461044d90612036565b801561049a5780601f1061046f5761010080835404028352916020019161049a565b820191906000526020600020905b81548152906001019060200180831161047d57829003601f168201915b5050505050905090565b60006104af82610c4f565b6104ee576040517f08c379a00000000000000000000000000000000000000000000000000000000081526004016104e5906120da565b60405180910390fd5b6004600083815260200190815260200160002060009054906101000a900473ffffffffffffffffffffffffffffffffffffffff169050919050565b6000610534826106c1565b90508073ffffffffffffffffffffffffffffffffffffffff168373ffffffffffffffffffffffffffffffffffffffff1614156105a5576040517f08c379a000000000000000000000000000000000000000000000000000000000815260040161059c9061216c565b60405180910390fd5b8073ffffffffffffffffffffffffffffffffffffffff166105c4610cbb565b73ffffffffffffffffffffffffffffffffffffffff1614806105f357506105f2816105ed610cbb565b610b51565b5b610632576040517f08c379a0000000000000000000000000000000000000000000000000000000008152600401610629906121fe565b60405180910390fd5b61063c8383610cc3565b505050565b61065261064c610cbb565b82610d7c565b610691576040517f08c379a000000000000000000000000000000000000000000000000000000000815260040161068890612290565b60405180910390fd5b61069c838383610e5a565b505050565b6106bc83838360405180602001604052806000815250610965565b505050565b6000806002600084815260200190815260200160002060009054906101000a900473ffffffffffffffffffffffffffffffffffffffff169050600073ffffffffffffffffffffffffffffffffffffffff168173ffffffffffffffffffffffffffffffffffffffff16141561076a576040517f08c379a000000000000000000000000000000000000000000000000000000000815260040161076190612322565b60405180910390fd5b80915050919050565b60606008805461078290612036565b80601f01602080910402602001604051908101604052809291908181526020018280546107ae90612036565b80156107fb5780601f106107d0576101008083540402835291602001916107fb565b820191906000526020600020905b8154815290600101906020018083116107de57829003601f168201915b5050505050905090565b60008073ffffffffffffffffffffffffffffffffffffffff168273ffffffffffffffffffffffffffffffffffffffff161415610876576040517f08c379a000000000000000000000000000000000000000000000000000000000815260040161086d906123b4565b60405180910390fd5b600360008373ffffffffffffffffffffffffffffffffffffffff1673ffffffffffffffffffffffffffffffffffffffff168152602001908152602001600020549050919050565b6060600180546108cc90612036565b80601f01602080910402602001604051908101604052809291908181526020018280546108f890612036565b80156109455780601f1061091a57610100808354040283529160200191610945565b820191906000526020600020905b81548152906001019060200180831161092857829003601f168201915b5050505050905090565b61096161095a610cbb565b83836110b6565b5050565b610976610970610cbb565b83610d7c565b6109b5576040517f08c379a00000000000000000000000000000000000000000000000000000000081526004016109ac90612290565b60405180910390fd5b6109c184848484611223565b50505050565b60606109d282610c4f565b610a11576040517f08c379a0000000000000000000000000000000000000000000000000000000008152600401610a0890612446565b60405180910390fd5b6000600660008481526020019081526020016000208054610a3190612036565b80601f0160208091040260200160405190810160405280929190818152602001828054610a5d90612036565b8015610aaa5780601f10610a7f57610100808354040283529160200191610aaa565b820191906000526020600020905b815481529060010190602001808311610a8d57829003601f168201915b505050505090506000610abb61127f565b9050600081511415610ad1578192505050610b14565b600082511115610b06578082604051602001610aee9291906124a2565b60405160208183030381529060405292505050610b14565b610b0f84611296565b925050505b919050565b6000610b25600761133d565b6000610b316007611353565b9050610b3d8482611361565b610b47818461152f565b8091505092915050565b6000600560008473ffffffffffffffffffffffffffffffffffffffff1673ffffffffffffffffffffffffffffffffffffffff16815260200190815260200160002060008373ffffffffffffffffffffffffffffffffffffffff1673ffffffffffffffffffffffffffffffffffffffff16815260200190815260200160002060009054906101000a900460ff16905092915050565b60007f01ffc9a7000000000000000000000000000000000000000000000000000000007bffffffffffffffffffffffffffffffffffffffffffffffffffffffff1916827bffffffffffffffffffffffffffffffffffffffffffffffffffffffff1916149050919050565b60008073ffffffffffffffffffffffffffffffffffffffff166002600084815260200190815260200160002060009054906101000a900473ffffffffffffffffffffffffffffffffffffffff1673ffffffffffffffffffffffffffffffffffffffff1614159050919050565b600033905090565b816004600083815260200190815260200160002060006101000a81548173ffffffffffffffffffffffffffffffffffffffff021916908373ffffffffffffffffffffffffffffffffffffffff160217905550808273ffffffffffffffffffffffffffffffffffffffff16610d36836106c1565b73ffffffffffffffffffffffffffffffffffffffff167f8c5be1e5ebec7d5bd14f71427d1e84f3dd0314c0f7b2291e5b200ac8c7c3b92560405160405180910390a45050565b6000610d8782610c4f565b610dc6576040517f08c379a0000000000000000000000000000000000000000000000000000000008152600401610dbd90612538565b60405180910390fd5b6000610dd1836106c1565b90508073ffffffffffffffffffffffffffffffffffffffff168473ffffffffffffffffffffffffffffffffffffffff161480610e4057508373ffffffffffffffffffffffffffffffffffffffff16610e28846104a4565b73ffffffffffffffffffffffffffffffffffffffff16145b80610e515750610e508185610b51565b5b91505092915050565b8273ffffffffffffffffffffffffffffffffffffffff16610e7a826106c1565b73ffffffffffffffffffffffffffffffffffffffff1614610ed0576040517f08c379a0000000000000000000000000000000000000000000000000000000008152600401610ec7906125ca565b60405180910390fd5b600073ffffffffffffffffffffffffffffffffffffffff168273ffffffffffffffffffffffffffffffffffffffff161415610f40576040517f08c379a0000000000000000000000000000000000000000000000000000000008152600401610f379061265c565b60405180910390fd5b610f4b8383836115a3565b610f56600082610cc3565b6001600360008573ffffffffffffffffffffffffffffffffffffffff1673ffffffffffffffffffffffffffffffffffffffff1681526020019081526020016000206000828254610fa691906126ab565b925050819055506001600360008473ffffffffffffffffffffffffffffffffffffffff1673ffffffffffffffffffffffffffffffffffffffff1681526020019081526020016000206000828254610ffd91906126df565b92505081905550816002600083815260200190815260200160002060006101000a81548173ffffffffffffffffffffffffffffffffffffffff021916908373ffffffffffffffffffffffffffffffffffffffff160217905550808273ffffffffffffffffffffffffffffffffffffffff168473ffffffffffffffffffffffffffffffffffffffff167fddf252ad1be2c89b69c2b068fc378daa952ba7f163c4a11628f55a4df523b3ef60405160405180910390a4505050565b8173ffffffffffffffffffffffffffffffffffffffff168373ffffffffffffffffffffffffffffffffffffffff161415611125576040517f08c379a000000000000000000000000000000000000000000000000000000000815260040161111c90612781565b60405180910390fd5b80600560008573ffffffffffffffffffffffffffffffffffffffff1673ffffffffffffffffffffffffffffffffffffffff16815260200190815260200160002060008473ffffffffffffffffffffffffffffffffffffffff1673ffffffffffffffffffffffffffffffffffffffff16815260200190815260200160002060006101000a81548160ff0219169083151502179055508173ffffffffffffffffffffffffffffffffffffffff168373ffffffffffffffffffffffffffffffffffffffff167f17307eab39ab6107e8899845ad3d59bd9653f200f220920489ca2b5937696c318360405161121691906119fb565b60405180910390a3505050565b61122e848484610e5a565b61123a848484846115a8565b611279576040517f08c379a000000000000000000000000000000000000000000000000000000000815260040161127090612813565b60405180910390fd5b50505050565b606060405180602001604052806000815250905090565b60606112a182610c4f565b6112e0576040517f08c379a00000000000000000000000000000000000000000000000000000000081526004016112d7906128a5565b60405180910390fd5b60006112ea61127f565b9050600081511161130a5760405180602001604052806000815250611335565b8061131484611730565b6040516020016113259291906124a2565b6040516020818303038152906040525b915050919050565b6001816000016000828254019250508190555050565b600081600001549050919050565b600073ffffffffffffffffffffffffffffffffffffffff168273ffffffffffffffffffffffffffffffffffffffff1614156113d1576040517f08c379a00000000000000000000000000000000000000000000000000000000081526004016113c890612911565b60405180910390fd5b6113da81610c4f565b1561141a576040517f08c379a00000000000000000000000000000000000000000000000000000000081526004016114119061297d565b60405180910390fd5b611426600083836115a3565b6001600360008473ffffffffffffffffffffffffffffffffffffffff1673ffffffffffffffffffffffffffffffffffffffff168152602001908152602001600020600082825461147691906126df565b92505081905550816002600083815260200190815260200160002060006101000a81548173ffffffffffffffffffffffffffffffffffffffff021916908373ffffffffffffffffffffffffffffffffffffffff160217905550808273ffffffffffffffffffffffffffffffffffffffff16600073ffffffffffffffffffffffffffffffffffffffff167fddf252ad1be2c89b69c2b068fc378daa952ba7f163c4a11628f55a4df523b3ef60405160405180910390a45050565b61153882610c4f565b611577576040517f08c379a000000000000000000000000000000000000000000000000000000000815260040161156e90612a0f565b60405180910390fd5b8060066000848152602001908152602001600020908051906020019061159e9291906118a4565b505050565b505050565b60006115c98473ffffffffffffffffffffffffffffffffffffffff16611891565b15611723578373ffffffffffffffffffffffffffffffffffffffff1663150b7a026115f2610cbb565b8786866040518563ffffffff1660e01b81526004016116149493929190612a84565b6020604051808303816000875af192505050801561165057506040513d601f19601f8201168201806040525081019061164d9190612ae5565b60015b6116d3573d8060008114611680576040519150601f19603f3d011682016040523d82523d6000602084013e611685565b606091505b506000815114156116cb576040517f08c379a00000000000000000000000000000000000000000000000000000000081526004016116c290612813565b60405180910390fd5b805181602001fd5b63150b7a0260e01b7bffffffffffffffffffffffffffffffffffffffffffffffffffffffff1916817bffffffffffffffffffffffffffffffffffffffffffffffffffffffff191614915050611728565b600190505b949350505050565b60606000821415611778576040518060400160405280600181526020017f3000000000000000000000000000000000000000000000000000000000000000815250905061188c565b600082905060005b600082146117aa57808061179390612b12565b915050600a826117a39190612b8a565b9150611780565b60008167ffffffffffffffff8111156117c6576117c5611d1c565b5b6040519080825280601f01601f1916602001820160405280156117f85781602001600182028036833780820191505090505b5090505b600085146118855760018261181191906126ab565b9150600a856118209190612bbb565b603061182c91906126df565b60f81b81838151811061184257611841612bec565b5b60200101907effffffffffffffffffffffffffffffffffffffffffffffffffffffffffffff1916908160001a905350600a8561187e9190612b8a565b94506117fc565b8093505050505b919050565b600080823b905060008111915050919050565b8280546118b090612036565b90600052602060002090601f0160209004810192826118d25760008555611919565b82601f106118eb57805160ff1916838001178555611919565b82800160010185558215611919579182015b828111156119185782518255916020019190600101906118fd565b5b509050611926919061192a565b5090565b5b8082111561194357600081600090555060010161192b565b5090565b6000604051905090565b600080fd5b600080fd5b60007fffffffff0000000000000000000000000000000000000000000000000000000082169050919050565b6119908161195b565b811461199b57600080fd5b50565b6000813590506119ad81611987565b92915050565b6000602082840312156119c9576119c8611951565b5b60006119d78482850161199e565b91505092915050565b60008115159050919050565b6119f5816119e0565b82525050565b6000602082019050611a1060008301846119ec565b92915050565b600081519050919050565b600082825260208201905092915050565b60005b83811015611a50578082015181840152602081019050611a35565b83811115611a5f576000848401525b50505050565b6000601f19601f8301169050919050565b6000611a8182611a16565b611a8b8185611a21565b9350611a9b818560208601611a32565b611aa481611a65565b840191505092915050565b60006020820190508181036000830152611ac98184611a76565b905092915050565b6000819050919050565b611ae481611ad1565b8114611aef57600080fd5b50565b600081359050611b0181611adb565b92915050565b600060208284031215611b1d57611b1c611951565b5b6000611b2b84828501611af2565b91505092915050565b600073ffffffffffffffffffffffffffffffffffffffff82169050919050565b6000611b5f82611b34565b9050919050565b611b6f81611b54565b82525050565b6000602082019050611b8a6000830184611b66565b92915050565b611b9981611b54565b8114611ba457600080fd5b50565b600081359050611bb681611b90565b92915050565b60008060408385031215611bd357611bd2611951565b5b6000611be185828601611ba7565b9250506020611bf285828601611af2565b9150509250929050565b600080600060608486031215611c1557611c14611951565b5b6000611c2386828701611ba7565b9350506020611c3486828701611ba7565b9250506040611c4586828701611af2565b9150509250925092565b600060208284031215611c6557611c64611951565b5b6000611c7384828501611ba7565b91505092915050565b611c8581611ad1565b82525050565b6000602082019050611ca06000830184611c7c565b92915050565b611caf816119e0565b8114611cba57600080fd5b50565b600081359050611ccc81611ca6565b92915050565b60008060408385031215611ce957611ce8611951565b5b6000611cf785828601611ba7565b9250506020611d0885828601611cbd565b9150509250929050565b600080fd5b600080fd5b7f4e487b7100000000000000000000000000000000000000000000000000000000600052604160045260246000fd5b611d5482611a65565b810181811067ffffffffffffffff82111715611d7357611d72611d1c565b5b80604052505050565b6000611d86611947565b9050611d928282611d4b565b919050565b600067ffffffffffffffff821115611db257611db1611d1c565b5b611dbb82611a65565b9050602081019050919050565b82818337600083830152505050565b6000611dea611de584611d97565b611d7c565b905082815260208101848484011115611e0657611e05611d17565b5b611e11848285611dc8565b509392505050565b600082601f830112611e2e57611e2d611d12565b5b8135611e3e848260208601611dd7565b91505092915050565b60008060008060808587031215611e6157611e60611951565b5b6000611e6f87828801611ba7565b9450506020611e8087828801611ba7565b9350506040611e9187828801611af2565b925050606085013567ffffffffffffffff811115611eb257611eb1611956565b5b611ebe87828801611e19565b91505092959194509250565b600067ffffffffffffffff821115611ee557611ee4611d1c565b5b611eee82611a65565b9050602081019050919050565b6000611f0e611f0984611eca565b611d7c565b905082815260208101848484011115611f2a57611f29611d17565b5b611f35848285611dc8565b509392505050565b600082601f830112611f5257611f51611d12565b5b8135611f62848260208601611efb565b91505092915050565b60008060408385031215611f8257611f81611951565b5b6000611f9085828601611ba7565b925050602083013567ffffffffffffffff811115611fb157611fb0611956565b5b611fbd85828601611f3d565b9150509250929050565b60008060408385031215611fde57611fdd611951565b5b6000611fec85828601611ba7565b9250506020611ffd85828601611ba7565b9150509250929050565b7f4e487b7100000000000000000000000000000000000000000000000000000000600052602260045260246000fd5b6000600282049050600182168061204e57607f821691505b6020821081141561206257612061612007565b5b50919050565b7f4552433732313a20617070726f76656420717565727920666f72206e6f6e657860008201527f697374656e7420746f6b656e0000000000000000000000000000000000000000602082015250565b60006120c4602c83611a21565b91506120cf82612068565b604082019050919050565b600060208201905081810360008301526120f3816120b7565b9050919050565b7f4552433732313a20617070726f76616c20746f2063757272656e74206f776e6560008201527f7200000000000000000000000000000000000000000000000000000000000000602082015250565b6000612156602183611a21565b9150612161826120fa565b604082019050919050565b6000602082019050818103600083015261218581612149565b9050919050565b7f4552433732313a20617070726f76652063616c6c6572206973206e6f74206f7760008201527f6e6572206e6f7220617070726f76656420666f7220616c6c0000000000000000602082015250565b60006121e8603883611a21565b91506121f38261218c565b604082019050919050565b60006020820190508181036000830152612217816121db565b9050919050565b7f4552433732313a207472616e736665722063616c6c6572206973206e6f74206f60008201527f776e6572206e6f7220617070726f766564000000000000000000000000000000602082015250565b600061227a603183611a21565b91506122858261221e565b604082019050919050565b600060208201905081810360008301526122a98161226d565b9050919050565b7f4552433732313a206f776e657220717565727920666f72206e6f6e657869737460008201527f656e7420746f6b656e0000000000000000000000000000000000000000000000602082015250565b600061230c602983611a21565b9150612317826122b0565b604082019050919050565b6000602082019050818103600083015261233b816122ff565b9050919050565b7f4552433732313a2062616c616e636520717565727920666f7220746865207a6560008201527f726f206164647265737300000000000000000000000000000000000000000000602082015250565b600061239e602a83611a21565b91506123a982612342565b604082019050919050565b600060208201905081810360008301526123cd81612391565b9050919050565b7f45524337323155524953746f726167653a2055524920717565727920666f722060008201527f6e6f6e6578697374656e7420746f6b656e000000000000000000000000000000602082015250565b6000612430603183611a21565b915061243b826123d4565b604082019050919050565b6000602082019050818103600083015261245f81612423565b9050919050565b600081905092915050565b600061247c82611a16565b6124868185612466565b9350612496818560208601611a32565b80840191505092915050565b60006124ae8285612471565b91506124ba8284612471565b91508190509392505050565b7f4552433732313a206f70657261746f7220717565727920666f72206e6f6e657860008201527f697374656e7420746f6b656e0000000000000000000000000000000000000000602082015250565b6000612522602c83611a21565b915061252d826124c6565b604082019050919050565b6000602082019050818103600083015261255181612515565b9050919050565b7f4552433732313a207472616e73666572206f6620746f6b656e2074686174206960008201527f73206e6f74206f776e0000000000000000000000000000000000000000000000602082015250565b60006125b4602983611a21565b91506125bf82612558565b604082019050919050565b600060208201905081810360008301526125e3816125a7565b9050919050565b7f4552433732313a207472616e7366657220746f20746865207a65726f2061646460008201527f7265737300000000000000000000000000000000000000000000000000000000602082015250565b6000612646602483611a21565b9150612651826125ea565b604082019050919050565b6000602082019050818103600083015261267581612639565b9050919050565b7f4e487b7100000000000000000000000000000000000000000000000000000000600052601160045260246000fd5b60006126b682611ad1565b91506126c183611ad1565b9250828210156126d4576126d361267c565b5b828203905092915050565b60006126ea82611ad1565b91506126f583611ad1565b9250827fffffffffffffffffffffffffffffffffffffffffffffffffffffffffffffffff0382111561272a5761272961267c565b5b828201905092915050565b7f4552433732313a20617070726f766520746f2063616c6c657200000000000000600082015250565b600061276b601983611a21565b915061277682612735565b602082019050919050565b6000602082019050818103600083015261279a8161275e565b9050919050565b7f4552433732313a207472616e7366657220746f206e6f6e20455243373231526560008201527f63656976657220696d706c656d656e7465720000000000000000000000000000602082015250565b60006127fd603283611a21565b9150612808826127a1565b604082019050919050565b6000602082019050818103600083015261282c816127f0565b9050919050565b7f4552433732314d657461646174613a2055524920717565727920666f72206e6f60008201527f6e6578697374656e7420746f6b656e0000000000000000000000000000000000602082015250565b600061288f602f83611a21565b915061289a82612833565b604082019050919050565b600060208201905081810360008301526128be81612882565b9050919050565b7f4552433732313a206d696e7420746f20746865207a65726f2061646472657373600082015250565b60006128fb602083611a21565b9150612906826128c5565b602082019050919050565b6000602082019050818103600083015261292a816128ee565b9050919050565b7f4552433732313a20746f6b656e20616c7265616479206d696e74656400000000600082015250565b6000612967601c83611a21565b915061297282612931565b602082019050919050565b600060208201905081810360008301526129968161295a565b9050919050565b7f45524337323155524953746f726167653a2055524920736574206f66206e6f6e60008201527f6578697374656e7420746f6b656e000000000000000000000000000000000000602082015250565b60006129f9602e83611a21565b9150612a048261299d565b604082019050919050565b60006020820190508181036000830152612a28816129ec565b9050919050565b600081519050919050565b600082825260208201905092915050565b6000612a5682612a2f565b612a608185612a3a565b9350612a70818560208601611a32565b612a7981611a65565b840191505092915050565b6000608082019050612a996000830187611b66565b612aa66020830186611b66565b612ab36040830185611c7c565b8181036060830152612ac58184612a4b565b905095945050505050565b600081519050612adf81611987565b92915050565b600060208284031215612afb57612afa611951565b5b6000612b0984828501612ad0565b91505092915050565b6000612b1d82611ad1565b91507fffffffffffffffffffffffffffffffffffffffffffffffffffffffffffffffff821415612b5057612b4f61267c565b5b600182019050919050565b7f4e487b7100000000000000000000000000000000000000000000000000000000600052601260045260246000fd5b6000612b9582611ad1565b9150612ba083611ad1565b925082612bb057612baf612b5b565b5b828204905092915050565b6000612bc682611ad1565b9150612bd183611ad1565b925082612be157612be0612b5b565b5b828206905092915050565b7f4e487b7100000000000000000000000000000000000000000000000000000000600052603260045260246000fdfea2646970667358221220624fbf442b7cab7dfb3c2041bdacb32a30ef76417a5e39feb0b37237a3276bbf64736f6c634300080a0033",
  "immutableReferences": {},
  "source": "// SPDX-License-Identifier: MIT\npragma solidity ^0.8.0;\n\nimport \"@openzeppelin/contracts/token/ERC721/extensions/ERC721URIStorage.sol\";\nimport \"@openzeppelin/contracts/utils/Counters.sol\";\n\n//ERC721\ncontract ERC721FullContract is ERC721URIStorage {\n    using Counters for Counters.Counter;\n    Counters.Counter private _tokenIds;\n\n    string private _baseTokenURI;\n\n    constructor(\n        string memory name, //\n        string memory symbol, //\n        string memory baseTokenURI //\n    ) ERC721(name, symbol) {\n        _baseTokenURI = baseTokenURI;\n    }\n\n    function baseURI() external view returns (string memory) {\n        return _baseTokenURI;\n    }\n\n    function awardItem(address player, string memory tokenURI)\n        public\n        returns (uint256)\n    {\n        _tokenIds.increment();\n\n        uint256 newItemId = _tokenIds.current();\n        _mint(player, newItemId);\n        _setTokenURI(newItemId, tokenURI);\n\n        return newItemId;\n    }\n}\n",
  "sourcePath": "/Users/q/study/ethereum/mint-coin/contracts/ERC721/ERC721Full.sol",
  "compiler": {
    "name": "solc",
    "version": "0.8.10+commit.fc410830.Emscripten.clang"
  },
  "schemaVersion": "3.4.1",
  "updatedAt": "2021-12-12T16:45:31.199Z",
  "devdoc": {
    "kind": "dev",
    "methods": {
      "approve(address,uint256)": {
        "details": "See {IERC721-approve}."
      },
      "balanceOf(address)": {
        "details": "See {IERC721-balanceOf}."
      },
      "getApproved(uint256)": {
        "details": "See {IERC721-getApproved}."
      },
      "isApprovedForAll(address,address)": {
        "details": "See {IERC721-isApprovedForAll}."
      },
      "name()": {
        "details": "See {IERC721Metadata-name}."
      },
      "ownerOf(uint256)": {
        "details": "See {IERC721-ownerOf}."
      },
      "safeTransferFrom(address,address,uint256)": {
        "details": "See {IERC721-safeTransferFrom}."
      },
      "safeTransferFrom(address,address,uint256,bytes)": {
        "details": "See {IERC721-safeTransferFrom}."
      },
      "setApprovalForAll(address,bool)": {
        "details": "See {IERC721-setApprovalForAll}."
      },
      "supportsInterface(bytes4)": {
        "details": "See {IERC165-supportsInterface}."
      },
      "symbol()": {
        "details": "See {IERC721Metadata-symbol}."
      },
      "tokenURI(uint256)": {
        "details": "See {IERC721Metadata-tokenURI}."
      },
      "transferFrom(address,address,uint256)": {
        "details": "See {IERC721-transferFrom}."
      }
    },
    "version": 1
  },
  "userdoc": {
    "kind": "user",
    "methods": {},
    "version": 1
  }
}