{
  "contractName": "ERC721MintableContract",
  "abi": [
    {
      "inputs": [
        {
          "internalType": "string",
          "name": "name",
          "type": "string"
        },
        {
          "internalType": "string",
          "name": "symbol",
          "type": "string"
        },
        {
          "internalType": "string",
          "name": "baseTokenURI",
          "type": "string"
        }
      ],
      "stateMutability": "nonpayable",
      "type": "constructor"
    },
    {
      "anonymous": false,
      "inputs": [
        {
          "indexed": true,
          "internalType": "address",
          "name": "owner",
          "type": "address"
        },
        {
          "indexed": true,
          "internalType": "address",
          "name": "approved",
          "type": "address"
        },
        {
          "indexed": true,
          "internalType": "uint256",
          "name": "tokenId",
          "type": "uint256"
        }
      ],
      "name": "Approval",
      "type": "event"
    },
    {
      "anonymous": false,
      "inputs": [
        {
          "indexed": true,
          "internalType": "address",
          "name": "owner",
          "type": "address"
        },
        {
          "indexed": true,
          "internalType": "address",
          "name": "operator",
          "type": "address"
        },
        {
          "indexed": false,
          "internalType": "bool",
          "name": "approved",
          "type": "bool"
        }
      ],
      "name": "ApprovalForAll",
      "type": "event"
    },
    {
      "anonymous": false,
      "inputs": [
        {
          "indexed": true,
          "internalType": "bytes32",
          "name": "role",
          "type": "bytes32"
        },
        {
          "indexed": true,
          "internalType": "bytes32",
          "name": "previousAdminRole",
          "type": "bytes32"
        },
        {
          "indexed": true,
          "internalType": "bytes32",
          "name": "newAdminRole",
          "type": "bytes32"
        }
      ],
      "name": "RoleAdminChanged",
      "type": "event"
    },
    {
      "anonymous": false,
      "inputs": [
        {
          "indexed": true,
          "internalType": "bytes32",
          "name": "role",
          "type": "bytes32"
        },
        {
          "indexed": true,
          "internalType": "address",
          "name": "account",
          "type": "address"
        },
        {
          "indexed": true,
          "internalType": "address",
          "name": "sender",
          "type": "address"
        }
      ],
      "name": "RoleGranted",
      "type": "event"
    },
    {
      "anonymous": false,
      "inputs": [
        {
          "indexed": true,
          "internalType": "bytes32",
          "name": "role",
          "type": "bytes32"
        },
        {
          "indexed": true,
          "internalType": "address",
          "name": "account",
          "type": "address"
        },
        {
          "indexed": true,
          "internalType": "address",
          "name": "sender",
          "type": "address"
        }
      ],
      "name": "RoleRevoked",
      "type": "event"
    },
    {
      "anonymous": false,
      "inputs": [
        {
          "indexed": true,
          "internalType": "address",
          "name": "from",
          "type": "address"
        },
        {
          "indexed": true,
          "internalType": "address",
          "name": "to",
          "type": "address"
        },
        {
          "indexed": true,
          "internalType": "uint256",
          "name": "tokenId",
          "type": "uint256"
        }
      ],
      "name": "Transfer",
      "type": "event"
    },
    {
      "inputs": [],
      "name": "DEFAULT_ADMIN_ROLE",
      "outputs": [
        {
          "internalType": "bytes32",
          "name": "",
          "type": "bytes32"
        }
      ],
      "stateMutability": "view",
      "type": "function"
    },
    {
      "inputs": [],
      "name": "MINTER_ROLE",
      "outputs": [
        {
          "internalType": "bytes32",
          "name": "",
          "type": "bytes32"
        }
      ],
      "stateMutability": "view",
      "type": "function"
    },
    {
      "inputs": [],
      "name": "PAUSER_ROLE",
      "outputs": [
        {
          "internalType": "bytes32",
          "name": "",
          "type": "bytes32"
        }
      ],
      "stateMutability": "view",
      "type": "function"
    },
    {
      "inputs": [
        {
          "internalType": "address",
          "name": "to",
          "type": "address"
        },
        {
          "internalType": "uint256",
          "name": "tokenId",
          "type": "uint256"
        }
      ],
      "name": "approve",
      "outputs": [],
      "stateMutability": "nonpayable",
      "type": "function"
    },
    {
      "inputs": [
        {
          "internalType": "address",
          "name": "owner",
          "type": "address"
        }
      ],
      "name": "balanceOf",
      "outputs": [
        {
          "internalType": "uint256",
          "name": "",
          "type": "uint256"
        }
      ],
      "stateMutability": "view",
      "type": "function"
    },
    {
      "inputs": [
        {
          "internalType": "uint256",
          "name": "tokenId",
          "type": "uint256"
        }
      ],
      "name": "getApproved",
      "outputs": [
        {
          "internalType": "address",
          "name": "",
          "type": "address"
        }
      ],
      "stateMutability": "view",
      "type": "function"
    },
    {
      "inputs": [
        {
          "internalType": "bytes32",
          "name": "role",
          "type": "bytes32"
        }
      ],
      "name": "getRoleAdmin",
      "outputs": [
        {
          "internalType": "bytes32",
          "name": "",
          "type": "bytes32"
        }
      ],
      "stateMutability": "view",
      "type": "function"
    },
    {
      "inputs": [
        {
          "internalType": "bytes32",
          "name": "role",
          "type": "bytes32"
        },
        {
          "internalType": "uint256",
          "name": "index",
          "type": "uint256"
        }
      ],
      "name": "getRoleMember",
      "outputs": [
        {
          "internalType": "address",
          "name": "",
          "type": "address"
        }
      ],
      "stateMutability": "view",
      "type": "function"
    },
    {
      "inputs": [
        {
          "internalType": "bytes32",
          "name": "role",
          "type": "bytes32"
        }
      ],
      "name": "getRoleMemberCount",
      "outputs": [
        {
          "internalType": "uint256",
          "name": "",
          "type": "uint256"
        }
      ],
      "stateMutability": "view",
      "type": "function"
    },
    {
      "inputs": [
        {
          "internalType": "bytes32",
          "name": "role",
          "type": "bytes32"
        },
        {
          "internalType": "address",
          "name": "account",
          "type": "address"
        }
      ],
      "name": "grantRole",
      "outputs": [],
      "stateMutability": "nonpayable",
      "type": "function"
    },
    {
      "inputs": [
        {
          "internalType": "bytes32",
          "name": "role",
          "type": "bytes32"
        },
        {
          "internalType": "address",
          "name": "account",
          "type": "address"
        }
      ],
      "name": "hasRole",
      "outputs": [
        {
          "internalType": "bool",
          "name": "",
          "type": "bool"
        }
      ],
      "stateMutability": "view",
      "type": "function"
    },
    {
      "inputs": [
        {
          "internalType": "address",
          "name": "owner",
          "type": "address"
        },
        {
          "internalType": "address",
          "name": "operator",
          "type": "address"
        }
      ],
      "name": "isApprovedForAll",
      "outputs": [
        {
          "internalType": "bool",
          "name": "",
          "type": "bool"
        }
      ],
      "stateMutability": "view",
      "type": "function"
    },
    {
      "inputs": [],
      "name": "name",
      "outputs": [
        {
          "internalType": "string",
          "name": "",
          "type": "string"
        }
      ],
      "stateMutability": "view",
      "type": "function"
    },
    {
      "inputs": [
        {
          "internalType": "uint256",
          "name": "tokenId",
          "type": "uint256"
        }
      ],
      "name": "ownerOf",
      "outputs": [
        {
          "internalType": "address",
          "name": "",
          "type": "address"
        }
      ],
      "stateMutability": "view",
      "type": "function"
    },
    {
      "inputs": [
        {
          "internalType": "bytes32",
          "name": "role",
          "type": "bytes32"
        },
        {
          "internalType": "address",
          "name": "account",
          "type": "address"
        }
      ],
      "name": "renounceRole",
      "outputs": [],
      "stateMutability": "nonpayable",
      "type": "function"
    },
    {
      "inputs": [
        {
          "internalType": "bytes32",
          "name": "role",
          "type": "bytes32"
        },
        {
          "internalType": "address",
          "name": "account",
          "type": "address"
        }
      ],
      "name": "revokeRole",
      "outputs": [],
      "stateMutability": "nonpayable",
      "type": "function"
    },
    {
      "inputs": [
        {
          "internalType": "address",
          "name": "from",
          "type": "address"
        },
        {
          "internalType": "address",
          "name": "to",
          "type": "address"
        },
        {
          "internalType": "uint256",
          "name": "tokenId",
          "type": "uint256"
        }
      ],
      "name": "safeTransferFrom",
      "outputs": [],
      "stateMutability": "nonpayable",
      "type": "function"
    },
    {
      "inputs": [
        {
          "internalType": "address",
          "name": "from",
          "type": "address"
        },
        {
          "internalType": "address",
          "name": "to",
          "type": "address"
        },
        {
          "internalType": "uint256",
          "name": "tokenId",
          "type": "uint256"
        },
        {
          "internalType": "bytes",
          "name": "_data",
          "type": "bytes"
        }
      ],
      "name": "safeTransferFrom",
      "outputs": [],
      "stateMutability": "nonpayable",
      "type": "function"
    },
    {
      "inputs": [
        {
          "internalType": "address",
          "name": "operator",
          "type": "address"
        },
        {
          "internalType": "bool",
          "name": "approved",
          "type": "bool"
        }
      ],
      "name": "setApprovalForAll",
      "outputs": [],
      "stateMutability": "nonpayable",
      "type": "function"
    },
    {
      "inputs": [],
      "name": "symbol",
      "outputs": [
        {
          "internalType": "string",
          "name": "",
          "type": "string"
        }
      ],
      "stateMutability": "view",
      "type": "function"
    },
    {
      "inputs": [
        {
          "internalType": "uint256",
          "name": "index",
          "type": "uint256"
        }
      ],
      "name": "tokenByIndex",
      "outputs": [
        {
          "internalType": "uint256",
          "name": "",
          "type": "uint256"
        }
      ],
      "stateMutability": "view",
      "type": "function"
    },
    {
      "inputs": [
        {
          "internalType": "address",
          "name": "owner",
          "type": "address"
        },
        {
          "internalType": "uint256",
          "name": "index",
          "type": "uint256"
        }
      ],
      "name": "tokenOfOwnerByIndex",
      "outputs": [
        {
          "internalType": "uint256",
          "name": "",
          "type": "uint256"
        }
      ],
      "stateMutability": "view",
      "type": "function"
    },
    {
      "inputs": [
        {
          "internalType": "uint256",
          "name": "tokenId",
          "type": "uint256"
        }
      ],
      "name": "tokenURI",
      "outputs": [
        {
          "internalType": "string",
          "name": "",
          "type": "string"
        }
      ],
      "stateMutability": "view",
      "type": "function"
    },
    {
      "inputs": [],
      "name": "totalSupply",
      "outputs": [
        {
          "internalType": "uint256",
          "name": "",
          "type": "uint256"
        }
      ],
      "stateMutability": "view",
      "type": "function"
    },
    {
      "inputs": [
        {
          "internalType": "address",
          "name": "from",
          "type": "address"
        },
        {
          "internalType": "address",
          "name": "to",
          "type": "address"
        },
        {
          "internalType": "uint256",
          "name": "tokenId",
          "type": "uint256"
        }
      ],
      "name": "transferFrom",
      "outputs": [],
      "stateMutability": "nonpayable",
      "type": "function"
    },
    {
      "inputs": [],
      "name": "baseURI",
      "outputs": [
        {
          "internalType": "string",
          "name": "",
          "type": "string"
        }
      ],
      "stateMutability": "view",
      "type": "function"
    },
    {
      "inputs": [
        {
          "internalType": "address",
          "name": "to",
          "type": "address"
        }
      ],
      "name": "mint",
      "outputs": [],
      "stateMutability": "nonpayable",
      "type": "function"
    },
    {
      "inputs": [
        {
          "internalType": "bytes4",
          "name": "interfaceId",
          "type": "bytes4"
        }
      ],
      "name": "supportsInterface",
      "outputs": [
        {
          "internalType": "bool",
          "name": "",
          "type": "bool"
        }
      ],
      "stateMutability": "view",
      "type": "function"
    }
  ],
  "bytecode": "0x60806040523480156200001157600080fd5b5060405162004742380380620047428339818101604052810190620000379190620005d7565b82828160029080519060200190620000519291906200038a565b5080600390805190602001906200006a9291906200038a565b50505080600d9080519060200190620000859291906200038a565b50620000aa6000801b6200009e620000f460201b60201c565b620000fc60201b60201c565b620000eb7f9f2df0fed2c77648de5860a4cc508cd0818c85b8b8a1ab4ceeef8d981c8956a6620000df620000f460201b60201c565b620000fc60201b60201c565b505050620006f5565b600033905090565b6200010e82826200011260201b60201c565b5050565b6200012982826200015a60201b6200108c1760201c565b6200015581600160008581526020019081526020016000206200024b60201b6200116c1790919060201c565b505050565b6200016c82826200028360201b60201c565b6200024757600160008084815260200190815260200160002060000160008373ffffffffffffffffffffffffffffffffffffffff1673ffffffffffffffffffffffffffffffffffffffff16815260200190815260200160002060006101000a81548160ff021916908315150217905550620001ec620000f460201b60201c565b73ffffffffffffffffffffffffffffffffffffffff168173ffffffffffffffffffffffffffffffffffffffff16837f2f8788117e7eff1d82e926ec794901d17c78024a50270940304540a733656f0d60405160405180910390a45b5050565b60006200027b836000018373ffffffffffffffffffffffffffffffffffffffff1660001b620002ed60201b60201c565b905092915050565b600080600084815260200190815260200160002060000160008373ffffffffffffffffffffffffffffffffffffffff1673ffffffffffffffffffffffffffffffffffffffff16815260200190815260200160002060009054906101000a900460ff16905092915050565b60006200030183836200036760201b60201c565b6200035c57826000018290806001815401808255809150506001900390600052602060002001600090919091909150558260000180549050836001016000848152602001908152602001600020819055506001905062000361565b600090505b92915050565b600080836001016000848152602001908152602001600020541415905092915050565b8280546200039890620006bf565b90600052602060002090601f016020900481019282620003bc576000855562000408565b82601f10620003d757805160ff191683800117855562000408565b8280016001018555821562000408579182015b8281111562000407578251825591602001919060010190620003ea565b5b5090506200041791906200041b565b5090565b5b80821115620004365760008160009055506001016200041c565b5090565b6000604051905090565b600080fd5b600080fd5b600080fd5b600080fd5b6000601f19601f8301169050919050565b7f4e487b7100000000000000000000000000000000000000000000000000000000600052604160045260246000fd5b620004a38262000458565b810181811067ffffffffffffffff82111715620004c557620004c462000469565b5b80604052505050565b6000620004da6200043a565b9050620004e8828262000498565b919050565b600067ffffffffffffffff8211156200050b576200050a62000469565b5b620005168262000458565b9050602081019050919050565b60005b838110156200054357808201518184015260208101905062000526565b8381111562000553576000848401525b50505050565b6000620005706200056a84620004ed565b620004ce565b9050828152602081018484840111156200058f576200058e62000453565b5b6200059c84828562000523565b509392505050565b600082601f830112620005bc57620005bb6200044e565b5b8151620005ce84826020860162000559565b91505092915050565b600080600060608486031215620005f357620005f262000444565b5b600084015167ffffffffffffffff81111562000614576200061362000449565b5b6200062286828701620005a4565b935050602084015167ffffffffffffffff81111562000646576200064562000449565b5b6200065486828701620005a4565b925050604084015167ffffffffffffffff81111562000678576200067762000449565b5b6200068686828701620005a4565b9150509250925092565b7f4e487b7100000000000000000000000000000000000000000000000000000000600052602260045260246000fd5b60006002820490506001821680620006d857607f821691505b60208210811415620006ef57620006ee62000690565b5b50919050565b61403d80620007056000396000f3fe608060405234801561001057600080fd5b50600436106101c45760003560e01c80636c0360eb116100f9578063b88d4fde11610097578063d539139311610071578063d53913931461054f578063d547741f1461056d578063e63ab1e914610589578063e985e9c5146105a7576101c4565b8063b88d4fde146104d3578063c87b56dd146104ef578063ca15c8731461051f576101c4565b806391d14854116100d357806391d148541461044b57806395d89b411461047b578063a217fddf14610499578063a22cb465146104b7576101c4565b80636c0360eb146103cd57806370a08231146103eb5780639010d07c1461041b576101c4565b80632f2ff15d1161016657806342842e0e1161014057806342842e0e146103355780634f6ccce7146103515780636352211e146103815780636a627842146103b1576101c4565b80632f2ff15d146102cd5780632f745c59146102e957806336568abe14610319576101c4565b8063095ea7b3116101a2578063095ea7b31461024757806318160ddd1461026357806323b872dd14610281578063248a9ca31461029d576101c4565b806301ffc9a7146101c957806306fdde03146101f9578063081812fc14610217575b600080fd5b6101e360048036038101906101de9190612a7a565b6105d7565b6040516101f09190612ac2565b60405180910390f35b6102016105e9565b60405161020e9190612b76565b60405180910390f35b610231600480360381019061022c9190612bce565b61067b565b60405161023e9190612c3c565b60405180910390f35b610261600480360381019061025c9190612c83565b610700565b005b61026b610818565b6040516102789190612cd2565b60405180910390f35b61029b60048036038101906102969190612ced565b610825565b005b6102b760048036038101906102b29190612d76565b610885565b6040516102c49190612db2565b60405180910390f35b6102e760048036038101906102e29190612dcd565b6108a4565b005b61030360048036038101906102fe9190612c83565b6108cd565b6040516103109190612cd2565b60405180910390f35b610333600480360381019061032e9190612dcd565b610972565b005b61034f600480360381019061034a9190612ced565b6109f5565b005b61036b60048036038101906103669190612bce565b610a15565b6040516103789190612cd2565b60405180910390f35b61039b60048036038101906103969190612bce565b610a86565b6040516103a89190612c3c565b60405180910390f35b6103cb60048036038101906103c69190612e0d565b610b38565b005b6103d5610bc8565b6040516103e29190612b76565b60405180910390f35b61040560048036038101906104009190612e0d565b610c5a565b6040516104129190612cd2565b60405180910390f35b61043560048036038101906104309190612e3a565b610d12565b6040516104429190612c3c565b60405180910390f35b61046560048036038101906104609190612dcd565b610d41565b6040516104729190612ac2565b60405180910390f35b610483610dab565b6040516104909190612b76565b60405180910390f35b6104a1610e3d565b6040516104ae9190612db2565b60405180910390f35b6104d160048036038101906104cc9190612ea6565b610e44565b005b6104ed60048036038101906104e8919061301b565b610e5a565b005b61050960048036038101906105049190612bce565b610ebc565b6040516105169190612b76565b60405180910390f35b61053960048036038101906105349190612d76565b610f63565b6040516105469190612cd2565b60405180910390f35b610557610f87565b6040516105649190612db2565b60405180910390f35b61058760048036038101906105829190612dcd565b610fab565b005b610591610fd4565b60405161059e9190612db2565b60405180910390f35b6105c160048036038101906105bc919061309e565b610ff8565b6040516105ce9190612ac2565b60405180910390f35b60006105e28261119c565b9050919050565b6060600280546105f89061310d565b80601f01602080910402602001604051908101604052809291908181526020018280546106249061310d565b80156106715780601f1061064657610100808354040283529160200191610671565b820191906000526020600020905b81548152906001019060200180831161065457829003601f168201915b5050505050905090565b600061068682611216565b6106c5576040517f08c379a00000000000000000000000000000000000000000000000000000000081526004016106bc906131b1565b60405180910390fd5b6006600083815260200190815260200160002060009054906101000a900473ffffffffffffffffffffffffffffffffffffffff169050919050565b600061070b82610a86565b90508073ffffffffffffffffffffffffffffffffffffffff168373ffffffffffffffffffffffffffffffffffffffff16141561077c576040517f08c379a000000000000000000000000000000000000000000000000000000000815260040161077390613243565b60405180910390fd5b8073ffffffffffffffffffffffffffffffffffffffff1661079b611282565b73ffffffffffffffffffffffffffffffffffffffff1614806107ca57506107c9816107c4611282565b610ff8565b5b610809576040517f08c379a0000000000000000000000000000000000000000000000000000000008152600401610800906132d5565b60405180910390fd5b610813838361128a565b505050565b6000600a80549050905090565b610836610830611282565b82611343565b610875576040517f08c379a000000000000000000000000000000000000000000000000000000000815260040161086c90613367565b60405180910390fd5b610880838383611421565b505050565b6000806000838152602001908152602001600020600101549050919050565b6108ad82610885565b6108be816108b9611282565b61167d565b6108c8838361171a565b505050565b60006108d883610c5a565b8210610919576040517f08c379a0000000000000000000000000000000000000000000000000000000008152600401610910906133f9565b60405180910390fd5b600860008473ffffffffffffffffffffffffffffffffffffffff1673ffffffffffffffffffffffffffffffffffffffff168152602001908152602001600020600083815260200190815260200160002054905092915050565b61097a611282565b73ffffffffffffffffffffffffffffffffffffffff168173ffffffffffffffffffffffffffffffffffffffff16146109e7576040517f08c379a00000000000000000000000000000000000000000000000000000000081526004016109de9061348b565b60405180910390fd5b6109f1828261174e565b5050565b610a1083838360405180602001604052806000815250610e5a565b505050565b6000610a1f610818565b8210610a60576040517f08c379a0000000000000000000000000000000000000000000000000000000008152600401610a579061351d565b60405180910390fd5b600a8281548110610a7457610a7361353d565b5b90600052602060002001549050919050565b6000806004600084815260200190815260200160002060009054906101000a900473ffffffffffffffffffffffffffffffffffffffff169050600073ffffffffffffffffffffffffffffffffffffffff168173ffffffffffffffffffffffffffffffffffffffff161415610b2f576040517f08c379a0000000000000000000000000000000000000000000000000000000008152600401610b26906135de565b60405180910390fd5b80915050919050565b610b697f9f2df0fed2c77648de5860a4cc508cd0818c85b8b8a1ab4ceeef8d981c8956a6610b64611282565b610d41565b610ba8576040517f08c379a0000000000000000000000000000000000000000000000000000000008152600401610b9f90613670565b60405180910390fd5b610bbb81610bb6600c611782565b611790565b610bc5600c61195e565b50565b6060600d8054610bd79061310d565b80601f0160208091040260200160405190810160405280929190818152602001828054610c039061310d565b8015610c505780601f10610c2557610100808354040283529160200191610c50565b820191906000526020600020905b815481529060010190602001808311610c3357829003601f168201915b5050505050905090565b60008073ffffffffffffffffffffffffffffffffffffffff168273ffffffffffffffffffffffffffffffffffffffff161415610ccb576040517f08c379a0000000000000000000000000000000000000000000000000000000008152600401610cc290613702565b60405180910390fd5b600560008373ffffffffffffffffffffffffffffffffffffffff1673ffffffffffffffffffffffffffffffffffffffff168152602001908152602001600020549050919050565b6000610d39826001600086815260200190815260200160002061197490919063ffffffff16565b905092915050565b600080600084815260200190815260200160002060000160008373ffffffffffffffffffffffffffffffffffffffff1673ffffffffffffffffffffffffffffffffffffffff16815260200190815260200160002060009054906101000a900460ff16905092915050565b606060038054610dba9061310d565b80601f0160208091040260200160405190810160405280929190818152602001828054610de69061310d565b8015610e335780601f10610e0857610100808354040283529160200191610e33565b820191906000526020600020905b815481529060010190602001808311610e1657829003601f168201915b5050505050905090565b6000801b81565b610e56610e4f611282565b838361198e565b5050565b610e6b610e65611282565b83611343565b610eaa576040517f08c379a0000000000000000000000000000000000000000000000000000000008152600401610ea190613367565b60405180910390fd5b610eb684848484611afb565b50505050565b6060610ec782611216565b610f06576040517f08c379a0000000000000000000000000000000000000000000000000000000008152600401610efd90613794565b60405180910390fd5b6000610f10611b57565b90506000815111610f305760405180602001604052806000815250610f5b565b80610f3a84611b6e565b604051602001610f4b9291906137f0565b6040516020818303038152906040525b915050919050565b6000610f8060016000848152602001908152602001600020611ccf565b9050919050565b7f9f2df0fed2c77648de5860a4cc508cd0818c85b8b8a1ab4ceeef8d981c8956a681565b610fb482610885565b610fc581610fc0611282565b61167d565b610fcf838361174e565b505050565b7f65d7a28e3265b37a6474929f336521b332c1681b933f6cb9f3376673440d862a81565b6000600760008473ffffffffffffffffffffffffffffffffffffffff1673ffffffffffffffffffffffffffffffffffffffff16815260200190815260200160002060008373ffffffffffffffffffffffffffffffffffffffff1673ffffffffffffffffffffffffffffffffffffffff16815260200190815260200160002060009054906101000a900460ff16905092915050565b6110968282610d41565b61116857600160008084815260200190815260200160002060000160008373ffffffffffffffffffffffffffffffffffffffff1673ffffffffffffffffffffffffffffffffffffffff16815260200190815260200160002060006101000a81548160ff02191690831515021790555061110d611282565b73ffffffffffffffffffffffffffffffffffffffff168173ffffffffffffffffffffffffffffffffffffffff16837f2f8788117e7eff1d82e926ec794901d17c78024a50270940304540a733656f0d60405160405180910390a45b5050565b6000611194836000018373ffffffffffffffffffffffffffffffffffffffff1660001b611ce4565b905092915050565b60007f780e9d63000000000000000000000000000000000000000000000000000000007bffffffffffffffffffffffffffffffffffffffffffffffffffffffff1916827bffffffffffffffffffffffffffffffffffffffffffffffffffffffff1916148061120f575061120e82611d54565b5b9050919050565b60008073ffffffffffffffffffffffffffffffffffffffff166004600084815260200190815260200160002060009054906101000a900473ffffffffffffffffffffffffffffffffffffffff1673ffffffffffffffffffffffffffffffffffffffff1614159050919050565b600033905090565b816006600083815260200190815260200160002060006101000a81548173ffffffffffffffffffffffffffffffffffffffff021916908373ffffffffffffffffffffffffffffffffffffffff160217905550808273ffffffffffffffffffffffffffffffffffffffff166112fd83610a86565b73ffffffffffffffffffffffffffffffffffffffff167f8c5be1e5ebec7d5bd14f71427d1e84f3dd0314c0f7b2291e5b200ac8c7c3b92560405160405180910390a45050565b600061134e82611216565b61138d576040517f08c379a000000000000000000000000000000000000000000000000000000000815260040161138490613886565b60405180910390fd5b600061139883610a86565b90508073ffffffffffffffffffffffffffffffffffffffff168473ffffffffffffffffffffffffffffffffffffffff16148061140757508373ffffffffffffffffffffffffffffffffffffffff166113ef8461067b565b73ffffffffffffffffffffffffffffffffffffffff16145b8061141857506114178185610ff8565b5b91505092915050565b8273ffffffffffffffffffffffffffffffffffffffff1661144182610a86565b73ffffffffffffffffffffffffffffffffffffffff1614611497576040517f08c379a000000000000000000000000000000000000000000000000000000000815260040161148e90613918565b60405180910390fd5b600073ffffffffffffffffffffffffffffffffffffffff168273ffffffffffffffffffffffffffffffffffffffff161415611507576040517f08c379a00000000000000000000000000000000000000000000000000000000081526004016114fe906139aa565b60405180910390fd5b611512838383611e36565b61151d60008261128a565b6001600560008573ffffffffffffffffffffffffffffffffffffffff1673ffffffffffffffffffffffffffffffffffffffff168152602001908152602001600020600082825461156d91906139f9565b925050819055506001600560008473ffffffffffffffffffffffffffffffffffffffff1673ffffffffffffffffffffffffffffffffffffffff16815260200190815260200160002060008282546115c49190613a2d565b92505081905550816004600083815260200190815260200160002060006101000a81548173ffffffffffffffffffffffffffffffffffffffff021916908373ffffffffffffffffffffffffffffffffffffffff160217905550808273ffffffffffffffffffffffffffffffffffffffff168473ffffffffffffffffffffffffffffffffffffffff167fddf252ad1be2c89b69c2b068fc378daa952ba7f163c4a11628f55a4df523b3ef60405160405180910390a4505050565b6116878282610d41565b611716576116ac8173ffffffffffffffffffffffffffffffffffffffff166014611f4a565b6116ba8360001c6020611f4a565b6040516020016116cb929190613b1b565b6040516020818303038152906040526040517f08c379a000000000000000000000000000000000000000000000000000000000815260040161170d9190612b76565b60405180910390fd5b5050565b611724828261108c565b611749816001600085815260200190815260200160002061116c90919063ffffffff16565b505050565b6117588282612186565b61177d816001600085815260200190815260200160002061226790919063ffffffff16565b505050565b600081600001549050919050565b600073ffffffffffffffffffffffffffffffffffffffff168273ffffffffffffffffffffffffffffffffffffffff161415611800576040517f08c379a00000000000000000000000000000000000000000000000000000000081526004016117f790613ba1565b60405180910390fd5b61180981611216565b15611849576040517f08c379a000000000000000000000000000000000000000000000000000000000815260040161184090613c0d565b60405180910390fd5b61185560008383611e36565b6001600560008473ffffffffffffffffffffffffffffffffffffffff1673ffffffffffffffffffffffffffffffffffffffff16815260200190815260200160002060008282546118a59190613a2d565b92505081905550816004600083815260200190815260200160002060006101000a81548173ffffffffffffffffffffffffffffffffffffffff021916908373ffffffffffffffffffffffffffffffffffffffff160217905550808273ffffffffffffffffffffffffffffffffffffffff16600073ffffffffffffffffffffffffffffffffffffffff167fddf252ad1be2c89b69c2b068fc378daa952ba7f163c4a11628f55a4df523b3ef60405160405180910390a45050565b6001816000016000828254019250508190555050565b60006119838360000183612297565b60001c905092915050565b8173ffffffffffffffffffffffffffffffffffffffff168373ffffffffffffffffffffffffffffffffffffffff1614156119fd576040517f08c379a00000000000000000000000000000000000000000000000000000000081526004016119f490613c79565b60405180910390fd5b80600760008573ffffffffffffffffffffffffffffffffffffffff1673ffffffffffffffffffffffffffffffffffffffff16815260200190815260200160002060008473ffffffffffffffffffffffffffffffffffffffff1673ffffffffffffffffffffffffffffffffffffffff16815260200190815260200160002060006101000a81548160ff0219169083151502179055508173ffffffffffffffffffffffffffffffffffffffff168373ffffffffffffffffffffffffffffffffffffffff167f17307eab39ab6107e8899845ad3d59bd9653f200f220920489ca2b5937696c3183604051611aee9190612ac2565b60405180910390a3505050565b611b06848484611421565b611b12848484846122c2565b611b51576040517f08c379a0000000000000000000000000000000000000000000000000000000008152600401611b4890613d0b565b60405180910390fd5b50505050565b606060405180602001604052806000815250905090565b60606000821415611bb6576040518060400160405280600181526020017f30000000000000000000000000000000000000000000000000000000000000008152509050611cca565b600082905060005b60008214611be8578080611bd190613d2b565b915050600a82611be19190613da3565b9150611bbe565b60008167ffffffffffffffff811115611c0457611c03612ef0565b5b6040519080825280601f01601f191660200182016040528015611c365781602001600182028036833780820191505090505b5090505b60008514611cc357600182611c4f91906139f9565b9150600a85611c5e9190613dd4565b6030611c6a9190613a2d565b60f81b818381518110611c8057611c7f61353d565b5b60200101907effffffffffffffffffffffffffffffffffffffffffffffffffffffffffffff1916908160001a905350600a85611cbc9190613da3565b9450611c3a565b8093505050505b919050565b6000611cdd8260000161244a565b9050919050565b6000611cf0838361245b565b611d49578260000182908060018154018082558091505060019003906000526020600020016000909190919091505582600001805490508360010160008481526020019081526020016000208190555060019050611d4e565b600090505b92915050565b60007f80ac58cd000000000000000000000000000000000000000000000000000000007bffffffffffffffffffffffffffffffffffffffffffffffffffffffff1916827bffffffffffffffffffffffffffffffffffffffffffffffffffffffff19161480611e1f57507f5b5e139f000000000000000000000000000000000000000000000000000000007bffffffffffffffffffffffffffffffffffffffffffffffffffffffff1916827bffffffffffffffffffffffffffffffffffffffffffffffffffffffff1916145b80611e2f5750611e2e8261247e565b5b9050919050565b611e418383836124f8565b600073ffffffffffffffffffffffffffffffffffffffff168373ffffffffffffffffffffffffffffffffffffffff161415611e8457611e7f816124fd565b611ec3565b8173ffffffffffffffffffffffffffffffffffffffff168373ffffffffffffffffffffffffffffffffffffffff1614611ec257611ec18382612546565b5b5b600073ffffffffffffffffffffffffffffffffffffffff168273ffffffffffffffffffffffffffffffffffffffff161415611f0657611f01816126b3565b611f45565b8273ffffffffffffffffffffffffffffffffffffffff168273ffffffffffffffffffffffffffffffffffffffff1614611f4457611f438282612784565b5b5b505050565b606060006002836002611f5d9190613e05565b611f679190613a2d565b67ffffffffffffffff811115611f8057611f7f612ef0565b5b6040519080825280601f01601f191660200182016040528015611fb25781602001600182028036833780820191505090505b5090507f300000000000000000000000000000000000000000000000000000000000000081600081518110611fea57611fe961353d565b5b60200101907effffffffffffffffffffffffffffffffffffffffffffffffffffffffffffff1916908160001a9053507f78000000000000000000000000000000000000000000000000000000000000008160018151811061204e5761204d61353d565b5b60200101907effffffffffffffffffffffffffffffffffffffffffffffffffffffffffffff1916908160001a9053506000600184600261208e9190613e05565b6120989190613a2d565b90505b6001811115612138577f3031323334353637383961626364656600000000000000000000000000000000600f8616601081106120da576120d961353d565b5b1a60f81b8282815181106120f1576120f061353d565b5b60200101907effffffffffffffffffffffffffffffffffffffffffffffffffffffffffffff1916908160001a905350600485901c94508061213190613e5f565b905061209b565b506000841461217c576040517f08c379a000000000000000000000000000000000000000000000000000000000815260040161217390613ed5565b60405180910390fd5b8091505092915050565b6121908282610d41565b1561226357600080600084815260200190815260200160002060000160008373ffffffffffffffffffffffffffffffffffffffff1673ffffffffffffffffffffffffffffffffffffffff16815260200190815260200160002060006101000a81548160ff021916908315150217905550612208611282565b73ffffffffffffffffffffffffffffffffffffffff168173ffffffffffffffffffffffffffffffffffffffff16837ff6391f5c32d9c69d2a47ea670b442974b53935d1edc7fd64eb21e047a839171b60405160405180910390a45b5050565b600061228f836000018373ffffffffffffffffffffffffffffffffffffffff1660001b612803565b905092915050565b60008260000182815481106122af576122ae61353d565b5b9060005260206000200154905092915050565b60006122e38473ffffffffffffffffffffffffffffffffffffffff16612917565b1561243d578373ffffffffffffffffffffffffffffffffffffffff1663150b7a0261230c611282565b8786866040518563ffffffff1660e01b815260040161232e9493929190613f4a565b6020604051808303816000875af192505050801561236a57506040513d601f19601f820116820180604052508101906123679190613fab565b60015b6123ed573d806000811461239a576040519150601f19603f3d011682016040523d82523d6000602084013e61239f565b606091505b506000815114156123e5576040517f08c379a00000000000000000000000000000000000000000000000000000000081526004016123dc90613d0b565b60405180910390fd5b805181602001fd5b63150b7a0260e01b7bffffffffffffffffffffffffffffffffffffffffffffffffffffffff1916817bffffffffffffffffffffffffffffffffffffffffffffffffffffffff191614915050612442565b600190505b949350505050565b600081600001805490509050919050565b600080836001016000848152602001908152602001600020541415905092915050565b60007f5a05180f000000000000000000000000000000000000000000000000000000007bffffffffffffffffffffffffffffffffffffffffffffffffffffffff1916827bffffffffffffffffffffffffffffffffffffffffffffffffffffffff191614806124f157506124f08261292a565b5b9050919050565b505050565b600a80549050600b600083815260200190815260200160002081905550600a81908060018154018082558091505060019003906000526020600020016000909190919091505550565b6000600161255384610c5a565b61255d91906139f9565b9050600060096000848152602001908152602001600020549050818114612642576000600860008673ffffffffffffffffffffffffffffffffffffffff1673ffffffffffffffffffffffffffffffffffffffff168152602001908152602001600020600084815260200190815260200160002054905080600860008773ffffffffffffffffffffffffffffffffffffffff1673ffffffffffffffffffffffffffffffffffffffff168152602001908152602001600020600084815260200190815260200160002081905550816009600083815260200190815260200160002081905550505b6009600084815260200190815260200160002060009055600860008573ffffffffffffffffffffffffffffffffffffffff1673ffffffffffffffffffffffffffffffffffffffff16815260200190815260200160002060008381526020019081526020016000206000905550505050565b60006001600a805490506126c791906139f9565b90506000600b60008481526020019081526020016000205490506000600a83815481106126f7576126f661353d565b5b9060005260206000200154905080600a83815481106127195761271861353d565b5b906000526020600020018190555081600b600083815260200190815260200160002081905550600b600085815260200190815260200160002060009055600a80548061276857612767613fd8565b5b6001900381819060005260206000200160009055905550505050565b600061278f83610c5a565b905081600860008573ffffffffffffffffffffffffffffffffffffffff1673ffffffffffffffffffffffffffffffffffffffff168152602001908152602001600020600083815260200190815260200160002081905550806009600084815260200190815260200160002081905550505050565b6000808360010160008481526020019081526020016000205490506000811461290b57600060018261283591906139f9565b905060006001866000018054905061284d91906139f9565b90508181146128bc57600086600001828154811061286e5761286d61353d565b5b90600052602060002001549050808760000184815481106128925761289161353d565b5b90600052602060002001819055508387600101600083815260200190815260200160002081905550505b856000018054806128d0576128cf613fd8565b5b600190038181906000526020600020016000905590558560010160008681526020019081526020016000206000905560019350505050612911565b60009150505b92915050565b600080823b905060008111915050919050565b60007f7965db0b000000000000000000000000000000000000000000000000000000007bffffffffffffffffffffffffffffffffffffffffffffffffffffffff1916827bffffffffffffffffffffffffffffffffffffffffffffffffffffffff1916148061299d575061299c826129a4565b5b9050919050565b60007f01ffc9a7000000000000000000000000000000000000000000000000000000007bffffffffffffffffffffffffffffffffffffffffffffffffffffffff1916827bffffffffffffffffffffffffffffffffffffffffffffffffffffffff1916149050919050565b6000604051905090565b600080fd5b600080fd5b60007fffffffff0000000000000000000000000000000000000000000000000000000082169050919050565b612a5781612a22565b8114612a6257600080fd5b50565b600081359050612a7481612a4e565b92915050565b600060208284031215612a9057612a8f612a18565b5b6000612a9e84828501612a65565b91505092915050565b60008115159050919050565b612abc81612aa7565b82525050565b6000602082019050612ad76000830184612ab3565b92915050565b600081519050919050565b600082825260208201905092915050565b60005b83811015612b17578082015181840152602081019050612afc565b83811115612b26576000848401525b50505050565b6000601f19601f8301169050919050565b6000612b4882612add565b612b528185612ae8565b9350612b62818560208601612af9565b612b6b81612b2c565b840191505092915050565b60006020820190508181036000830152612b908184612b3d565b905092915050565b6000819050919050565b612bab81612b98565b8114612bb657600080fd5b50565b600081359050612bc881612ba2565b92915050565b600060208284031215612be457612be3612a18565b5b6000612bf284828501612bb9565b91505092915050565b600073ffffffffffffffffffffffffffffffffffffffff82169050919050565b6000612c2682612bfb565b9050919050565b612c3681612c1b565b82525050565b6000602082019050612c516000830184612c2d565b92915050565b612c6081612c1b565b8114612c6b57600080fd5b50565b600081359050612c7d81612c57565b92915050565b60008060408385031215612c9a57612c99612a18565b5b6000612ca885828601612c6e565b9250506020612cb985828601612bb9565b9150509250929050565b612ccc81612b98565b82525050565b6000602082019050612ce76000830184612cc3565b92915050565b600080600060608486031215612d0657612d05612a18565b5b6000612d1486828701612c6e565b9350506020612d2586828701612c6e565b9250506040612d3686828701612bb9565b9150509250925092565b6000819050919050565b612d5381612d40565b8114612d5e57600080fd5b50565b600081359050612d7081612d4a565b92915050565b600060208284031215612d8c57612d8b612a18565b5b6000612d9a84828501612d61565b91505092915050565b612dac81612d40565b82525050565b6000602082019050612dc76000830184612da3565b92915050565b60008060408385031215612de457612de3612a18565b5b6000612df285828601612d61565b9250506020612e0385828601612c6e565b9150509250929050565b600060208284031215612e2357612e22612a18565b5b6000612e3184828501612c6e565b91505092915050565b60008060408385031215612e5157612e50612a18565b5b6000612e5f85828601612d61565b9250506020612e7085828601612bb9565b9150509250929050565b612e8381612aa7565b8114612e8e57600080fd5b50565b600081359050612ea081612e7a565b92915050565b60008060408385031215612ebd57612ebc612a18565b5b6000612ecb85828601612c6e565b9250506020612edc85828601612e91565b9150509250929050565b600080fd5b600080fd5b7f4e487b7100000000000000000000000000000000000000000000000000000000600052604160045260246000fd5b612f2882612b2c565b810181811067ffffffffffffffff82111715612f4757612f46612ef0565b5b80604052505050565b6000612f5a612a0e565b9050612f668282612f1f565b919050565b600067ffffffffffffffff821115612f8657612f85612ef0565b5b612f8f82612b2c565b9050602081019050919050565b82818337600083830152505050565b6000612fbe612fb984612f6b565b612f50565b905082815260208101848484011115612fda57612fd9612eeb565b5b612fe5848285612f9c565b509392505050565b600082601f83011261300257613001612ee6565b5b8135613012848260208601612fab565b91505092915050565b6000806000806080858703121561303557613034612a18565b5b600061304387828801612c6e565b945050602061305487828801612c6e565b935050604061306587828801612bb9565b925050606085013567ffffffffffffffff81111561308657613085612a1d565b5b61309287828801612fed565b91505092959194509250565b600080604083850312156130b5576130b4612a18565b5b60006130c385828601612c6e565b92505060206130d485828601612c6e565b9150509250929050565b7f4e487b7100000000000000000000000000000000000000000000000000000000600052602260045260246000fd5b6000600282049050600182168061312557607f821691505b60208210811415613139576131386130de565b5b50919050565b7f4552433732313a20617070726f76656420717565727920666f72206e6f6e657860008201527f697374656e7420746f6b656e0000000000000000000000000000000000000000602082015250565b600061319b602c83612ae8565b91506131a68261313f565b604082019050919050565b600060208201905081810360008301526131ca8161318e565b9050919050565b7f4552433732313a20617070726f76616c20746f2063757272656e74206f776e6560008201527f7200000000000000000000000000000000000000000000000000000000000000602082015250565b600061322d602183612ae8565b9150613238826131d1565b604082019050919050565b6000602082019050818103600083015261325c81613220565b9050919050565b7f4552433732313a20617070726f76652063616c6c6572206973206e6f74206f7760008201527f6e6572206e6f7220617070726f76656420666f7220616c6c0000000000000000602082015250565b60006132bf603883612ae8565b91506132ca82613263565b604082019050919050565b600060208201905081810360008301526132ee816132b2565b9050919050565b7f4552433732313a207472616e736665722063616c6c6572206973206e6f74206f60008201527f776e6572206e6f7220617070726f766564000000000000000000000000000000602082015250565b6000613351603183612ae8565b915061335c826132f5565b604082019050919050565b6000602082019050818103600083015261338081613344565b9050919050565b7f455243373231456e756d657261626c653a206f776e657220696e646578206f7560008201527f74206f6620626f756e6473000000000000000000000000000000000000000000602082015250565b60006133e3602b83612ae8565b91506133ee82613387565b604082019050919050565b60006020820190508181036000830152613412816133d6565b9050919050565b7f416363657373436f6e74726f6c3a2063616e206f6e6c792072656e6f756e636560008201527f20726f6c657320666f722073656c660000000000000000000000000000000000602082015250565b6000613475602f83612ae8565b915061348082613419565b604082019050919050565b600060208201905081810360008301526134a481613468565b9050919050565b7f455243373231456e756d657261626c653a20676c6f62616c20696e646578206f60008201527f7574206f6620626f756e64730000000000000000000000000000000000000000602082015250565b6000613507602c83612ae8565b9150613512826134ab565b604082019050919050565b60006020820190508181036000830152613536816134fa565b9050919050565b7f4e487b7100000000000000000000000000000000000000000000000000000000600052603260045260246000fd5b7f4552433732313a206f776e657220717565727920666f72206e6f6e657869737460008201527f656e7420746f6b656e0000000000000000000000000000000000000000000000602082015250565b60006135c8602983612ae8565b91506135d38261356c565b604082019050919050565b600060208201905081810360008301526135f7816135bb565b9050919050565b7f4552433732315072657365744d696e7465725061757365724175746f49643a2060008201527f6d7573742068617665206d696e74657220726f6c6520746f206d696e74000000602082015250565b600061365a603d83612ae8565b9150613665826135fe565b604082019050919050565b600060208201905081810360008301526136898161364d565b9050919050565b7f4552433732313a2062616c616e636520717565727920666f7220746865207a6560008201527f726f206164647265737300000000000000000000000000000000000000000000602082015250565b60006136ec602a83612ae8565b91506136f782613690565b604082019050919050565b6000602082019050818103600083015261371b816136df565b9050919050565b7f4552433732314d657461646174613a2055524920717565727920666f72206e6f60008201527f6e6578697374656e7420746f6b656e0000000000000000000000000000000000602082015250565b600061377e602f83612ae8565b915061378982613722565b604082019050919050565b600060208201905081810360008301526137ad81613771565b9050919050565b600081905092915050565b60006137ca82612add565b6137d481856137b4565b93506137e4818560208601612af9565b80840191505092915050565b60006137fc82856137bf565b915061380882846137bf565b91508190509392505050565b7f4552433732313a206f70657261746f7220717565727920666f72206e6f6e657860008201527f697374656e7420746f6b656e0000000000000000000000000000000000000000602082015250565b6000613870602c83612ae8565b915061387b82613814565b604082019050919050565b6000602082019050818103600083015261389f81613863565b9050919050565b7f4552433732313a207472616e73666572206f6620746f6b656e2074686174206960008201527f73206e6f74206f776e0000000000000000000000000000000000000000000000602082015250565b6000613902602983612ae8565b915061390d826138a6565b604082019050919050565b60006020820190508181036000830152613931816138f5565b9050919050565b7f4552433732313a207472616e7366657220746f20746865207a65726f2061646460008201527f7265737300000000000000000000000000000000000000000000000000000000602082015250565b6000613994602483612ae8565b915061399f82613938565b604082019050919050565b600060208201905081810360008301526139c381613987565b9050919050565b7f4e487b7100000000000000000000000000000000000000000000000000000000600052601160045260246000fd5b6000613a0482612b98565b9150613a0f83612b98565b925082821015613a2257613a216139ca565b5b828203905092915050565b6000613a3882612b98565b9150613a4383612b98565b9250827fffffffffffffffffffffffffffffffffffffffffffffffffffffffffffffffff03821115613a7857613a776139ca565b5b828201905092915050565b7f416363657373436f6e74726f6c3a206163636f756e7420000000000000000000600082015250565b6000613ab96017836137b4565b9150613ac482613a83565b601782019050919050565b7f206973206d697373696e6720726f6c6520000000000000000000000000000000600082015250565b6000613b056011836137b4565b9150613b1082613acf565b601182019050919050565b6000613b2682613aac565b9150613b3282856137bf565b9150613b3d82613af8565b9150613b4982846137bf565b91508190509392505050565b7f4552433732313a206d696e7420746f20746865207a65726f2061646472657373600082015250565b6000613b8b602083612ae8565b9150613b9682613b55565b602082019050919050565b60006020820190508181036000830152613bba81613b7e565b9050919050565b7f4552433732313a20746f6b656e20616c7265616479206d696e74656400000000600082015250565b6000613bf7601c83612ae8565b9150613c0282613bc1565b602082019050919050565b60006020820190508181036000830152613c2681613bea565b9050919050565b7f4552433732313a20617070726f766520746f2063616c6c657200000000000000600082015250565b6000613c63601983612ae8565b9150613c6e82613c2d565b602082019050919050565b60006020820190508181036000830152613c9281613c56565b9050919050565b7f4552433732313a207472616e7366657220746f206e6f6e20455243373231526560008201527f63656976657220696d706c656d656e7465720000000000000000000000000000602082015250565b6000613cf5603283612ae8565b9150613d0082613c99565b604082019050919050565b60006020820190508181036000830152613d2481613ce8565b9050919050565b6000613d3682612b98565b91507fffffffffffffffffffffffffffffffffffffffffffffffffffffffffffffffff821415613d6957613d686139ca565b5b600182019050919050565b7f4e487b7100000000000000000000000000000000000000000000000000000000600052601260045260246000fd5b6000613dae82612b98565b9150613db983612b98565b925082613dc957613dc8613d74565b5b828204905092915050565b6000613ddf82612b98565b9150613dea83612b98565b925082613dfa57613df9613d74565b5b828206905092915050565b6000613e1082612b98565b9150613e1b83612b98565b9250817fffffffffffffffffffffffffffffffffffffffffffffffffffffffffffffffff0483118215151615613e5457613e536139ca565b5b828202905092915050565b6000613e6a82612b98565b91506000821415613e7e57613e7d6139ca565b5b600182039050919050565b7f537472696e67733a20686578206c656e67746820696e73756666696369656e74600082015250565b6000613ebf602083612ae8565b9150613eca82613e89565b602082019050919050565b60006020820190508181036000830152613eee81613eb2565b9050919050565b600081519050919050565b600082825260208201905092915050565b6000613f1c82613ef5565b613f268185613f00565b9350613f36818560208601612af9565b613f3f81612b2c565b840191505092915050565b6000608082019050613f5f6000830187612c2d565b613f6c6020830186612c2d565b613f796040830185612cc3565b8181036060830152613f8b8184613f11565b905095945050505050565b600081519050613fa581612a4e565b92915050565b600060208284031215613fc157613fc0612a18565b5b6000613fcf84828501613f96565b91505092915050565b7f4e487b7100000000000000000000000000000000000000000000000000000000600052603160045260246000fdfea26469706673582212202ca10c1975b39676142e2e733ca89e4c0a4a97afb198559fdca09dd9a8faca2564736f6c634300080a0033",
  "immutableReferences": {},
  "source": "// SPDX-License-Identifier: MIT\npragma solidity ^0.8.0;\n\nimport \"@openzeppelin/contracts/token/ERC721/extensions/ERC721Enumerable.sol\";\nimport \"@openzeppelin/contracts/token/ERC721/ERC721.sol\";\nimport \"@openzeppelin/contracts/utils/Counters.sol\";\nimport \"@openzeppelin/contracts/access/AccessControlEnumerable.sol\";\n\n//ERC721\ncontract ERC721MintableContract is AccessControlEnumerable, ERC721Enumerable {\n    using Counters for Counters.Counter;\n    Counters.Counter private _tokenIds;\n\n    bytes32 public constant MINTER_ROLE = keccak256(\"MINTER_ROLE\");\n    bytes32 public constant PAUSER_ROLE = keccak256(\"PAUSER_ROLE\");\n\n    string private _baseTokenURI;\n\n    constructor(\n        string memory name,\n        string memory symbol,\n        string memory baseTokenURI\n    ) ERC721(name, symbol) {\n        _baseTokenURI = baseTokenURI;\n\n        _setupRole(DEFAULT_ADMIN_ROLE, _msgSender());\n\n        _setupRole(MINTER_ROLE, _msgSender());\n    }\n\n    function baseURI() external view returns (string memory) {\n        return _baseTokenURI;\n    }\n\n    function mint(address to) public virtual {\n        require(\n            hasRole(MINTER_ROLE, _msgSender()),\n            \"ERC721PresetMinterPauserAutoId: must have minter role to mint\"\n        );\n\n        // We cannot just use balanceOf to create the new tokenId because tokens\n        // can be burned (destroyed), so we need a separate counter.\n        _mint(to, _tokenIds.current());\n        _tokenIds.increment();\n    }\n\n    function supportsInterface(bytes4 interfaceId)\n        public\n        view\n        virtual\n        override(AccessControlEnumerable, ERC721Enumerable)\n        returns (bool)\n    {\n        return super.supportsInterface(interfaceId);\n    }\n}\n",
  "sourcePath": "/Users/q/study/ethereum/mint-coin/contracts/ERC721/ERC721Mintable.sol",
  "compiler": {
    "name": "solc",
    "version": "0.8.10+commit.fc410830.Emscripten.clang"
  },
  "schemaVersion": "3.4.1",
  "updatedAt": "2021-12-12T16:45:31.230Z",
  "devdoc": {
    "kind": "dev",
    "methods": {
      "approve(address,uint256)": {
        "details": "See {IERC721-approve}."
      },
      "balanceOf(address)": {
        "details": "See {IERC721-balanceOf}."
      },
      "getApproved(uint256)": {
        "details": "See {IERC721-getApproved}."
      },
      "getRoleAdmin(bytes32)": {
        "details": "Returns the admin role that controls `role`. See {grantRole} and {revokeRole}. To change a role's admin, use {_setRoleAdmin}."
      },
      "getRoleMember(bytes32,uint256)": {
        "details": "Returns one of the accounts that have `role`. `index` must be a value between 0 and {getRoleMemberCount}, non-inclusive. Role bearers are not sorted in any particular way, and their ordering may change at any point. WARNING: When using {getRoleMember} and {getRoleMemberCount}, make sure you perform all queries on the same block. See the following https://forum.openzeppelin.com/t/iterating-over-elements-on-enumerableset-in-openzeppelin-contracts/2296[forum post] for more information."
      },
      "getRoleMemberCount(bytes32)": {
        "details": "Returns the number of accounts that have `role`. Can be used together with {getRoleMember} to enumerate all bearers of a role."
      },
      "grantRole(bytes32,address)": {
        "details": "Grants `role` to `account`. If `account` had not been already granted `role`, emits a {RoleGranted} event. Requirements: - the caller must have ``role``'s admin role."
      },
      "hasRole(bytes32,address)": {
        "details": "Returns `true` if `account` has been granted `role`."
      },
      "isApprovedForAll(address,address)": {
        "details": "See {IERC721-isApprovedForAll}."
      },
      "name()": {
        "details": "See {IERC721Metadata-name}."
      },
      "ownerOf(uint256)": {
        "details": "See {IERC721-ownerOf}."
      },
      "renounceRole(bytes32,address)": {
        "details": "Revokes `role` from the calling account. Roles are often managed via {grantRole} and {revokeRole}: this function's purpose is to provide a mechanism for accounts to lose their privileges if they are compromised (such as when a trusted device is misplaced). If the calling account had been revoked `role`, emits a {RoleRevoked} event. Requirements: - the caller must be `account`."
      },
      "revokeRole(bytes32,address)": {
        "details": "Revokes `role` from `account`. If `account` had been granted `role`, emits a {RoleRevoked} event. Requirements: - the caller must have ``role``'s admin role."
      },
      "safeTransferFrom(address,address,uint256)": {
        "details": "See {IERC721-safeTransferFrom}."
      },
      "safeTransferFrom(address,address,uint256,bytes)": {
        "details": "See {IERC721-safeTransferFrom}."
      },
      "setApprovalForAll(address,bool)": {
        "details": "See {IERC721-setApprovalForAll}."
      },
      "symbol()": {
        "details": "See {IERC721Metadata-symbol}."
      },
      "tokenByIndex(uint256)": {
        "details": "See {IERC721Enumerable-tokenByIndex}."
      },
      "tokenOfOwnerByIndex(address,uint256)": {
        "details": "See {IERC721Enumerable-tokenOfOwnerByIndex}."
      },
      "tokenURI(uint256)": {
        "details": "See {IERC721Metadata-tokenURI}."
      },
      "totalSupply()": {
        "details": "See {IERC721Enumerable-totalSupply}."
      },
      "transferFrom(address,address,uint256)": {
        "details": "See {IERC721-transferFrom}."
      }
    },
    "version": 1
  },
  "userdoc": {
    "kind": "user",
    "methods": {},
    "version": 1
  }
}