{
  "contractName": "ERC721BurnableContract",
  "abi": [
    {
      "inputs": [
        {
          "internalType": "string",
          "name": "name",
          "type": "string"
        },
        {
          "internalType": "string",
          "name": "symbol",
          "type": "string"
        },
        {
          "internalType": "string",
          "name": "baseTokenURI",
          "type": "string"
        }
      ],
      "stateMutability": "nonpayable",
      "type": "constructor"
    },
    {
      "anonymous": false,
      "inputs": [
        {
          "indexed": true,
          "internalType": "address",
          "name": "owner",
          "type": "address"
        },
        {
          "indexed": true,
          "internalType": "address",
          "name": "approved",
          "type": "address"
        },
        {
          "indexed": true,
          "internalType": "uint256",
          "name": "tokenId",
          "type": "uint256"
        }
      ],
      "name": "Approval",
      "type": "event"
    },
    {
      "anonymous": false,
      "inputs": [
        {
          "indexed": true,
          "internalType": "address",
          "name": "owner",
          "type": "address"
        },
        {
          "indexed": true,
          "internalType": "address",
          "name": "operator",
          "type": "address"
        },
        {
          "indexed": false,
          "internalType": "bool",
          "name": "approved",
          "type": "bool"
        }
      ],
      "name": "ApprovalForAll",
      "type": "event"
    },
    {
      "anonymous": false,
      "inputs": [
        {
          "indexed": true,
          "internalType": "address",
          "name": "from",
          "type": "address"
        },
        {
          "indexed": true,
          "internalType": "address",
          "name": "to",
          "type": "address"
        },
        {
          "indexed": true,
          "internalType": "uint256",
          "name": "tokenId",
          "type": "uint256"
        }
      ],
      "name": "Transfer",
      "type": "event"
    },
    {
      "inputs": [
        {
          "internalType": "address",
          "name": "to",
          "type": "address"
        },
        {
          "internalType": "uint256",
          "name": "tokenId",
          "type": "uint256"
        }
      ],
      "name": "approve",
      "outputs": [],
      "stateMutability": "nonpayable",
      "type": "function"
    },
    {
      "inputs": [
        {
          "internalType": "address",
          "name": "owner",
          "type": "address"
        }
      ],
      "name": "balanceOf",
      "outputs": [
        {
          "internalType": "uint256",
          "name": "",
          "type": "uint256"
        }
      ],
      "stateMutability": "view",
      "type": "function"
    },
    {
      "inputs": [
        {
          "internalType": "uint256",
          "name": "tokenId",
          "type": "uint256"
        }
      ],
      "name": "getApproved",
      "outputs": [
        {
          "internalType": "address",
          "name": "",
          "type": "address"
        }
      ],
      "stateMutability": "view",
      "type": "function"
    },
    {
      "inputs": [
        {
          "internalType": "address",
          "name": "owner",
          "type": "address"
        },
        {
          "internalType": "address",
          "name": "operator",
          "type": "address"
        }
      ],
      "name": "isApprovedForAll",
      "outputs": [
        {
          "internalType": "bool",
          "name": "",
          "type": "bool"
        }
      ],
      "stateMutability": "view",
      "type": "function"
    },
    {
      "inputs": [],
      "name": "name",
      "outputs": [
        {
          "internalType": "string",
          "name": "",
          "type": "string"
        }
      ],
      "stateMutability": "view",
      "type": "function"
    },
    {
      "inputs": [
        {
          "internalType": "uint256",
          "name": "tokenId",
          "type": "uint256"
        }
      ],
      "name": "ownerOf",
      "outputs": [
        {
          "internalType": "address",
          "name": "",
          "type": "address"
        }
      ],
      "stateMutability": "view",
      "type": "function"
    },
    {
      "inputs": [
        {
          "internalType": "address",
          "name": "from",
          "type": "address"
        },
        {
          "internalType": "address",
          "name": "to",
          "type": "address"
        },
        {
          "internalType": "uint256",
          "name": "tokenId",
          "type": "uint256"
        }
      ],
      "name": "safeTransferFrom",
      "outputs": [],
      "stateMutability": "nonpayable",
      "type": "function"
    },
    {
      "inputs": [
        {
          "internalType": "address",
          "name": "from",
          "type": "address"
        },
        {
          "internalType": "address",
          "name": "to",
          "type": "address"
        },
        {
          "internalType": "uint256",
          "name": "tokenId",
          "type": "uint256"
        },
        {
          "internalType": "bytes",
          "name": "_data",
          "type": "bytes"
        }
      ],
      "name": "safeTransferFrom",
      "outputs": [],
      "stateMutability": "nonpayable",
      "type": "function"
    },
    {
      "inputs": [
        {
          "internalType": "address",
          "name": "operator",
          "type": "address"
        },
        {
          "internalType": "bool",
          "name": "approved",
          "type": "bool"
        }
      ],
      "name": "setApprovalForAll",
      "outputs": [],
      "stateMutability": "nonpayable",
      "type": "function"
    },
    {
      "inputs": [
        {
          "internalType": "bytes4",
          "name": "interfaceId",
          "type": "bytes4"
        }
      ],
      "name": "supportsInterface",
      "outputs": [
        {
          "internalType": "bool",
          "name": "",
          "type": "bool"
        }
      ],
      "stateMutability": "view",
      "type": "function"
    },
    {
      "inputs": [],
      "name": "symbol",
      "outputs": [
        {
          "internalType": "string",
          "name": "",
          "type": "string"
        }
      ],
      "stateMutability": "view",
      "type": "function"
    },
    {
      "inputs": [
        {
          "internalType": "uint256",
          "name": "tokenId",
          "type": "uint256"
        }
      ],
      "name": "tokenURI",
      "outputs": [
        {
          "internalType": "string",
          "name": "",
          "type": "string"
        }
      ],
      "stateMutability": "view",
      "type": "function"
    },
    {
      "inputs": [
        {
          "internalType": "address",
          "name": "from",
          "type": "address"
        },
        {
          "internalType": "address",
          "name": "to",
          "type": "address"
        },
        {
          "internalType": "uint256",
          "name": "tokenId",
          "type": "uint256"
        }
      ],
      "name": "transferFrom",
      "outputs": [],
      "stateMutability": "nonpayable",
      "type": "function"
    },
    {
      "inputs": [],
      "name": "baseURI",
      "outputs": [
        {
          "internalType": "string",
          "name": "",
          "type": "string"
        }
      ],
      "stateMutability": "view",
      "type": "function"
    },
    {
      "inputs": [
        {
          "internalType": "address",
          "name": "player",
          "type": "address"
        },
        {
          "internalType": "string",
          "name": "tokenURI",
          "type": "string"
        }
      ],
      "name": "awardItem",
      "outputs": [
        {
          "internalType": "uint256",
          "name": "",
          "type": "uint256"
        }
      ],
      "stateMutability": "nonpayable",
      "type": "function"
    },
    {
      "inputs": [
        {
          "internalType": "uint256",
          "name": "tokenId",
          "type": "uint256"
        }
      ],
      "name": "burn",
      "outputs": [],
      "stateMutability": "nonpayable",
      "type": "function"
    }
  ],
  "bytecode": "0x60806040523480156200001157600080fd5b5060405162003314380380620033148339818101604052810190620000379190620002dc565b82828160009080519060200190620000519291906200008f565b5080600190805190602001906200006a9291906200008f565b5050508060089080519060200190620000859291906200008f565b50505050620003fa565b8280546200009d90620003c4565b90600052602060002090601f016020900481019282620000c157600085556200010d565b82601f10620000dc57805160ff19168380011785556200010d565b828001600101855582156200010d579182015b828111156200010c578251825591602001919060010190620000ef565b5b5090506200011c919062000120565b5090565b5b808211156200013b57600081600090555060010162000121565b5090565b6000604051905090565b600080fd5b600080fd5b600080fd5b600080fd5b6000601f19601f8301169050919050565b7f4e487b7100000000000000000000000000000000000000000000000000000000600052604160045260246000fd5b620001a8826200015d565b810181811067ffffffffffffffff82111715620001ca57620001c96200016e565b5b80604052505050565b6000620001df6200013f565b9050620001ed82826200019d565b919050565b600067ffffffffffffffff82111562000210576200020f6200016e565b5b6200021b826200015d565b9050602081019050919050565b60005b83811015620002485780820151818401526020810190506200022b565b8381111562000258576000848401525b50505050565b6000620002756200026f84620001f2565b620001d3565b90508281526020810184848401111562000294576200029362000158565b5b620002a184828562000228565b509392505050565b600082601f830112620002c157620002c062000153565b5b8151620002d38482602086016200025e565b91505092915050565b600080600060608486031215620002f857620002f762000149565b5b600084015167ffffffffffffffff8111156200031957620003186200014e565b5b6200032786828701620002a9565b935050602084015167ffffffffffffffff8111156200034b576200034a6200014e565b5b6200035986828701620002a9565b925050604084015167ffffffffffffffff8111156200037d576200037c6200014e565b5b6200038b86828701620002a9565b9150509250925092565b7f4e487b7100000000000000000000000000000000000000000000000000000000600052602260045260246000fd5b60006002820490506001821680620003dd57607f821691505b60208210811415620003f457620003f362000395565b5b50919050565b612f0a806200040a6000396000f3fe608060405234801561001057600080fd5b50600436106101005760003560e01c80636c0360eb11610097578063b88d4fde11610066578063b88d4fde146102ab578063c87b56dd146102c7578063cf378343146102f7578063e985e9c51461032757610100565b80636c0360eb1461022357806370a082311461024157806395d89b4114610271578063a22cb4651461028f57610100565b806323b872dd116100d357806323b872dd1461019f57806342842e0e146101bb57806342966c68146101d75780636352211e146101f357610100565b806301ffc9a71461010557806306fdde0314610135578063081812fc14610153578063095ea7b314610183575b600080fd5b61011f600480360381019061011a9190611bda565b610357565b60405161012c9190611c22565b60405180910390f35b61013d610439565b60405161014a9190611cd6565b60405180910390f35b61016d60048036038101906101689190611d2e565b6104cb565b60405161017a9190611d9c565b60405180910390f35b61019d60048036038101906101989190611de3565b610550565b005b6101b960048036038101906101b49190611e23565b610668565b005b6101d560048036038101906101d09190611e23565b6106c8565b005b6101f160048036038101906101ec9190611d2e565b6106e8565b005b61020d60048036038101906102089190611d2e565b610744565b60405161021a9190611d9c565b60405180910390f35b61022b6107f6565b6040516102389190611cd6565b60405180910390f35b61025b60048036038101906102569190611e76565b610888565b6040516102689190611eb2565b60405180910390f35b610279610940565b6040516102869190611cd6565b60405180910390f35b6102a960048036038101906102a49190611ef9565b6109d2565b005b6102c560048036038101906102c0919061206e565b6109e8565b005b6102e160048036038101906102dc9190611d2e565b610a4a565b6040516102ee9190611cd6565b60405180910390f35b610311600480360381019061030c9190612192565b610b9c565b60405161031e9190611eb2565b60405180910390f35b610341600480360381019061033c91906121ee565b610bd4565b60405161034e9190611c22565b60405180910390f35b60007f80ac58cd000000000000000000000000000000000000000000000000000000007bffffffffffffffffffffffffffffffffffffffffffffffffffffffff1916827bffffffffffffffffffffffffffffffffffffffffffffffffffffffff1916148061042257507f5b5e139f000000000000000000000000000000000000000000000000000000007bffffffffffffffffffffffffffffffffffffffffffffffffffffffff1916827bffffffffffffffffffffffffffffffffffffffffffffffffffffffff1916145b80610432575061043182610c68565b5b9050919050565b6060600080546104489061225d565b80601f01602080910402602001604051908101604052809291908181526020018280546104749061225d565b80156104c15780601f10610496576101008083540402835291602001916104c1565b820191906000526020600020905b8154815290600101906020018083116104a457829003601f168201915b5050505050905090565b60006104d682610cd2565b610515576040517f08c379a000000000000000000000000000000000000000000000000000000000815260040161050c90612301565b60405180910390fd5b6004600083815260200190815260200160002060009054906101000a900473ffffffffffffffffffffffffffffffffffffffff169050919050565b600061055b82610744565b90508073ffffffffffffffffffffffffffffffffffffffff168373ffffffffffffffffffffffffffffffffffffffff1614156105cc576040517f08c379a00000000000000000000000000000000000000000000000000000000081526004016105c390612393565b60405180910390fd5b8073ffffffffffffffffffffffffffffffffffffffff166105eb610d3e565b73ffffffffffffffffffffffffffffffffffffffff16148061061a575061061981610614610d3e565b610bd4565b5b610659576040517f08c379a000000000000000000000000000000000000000000000000000000000815260040161065090612425565b60405180910390fd5b6106638383610d46565b505050565b610679610673610d3e565b82610dff565b6106b8576040517f08c379a00000000000000000000000000000000000000000000000000000000081526004016106af906124b7565b60405180910390fd5b6106c3838383610edd565b505050565b6106e3838383604051806020016040528060008152506109e8565b505050565b6106f96106f3610d3e565b82610dff565b610738576040517f08c379a000000000000000000000000000000000000000000000000000000000815260040161072f90612549565b60405180910390fd5b61074181611139565b50565b6000806002600084815260200190815260200160002060009054906101000a900473ffffffffffffffffffffffffffffffffffffffff169050600073ffffffffffffffffffffffffffffffffffffffff168173ffffffffffffffffffffffffffffffffffffffff1614156107ed576040517f08c379a00000000000000000000000000000000000000000000000000000000081526004016107e4906125db565b60405180910390fd5b80915050919050565b6060600880546108059061225d565b80601f01602080910402602001604051908101604052809291908181526020018280546108319061225d565b801561087e5780601f106108535761010080835404028352916020019161087e565b820191906000526020600020905b81548152906001019060200180831161086157829003601f168201915b5050505050905090565b60008073ffffffffffffffffffffffffffffffffffffffff168273ffffffffffffffffffffffffffffffffffffffff1614156108f9576040517f08c379a00000000000000000000000000000000000000000000000000000000081526004016108f09061266d565b60405180910390fd5b600360008373ffffffffffffffffffffffffffffffffffffffff1673ffffffffffffffffffffffffffffffffffffffff168152602001908152602001600020549050919050565b60606001805461094f9061225d565b80601f016020809104026020016040519081016040528092919081815260200182805461097b9061225d565b80156109c85780601f1061099d576101008083540402835291602001916109c8565b820191906000526020600020905b8154815290600101906020018083116109ab57829003601f168201915b5050505050905090565b6109e46109dd610d3e565b838361118c565b5050565b6109f96109f3610d3e565b83610dff565b610a38576040517f08c379a0000000000000000000000000000000000000000000000000000000008152600401610a2f906124b7565b60405180910390fd5b610a44848484846112f9565b50505050565b6060610a5582610cd2565b610a94576040517f08c379a0000000000000000000000000000000000000000000000000000000008152600401610a8b906126ff565b60405180910390fd5b6000600660008481526020019081526020016000208054610ab49061225d565b80601f0160208091040260200160405190810160405280929190818152602001828054610ae09061225d565b8015610b2d5780601f10610b0257610100808354040283529160200191610b2d565b820191906000526020600020905b815481529060010190602001808311610b1057829003601f168201915b505050505090506000610b3e611355565b9050600081511415610b54578192505050610b97565b600082511115610b89578082604051602001610b7192919061275b565b60405160208183030381529060405292505050610b97565b610b928461136c565b925050505b919050565b6000610ba86007611413565b6000610bb46007611429565b9050610bc08482611437565b610bca8184611605565b8091505092915050565b6000600560008473ffffffffffffffffffffffffffffffffffffffff1673ffffffffffffffffffffffffffffffffffffffff16815260200190815260200160002060008373ffffffffffffffffffffffffffffffffffffffff1673ffffffffffffffffffffffffffffffffffffffff16815260200190815260200160002060009054906101000a900460ff16905092915050565b60007f01ffc9a7000000000000000000000000000000000000000000000000000000007bffffffffffffffffffffffffffffffffffffffffffffffffffffffff1916827bffffffffffffffffffffffffffffffffffffffffffffffffffffffff1916149050919050565b60008073ffffffffffffffffffffffffffffffffffffffff166002600084815260200190815260200160002060009054906101000a900473ffffffffffffffffffffffffffffffffffffffff1673ffffffffffffffffffffffffffffffffffffffff1614159050919050565b600033905090565b816004600083815260200190815260200160002060006101000a81548173ffffffffffffffffffffffffffffffffffffffff021916908373ffffffffffffffffffffffffffffffffffffffff160217905550808273ffffffffffffffffffffffffffffffffffffffff16610db983610744565b73ffffffffffffffffffffffffffffffffffffffff167f8c5be1e5ebec7d5bd14f71427d1e84f3dd0314c0f7b2291e5b200ac8c7c3b92560405160405180910390a45050565b6000610e0a82610cd2565b610e49576040517f08c379a0000000000000000000000000000000000000000000000000000000008152600401610e40906127f1565b60405180910390fd5b6000610e5483610744565b90508073ffffffffffffffffffffffffffffffffffffffff168473ffffffffffffffffffffffffffffffffffffffff161480610ec357508373ffffffffffffffffffffffffffffffffffffffff16610eab846104cb565b73ffffffffffffffffffffffffffffffffffffffff16145b80610ed45750610ed38185610bd4565b5b91505092915050565b8273ffffffffffffffffffffffffffffffffffffffff16610efd82610744565b73ffffffffffffffffffffffffffffffffffffffff1614610f53576040517f08c379a0000000000000000000000000000000000000000000000000000000008152600401610f4a90612883565b60405180910390fd5b600073ffffffffffffffffffffffffffffffffffffffff168273ffffffffffffffffffffffffffffffffffffffff161415610fc3576040517f08c379a0000000000000000000000000000000000000000000000000000000008152600401610fba90612915565b60405180910390fd5b610fce838383611679565b610fd9600082610d46565b6001600360008573ffffffffffffffffffffffffffffffffffffffff1673ffffffffffffffffffffffffffffffffffffffff16815260200190815260200160002060008282546110299190612964565b925050819055506001600360008473ffffffffffffffffffffffffffffffffffffffff1673ffffffffffffffffffffffffffffffffffffffff16815260200190815260200160002060008282546110809190612998565b92505081905550816002600083815260200190815260200160002060006101000a81548173ffffffffffffffffffffffffffffffffffffffff021916908373ffffffffffffffffffffffffffffffffffffffff160217905550808273ffffffffffffffffffffffffffffffffffffffff168473ffffffffffffffffffffffffffffffffffffffff167fddf252ad1be2c89b69c2b068fc378daa952ba7f163c4a11628f55a4df523b3ef60405160405180910390a4505050565b6111428161167e565b60006006600083815260200190815260200160002080546111629061225d565b905014611189576006600082815260200190815260200160002060006111889190611a8b565b5b50565b8173ffffffffffffffffffffffffffffffffffffffff168373ffffffffffffffffffffffffffffffffffffffff1614156111fb576040517f08c379a00000000000000000000000000000000000000000000000000000000081526004016111f290612a3a565b60405180910390fd5b80600560008573ffffffffffffffffffffffffffffffffffffffff1673ffffffffffffffffffffffffffffffffffffffff16815260200190815260200160002060008473ffffffffffffffffffffffffffffffffffffffff1673ffffffffffffffffffffffffffffffffffffffff16815260200190815260200160002060006101000a81548160ff0219169083151502179055508173ffffffffffffffffffffffffffffffffffffffff168373ffffffffffffffffffffffffffffffffffffffff167f17307eab39ab6107e8899845ad3d59bd9653f200f220920489ca2b5937696c31836040516112ec9190611c22565b60405180910390a3505050565b611304848484610edd565b6113108484848461178f565b61134f576040517f08c379a000000000000000000000000000000000000000000000000000000000815260040161134690612acc565b60405180910390fd5b50505050565b606060405180602001604052806000815250905090565b606061137782610cd2565b6113b6576040517f08c379a00000000000000000000000000000000000000000000000000000000081526004016113ad90612b5e565b60405180910390fd5b60006113c0611355565b905060008151116113e0576040518060200160405280600081525061140b565b806113ea84611917565b6040516020016113fb92919061275b565b6040516020818303038152906040525b915050919050565b6001816000016000828254019250508190555050565b600081600001549050919050565b600073ffffffffffffffffffffffffffffffffffffffff168273ffffffffffffffffffffffffffffffffffffffff1614156114a7576040517f08c379a000000000000000000000000000000000000000000000000000000000815260040161149e90612bca565b60405180910390fd5b6114b081610cd2565b156114f0576040517f08c379a00000000000000000000000000000000000000000000000000000000081526004016114e790612c36565b60405180910390fd5b6114fc60008383611679565b6001600360008473ffffffffffffffffffffffffffffffffffffffff1673ffffffffffffffffffffffffffffffffffffffff168152602001908152602001600020600082825461154c9190612998565b92505081905550816002600083815260200190815260200160002060006101000a81548173ffffffffffffffffffffffffffffffffffffffff021916908373ffffffffffffffffffffffffffffffffffffffff160217905550808273ffffffffffffffffffffffffffffffffffffffff16600073ffffffffffffffffffffffffffffffffffffffff167fddf252ad1be2c89b69c2b068fc378daa952ba7f163c4a11628f55a4df523b3ef60405160405180910390a45050565b61160e82610cd2565b61164d576040517f08c379a000000000000000000000000000000000000000000000000000000000815260040161164490612cc8565b60405180910390fd5b80600660008481526020019081526020016000209080519060200190611674929190611acb565b505050565b505050565b600061168982610744565b905061169781600084611679565b6116a2600083610d46565b6001600360008373ffffffffffffffffffffffffffffffffffffffff1673ffffffffffffffffffffffffffffffffffffffff16815260200190815260200160002060008282546116f29190612964565b925050819055506002600083815260200190815260200160002060006101000a81549073ffffffffffffffffffffffffffffffffffffffff021916905581600073ffffffffffffffffffffffffffffffffffffffff168273ffffffffffffffffffffffffffffffffffffffff167fddf252ad1be2c89b69c2b068fc378daa952ba7f163c4a11628f55a4df523b3ef60405160405180910390a45050565b60006117b08473ffffffffffffffffffffffffffffffffffffffff16611a78565b1561190a578373ffffffffffffffffffffffffffffffffffffffff1663150b7a026117d9610d3e565b8786866040518563ffffffff1660e01b81526004016117fb9493929190612d3d565b6020604051808303816000875af192505050801561183757506040513d601f19601f820116820180604052508101906118349190612d9e565b60015b6118ba573d8060008114611867576040519150601f19603f3d011682016040523d82523d6000602084013e61186c565b606091505b506000815114156118b2576040517f08c379a00000000000000000000000000000000000000000000000000000000081526004016118a990612acc565b60405180910390fd5b805181602001fd5b63150b7a0260e01b7bffffffffffffffffffffffffffffffffffffffffffffffffffffffff1916817bffffffffffffffffffffffffffffffffffffffffffffffffffffffff19161491505061190f565b600190505b949350505050565b6060600082141561195f576040518060400160405280600181526020017f30000000000000000000000000000000000000000000000000000000000000008152509050611a73565b600082905060005b6000821461199157808061197a90612dcb565b915050600a8261198a9190612e43565b9150611967565b60008167ffffffffffffffff8111156119ad576119ac611f43565b5b6040519080825280601f01601f1916602001820160405280156119df5781602001600182028036833780820191505090505b5090505b60008514611a6c576001826119f89190612964565b9150600a85611a079190612e74565b6030611a139190612998565b60f81b818381518110611a2957611a28612ea5565b5b60200101907effffffffffffffffffffffffffffffffffffffffffffffffffffffffffffff1916908160001a905350600a85611a659190612e43565b94506119e3565b8093505050505b919050565b600080823b905060008111915050919050565b508054611a979061225d565b6000825580601f10611aa95750611ac8565b601f016020900490600052602060002090810190611ac79190611b51565b5b50565b828054611ad79061225d565b90600052602060002090601f016020900481019282611af95760008555611b40565b82601f10611b1257805160ff1916838001178555611b40565b82800160010185558215611b40579182015b82811115611b3f578251825591602001919060010190611b24565b5b509050611b4d9190611b51565b5090565b5b80821115611b6a576000816000905550600101611b52565b5090565b6000604051905090565b600080fd5b600080fd5b60007fffffffff0000000000000000000000000000000000000000000000000000000082169050919050565b611bb781611b82565b8114611bc257600080fd5b50565b600081359050611bd481611bae565b92915050565b600060208284031215611bf057611bef611b78565b5b6000611bfe84828501611bc5565b91505092915050565b60008115159050919050565b611c1c81611c07565b82525050565b6000602082019050611c376000830184611c13565b92915050565b600081519050919050565b600082825260208201905092915050565b60005b83811015611c77578082015181840152602081019050611c5c565b83811115611c86576000848401525b50505050565b6000601f19601f8301169050919050565b6000611ca882611c3d565b611cb28185611c48565b9350611cc2818560208601611c59565b611ccb81611c8c565b840191505092915050565b60006020820190508181036000830152611cf08184611c9d565b905092915050565b6000819050919050565b611d0b81611cf8565b8114611d1657600080fd5b50565b600081359050611d2881611d02565b92915050565b600060208284031215611d4457611d43611b78565b5b6000611d5284828501611d19565b91505092915050565b600073ffffffffffffffffffffffffffffffffffffffff82169050919050565b6000611d8682611d5b565b9050919050565b611d9681611d7b565b82525050565b6000602082019050611db16000830184611d8d565b92915050565b611dc081611d7b565b8114611dcb57600080fd5b50565b600081359050611ddd81611db7565b92915050565b60008060408385031215611dfa57611df9611b78565b5b6000611e0885828601611dce565b9250506020611e1985828601611d19565b9150509250929050565b600080600060608486031215611e3c57611e3b611b78565b5b6000611e4a86828701611dce565b9350506020611e5b86828701611dce565b9250506040611e6c86828701611d19565b9150509250925092565b600060208284031215611e8c57611e8b611b78565b5b6000611e9a84828501611dce565b91505092915050565b611eac81611cf8565b82525050565b6000602082019050611ec76000830184611ea3565b92915050565b611ed681611c07565b8114611ee157600080fd5b50565b600081359050611ef381611ecd565b92915050565b60008060408385031215611f1057611f0f611b78565b5b6000611f1e85828601611dce565b9250506020611f2f85828601611ee4565b9150509250929050565b600080fd5b600080fd5b7f4e487b7100000000000000000000000000000000000000000000000000000000600052604160045260246000fd5b611f7b82611c8c565b810181811067ffffffffffffffff82111715611f9a57611f99611f43565b5b80604052505050565b6000611fad611b6e565b9050611fb98282611f72565b919050565b600067ffffffffffffffff821115611fd957611fd8611f43565b5b611fe282611c8c565b9050602081019050919050565b82818337600083830152505050565b600061201161200c84611fbe565b611fa3565b90508281526020810184848401111561202d5761202c611f3e565b5b612038848285611fef565b509392505050565b600082601f83011261205557612054611f39565b5b8135612065848260208601611ffe565b91505092915050565b6000806000806080858703121561208857612087611b78565b5b600061209687828801611dce565b94505060206120a787828801611dce565b93505060406120b887828801611d19565b925050606085013567ffffffffffffffff8111156120d9576120d8611b7d565b5b6120e587828801612040565b91505092959194509250565b600067ffffffffffffffff82111561210c5761210b611f43565b5b61211582611c8c565b9050602081019050919050565b6000612135612130846120f1565b611fa3565b90508281526020810184848401111561215157612150611f3e565b5b61215c848285611fef565b509392505050565b600082601f83011261217957612178611f39565b5b8135612189848260208601612122565b91505092915050565b600080604083850312156121a9576121a8611b78565b5b60006121b785828601611dce565b925050602083013567ffffffffffffffff8111156121d8576121d7611b7d565b5b6121e485828601612164565b9150509250929050565b6000806040838503121561220557612204611b78565b5b600061221385828601611dce565b925050602061222485828601611dce565b9150509250929050565b7f4e487b7100000000000000000000000000000000000000000000000000000000600052602260045260246000fd5b6000600282049050600182168061227557607f821691505b602082108114156122895761228861222e565b5b50919050565b7f4552433732313a20617070726f76656420717565727920666f72206e6f6e657860008201527f697374656e7420746f6b656e0000000000000000000000000000000000000000602082015250565b60006122eb602c83611c48565b91506122f68261228f565b604082019050919050565b6000602082019050818103600083015261231a816122de565b9050919050565b7f4552433732313a20617070726f76616c20746f2063757272656e74206f776e6560008201527f7200000000000000000000000000000000000000000000000000000000000000602082015250565b600061237d602183611c48565b915061238882612321565b604082019050919050565b600060208201905081810360008301526123ac81612370565b9050919050565b7f4552433732313a20617070726f76652063616c6c6572206973206e6f74206f7760008201527f6e6572206e6f7220617070726f76656420666f7220616c6c0000000000000000602082015250565b600061240f603883611c48565b915061241a826123b3565b604082019050919050565b6000602082019050818103600083015261243e81612402565b9050919050565b7f4552433732313a207472616e736665722063616c6c6572206973206e6f74206f60008201527f776e6572206e6f7220617070726f766564000000000000000000000000000000602082015250565b60006124a1603183611c48565b91506124ac82612445565b604082019050919050565b600060208201905081810360008301526124d081612494565b9050919050565b7f4552433732314275726e61626c653a2063616c6c6572206973206e6f74206f7760008201527f6e6572206e6f7220617070726f76656400000000000000000000000000000000602082015250565b6000612533603083611c48565b915061253e826124d7565b604082019050919050565b6000602082019050818103600083015261256281612526565b9050919050565b7f4552433732313a206f776e657220717565727920666f72206e6f6e657869737460008201527f656e7420746f6b656e0000000000000000000000000000000000000000000000602082015250565b60006125c5602983611c48565b91506125d082612569565b604082019050919050565b600060208201905081810360008301526125f4816125b8565b9050919050565b7f4552433732313a2062616c616e636520717565727920666f7220746865207a6560008201527f726f206164647265737300000000000000000000000000000000000000000000602082015250565b6000612657602a83611c48565b9150612662826125fb565b604082019050919050565b600060208201905081810360008301526126868161264a565b9050919050565b7f45524337323155524953746f726167653a2055524920717565727920666f722060008201527f6e6f6e6578697374656e7420746f6b656e000000000000000000000000000000602082015250565b60006126e9603183611c48565b91506126f48261268d565b604082019050919050565b60006020820190508181036000830152612718816126dc565b9050919050565b600081905092915050565b600061273582611c3d565b61273f818561271f565b935061274f818560208601611c59565b80840191505092915050565b6000612767828561272a565b9150612773828461272a565b91508190509392505050565b7f4552433732313a206f70657261746f7220717565727920666f72206e6f6e657860008201527f697374656e7420746f6b656e0000000000000000000000000000000000000000602082015250565b60006127db602c83611c48565b91506127e68261277f565b604082019050919050565b6000602082019050818103600083015261280a816127ce565b9050919050565b7f4552433732313a207472616e73666572206f6620746f6b656e2074686174206960008201527f73206e6f74206f776e0000000000000000000000000000000000000000000000602082015250565b600061286d602983611c48565b915061287882612811565b604082019050919050565b6000602082019050818103600083015261289c81612860565b9050919050565b7f4552433732313a207472616e7366657220746f20746865207a65726f2061646460008201527f7265737300000000000000000000000000000000000000000000000000000000602082015250565b60006128ff602483611c48565b915061290a826128a3565b604082019050919050565b6000602082019050818103600083015261292e816128f2565b9050919050565b7f4e487b7100000000000000000000000000000000000000000000000000000000600052601160045260246000fd5b600061296f82611cf8565b915061297a83611cf8565b92508282101561298d5761298c612935565b5b828203905092915050565b60006129a382611cf8565b91506129ae83611cf8565b9250827fffffffffffffffffffffffffffffffffffffffffffffffffffffffffffffffff038211156129e3576129e2612935565b5b828201905092915050565b7f4552433732313a20617070726f766520746f2063616c6c657200000000000000600082015250565b6000612a24601983611c48565b9150612a2f826129ee565b602082019050919050565b60006020820190508181036000830152612a5381612a17565b9050919050565b7f4552433732313a207472616e7366657220746f206e6f6e20455243373231526560008201527f63656976657220696d706c656d656e7465720000000000000000000000000000602082015250565b6000612ab6603283611c48565b9150612ac182612a5a565b604082019050919050565b60006020820190508181036000830152612ae581612aa9565b9050919050565b7f4552433732314d657461646174613a2055524920717565727920666f72206e6f60008201527f6e6578697374656e7420746f6b656e0000000000000000000000000000000000602082015250565b6000612b48602f83611c48565b9150612b5382612aec565b604082019050919050565b60006020820190508181036000830152612b7781612b3b565b9050919050565b7f4552433732313a206d696e7420746f20746865207a65726f2061646472657373600082015250565b6000612bb4602083611c48565b9150612bbf82612b7e565b602082019050919050565b60006020820190508181036000830152612be381612ba7565b9050919050565b7f4552433732313a20746f6b656e20616c7265616479206d696e74656400000000600082015250565b6000612c20601c83611c48565b9150612c2b82612bea565b602082019050919050565b60006020820190508181036000830152612c4f81612c13565b9050919050565b7f45524337323155524953746f726167653a2055524920736574206f66206e6f6e60008201527f6578697374656e7420746f6b656e000000000000000000000000000000000000602082015250565b6000612cb2602e83611c48565b9150612cbd82612c56565b604082019050919050565b60006020820190508181036000830152612ce181612ca5565b9050919050565b600081519050919050565b600082825260208201905092915050565b6000612d0f82612ce8565b612d198185612cf3565b9350612d29818560208601611c59565b612d3281611c8c565b840191505092915050565b6000608082019050612d526000830187611d8d565b612d5f6020830186611d8d565b612d6c6040830185611ea3565b8181036060830152612d7e8184612d04565b905095945050505050565b600081519050612d9881611bae565b92915050565b600060208284031215612db457612db3611b78565b5b6000612dc284828501612d89565b91505092915050565b6000612dd682611cf8565b91507fffffffffffffffffffffffffffffffffffffffffffffffffffffffffffffffff821415612e0957612e08612935565b5b600182019050919050565b7f4e487b7100000000000000000000000000000000000000000000000000000000600052601260045260246000fd5b6000612e4e82611cf8565b9150612e5983611cf8565b925082612e6957612e68612e14565b5b828204905092915050565b6000612e7f82611cf8565b9150612e8a83611cf8565b925082612e9a57612e99612e14565b5b828206905092915050565b7f4e487b7100000000000000000000000000000000000000000000000000000000600052603260045260246000fdfea264697066735822122077805ebbc6ea7026fd908aafce16a3affa67985876d367110f73b0e2dbed93d264736f6c634300080a0033",
  "immutableReferences": {},
  "source": "// SPDX-License-Identifier: MIT\npragma solidity ^0.8.0;\n\nimport \"@openzeppelin/contracts/token/ERC721/extensions/ERC721URIStorage.sol\";\nimport \"@openzeppelin/contracts/utils/Counters.sol\";\n\n//ERC721\ncontract ERC721BurnableContract is ERC721URIStorage {\n    using Counters for Counters.Counter;\n    Counters.Counter private _tokenIds;\n\n    string private _baseTokenURI;\n\n    constructor(\n        string memory name, //\n        string memory symbol, //\n        string memory baseTokenURI //\n    ) ERC721(name, symbol) {\n        _baseTokenURI = baseTokenURI;\n    }\n\n    function baseURI() external view returns (string memory) {\n        return _baseTokenURI;\n    }\n\n    function awardItem(address player, string memory tokenURI)\n        public\n        returns (uint256)\n    {\n        _tokenIds.increment();\n\n        uint256 newItemId = _tokenIds.current();\n        _mint(player, newItemId);\n        _setTokenURI(newItemId, tokenURI);\n\n        return newItemId;\n    }\n\n    function burn(uint256 tokenId) public virtual {\n        //solhint-disable-next-line max-line-length\n        require(\n            _isApprovedOrOwner(_msgSender(), tokenId),\n            \"ERC721Burnable: caller is not owner nor approved\"\n        );\n        _burn(tokenId);\n    }\n}\n",
  "sourcePath": "/Users/q/study/ethereum/mint-coin/contracts/ERC721/ERC721Burnable.sol",
  "compiler": {
    "name": "solc",
    "version": "0.8.10+commit.fc410830.Emscripten.clang"
  },
  "schemaVersion": "3.4.1",
  "updatedAt": "2021-12-12T16:45:31.181Z",
  "devdoc": {
    "kind": "dev",
    "methods": {
      "approve(address,uint256)": {
        "details": "See {IERC721-approve}."
      },
      "balanceOf(address)": {
        "details": "See {IERC721-balanceOf}."
      },
      "getApproved(uint256)": {
        "details": "See {IERC721-getApproved}."
      },
      "isApprovedForAll(address,address)": {
        "details": "See {IERC721-isApprovedForAll}."
      },
      "name()": {
        "details": "See {IERC721Metadata-name}."
      },
      "ownerOf(uint256)": {
        "details": "See {IERC721-ownerOf}."
      },
      "safeTransferFrom(address,address,uint256)": {
        "details": "See {IERC721-safeTransferFrom}."
      },
      "safeTransferFrom(address,address,uint256,bytes)": {
        "details": "See {IERC721-safeTransferFrom}."
      },
      "setApprovalForAll(address,bool)": {
        "details": "See {IERC721-setApprovalForAll}."
      },
      "supportsInterface(bytes4)": {
        "details": "See {IERC165-supportsInterface}."
      },
      "symbol()": {
        "details": "See {IERC721Metadata-symbol}."
      },
      "tokenURI(uint256)": {
        "details": "See {IERC721Metadata-tokenURI}."
      },
      "transferFrom(address,address,uint256)": {
        "details": "See {IERC721-transferFrom}."
      }
    },
    "version": 1
  },
  "userdoc": {
    "kind": "user",
    "methods": {},
    "version": 1
  }
}