{
  "contractName": "TokensSender",
  "abi": [
    {
      "inputs": [
        {
          "internalType": "bool",
          "name": "_setInterface",
          "type": "bool"
        }
      ],
      "stateMutability": "nonpayable",
      "type": "constructor"
    },
    {
      "anonymous": false,
      "inputs": [
        {
          "indexed": true,
          "internalType": "address",
          "name": "previousOwner",
          "type": "address"
        },
        {
          "indexed": true,
          "internalType": "address",
          "name": "newOwner",
          "type": "address"
        }
      ],
      "name": "OwnershipTransferred",
      "type": "event"
    },
    {
      "inputs": [
        {
          "internalType": "address",
          "name": "",
          "type": "address"
        }
      ],
      "name": "amount",
      "outputs": [
        {
          "internalType": "uint256",
          "name": "",
          "type": "uint256"
        }
      ],
      "stateMutability": "view",
      "type": "function"
    },
    {
      "inputs": [
        {
          "internalType": "address",
          "name": "",
          "type": "address"
        }
      ],
      "name": "balanceOf",
      "outputs": [
        {
          "internalType": "uint256",
          "name": "",
          "type": "uint256"
        }
      ],
      "stateMutability": "view",
      "type": "function"
    },
    {
      "inputs": [
        {
          "internalType": "bytes32",
          "name": "interfaceHash",
          "type": "bytes32"
        },
        {
          "internalType": "address",
          "name": "account",
          "type": "address"
        }
      ],
      "name": "canImplementInterfaceForAddress",
      "outputs": [
        {
          "internalType": "bytes32",
          "name": "",
          "type": "bytes32"
        }
      ],
      "stateMutability": "view",
      "type": "function"
    },
    {
      "inputs": [
        {
          "internalType": "address",
          "name": "",
          "type": "address"
        }
      ],
      "name": "data",
      "outputs": [
        {
          "internalType": "bytes",
          "name": "",
          "type": "bytes"
        }
      ],
      "stateMutability": "view",
      "type": "function"
    },
    {
      "inputs": [
        {
          "internalType": "address",
          "name": "",
          "type": "address"
        }
      ],
      "name": "from",
      "outputs": [
        {
          "internalType": "address",
          "name": "",
          "type": "address"
        }
      ],
      "stateMutability": "view",
      "type": "function"
    },
    {
      "inputs": [
        {
          "internalType": "address",
          "name": "",
          "type": "address"
        }
      ],
      "name": "operator",
      "outputs": [
        {
          "internalType": "address",
          "name": "",
          "type": "address"
        }
      ],
      "stateMutability": "view",
      "type": "function"
    },
    {
      "inputs": [
        {
          "internalType": "address",
          "name": "",
          "type": "address"
        }
      ],
      "name": "operatorData",
      "outputs": [
        {
          "internalType": "bytes",
          "name": "",
          "type": "bytes"
        }
      ],
      "stateMutability": "view",
      "type": "function"
    },
    {
      "inputs": [],
      "name": "owner",
      "outputs": [
        {
          "internalType": "address",
          "name": "",
          "type": "address"
        }
      ],
      "stateMutability": "view",
      "type": "function"
    },
    {
      "inputs": [],
      "name": "renounceOwnership",
      "outputs": [],
      "stateMutability": "nonpayable",
      "type": "function"
    },
    {
      "inputs": [
        {
          "internalType": "address",
          "name": "",
          "type": "address"
        }
      ],
      "name": "to",
      "outputs": [
        {
          "internalType": "address",
          "name": "",
          "type": "address"
        }
      ],
      "stateMutability": "view",
      "type": "function"
    },
    {
      "inputs": [
        {
          "internalType": "address",
          "name": "",
          "type": "address"
        }
      ],
      "name": "token",
      "outputs": [
        {
          "internalType": "address",
          "name": "",
          "type": "address"
        }
      ],
      "stateMutability": "view",
      "type": "function"
    },
    {
      "inputs": [
        {
          "internalType": "address",
          "name": "newOwner",
          "type": "address"
        }
      ],
      "name": "transferOwnership",
      "outputs": [],
      "stateMutability": "nonpayable",
      "type": "function"
    },
    {
      "inputs": [
        {
          "internalType": "address",
          "name": "_operator",
          "type": "address"
        },
        {
          "internalType": "address",
          "name": "_from",
          "type": "address"
        },
        {
          "internalType": "address",
          "name": "_to",
          "type": "address"
        },
        {
          "internalType": "uint256",
          "name": "_amount",
          "type": "uint256"
        },
        {
          "internalType": "bytes",
          "name": "_data",
          "type": "bytes"
        },
        {
          "internalType": "bytes",
          "name": "_operatorData",
          "type": "bytes"
        }
      ],
      "name": "tokensToSend",
      "outputs": [],
      "stateMutability": "nonpayable",
      "type": "function"
    },
    {
      "inputs": [],
      "name": "acceptTokensToSend",
      "outputs": [],
      "stateMutability": "nonpayable",
      "type": "function"
    },
    {
      "inputs": [],
      "name": "rejectTokensToSend",
      "outputs": [],
      "stateMutability": "nonpayable",
      "type": "function"
    }
  ],
  "bytecode": "0x60806040523480156200001157600080fd5b5060405162001991380380620019918339818101604052810190620000379190620002db565b620000576200004b6200015f60201b60201c565b6200016760201b60201c565b80156200010957731820a4b7618bde71dce8cdc73aab6c95905fad2473ffffffffffffffffffffffffffffffffffffffff166329965a1d307f29ddb589b1fb5fc7cf394961c1adf5f8c6454761adf795e67fe149f658abe89560001b306040518463ffffffff1660e01b8152600401620000d4939291906200036d565b600060405180830381600087803b158015620000ef57600080fd5b505af115801562000104573d6000803e3d6000fd5b505050505b6200013e7f29ddb589b1fb5fc7cf394961c1adf5f8c6454761adf795e67fe149f658abe89560001b336200022d60201b60201c565b60018060146101000a81548160ff02191690831515021790555050620003aa565b600033905090565b6000600160009054906101000a900473ffffffffffffffffffffffffffffffffffffffff16905081600160006101000a81548173ffffffffffffffffffffffffffffffffffffffff021916908373ffffffffffffffffffffffffffffffffffffffff1602179055508173ffffffffffffffffffffffffffffffffffffffff168173ffffffffffffffffffffffffffffffffffffffff167f8be0079c531659141344cd1fd0a4f28419497f9722a3daafe3b4186f6b6457e060405160405180910390a35050565b600160008084815260200190815260200160002060008373ffffffffffffffffffffffffffffffffffffffff1673ffffffffffffffffffffffffffffffffffffffff16815260200190815260200160002060006101000a81548160ff0219169083151502179055505050565b600080fd5b60008115159050919050565b620002b5816200029e565b8114620002c157600080fd5b50565b600081519050620002d581620002aa565b92915050565b600060208284031215620002f457620002f362000299565b5b60006200030484828501620002c4565b91505092915050565b600073ffffffffffffffffffffffffffffffffffffffff82169050919050565b60006200033a826200030d565b9050919050565b6200034c816200032d565b82525050565b6000819050919050565b620003678162000352565b82525050565b600060608201905062000384600083018662000341565b6200039360208301856200035c565b620003a2604083018462000341565b949350505050565b6115d780620003ba6000396000f3fe608060405234801561001057600080fd5b50600436106100f55760003560e01c806375ab9782116100975780639a307391116100665780639a30739114610272578063b90d3d0c146102a2578063b9f0bf66146102d2578063f2fde38b14610302576100f5565b806375ab9782146101fe5780637c9075971461021a57806387b10822146102245780638da5cb5b14610254576100f5565b8063333d0ef0116100d3578063333d0ef0146101645780636d46a1db1461019457806370a08231146101c4578063715018a6146101f4576100f5565b8063249cb3fa146100fa5780632522671b1461012a578063301f4ba014610134575b600080fd5b610114600480360381019061010f9190610fee565b61031e565b604051610121919061103d565b60405180910390f35b6101326103b4565b005b61014e60048036038101906101499190611058565b61044d565b60405161015b9190611094565b60405180910390f35b61017e60048036038101906101799190611058565b610480565b60405161018b9190611148565b60405180910390f35b6101ae60048036038101906101a99190611058565b610520565b6040516101bb9190611094565b60405180910390f35b6101de60048036038101906101d99190611058565b610553565b6040516101eb9190611183565b60405180910390f35b6101fc61056b565b005b6102186004803603810190610213919061122f565b6105f3565b005b610222610af1565b005b61023e60048036038101906102399190611058565b610b89565b60405161024b9190611094565b60405180910390f35b61025c610bbc565b6040516102699190611094565b60405180910390f35b61028c60048036038101906102879190611058565b610be6565b6040516102999190611094565b60405180910390f35b6102bc60048036038101906102b79190611058565b610c19565b6040516102c99190611148565b60405180910390f35b6102ec60048036038101906102e79190611058565b610cb9565b6040516102f99190611183565b60405180910390f35b61031c60048036038101906103179190611058565b610cd1565b005b600080600084815260200190815260200160002060008373ffffffffffffffffffffffffffffffffffffffff1673ffffffffffffffffffffffffffffffffffffffff16815260200190815260200160002060009054906101000a900460ff1661038a576000801b6103ac565b7fa2ef4600d742022d532d4747cb3547474667d6f13804902513b2ec01c848f4b45b905092915050565b6103bc610dc9565b73ffffffffffffffffffffffffffffffffffffffff166103da610bbc565b73ffffffffffffffffffffffffffffffffffffffff1614610430576040517f08c379a00000000000000000000000000000000000000000000000000000000081526004016104279061135b565b60405180910390fd5b6000600160146101000a81548160ff021916908315150217905550565b60056020528060005260406000206000915054906101000a900473ffffffffffffffffffffffffffffffffffffffff1681565b6008602052806000526040600020600091509050805461049f906113aa565b80601f01602080910402602001604051908101604052809291908181526020018280546104cb906113aa565b80156105185780601f106104ed57610100808354040283529160200191610518565b820191906000526020600020905b8154815290600101906020018083116104fb57829003601f168201915b505050505081565b60026020528060005260406000206000915054906101000a900473ffffffffffffffffffffffffffffffffffffffff1681565b60096020528060005260406000206000915090505481565b610573610dc9565b73ffffffffffffffffffffffffffffffffffffffff16610591610bbc565b73ffffffffffffffffffffffffffffffffffffffff16146105e7576040517f08c379a00000000000000000000000000000000000000000000000000000000081526004016105de9061135b565b60405180910390fd5b6105f16000610dd1565b565b600160149054906101000a900460ff16610642576040517f08c379a000000000000000000000000000000000000000000000000000000000815260040161063990611428565b60405180910390fd5b33600260008873ffffffffffffffffffffffffffffffffffffffff1673ffffffffffffffffffffffffffffffffffffffff16815260200190815260200160002060006101000a81548173ffffffffffffffffffffffffffffffffffffffff021916908373ffffffffffffffffffffffffffffffffffffffff16021790555087600360008873ffffffffffffffffffffffffffffffffffffffff1673ffffffffffffffffffffffffffffffffffffffff16815260200190815260200160002060006101000a81548173ffffffffffffffffffffffffffffffffffffffff021916908373ffffffffffffffffffffffffffffffffffffffff16021790555086600460008873ffffffffffffffffffffffffffffffffffffffff1673ffffffffffffffffffffffffffffffffffffffff16815260200190815260200160002060006101000a81548173ffffffffffffffffffffffffffffffffffffffff021916908373ffffffffffffffffffffffffffffffffffffffff16021790555085600560008873ffffffffffffffffffffffffffffffffffffffff1673ffffffffffffffffffffffffffffffffffffffff16815260200190815260200160002060006101000a81548173ffffffffffffffffffffffffffffffffffffffff021916908373ffffffffffffffffffffffffffffffffffffffff16021790555061088c85600660008973ffffffffffffffffffffffffffffffffffffffff1673ffffffffffffffffffffffffffffffffffffffff16815260200190815260200160002054610e9790919063ffffffff16565b600660008873ffffffffffffffffffffffffffffffffffffffff1673ffffffffffffffffffffffffffffffffffffffff168152602001908152602001600020819055508383600760008973ffffffffffffffffffffffffffffffffffffffff1673ffffffffffffffffffffffffffffffffffffffff168152602001908152602001600020919061091d929190610ead565b508181600860008973ffffffffffffffffffffffffffffffffffffffff1673ffffffffffffffffffffffffffffffffffffffff168152602001908152602001600020919061096c929190610ead565b503373ffffffffffffffffffffffffffffffffffffffff166370a08231886040518263ffffffff1660e01b81526004016109a69190611094565b602060405180830381865afa1580156109c3573d6000803e3d6000fd5b505050506040513d601f19601f820116820180604052508101906109e7919061145d565b600960008973ffffffffffffffffffffffffffffffffffffffff1673ffffffffffffffffffffffffffffffffffffffff168152602001908152602001600020819055503373ffffffffffffffffffffffffffffffffffffffff166370a08231876040518263ffffffff1660e01b8152600401610a639190611094565b602060405180830381865afa158015610a80573d6000803e3d6000fd5b505050506040513d601f19601f82011682018060405250810190610aa4919061145d565b600960008873ffffffffffffffffffffffffffffffffffffffff1673ffffffffffffffffffffffffffffffffffffffff168152602001908152602001600020819055505050505050505050565b610af9610dc9565b73ffffffffffffffffffffffffffffffffffffffff16610b17610bbc565b73ffffffffffffffffffffffffffffffffffffffff1614610b6d576040517f08c379a0000000000000000000000000000000000000000000000000000000008152600401610b649061135b565b60405180910390fd5b60018060146101000a81548160ff021916908315150217905550565b60046020528060005260406000206000915054906101000a900473ffffffffffffffffffffffffffffffffffffffff1681565b6000600160009054906101000a900473ffffffffffffffffffffffffffffffffffffffff16905090565b60036020528060005260406000206000915054906101000a900473ffffffffffffffffffffffffffffffffffffffff1681565b60076020528060005260406000206000915090508054610c38906113aa565b80601f0160208091040260200160405190810160405280929190818152602001828054610c64906113aa565b8015610cb15780601f10610c8657610100808354040283529160200191610cb1565b820191906000526020600020905b815481529060010190602001808311610c9457829003601f168201915b505050505081565b60066020528060005260406000206000915090505481565b610cd9610dc9565b73ffffffffffffffffffffffffffffffffffffffff16610cf7610bbc565b73ffffffffffffffffffffffffffffffffffffffff1614610d4d576040517f08c379a0000000000000000000000000000000000000000000000000000000008152600401610d449061135b565b60405180910390fd5b600073ffffffffffffffffffffffffffffffffffffffff168173ffffffffffffffffffffffffffffffffffffffff161415610dbd576040517f08c379a0000000000000000000000000000000000000000000000000000000008152600401610db4906114fc565b60405180910390fd5b610dc681610dd1565b50565b600033905090565b6000600160009054906101000a900473ffffffffffffffffffffffffffffffffffffffff16905081600160006101000a81548173ffffffffffffffffffffffffffffffffffffffff021916908373ffffffffffffffffffffffffffffffffffffffff1602179055508173ffffffffffffffffffffffffffffffffffffffff168173ffffffffffffffffffffffffffffffffffffffff167f8be0079c531659141344cd1fd0a4f28419497f9722a3daafe3b4186f6b6457e060405160405180910390a35050565b60008183610ea5919061154b565b905092915050565b828054610eb9906113aa565b90600052602060002090601f016020900481019282610edb5760008555610f22565b82601f10610ef457803560ff1916838001178555610f22565b82800160010185558215610f22579182015b82811115610f21578235825591602001919060010190610f06565b5b509050610f2f9190610f33565b5090565b5b80821115610f4c576000816000905550600101610f34565b5090565b600080fd5b600080fd5b6000819050919050565b610f6d81610f5a565b8114610f7857600080fd5b50565b600081359050610f8a81610f64565b92915050565b600073ffffffffffffffffffffffffffffffffffffffff82169050919050565b6000610fbb82610f90565b9050919050565b610fcb81610fb0565b8114610fd657600080fd5b50565b600081359050610fe881610fc2565b92915050565b6000806040838503121561100557611004610f50565b5b600061101385828601610f7b565b925050602061102485828601610fd9565b9150509250929050565b61103781610f5a565b82525050565b6000602082019050611052600083018461102e565b92915050565b60006020828403121561106e5761106d610f50565b5b600061107c84828501610fd9565b91505092915050565b61108e81610fb0565b82525050565b60006020820190506110a96000830184611085565b92915050565b600081519050919050565b600082825260208201905092915050565b60005b838110156110e95780820151818401526020810190506110ce565b838111156110f8576000848401525b50505050565b6000601f19601f8301169050919050565b600061111a826110af565b61112481856110ba565b93506111348185602086016110cb565b61113d816110fe565b840191505092915050565b60006020820190508181036000830152611162818461110f565b905092915050565b6000819050919050565b61117d8161116a565b82525050565b60006020820190506111986000830184611174565b92915050565b6111a78161116a565b81146111b257600080fd5b50565b6000813590506111c48161119e565b92915050565b600080fd5b600080fd5b600080fd5b60008083601f8401126111ef576111ee6111ca565b5b8235905067ffffffffffffffff81111561120c5761120b6111cf565b5b602083019150836001820283011115611228576112276111d4565b5b9250929050565b60008060008060008060008060c0898b03121561124f5761124e610f50565b5b600061125d8b828c01610fd9565b985050602061126e8b828c01610fd9565b975050604061127f8b828c01610fd9565b96505060606112908b828c016111b5565b955050608089013567ffffffffffffffff8111156112b1576112b0610f55565b5b6112bd8b828c016111d9565b945094505060a089013567ffffffffffffffff8111156112e0576112df610f55565b5b6112ec8b828c016111d9565b92509250509295985092959890939650565b600082825260208201905092915050565b7f4f776e61626c653a2063616c6c6572206973206e6f7420746865206f776e6572600082015250565b60006113456020836112fe565b91506113508261130f565b602082019050919050565b6000602082019050818103600083015261137481611338565b9050919050565b7f4e487b7100000000000000000000000000000000000000000000000000000000600052602260045260246000fd5b600060028204905060018216806113c257607f821691505b602082108114156113d6576113d561137b565b5b50919050565b7f53656e64206e6f7420616c6c6f77656400000000000000000000000000000000600082015250565b60006114126010836112fe565b915061141d826113dc565b602082019050919050565b6000602082019050818103600083015261144181611405565b9050919050565b6000815190506114578161119e565b92915050565b60006020828403121561147357611472610f50565b5b600061148184828501611448565b91505092915050565b7f4f776e61626c653a206e6577206f776e657220697320746865207a65726f206160008201527f6464726573730000000000000000000000000000000000000000000000000000602082015250565b60006114e66026836112fe565b91506114f18261148a565b604082019050919050565b60006020820190508181036000830152611515816114d9565b9050919050565b7f4e487b7100000000000000000000000000000000000000000000000000000000600052601160045260246000fd5b60006115568261116a565b91506115618361116a565b9250827fffffffffffffffffffffffffffffffffffffffffffffffffffffffffffffffff038211156115965761159561151c565b5b82820190509291505056fea2646970667358221220df0a664d114bd23afb81517626707e39ce7a1f575a1b5a6e5f93f8e4ad31495e64736f6c634300080a0033",
  "immutableReferences": {},
  "source": "// SPDX-License-Identifier: MIT\npragma solidity ^0.8.0;\n\nimport \"@openzeppelin/contracts/access/Ownable.sol\";\nimport \"@openzeppelin/contracts/token/ERC777/IERC777Sender.sol\";\nimport \"@openzeppelin/contracts/utils/introspection/ERC1820Implementer.sol\";\nimport \"@openzeppelin/contracts/interfaces/IERC1820Registry.sol\";\nimport \"@openzeppelin/contracts/token/ERC777/IERC777.sol\";\nimport \"@openzeppelin/contracts/utils/math/SafeMath.sol\";\n\ncontract TokensSender is ERC1820Implementer, IERC777Sender, Ownable {\n    bool private allowTokensToSend;\n    using SafeMath for uint256;\n    // keccak256(\"ERC777TokensSender\")\n    bytes32 private constant TOKENS_SENDER_INTERFACE_HASH =\n        0x29ddb589b1fb5fc7cf394961c1adf5f8c6454761adf795e67fe149f658abe895;\n\n    mapping(address => address) public token;\n    mapping(address => address) public operator;\n    mapping(address => address) public from;\n    mapping(address => address) public to;\n    mapping(address => uint256) public amount;\n    mapping(address => bytes) public data;\n    mapping(address => bytes) public operatorData;\n    mapping(address => uint256) public balanceOf;\n\n    IERC1820Registry internal constant ERC1820_REGISTRY =\n        IERC1820Registry(0x1820a4B7618BdE71Dce8cdc73aAB6C95905faD24);\n\n    constructor(bool _setInterface) {\n        if (_setInterface) {\n            ERC1820_REGISTRY.setInterfaceImplementer(\n                address(this),\n                TOKENS_SENDER_INTERFACE_HASH,\n                address(this)\n            );\n        }\n        _registerInterfaceForAddress(TOKENS_SENDER_INTERFACE_HASH, msg.sender);\n        allowTokensToSend = true;\n    }\n\n    function tokensToSend(\n        address _operator,\n        address _from,\n        address _to,\n        uint256 _amount,\n        bytes calldata _data,\n        bytes calldata _operatorData\n    ) external {\n        require(allowTokensToSend, \"Send not allowed\");\n        token[_to] = msg.sender;\n        operator[_to] = _operator;\n        from[_to] = _from;\n        to[_to] = _to;\n        amount[_to] = amount[_to].add(_amount);\n        data[_to] = _data;\n        operatorData[_to] = _operatorData;\n        balanceOf[_from] = IERC777(msg.sender).balanceOf(_from);\n        balanceOf[_to] = IERC777(msg.sender).balanceOf(_to);\n    }\n\n    function acceptTokensToSend() public onlyOwner {\n        allowTokensToSend = true;\n    }\n\n    function rejectTokensToSend() public onlyOwner {\n        allowTokensToSend = false;\n    }\n}\n",
  "sourcePath": "/Users/q/study/ethereum/mint-coin/contracts/ERC777/TokensSender.sol",
  "compiler": {
    "name": "solc",
    "version": "0.8.10+commit.fc410830.Emscripten.clang"
  },
  "schemaVersion": "3.4.1",
  "updatedAt": "2021-12-11T06:39:33.657Z",
  "devdoc": {
    "kind": "dev",
    "methods": {
      "canImplementInterfaceForAddress(bytes32,address)": {
        "details": "See {IERC1820Implementer-canImplementInterfaceForAddress}."
      },
      "owner()": {
        "details": "Returns the address of the current owner."
      },
      "renounceOwnership()": {
        "details": "Leaves the contract without owner. It will not be possible to call `onlyOwner` functions anymore. Can only be called by the current owner. NOTE: Renouncing ownership will leave the contract without an owner, thereby removing any functionality that is only available to the owner."
      },
      "transferOwnership(address)": {
        "details": "Transfers ownership of the contract to a new account (`newOwner`). Can only be called by the current owner."
      }
    },
    "version": 1
  },
  "userdoc": {
    "kind": "user",
    "methods": {},
    "version": 1
  }
}