{
  "contractName": "TokensRecipient",
  "abi": [
    {
      "inputs": [
        {
          "internalType": "bool",
          "name": "_setInterface",
          "type": "bool"
        }
      ],
      "stateMutability": "nonpayable",
      "type": "constructor"
    },
    {
      "anonymous": false,
      "inputs": [
        {
          "indexed": true,
          "internalType": "address",
          "name": "previousOwner",
          "type": "address"
        },
        {
          "indexed": true,
          "internalType": "address",
          "name": "newOwner",
          "type": "address"
        }
      ],
      "name": "OwnershipTransferred",
      "type": "event"
    },
    {
      "inputs": [
        {
          "internalType": "address",
          "name": "",
          "type": "address"
        }
      ],
      "name": "amount",
      "outputs": [
        {
          "internalType": "uint256",
          "name": "",
          "type": "uint256"
        }
      ],
      "stateMutability": "view",
      "type": "function"
    },
    {
      "inputs": [
        {
          "internalType": "address",
          "name": "",
          "type": "address"
        }
      ],
      "name": "balanceOf",
      "outputs": [
        {
          "internalType": "uint256",
          "name": "",
          "type": "uint256"
        }
      ],
      "stateMutability": "view",
      "type": "function"
    },
    {
      "inputs": [
        {
          "internalType": "bytes32",
          "name": "interfaceHash",
          "type": "bytes32"
        },
        {
          "internalType": "address",
          "name": "account",
          "type": "address"
        }
      ],
      "name": "canImplementInterfaceForAddress",
      "outputs": [
        {
          "internalType": "bytes32",
          "name": "",
          "type": "bytes32"
        }
      ],
      "stateMutability": "view",
      "type": "function"
    },
    {
      "inputs": [
        {
          "internalType": "address",
          "name": "",
          "type": "address"
        }
      ],
      "name": "data",
      "outputs": [
        {
          "internalType": "bytes",
          "name": "",
          "type": "bytes"
        }
      ],
      "stateMutability": "view",
      "type": "function"
    },
    {
      "inputs": [
        {
          "internalType": "address",
          "name": "",
          "type": "address"
        }
      ],
      "name": "from",
      "outputs": [
        {
          "internalType": "address",
          "name": "",
          "type": "address"
        }
      ],
      "stateMutability": "view",
      "type": "function"
    },
    {
      "inputs": [
        {
          "internalType": "address",
          "name": "",
          "type": "address"
        }
      ],
      "name": "operator",
      "outputs": [
        {
          "internalType": "address",
          "name": "",
          "type": "address"
        }
      ],
      "stateMutability": "view",
      "type": "function"
    },
    {
      "inputs": [
        {
          "internalType": "address",
          "name": "",
          "type": "address"
        }
      ],
      "name": "operatorData",
      "outputs": [
        {
          "internalType": "bytes",
          "name": "",
          "type": "bytes"
        }
      ],
      "stateMutability": "view",
      "type": "function"
    },
    {
      "inputs": [],
      "name": "owner",
      "outputs": [
        {
          "internalType": "address",
          "name": "",
          "type": "address"
        }
      ],
      "stateMutability": "view",
      "type": "function"
    },
    {
      "inputs": [],
      "name": "renounceOwnership",
      "outputs": [],
      "stateMutability": "nonpayable",
      "type": "function"
    },
    {
      "inputs": [
        {
          "internalType": "address",
          "name": "",
          "type": "address"
        }
      ],
      "name": "to",
      "outputs": [
        {
          "internalType": "address",
          "name": "",
          "type": "address"
        }
      ],
      "stateMutability": "view",
      "type": "function"
    },
    {
      "inputs": [
        {
          "internalType": "address",
          "name": "",
          "type": "address"
        }
      ],
      "name": "token",
      "outputs": [
        {
          "internalType": "address",
          "name": "",
          "type": "address"
        }
      ],
      "stateMutability": "view",
      "type": "function"
    },
    {
      "inputs": [
        {
          "internalType": "address",
          "name": "newOwner",
          "type": "address"
        }
      ],
      "name": "transferOwnership",
      "outputs": [],
      "stateMutability": "nonpayable",
      "type": "function"
    },
    {
      "inputs": [
        {
          "internalType": "address",
          "name": "_operator",
          "type": "address"
        },
        {
          "internalType": "address",
          "name": "_from",
          "type": "address"
        },
        {
          "internalType": "address",
          "name": "_to",
          "type": "address"
        },
        {
          "internalType": "uint256",
          "name": "_amount",
          "type": "uint256"
        },
        {
          "internalType": "bytes",
          "name": "_data",
          "type": "bytes"
        },
        {
          "internalType": "bytes",
          "name": "_operatorData",
          "type": "bytes"
        }
      ],
      "name": "tokensReceived",
      "outputs": [],
      "stateMutability": "nonpayable",
      "type": "function"
    },
    {
      "inputs": [],
      "name": "acceptTokens",
      "outputs": [],
      "stateMutability": "nonpayable",
      "type": "function"
    },
    {
      "inputs": [],
      "name": "rejectTokens",
      "outputs": [],
      "stateMutability": "nonpayable",
      "type": "function"
    }
  ],
  "bytecode": "0x60806040523480156200001157600080fd5b5060405162001990380380620019908339818101604052810190620000379190620002db565b620000576200004b6200015f60201b60201c565b6200016760201b60201c565b80156200010957731820a4b7618bde71dce8cdc73aab6c95905fad2473ffffffffffffffffffffffffffffffffffffffff166329965a1d307fb281fc8c12954d22544db45de3159a39272895b169a852b314f9cc762e44c53b60001b306040518463ffffffff1660e01b8152600401620000d4939291906200036d565b600060405180830381600087803b158015620000ef57600080fd5b505af115801562000104573d6000803e3d6000fd5b505050505b6200013e7fb281fc8c12954d22544db45de3159a39272895b169a852b314f9cc762e44c53b60001b336200022d60201b60201c565b60018060146101000a81548160ff02191690831515021790555050620003aa565b600033905090565b6000600160009054906101000a900473ffffffffffffffffffffffffffffffffffffffff16905081600160006101000a81548173ffffffffffffffffffffffffffffffffffffffff021916908373ffffffffffffffffffffffffffffffffffffffff1602179055508173ffffffffffffffffffffffffffffffffffffffff168173ffffffffffffffffffffffffffffffffffffffff167f8be0079c531659141344cd1fd0a4f28419497f9722a3daafe3b4186f6b6457e060405160405180910390a35050565b600160008084815260200190815260200160002060008373ffffffffffffffffffffffffffffffffffffffff1673ffffffffffffffffffffffffffffffffffffffff16815260200190815260200160002060006101000a81548160ff0219169083151502179055505050565b600080fd5b60008115159050919050565b620002b5816200029e565b8114620002c157600080fd5b50565b600081519050620002d581620002aa565b92915050565b600060208284031215620002f457620002f362000299565b5b60006200030484828501620002c4565b91505092915050565b600073ffffffffffffffffffffffffffffffffffffffff82169050919050565b60006200033a826200030d565b9050919050565b6200034c816200032d565b82525050565b6000819050919050565b620003678162000352565b82525050565b600060608201905062000384600083018662000341565b6200039360208301856200035c565b620003a2604083018462000341565b949350505050565b6115d680620003ba6000396000f3fe608060405234801561001057600080fd5b50600436106100f45760003560e01c806387b1082211610097578063b90d3d0c11610066578063b90d3d0c14610297578063b9f0bf66146102c7578063f2fde38b146102f7578063f5c89c6f14610313576100f4565b806387b108221461020f5780638da5cb5b1461023f57806399a46be31461025d5780639a30739114610267576100f4565b8063333d0ef0116100d3578063333d0ef0146101755780636d46a1db146101a557806370a08231146101d5578063715018a614610205576100f4565b806223de29146100f9578063249cb3fa14610115578063301f4ba014610145575b600080fd5b610113600480360381019061010e9190611052565b61031d565b005b61012f600480360381019061012a9190611157565b61081b565b60405161013c91906111a6565b60405180910390f35b61015f600480360381019061015a91906111c1565b6108b1565b60405161016c91906111fd565b60405180910390f35b61018f600480360381019061018a91906111c1565b6108e4565b60405161019c91906112b1565b60405180910390f35b6101bf60048036038101906101ba91906111c1565b610984565b6040516101cc91906111fd565b60405180910390f35b6101ef60048036038101906101ea91906111c1565b6109b7565b6040516101fc91906112e2565b60405180910390f35b61020d6109cf565b005b610229600480360381019061022491906111c1565b610a57565b60405161023691906111fd565b60405180910390f35b610247610a8a565b60405161025491906111fd565b60405180910390f35b610265610ab4565b005b610281600480360381019061027c91906111c1565b610b4d565b60405161028e91906111fd565b60405180910390f35b6102b160048036038101906102ac91906111c1565b610b80565b6040516102be91906112b1565b60405180910390f35b6102e160048036038101906102dc91906111c1565b610c20565b6040516102ee91906112e2565b60405180910390f35b610311600480360381019061030c91906111c1565b610c38565b005b61031b610d30565b005b600160149054906101000a900460ff1661036c576040517f08c379a00000000000000000000000000000000000000000000000000000000081526004016103639061135a565b60405180910390fd5b33600260008973ffffffffffffffffffffffffffffffffffffffff1673ffffffffffffffffffffffffffffffffffffffff16815260200190815260200160002060006101000a81548173ffffffffffffffffffffffffffffffffffffffff021916908373ffffffffffffffffffffffffffffffffffffffff16021790555087600360008973ffffffffffffffffffffffffffffffffffffffff1673ffffffffffffffffffffffffffffffffffffffff16815260200190815260200160002060006101000a81548173ffffffffffffffffffffffffffffffffffffffff021916908373ffffffffffffffffffffffffffffffffffffffff16021790555086600460008973ffffffffffffffffffffffffffffffffffffffff1673ffffffffffffffffffffffffffffffffffffffff16815260200190815260200160002060006101000a81548173ffffffffffffffffffffffffffffffffffffffff021916908373ffffffffffffffffffffffffffffffffffffffff16021790555085600560008973ffffffffffffffffffffffffffffffffffffffff1673ffffffffffffffffffffffffffffffffffffffff16815260200190815260200160002060006101000a81548173ffffffffffffffffffffffffffffffffffffffff021916908373ffffffffffffffffffffffffffffffffffffffff1602179055506105b685600660008a73ffffffffffffffffffffffffffffffffffffffff1673ffffffffffffffffffffffffffffffffffffffff16815260200190815260200160002054610dc890919063ffffffff16565b600660008973ffffffffffffffffffffffffffffffffffffffff1673ffffffffffffffffffffffffffffffffffffffff168152602001908152602001600020819055508383600760008a73ffffffffffffffffffffffffffffffffffffffff1673ffffffffffffffffffffffffffffffffffffffff1681526020019081526020016000209190610647929190610eac565b508181600860008a73ffffffffffffffffffffffffffffffffffffffff1673ffffffffffffffffffffffffffffffffffffffff1681526020019081526020016000209190610696929190610eac565b503373ffffffffffffffffffffffffffffffffffffffff166370a08231886040518263ffffffff1660e01b81526004016106d091906111fd565b602060405180830381865afa1580156106ed573d6000803e3d6000fd5b505050506040513d601f19601f82011682018060405250810190610711919061138f565b600960008973ffffffffffffffffffffffffffffffffffffffff1673ffffffffffffffffffffffffffffffffffffffff168152602001908152602001600020819055503373ffffffffffffffffffffffffffffffffffffffff166370a08231876040518263ffffffff1660e01b815260040161078d91906111fd565b602060405180830381865afa1580156107aa573d6000803e3d6000fd5b505050506040513d601f19601f820116820180604052508101906107ce919061138f565b600960008873ffffffffffffffffffffffffffffffffffffffff1673ffffffffffffffffffffffffffffffffffffffff168152602001908152602001600020819055505050505050505050565b600080600084815260200190815260200160002060008373ffffffffffffffffffffffffffffffffffffffff1673ffffffffffffffffffffffffffffffffffffffff16815260200190815260200160002060009054906101000a900460ff16610887576000801b6108a9565b7fa2ef4600d742022d532d4747cb3547474667d6f13804902513b2ec01c848f4b45b905092915050565b60056020528060005260406000206000915054906101000a900473ffffffffffffffffffffffffffffffffffffffff1681565b60086020528060005260406000206000915090508054610903906113eb565b80601f016020809104026020016040519081016040528092919081815260200182805461092f906113eb565b801561097c5780601f106109515761010080835404028352916020019161097c565b820191906000526020600020905b81548152906001019060200180831161095f57829003601f168201915b505050505081565b60026020528060005260406000206000915054906101000a900473ffffffffffffffffffffffffffffffffffffffff1681565b60096020528060005260406000206000915090505481565b6109d7610dde565b73ffffffffffffffffffffffffffffffffffffffff166109f5610a8a565b73ffffffffffffffffffffffffffffffffffffffff1614610a4b576040517f08c379a0000000000000000000000000000000000000000000000000000000008152600401610a4290611469565b60405180910390fd5b610a556000610de6565b565b60046020528060005260406000206000915054906101000a900473ffffffffffffffffffffffffffffffffffffffff1681565b6000600160009054906101000a900473ffffffffffffffffffffffffffffffffffffffff16905090565b610abc610dde565b73ffffffffffffffffffffffffffffffffffffffff16610ada610a8a565b73ffffffffffffffffffffffffffffffffffffffff1614610b30576040517f08c379a0000000000000000000000000000000000000000000000000000000008152600401610b2790611469565b60405180910390fd5b6000600160146101000a81548160ff021916908315150217905550565b60036020528060005260406000206000915054906101000a900473ffffffffffffffffffffffffffffffffffffffff1681565b60076020528060005260406000206000915090508054610b9f906113eb565b80601f0160208091040260200160405190810160405280929190818152602001828054610bcb906113eb565b8015610c185780601f10610bed57610100808354040283529160200191610c18565b820191906000526020600020905b815481529060010190602001808311610bfb57829003601f168201915b505050505081565b60066020528060005260406000206000915090505481565b610c40610dde565b73ffffffffffffffffffffffffffffffffffffffff16610c5e610a8a565b73ffffffffffffffffffffffffffffffffffffffff1614610cb4576040517f08c379a0000000000000000000000000000000000000000000000000000000008152600401610cab90611469565b60405180910390fd5b600073ffffffffffffffffffffffffffffffffffffffff168173ffffffffffffffffffffffffffffffffffffffff161415610d24576040517f08c379a0000000000000000000000000000000000000000000000000000000008152600401610d1b906114fb565b60405180910390fd5b610d2d81610de6565b50565b610d38610dde565b73ffffffffffffffffffffffffffffffffffffffff16610d56610a8a565b73ffffffffffffffffffffffffffffffffffffffff1614610dac576040517f08c379a0000000000000000000000000000000000000000000000000000000008152600401610da390611469565b60405180910390fd5b60018060146101000a81548160ff021916908315150217905550565b60008183610dd6919061154a565b905092915050565b600033905090565b6000600160009054906101000a900473ffffffffffffffffffffffffffffffffffffffff16905081600160006101000a81548173ffffffffffffffffffffffffffffffffffffffff021916908373ffffffffffffffffffffffffffffffffffffffff1602179055508173ffffffffffffffffffffffffffffffffffffffff168173ffffffffffffffffffffffffffffffffffffffff167f8be0079c531659141344cd1fd0a4f28419497f9722a3daafe3b4186f6b6457e060405160405180910390a35050565b828054610eb8906113eb565b90600052602060002090601f016020900481019282610eda5760008555610f21565b82601f10610ef357803560ff1916838001178555610f21565b82800160010185558215610f21579182015b82811115610f20578235825591602001919060010190610f05565b5b509050610f2e9190610f32565b5090565b5b80821115610f4b576000816000905550600101610f33565b5090565b600080fd5b600080fd5b600073ffffffffffffffffffffffffffffffffffffffff82169050919050565b6000610f8482610f59565b9050919050565b610f9481610f79565b8114610f9f57600080fd5b50565b600081359050610fb181610f8b565b92915050565b6000819050919050565b610fca81610fb7565b8114610fd557600080fd5b50565b600081359050610fe781610fc1565b92915050565b600080fd5b600080fd5b600080fd5b60008083601f84011261101257611011610fed565b5b8235905067ffffffffffffffff81111561102f5761102e610ff2565b5b60208301915083600182028301111561104b5761104a610ff7565b5b9250929050565b60008060008060008060008060c0898b03121561107257611071610f4f565b5b60006110808b828c01610fa2565b98505060206110918b828c01610fa2565b97505060406110a28b828c01610fa2565b96505060606110b38b828c01610fd8565b955050608089013567ffffffffffffffff8111156110d4576110d3610f54565b5b6110e08b828c01610ffc565b945094505060a089013567ffffffffffffffff81111561110357611102610f54565b5b61110f8b828c01610ffc565b92509250509295985092959890939650565b6000819050919050565b61113481611121565b811461113f57600080fd5b50565b6000813590506111518161112b565b92915050565b6000806040838503121561116e5761116d610f4f565b5b600061117c85828601611142565b925050602061118d85828601610fa2565b9150509250929050565b6111a081611121565b82525050565b60006020820190506111bb6000830184611197565b92915050565b6000602082840312156111d7576111d6610f4f565b5b60006111e584828501610fa2565b91505092915050565b6111f781610f79565b82525050565b600060208201905061121260008301846111ee565b92915050565b600081519050919050565b600082825260208201905092915050565b60005b83811015611252578082015181840152602081019050611237565b83811115611261576000848401525b50505050565b6000601f19601f8301169050919050565b600061128382611218565b61128d8185611223565b935061129d818560208601611234565b6112a681611267565b840191505092915050565b600060208201905081810360008301526112cb8184611278565b905092915050565b6112dc81610fb7565b82525050565b60006020820190506112f760008301846112d3565b92915050565b600082825260208201905092915050565b7f52656365697665206e6f7420616c6c6f77656400000000000000000000000000600082015250565b60006113446013836112fd565b915061134f8261130e565b602082019050919050565b6000602082019050818103600083015261137381611337565b9050919050565b60008151905061138981610fc1565b92915050565b6000602082840312156113a5576113a4610f4f565b5b60006113b38482850161137a565b91505092915050565b7f4e487b7100000000000000000000000000000000000000000000000000000000600052602260045260246000fd5b6000600282049050600182168061140357607f821691505b60208210811415611417576114166113bc565b5b50919050565b7f4f776e61626c653a2063616c6c6572206973206e6f7420746865206f776e6572600082015250565b60006114536020836112fd565b915061145e8261141d565b602082019050919050565b6000602082019050818103600083015261148281611446565b9050919050565b7f4f776e61626c653a206e6577206f776e657220697320746865207a65726f206160008201527f6464726573730000000000000000000000000000000000000000000000000000602082015250565b60006114e56026836112fd565b91506114f082611489565b604082019050919050565b60006020820190508181036000830152611514816114d8565b9050919050565b7f4e487b7100000000000000000000000000000000000000000000000000000000600052601160045260246000fd5b600061155582610fb7565b915061156083610fb7565b9250827fffffffffffffffffffffffffffffffffffffffffffffffffffffffffffffffff038211156115955761159461151b565b5b82820190509291505056fea264697066735822122006e42084356f4cfbd7db4dcd6f88bebd070ec436b1ff669a0c14222847f910da64736f6c634300080a0033",
  "immutableReferences": {},
  "source": "// SPDX-License-Identifier: MIT\npragma solidity ^0.8.0;\n\nimport \"@openzeppelin/contracts/access/Ownable.sol\";\nimport \"@openzeppelin/contracts/token/ERC777/IERC777Recipient.sol\";\nimport \"@openzeppelin/contracts/utils/introspection/ERC1820Implementer.sol\";\nimport \"@openzeppelin/contracts/interfaces/IERC1820Registry.sol\";\nimport \"@openzeppelin/contracts/token/ERC777/IERC777.sol\";\nimport \"@openzeppelin/contracts/utils/math/SafeMath.sol\";\n\ncontract TokensRecipient is ERC1820Implementer, IERC777Recipient, Ownable {\n    bool private allowTokensReceived;\n    using SafeMath for uint256;\n    // keccak256(\"ERC777TokensRecipient\")\n    bytes32 private constant TOKENS_RECIPIENT_INTERFACE_HASH =\n        0xb281fc8c12954d22544db45de3159a39272895b169a852b314f9cc762e44c53b;\n\n    mapping(address => address) public token;\n    mapping(address => address) public operator;\n    mapping(address => address) public from;\n    mapping(address => address) public to;\n    mapping(address => uint256) public amount;\n    mapping(address => bytes) public data;\n    mapping(address => bytes) public operatorData;\n    mapping(address => uint256) public balanceOf;\n\n    IERC1820Registry internal constant ERC1820_REGISTRY =\n        IERC1820Registry(0x1820a4B7618BdE71Dce8cdc73aAB6C95905faD24);\n\n    constructor(bool _setInterface) {\n        if (_setInterface) {\n            ERC1820_REGISTRY.setInterfaceImplementer(\n                address(this),\n                TOKENS_RECIPIENT_INTERFACE_HASH,\n                address(this)\n            );\n        }\n        _registerInterfaceForAddress(\n            TOKENS_RECIPIENT_INTERFACE_HASH,\n            msg.sender\n        );\n        allowTokensReceived = true;\n    }\n\n    function tokensReceived(\n        address _operator,\n        address _from,\n        address _to,\n        uint256 _amount,\n        bytes calldata _data,\n        bytes calldata _operatorData\n    ) external {\n        require(allowTokensReceived, \"Receive not allowed\");\n        token[_from] = msg.sender;\n        operator[_from] = _operator;\n        from[_from] = _from;\n        to[_from] = _to;\n        amount[_from] = amount[_from].add(_amount);\n        data[_from] = _data;\n        operatorData[_from] = _operatorData;\n        balanceOf[_from] = IERC777(msg.sender).balanceOf(_from);\n        balanceOf[_to] = IERC777(msg.sender).balanceOf(_to);\n    }\n\n    function acceptTokens() public onlyOwner {\n        allowTokensReceived = true;\n    }\n\n    function rejectTokens() public onlyOwner {\n        allowTokensReceived = false;\n    }\n}\n",
  "sourcePath": "/Users/q/study/ethereum/mint-coin/contracts/ERC777/TokensRecipient.sol",
  "compiler": {
    "name": "solc",
    "version": "0.8.10+commit.fc410830.Emscripten.clang"
  },
  "schemaVersion": "3.4.1",
  "updatedAt": "2021-12-11T06:39:33.631Z",
  "devdoc": {
    "kind": "dev",
    "methods": {
      "canImplementInterfaceForAddress(bytes32,address)": {
        "details": "See {IERC1820Implementer-canImplementInterfaceForAddress}."
      },
      "owner()": {
        "details": "Returns the address of the current owner."
      },
      "renounceOwnership()": {
        "details": "Leaves the contract without owner. It will not be possible to call `onlyOwner` functions anymore. Can only be called by the current owner. NOTE: Renouncing ownership will leave the contract without an owner, thereby removing any functionality that is only available to the owner."
      },
      "transferOwnership(address)": {
        "details": "Transfers ownership of the contract to a new account (`newOwner`). Can only be called by the current owner."
      }
    },
    "version": 1
  },
  "userdoc": {
    "kind": "user",
    "methods": {},
    "version": 1
  }
}