{
  "contractName": "ZombieCore",
  "abi": [
    {
      "anonymous": false,
      "inputs": [
        {
          "indexed": true,
          "internalType": "address",
          "name": "_owner",
          "type": "address"
        },
        {
          "indexed": true,
          "internalType": "address",
          "name": "_approved",
          "type": "address"
        },
        {
          "indexed": false,
          "internalType": "uint256",
          "name": "_tokenId",
          "type": "uint256"
        }
      ],
      "name": "Approval",
      "type": "event"
    },
    {
      "anonymous": false,
      "inputs": [
        {
          "indexed": true,
          "internalType": "uint256",
          "name": "zombieId",
          "type": "uint256"
        },
        {
          "indexed": true,
          "internalType": "address",
          "name": "buyer",
          "type": "address"
        },
        {
          "indexed": true,
          "internalType": "address",
          "name": "seller",
          "type": "address"
        }
      ],
      "name": "BuyShopZombie",
      "type": "event"
    },
    {
      "anonymous": false,
      "inputs": [
        {
          "indexed": false,
          "internalType": "uint256",
          "name": "zombieId",
          "type": "uint256"
        },
        {
          "indexed": false,
          "internalType": "string",
          "name": "name",
          "type": "string"
        },
        {
          "indexed": false,
          "internalType": "uint256",
          "name": "dna",
          "type": "uint256"
        }
      ],
      "name": "NewZombie",
      "type": "event"
    },
    {
      "anonymous": false,
      "inputs": [
        {
          "indexed": true,
          "internalType": "address",
          "name": "previousOwner",
          "type": "address"
        },
        {
          "indexed": true,
          "internalType": "address",
          "name": "newOwner",
          "type": "address"
        }
      ],
      "name": "OwnershipTransferred",
      "type": "event"
    },
    {
      "anonymous": false,
      "inputs": [
        {
          "indexed": true,
          "internalType": "address",
          "name": "_from",
          "type": "address"
        },
        {
          "indexed": true,
          "internalType": "address",
          "name": "_to",
          "type": "address"
        },
        {
          "indexed": false,
          "internalType": "uint256",
          "name": "_tokenId",
          "type": "uint256"
        }
      ],
      "name": "Transfer",
      "type": "event"
    },
    {
      "anonymous": false,
      "inputs": [
        {
          "indexed": true,
          "internalType": "uint256",
          "name": "zombieId",
          "type": "uint256"
        },
        {
          "indexed": true,
          "internalType": "address",
          "name": "seller",
          "type": "address"
        }
      ],
      "name": "ZombieInShop",
      "type": "event"
    },
    {
      "inputs": [
        {
          "internalType": "address",
          "name": "_to",
          "type": "address"
        },
        {
          "internalType": "uint256",
          "name": "_tokenId",
          "type": "uint256"
        }
      ],
      "name": "approve",
      "outputs": [],
      "stateMutability": "nonpayable",
      "type": "function"
    },
    {
      "inputs": [
        {
          "internalType": "uint256",
          "name": "_zombieId",
          "type": "uint256"
        },
        {
          "internalType": "uint256",
          "name": "_targetId",
          "type": "uint256"
        }
      ],
      "name": "attack",
      "outputs": [
        {
          "internalType": "uint256",
          "name": "",
          "type": "uint256"
        }
      ],
      "stateMutability": "nonpayable",
      "type": "function"
    },
    {
      "inputs": [],
      "name": "attackWinRate",
      "outputs": [
        {
          "internalType": "uint256",
          "name": "",
          "type": "uint256"
        }
      ],
      "stateMutability": "view",
      "type": "function",
      "constant": true
    },
    {
      "inputs": [
        {
          "internalType": "address",
          "name": "_owner",
          "type": "address"
        }
      ],
      "name": "balanceOf",
      "outputs": [
        {
          "internalType": "uint256",
          "name": "_balance",
          "type": "uint256"
        }
      ],
      "stateMutability": "view",
      "type": "function",
      "constant": true
    },
    {
      "inputs": [
        {
          "internalType": "uint256",
          "name": "_zombieId",
          "type": "uint256"
        }
      ],
      "name": "buyShopZombie",
      "outputs": [],
      "stateMutability": "payable",
      "type": "function",
      "payable": true
    },
    {
      "inputs": [
        {
          "internalType": "string",
          "name": "_name",
          "type": "string"
        }
      ],
      "name": "buyZombie",
      "outputs": [],
      "stateMutability": "payable",
      "type": "function",
      "payable": true
    },
    {
      "inputs": [
        {
          "internalType": "uint256",
          "name": "_zombieId",
          "type": "uint256"
        },
        {
          "internalType": "string",
          "name": "_newName",
          "type": "string"
        }
      ],
      "name": "changeName",
      "outputs": [],
      "stateMutability": "nonpayable",
      "type": "function"
    },
    {
      "inputs": [],
      "name": "cooldownTime",
      "outputs": [
        {
          "internalType": "uint256",
          "name": "",
          "type": "uint256"
        }
      ],
      "stateMutability": "view",
      "type": "function",
      "constant": true
    },
    {
      "inputs": [
        {
          "internalType": "uint256",
          "name": "_zombieId",
          "type": "uint256"
        }
      ],
      "name": "feed",
      "outputs": [],
      "stateMutability": "nonpayable",
      "type": "function"
    },
    {
      "inputs": [
        {
          "internalType": "string",
          "name": "_name",
          "type": "string"
        }
      ],
      "name": "freeZombie",
      "outputs": [],
      "stateMutability": "nonpayable",
      "type": "function"
    },
    {
      "inputs": [],
      "name": "getShopZombies",
      "outputs": [
        {
          "internalType": "uint256[]",
          "name": "",
          "type": "uint256[]"
        }
      ],
      "stateMutability": "view",
      "type": "function",
      "constant": true
    },
    {
      "inputs": [
        {
          "internalType": "address",
          "name": "_owner",
          "type": "address"
        }
      ],
      "name": "getZombiesByOwner",
      "outputs": [
        {
          "internalType": "uint256[]",
          "name": "",
          "type": "uint256[]"
        }
      ],
      "stateMutability": "view",
      "type": "function",
      "constant": true
    },
    {
      "inputs": [
        {
          "internalType": "uint256",
          "name": "_zombieId",
          "type": "uint256"
        }
      ],
      "name": "levelup",
      "outputs": [],
      "stateMutability": "payable",
      "type": "function",
      "payable": true
    },
    {
      "inputs": [],
      "name": "levelupFee",
      "outputs": [
        {
          "internalType": "uint256",
          "name": "",
          "type": "uint256"
        }
      ],
      "stateMutability": "view",
      "type": "function",
      "constant": true
    },
    {
      "inputs": [],
      "name": "minPrice",
      "outputs": [
        {
          "internalType": "uint256",
          "name": "",
          "type": "uint256"
        }
      ],
      "stateMutability": "view",
      "type": "function",
      "constant": true
    },
    {
      "inputs": [],
      "name": "name",
      "outputs": [
        {
          "internalType": "string",
          "name": "",
          "type": "string"
        }
      ],
      "stateMutability": "view",
      "type": "function",
      "constant": true
    },
    {
      "inputs": [],
      "name": "owner",
      "outputs": [
        {
          "internalType": "address",
          "name": "",
          "type": "address"
        }
      ],
      "stateMutability": "view",
      "type": "function",
      "constant": true
    },
    {
      "inputs": [
        {
          "internalType": "uint256",
          "name": "_tokenId",
          "type": "uint256"
        }
      ],
      "name": "ownerOf",
      "outputs": [
        {
          "internalType": "address",
          "name": "_owner",
          "type": "address"
        }
      ],
      "stateMutability": "view",
      "type": "function",
      "constant": true
    },
    {
      "inputs": [
        {
          "internalType": "address",
          "name": "",
          "type": "address"
        }
      ],
      "name": "ownerZombieCount",
      "outputs": [
        {
          "internalType": "uint256",
          "name": "",
          "type": "uint256"
        }
      ],
      "stateMutability": "view",
      "type": "function",
      "constant": true
    },
    {
      "inputs": [],
      "name": "price",
      "outputs": [
        {
          "internalType": "uint256",
          "name": "",
          "type": "uint256"
        }
      ],
      "stateMutability": "view",
      "type": "function",
      "constant": true
    },
    {
      "inputs": [],
      "name": "renounceOwnership",
      "outputs": [],
      "stateMutability": "nonpayable",
      "type": "function"
    },
    {
      "inputs": [
        {
          "internalType": "uint256",
          "name": "_zombieId",
          "type": "uint256"
        },
        {
          "internalType": "uint256",
          "name": "_price",
          "type": "uint256"
        }
      ],
      "name": "saleMyZombie",
      "outputs": [],
      "stateMutability": "nonpayable",
      "type": "function"
    },
    {
      "inputs": [
        {
          "internalType": "uint256",
          "name": "_rate",
          "type": "uint256"
        }
      ],
      "name": "setAttackWinRate",
      "outputs": [],
      "stateMutability": "nonpayable",
      "type": "function"
    },
    {
      "inputs": [
        {
          "internalType": "uint256",
          "name": "_fee",
          "type": "uint256"
        }
      ],
      "name": "setLevelupFee",
      "outputs": [],
      "stateMutability": "nonpayable",
      "type": "function"
    },
    {
      "inputs": [
        {
          "internalType": "uint256",
          "name": "_value",
          "type": "uint256"
        }
      ],
      "name": "setMinPrice",
      "outputs": [],
      "stateMutability": "nonpayable",
      "type": "function"
    },
    {
      "inputs": [
        {
          "internalType": "uint256",
          "name": "_price",
          "type": "uint256"
        }
      ],
      "name": "setPrice",
      "outputs": [],
      "stateMutability": "nonpayable",
      "type": "function"
    },
    {
      "inputs": [
        {
          "internalType": "uint256",
          "name": "_value",
          "type": "uint256"
        }
      ],
      "name": "setTax",
      "outputs": [],
      "stateMutability": "nonpayable",
      "type": "function"
    },
    {
      "inputs": [
        {
          "internalType": "uint256",
          "name": "",
          "type": "uint256"
        }
      ],
      "name": "shop",
      "outputs": [
        {
          "internalType": "address payable",
          "name": "seller",
          "type": "address"
        },
        {
          "internalType": "uint256",
          "name": "price",
          "type": "uint256"
        }
      ],
      "stateMutability": "view",
      "type": "function",
      "constant": true
    },
    {
      "inputs": [],
      "name": "symbol",
      "outputs": [
        {
          "internalType": "string",
          "name": "",
          "type": "string"
        }
      ],
      "stateMutability": "view",
      "type": "function",
      "constant": true
    },
    {
      "inputs": [
        {
          "internalType": "uint256",
          "name": "_tokenId",
          "type": "uint256"
        }
      ],
      "name": "takeOwnership",
      "outputs": [],
      "stateMutability": "nonpayable",
      "type": "function"
    },
    {
      "inputs": [],
      "name": "tax",
      "outputs": [
        {
          "internalType": "uint256",
          "name": "",
          "type": "uint256"
        }
      ],
      "stateMutability": "view",
      "type": "function",
      "constant": true
    },
    {
      "inputs": [],
      "name": "total",
      "outputs": [
        {
          "internalType": "uint256",
          "name": "",
          "type": "uint256"
        }
      ],
      "stateMutability": "view",
      "type": "function",
      "constant": true
    },
    {
      "inputs": [
        {
          "internalType": "address",
          "name": "_to",
          "type": "address"
        },
        {
          "internalType": "uint256",
          "name": "_tokenId",
          "type": "uint256"
        }
      ],
      "name": "transfer",
      "outputs": [],
      "stateMutability": "nonpayable",
      "type": "function"
    },
    {
      "inputs": [
        {
          "internalType": "address",
          "name": "newOwner",
          "type": "address"
        }
      ],
      "name": "transferOwnership",
      "outputs": [],
      "stateMutability": "nonpayable",
      "type": "function"
    },
    {
      "inputs": [
        {
          "internalType": "uint256",
          "name": "",
          "type": "uint256"
        }
      ],
      "name": "zombieFeedCount",
      "outputs": [
        {
          "internalType": "uint256",
          "name": "",
          "type": "uint256"
        }
      ],
      "stateMutability": "view",
      "type": "function",
      "constant": true
    },
    {
      "inputs": [
        {
          "internalType": "uint256",
          "name": "",
          "type": "uint256"
        }
      ],
      "name": "zombieToOwner",
      "outputs": [
        {
          "internalType": "address",
          "name": "",
          "type": "address"
        }
      ],
      "stateMutability": "view",
      "type": "function",
      "constant": true
    },
    {
      "inputs": [
        {
          "internalType": "uint256",
          "name": "",
          "type": "uint256"
        }
      ],
      "name": "zombies",
      "outputs": [
        {
          "internalType": "string",
          "name": "name",
          "type": "string"
        },
        {
          "internalType": "uint256",
          "name": "dna",
          "type": "uint256"
        },
        {
          "internalType": "uint16",
          "name": "winCount",
          "type": "uint16"
        },
        {
          "internalType": "uint16",
          "name": "loseCount",
          "type": "uint16"
        },
        {
          "internalType": "uint32",
          "name": "level",
          "type": "uint32"
        },
        {
          "internalType": "uint32",
          "name": "readyTime",
          "type": "uint32"
        }
      ],
      "stateMutability": "view",
      "type": "function",
      "constant": true
    },
    {
      "stateMutability": "payable",
      "type": "receive",
      "payable": true
    },
    {
      "inputs": [],
      "name": "withdraw",
      "outputs": [],
      "stateMutability": "nonpayable",
      "type": "function"
    },
    {
      "inputs": [],
      "name": "balance",
      "outputs": [
        {
          "internalType": "uint256",
          "name": "",
          "type": "uint256"
        }
      ],
      "stateMutability": "view",
      "type": "function",
      "constant": true
    }
  ],
  "bytecode": "0x60806040526010600155600154600a6200001a9190620002d5565b60025562015180600355662386f26fc10000600455600060055566038d7ea4c68000600a5566038d7ea4c68000600e5566038d7ea4c68000600f55600060105560466011553480156200006c57600080fd5b506200007e336200008460201b60201c565b62000326565b60008060009054906101000a900473ffffffffffffffffffffffffffffffffffffffff169050816000806101000a81548173ffffffffffffffffffffffffffffffffffffffff021916908373ffffffffffffffffffffffffffffffffffffffff1602179055508173ffffffffffffffffffffffffffffffffffffffff168173ffffffffffffffffffffffffffffffffffffffff167f8be0079c531659141344cd1fd0a4f28419497f9722a3daafe3b4186f6b6457e060405160405180910390a35050565b7f4e487b7100000000000000000000000000000000000000000000000000000000600052601160045260246000fd5b60008160011c9050919050565b6000808291508390505b6001851115620001d657808604811115620001ae57620001ad62000148565b5b6001851615620001be5780820291505b8081029050620001ce8562000177565b94506200018e565b94509492505050565b600082620001f15760019050620002c4565b81620002015760009050620002c4565b81600181146200021a576002811462000225576200025b565b6001915050620002c4565b60ff8411156200023a576200023962000148565b5b8360020a91508482111562000254576200025362000148565b5b50620002c4565b5060208310610133831016604e8410600b8410161715620002955782820a9050838111156200028f576200028e62000148565b5b620002c4565b620002a4848484600162000184565b92509050818404811115620002be57620002bd62000148565b5b81810290505b9392505050565b6000819050919050565b6000620002e282620002cb565b9150620002ef83620002cb565b92506200031e7fffffffffffffffffffffffffffffffffffffffffffffffffffffffffffffffff8484620001df565b905092915050565b613bff80620003366000396000f3fe6080604052600436106102345760003560e01c80637ce701621161012e578063b3f0ddb9116100ab578063e1fa76381161006f578063e1fa763814610823578063e45be8eb14610860578063f242da121461088b578063f2fde38b146108b4578063f59dfdfb146108dd5761023b565b8063b3f0ddb914610738578063b69ef8a814610754578063c39cbef11461077f578063d2146f6a146107a8578063da69c083146107e55761023b565b8063a035b1fe116100f2578063a035b1fe14610667578063a9059cbb14610692578063b2e6ceeb146106bb578063b319c6b7146106e4578063b32c012d1461070f5761023b565b80637ce70162146105945780638da5cb5b146105bd57806391b7f5ed146105e857806395d89b411461061157806399c8d5561461063c5761023b565b80634412e104116101bc57806368b429bb1161018057806368b429bb146104d05780636cb80c6f146104f95780636cc29f2e1461051557806370a0823114610540578063715018a61461057d5761023b565b80634412e104146103c557806350f4d8f514610402578063528b7b8f1461042d5780635ea8cd121461046a5780636352211e146104935761023b565b80632052465e116102035780632052465e146102fc578063208c750e1461033e5780632ddbd13a1461035a5780632e5bb6ff146103855780633ccfd60b146103ae5761023b565b806301afd7e11461024057806306748d441461027d57806306fdde03146102a8578063095ea7b3146102d35761023b565b3661023b57005b600080fd5b34801561024c57600080fd5b5061026760048036038101906102629190612c71565b610906565b6040516102749190612cb7565b60405180910390f35b34801561028957600080fd5b5061029261091e565b60405161029f9190612cb7565b60405180910390f35b3480156102b457600080fd5b506102bd610924565b6040516102ca9190612d6b565b60405180910390f35b3480156102df57600080fd5b506102fa60048036038101906102f59190612db9565b61095d565b005b34801561030857600080fd5b50610323600480360381019061031e9190612df9565b610abb565b60405161033596959493929190612e62565b60405180910390f35b61035860048036038101906103539190612df9565b610bcb565b005b34801561036657600080fd5b5061036f610de2565b60405161037c9190612cb7565b60405180910390f35b34801561039157600080fd5b506103ac60048036038101906103a79190612df9565b610de8565b005b3480156103ba57600080fd5b506103c3610e67565b005b3480156103d157600080fd5b506103ec60048036038101906103e79190612c71565b610f2c565b6040516103f99190612f88565b60405180910390f35b34801561040e57600080fd5b5061041761107f565b6040516104249190612cb7565b60405180910390f35b34801561043957600080fd5b50610454600480360381019061044f9190612df9565b611085565b6040516104619190612fb9565b60405180910390f35b34801561047657600080fd5b50610491600480360381019061048c9190612df9565b6110b8565b005b34801561049f57600080fd5b506104ba60048036038101906104b59190612df9565b611137565b6040516104c79190612fb9565b60405180910390f35b3480156104dc57600080fd5b506104f760048036038101906104f29190613109565b611174565b005b610513600480360381019061050e9190612df9565b61122b565b005b34801561052157600080fd5b5061052a61137a565b6040516105379190612f88565b60405180910390f35b34801561054c57600080fd5b5061056760048036038101906105629190612c71565b611446565b6040516105749190612cb7565b60405180910390f35b34801561058957600080fd5b5061059261148f565b005b3480156105a057600080fd5b506105bb60048036038101906105b69190612df9565b611510565b005b3480156105c957600080fd5b506105d261158f565b6040516105df9190612fb9565b60405180910390f35b3480156105f457600080fd5b5061060f600480360381019061060a9190612df9565b6115b8565b005b34801561061d57600080fd5b50610626611637565b6040516106339190612d6b565b60405180910390f35b34801561064857600080fd5b50610651611670565b60405161065e9190612cb7565b60405180910390f35b34801561067357600080fd5b5061067c611676565b6040516106899190612cb7565b60405180910390f35b34801561069e57600080fd5b506106b960048036038101906106b49190612db9565b61167c565b005b3480156106c757600080fd5b506106e260048036038101906106dd9190612df9565b61172e565b005b3480156106f057600080fd5b506106f96117b5565b6040516107069190612cb7565b60405180910390f35b34801561071b57600080fd5b5061073660048036038101906107319190613152565b6117bb565b005b610752600480360381019061074d9190613109565b6119a4565b005b34801561076057600080fd5b50610769611aac565b6040516107769190612cb7565b60405180910390f35b34801561078b57600080fd5b506107a660048036038101906107a191906131f2565b611b29565b005b3480156107b457600080fd5b506107cf60048036038101906107ca9190612df9565b611c89565b6040516107dc9190612cb7565b60405180910390f35b3480156107f157600080fd5b5061080c60048036038101906108079190612df9565b611ca1565b60405161081a929190613273565b60405180910390f35b34801561082f57600080fd5b5061084a60048036038101906108459190613152565b611ce5565b6040516108579190612cb7565b60405180910390f35b34801561086c57600080fd5b5061087561203d565b6040516108829190612cb7565b60405180910390f35b34801561089757600080fd5b506108b260048036038101906108ad9190612df9565b612043565b005b3480156108c057600080fd5b506108db60048036038101906108d69190612c71565b6120c2565b005b3480156108e957600080fd5b5061090460048036038101906108ff9190612df9565b6121b3565b005b60086020528060005260406000206000915090505481565b600a5481565b6040518060400160405280600e81526020017f4d7943727970746f5a6f6d62696500000000000000000000000000000000000081525081565b806007600082815260200190815260200160002060009054906101000a900473ffffffffffffffffffffffffffffffffffffffff1673ffffffffffffffffffffffffffffffffffffffff163373ffffffffffffffffffffffffffffffffffffffff16146109ff576040517f08c379a00000000000000000000000000000000000000000000000000000000081526004016109f6906132e8565b60405180910390fd5b82600b600084815260200190815260200160002060006101000a81548173ffffffffffffffffffffffffffffffffffffffff021916908373ffffffffffffffffffffffffffffffffffffffff1602179055508273ffffffffffffffffffffffffffffffffffffffff163373ffffffffffffffffffffffffffffffffffffffff167f8c5be1e5ebec7d5bd14f71427d1e84f3dd0314c0f7b2291e5b200ac8c7c3b92584604051610aae9190612cb7565b60405180910390a3505050565b60068181548110610acb57600080fd5b9060005260206000209060030201600091509050806000018054610aee90613337565b80601f0160208091040260200160405190810160405280929190818152602001828054610b1a90613337565b8015610b675780601f10610b3c57610100808354040283529160200191610b67565b820191906000526020600020905b815481529060010190602001808311610b4a57829003601f168201915b5050505050908060010154908060020160009054906101000a900461ffff16908060020160029054906101000a900461ffff16908060020160049054906101000a900463ffffffff16908060020160089054906101000a900463ffffffff16905086565b600c600082815260200190815260200160002060010154341015610c24576040517f08c379a0000000000000000000000000000000000000000000000000000000008152600401610c1b906133b5565b60405180910390fd5b610c65600c600083815260200190815260200160002060000160009054906101000a900473ffffffffffffffffffffffffffffffffffffffff163383612393565b600c600082815260200190815260200160002060000160009054906101000a900473ffffffffffffffffffffffffffffffffffffffff1673ffffffffffffffffffffffffffffffffffffffff166108fc600e5434610cc39190613404565b9081150290604051600060405180830381858888f19350505050158015610cee573d6000803e3d6000fd5b50600c6000828152602001908152602001600020600080820160006101000a81549073ffffffffffffffffffffffffffffffffffffffff0219169055600182016000905550506001600d6000828254610d479190613404565b92505081905550600c600082815260200190815260200160002060000160009054906101000a900473ffffffffffffffffffffffffffffffffffffffff1673ffffffffffffffffffffffffffffffffffffffff163373ffffffffffffffffffffffffffffffffffffffff16827f2705da8f1145dc87c9e6b9aa3ecd69d3d64da132acba45c803563ad52f5c2b5f60405160405180910390a450565b60055481565b3373ffffffffffffffffffffffffffffffffffffffff16610e0761158f565b73ffffffffffffffffffffffffffffffffffffffff1614610e5d576040517f08c379a0000000000000000000000000000000000000000000000000000000008152600401610e5490613484565b60405180910390fd5b80600e8190555050565b3373ffffffffffffffffffffffffffffffffffffffff16610e8661158f565b73ffffffffffffffffffffffffffffffffffffffff1614610edc576040517f08c379a0000000000000000000000000000000000000000000000000000000008152600401610ed390613484565b60405180910390fd5b610ee461158f565b73ffffffffffffffffffffffffffffffffffffffff166108fc479081150290604051600060405180830381858888f19350505050158015610f29573d6000803e3d6000fd5b50565b60606000600860008473ffffffffffffffffffffffffffffffffffffffff1673ffffffffffffffffffffffffffffffffffffffff1681526020019081526020016000205467ffffffffffffffff811115610f8957610f88612fde565b5b604051908082528060200260200182016040528015610fb75781602001602082028036833780820191505090505b5090506000805b600680549050811015611074578473ffffffffffffffffffffffffffffffffffffffff166007600083815260200190815260200160002060009054906101000a900473ffffffffffffffffffffffffffffffffffffffff1673ffffffffffffffffffffffffffffffffffffffff1614156110615780838381518110611046576110456134a4565b5b602002602001018181525050818061105d906134d3565b9250505b808061106c906134d3565b915050610fbe565b508192505050919050565b60115481565b60076020528060005260406000206000915054906101000a900473ffffffffffffffffffffffffffffffffffffffff1681565b3373ffffffffffffffffffffffffffffffffffffffff166110d761158f565b73ffffffffffffffffffffffffffffffffffffffff161461112d576040517f08c379a000000000000000000000000000000000000000000000000000000000815260040161112490613484565b60405180910390fd5b80600f8190555050565b60006007600083815260200190815260200160002060009054906101000a900473ffffffffffffffffffffffffffffffffffffffff169050919050565b6000600860003373ffffffffffffffffffffffffffffffffffffffff1673ffffffffffffffffffffffffffffffffffffffff16815260200190815260200160002054146111f6576040517f08c379a00000000000000000000000000000000000000000000000000000000081526004016111ed90613568565b60405180910390fd5b6000611201826124fd565b9050600a8161121091906135b7565b8161121b9190613404565b9050611227828261253f565b5050565b806007600082815260200190815260200160002060009054906101000a900473ffffffffffffffffffffffffffffffffffffffff1673ffffffffffffffffffffffffffffffffffffffff163373ffffffffffffffffffffffffffffffffffffffff16146112cd576040517f08c379a00000000000000000000000000000000000000000000000000000000081526004016112c4906132e8565b60405180910390fd5b600a54341015611312576040517f08c379a0000000000000000000000000000000000000000000000000000000008152600401611309906133b5565b60405180910390fd5b60068281548110611326576113256134a4565b5b9060005260206000209060030201600201600481819054906101000a900463ffffffff1680929190611357906135e8565b91906101000a81548163ffffffff021916908363ffffffff160217905550505050565b60606000600d5467ffffffffffffffff81111561139a57611399612fde565b5b6040519080825280602002602001820160405280156113c85781602001602082028036833780820191505090505b5090506000805b60068054905081101561143d576000600c600083815260200190815260200160002060010154111561142a578083838151811061140f5761140e6134a4565b5b6020026020010181815250508180611426906134d3565b9250505b8080611435906134d3565b9150506113cf565b50819250505090565b6000600860008373ffffffffffffffffffffffffffffffffffffffff1673ffffffffffffffffffffffffffffffffffffffff168152602001908152602001600020549050919050565b3373ffffffffffffffffffffffffffffffffffffffff166114ae61158f565b73ffffffffffffffffffffffffffffffffffffffff1614611504576040517f08c379a00000000000000000000000000000000000000000000000000000000081526004016114fb90613484565b60405180910390fd5b61150e6000612781565b565b3373ffffffffffffffffffffffffffffffffffffffff1661152f61158f565b73ffffffffffffffffffffffffffffffffffffffff1614611585576040517f08c379a000000000000000000000000000000000000000000000000000000000815260040161157c90613484565b60405180910390fd5b8060118190555050565b60008060009054906101000a900473ffffffffffffffffffffffffffffffffffffffff16905090565b3373ffffffffffffffffffffffffffffffffffffffff166115d761158f565b73ffffffffffffffffffffffffffffffffffffffff161461162d576040517f08c379a000000000000000000000000000000000000000000000000000000000815260040161162490613484565b60405180910390fd5b8060048190555050565b6040518060400160405280600381526020017f4d435a000000000000000000000000000000000000000000000000000000000081525081565b600e5481565b60045481565b806007600082815260200190815260200160002060009054906101000a900473ffffffffffffffffffffffffffffffffffffffff1673ffffffffffffffffffffffffffffffffffffffff163373ffffffffffffffffffffffffffffffffffffffff161461171e576040517f08c379a0000000000000000000000000000000000000000000000000000000008152600401611715906132e8565b60405180910390fd5b611729338484612393565b505050565b3373ffffffffffffffffffffffffffffffffffffffff16600b600083815260200190815260200160002060009054906101000a900473ffffffffffffffffffffffffffffffffffffffff1673ffffffffffffffffffffffffffffffffffffffff161461179957600080fd5b60006117a482611137565b90506117b1813384612393565b5050565b60035481565b816007600082815260200190815260200160002060009054906101000a900473ffffffffffffffffffffffffffffffffffffffff1673ffffffffffffffffffffffffffffffffffffffff163373ffffffffffffffffffffffffffffffffffffffff161461185d576040517f08c379a0000000000000000000000000000000000000000000000000000000008152600401611854906132e8565b60405180910390fd5b600e54600f5461186d9190613615565b8210156118af576040517f08c379a00000000000000000000000000000000000000000000000000000000081526004016118a6906136b7565b60405180910390fd5b60405180604001604052803373ffffffffffffffffffffffffffffffffffffffff16815260200183815250600c600085815260200190815260200160002060008201518160000160006101000a81548173ffffffffffffffffffffffffffffffffffffffff021916908373ffffffffffffffffffffffffffffffffffffffff160217905550602082015181600101559050506001600d60008282546119549190613615565b925050819055503373ffffffffffffffffffffffffffffffffffffffff16837fb0a72715500d80dc04f72043ae2057be705c219c69eadadd7155ee8d750efb3360405160405180910390a3505050565b6000600860003373ffffffffffffffffffffffffffffffffffffffff1673ffffffffffffffffffffffffffffffffffffffff1681526020019081526020016000205411611a26576040517f08c379a0000000000000000000000000000000000000000000000000000000008152600401611a1d90613723565b60405180910390fd5b600454341015611a6b576040517f08c379a0000000000000000000000000000000000000000000000000000000008152600401611a629061378f565b60405180910390fd5b6000611a76826124fd565b90506001600a82611a8791906135b7565b82611a929190613404565b611a9c9190613615565b9050611aa8828261253f565b5050565b60003373ffffffffffffffffffffffffffffffffffffffff16611acd61158f565b73ffffffffffffffffffffffffffffffffffffffff1614611b23576040517f08c379a0000000000000000000000000000000000000000000000000000000008152600401611b1a90613484565b60405180910390fd5b47905090565b6002838160068281548110611b4157611b406134a4565b5b906000526020600020906003020160020160049054906101000a900463ffffffff1663ffffffff161015611baa576040517f08c379a0000000000000000000000000000000000000000000000000000000008152600401611ba1906137fb565b60405180910390fd5b846007600082815260200190815260200160002060009054906101000a900473ffffffffffffffffffffffffffffffffffffffff1673ffffffffffffffffffffffffffffffffffffffff163373ffffffffffffffffffffffffffffffffffffffff1614611c4c576040517f08c379a0000000000000000000000000000000000000000000000000000000008152600401611c43906132e8565b60405180910390fd5b848460068881548110611c6257611c616134a4565b5b90600052602060002090600302016000019190611c80929190612ad6565b50505050505050565b60096020528060005260406000206000915090505481565b600c6020528060005260406000206000915090508060000160009054906101000a900473ffffffffffffffffffffffffffffffffffffffff16908060010154905082565b6000826007600082815260200190815260200160002060009054906101000a900473ffffffffffffffffffffffffffffffffffffffff1673ffffffffffffffffffffffffffffffffffffffff163373ffffffffffffffffffffffffffffffffffffffff1614611d89576040517f08c379a0000000000000000000000000000000000000000000000000000000008152600401611d80906132e8565b60405180910390fd5b6007600084815260200190815260200160002060009054906101000a900473ffffffffffffffffffffffffffffffffffffffff1673ffffffffffffffffffffffffffffffffffffffff163373ffffffffffffffffffffffffffffffffffffffff161415611e2b576040517f08c379a0000000000000000000000000000000000000000000000000000000008152600401611e2290613867565b60405180910390fd5b600060068581548110611e4157611e406134a4565b5b90600052602060002090600302019050611e5a81612845565b611e99576040517f08c379a0000000000000000000000000000000000000000000000000000000008152600401611e90906138d3565b60405180910390fd5b600060068581548110611eaf57611eae6134a4565b5b906000526020600020906003020190506000611ecb606461286c565b90506011548111611fac5782600201600081819054906101000a900461ffff1680929190611ef8906138f3565b91906101000a81548161ffff021916908361ffff1602179055505082600201600481819054906101000a900463ffffffff1680929190611f37906135e8565b91906101000a81548163ffffffff021916908363ffffffff1602179055505081600201600281819054906101000a900461ffff1680929190611f78906138f3565b91906101000a81548161ffff021916908361ffff16021790555050611fa18783600101546128c8565b869450505050612036565b82600201600281819054906101000a900461ffff1680929190611fce906138f3565b91906101000a81548161ffff021916908361ffff1602179055505081600201600081819054906101000a900461ffff168092919061200b906138f3565b91906101000a81548161ffff021916908361ffff1602179055505061202f83612a7d565b8594505050505b5092915050565b600f5481565b3373ffffffffffffffffffffffffffffffffffffffff1661206261158f565b73ffffffffffffffffffffffffffffffffffffffff16146120b8576040517f08c379a00000000000000000000000000000000000000000000000000000000081526004016120af90613484565b60405180910390fd5b80600a8190555050565b3373ffffffffffffffffffffffffffffffffffffffff166120e161158f565b73ffffffffffffffffffffffffffffffffffffffff1614612137576040517f08c379a000000000000000000000000000000000000000000000000000000000815260040161212e90613484565b60405180910390fd5b600073ffffffffffffffffffffffffffffffffffffffff168173ffffffffffffffffffffffffffffffffffffffff1614156121a7576040517f08c379a000000000000000000000000000000000000000000000000000000000815260040161219e90613990565b60405180910390fd5b6121b081612781565b50565b806007600082815260200190815260200160002060009054906101000a900473ffffffffffffffffffffffffffffffffffffffff1673ffffffffffffffffffffffffffffffffffffffff163373ffffffffffffffffffffffffffffffffffffffff1614612255576040517f08c379a000000000000000000000000000000000000000000000000000000000815260040161224c906132e8565b60405180910390fd5b60006006838154811061226b5761226a6134a4565b5b9060005260206000209060030201905061228481612845565b6122c3576040517f08c379a00000000000000000000000000000000000000000000000000000000081526004016122ba906139fc565b60405180910390fd5b6009600084815260200190815260200160002060008154809291906122e7906134d3565b91905055506122f581612a7d565b6000600a600960008681526020019081526020016000205461231791906135b7565b141561238e5760006008600a836001015461233291906135b7565b83600101546123419190613404565b61234b9190613615565b905061238c6040518060400160405280600c81526020017f7a6f6d626965277320736f6e00000000000000000000000000000000000000008152508261253f565b505b505050565b6001600860008473ffffffffffffffffffffffffffffffffffffffff1673ffffffffffffffffffffffffffffffffffffffff16815260200190815260200160002060008282546123e39190613615565b925050819055506001600860008573ffffffffffffffffffffffffffffffffffffffff1673ffffffffffffffffffffffffffffffffffffffff168152602001908152602001600020600082825461243a9190613404565b92505081905550816007600083815260200190815260200160002060006101000a81548173ffffffffffffffffffffffffffffffffffffffff021916908373ffffffffffffffffffffffffffffffffffffffff1602179055508173ffffffffffffffffffffffffffffffffffffffff168373ffffffffffffffffffffffffffffffffffffffff167fddf252ad1be2c89b69c2b068fc378daa952ba7f163c4a11628f55a4df523b3ef836040516124f09190612cb7565b60405180910390a3505050565b60006002548242604051602001612515929190613a79565b6040516020818303038152906040528051906020012060001c61253891906135b7565b9050919050565b60066040518060c00160405280848152602001838152602001600061ffff168152602001600061ffff168152602001600163ffffffff168152602001600063ffffffff16815250908060018154018082558091505060019003906000526020600020906003020160009091909190915060008201518160000190805190602001906125cb929190612b5c565b506020820151816001015560408201518160020160006101000a81548161ffff021916908361ffff16021790555060608201518160020160026101000a81548161ffff021916908361ffff16021790555060808201518160020160046101000a81548163ffffffff021916908363ffffffff16021790555060a08201518160020160086101000a81548163ffffffff021916908363ffffffff1602179055505050600060016006805490506126809190613404565b9050336007600083815260200190815260200160002060006101000a81548173ffffffffffffffffffffffffffffffffffffffff021916908373ffffffffffffffffffffffffffffffffffffffff160217905550600860003373ffffffffffffffffffffffffffffffffffffffff1673ffffffffffffffffffffffffffffffffffffffff1681526020019081526020016000206000815480929190612724906134d3565b91905055506005600081548092919061273c906134d3565b91905055507f88f026aacbbecc90c18411df4b1185fd8d9be2470f1962f192bf84a27d0704b781848460405161277493929190613aa1565b60405180910390a1505050565b60008060009054906101000a900473ffffffffffffffffffffffffffffffffffffffff169050816000806101000a81548173ffffffffffffffffffffffffffffffffffffffff021916908373ffffffffffffffffffffffffffffffffffffffff1602179055508173ffffffffffffffffffffffffffffffffffffffff168173ffffffffffffffffffffffffffffffffffffffff167f8be0079c531659141344cd1fd0a4f28419497f9722a3daafe3b4186f6b6457e060405160405180910390a35050565b6000428260020160089054906101000a900463ffffffff1663ffffffff1611159050919050565b600060106000815480929190612881906134d3565b919050555081423360105460405160200161289e93929190613b27565b6040516020818303038152906040528051906020012060001c6128c191906135b7565b9050919050565b816007600082815260200190815260200160002060009054906101000a900473ffffffffffffffffffffffffffffffffffffffff1673ffffffffffffffffffffffffffffffffffffffff163373ffffffffffffffffffffffffffffffffffffffff161461296a576040517f08c379a0000000000000000000000000000000000000000000000000000000008152600401612961906132e8565b60405180910390fd5b6000600684815481106129805761297f6134a4565b5b9060005260206000209060030201905061299981612845565b6129d8576040517f08c379a00000000000000000000000000000000000000000000000000000000081526004016129cf906139fc565b60405180910390fd5b600254836129e691906135b7565b9250600060028483600101546129fc9190613615565b612a069190613b64565b90506009600a82612a1791906135b7565b82612a229190613404565b612a2c9190613615565b9050612a6d6040518060400160405280600681526020017f4e6f4e616d6500000000000000000000000000000000000000000000000000008152508261253f565b612a7682612a7d565b5050505050565b6201518060035442612a8f9190613615565b612a9991906135b7565b60035442612aa79190613615565b612ab19190613b95565b8160020160086101000a81548163ffffffff021916908363ffffffff16021790555050565b828054612ae290613337565b90600052602060002090601f016020900481019282612b045760008555612b4b565b82601f10612b1d57803560ff1916838001178555612b4b565b82800160010185558215612b4b579182015b82811115612b4a578235825591602001919060010190612b2f565b5b509050612b589190612be2565b5090565b828054612b6890613337565b90600052602060002090601f016020900481019282612b8a5760008555612bd1565b82601f10612ba357805160ff1916838001178555612bd1565b82800160010185558215612bd1579182015b82811115612bd0578251825591602001919060010190612bb5565b5b509050612bde9190612be2565b5090565b5b80821115612bfb576000816000905550600101612be3565b5090565b6000604051905090565b600080fd5b600080fd5b600073ffffffffffffffffffffffffffffffffffffffff82169050919050565b6000612c3e82612c13565b9050919050565b612c4e81612c33565b8114612c5957600080fd5b50565b600081359050612c6b81612c45565b92915050565b600060208284031215612c8757612c86612c09565b5b6000612c9584828501612c5c565b91505092915050565b6000819050919050565b612cb181612c9e565b82525050565b6000602082019050612ccc6000830184612ca8565b92915050565b600081519050919050565b600082825260208201905092915050565b60005b83811015612d0c578082015181840152602081019050612cf1565b83811115612d1b576000848401525b50505050565b6000601f19601f8301169050919050565b6000612d3d82612cd2565b612d478185612cdd565b9350612d57818560208601612cee565b612d6081612d21565b840191505092915050565b60006020820190508181036000830152612d858184612d32565b905092915050565b612d9681612c9e565b8114612da157600080fd5b50565b600081359050612db381612d8d565b92915050565b60008060408385031215612dd057612dcf612c09565b5b6000612dde85828601612c5c565b9250506020612def85828601612da4565b9150509250929050565b600060208284031215612e0f57612e0e612c09565b5b6000612e1d84828501612da4565b91505092915050565b600061ffff82169050919050565b612e3d81612e26565b82525050565b600063ffffffff82169050919050565b612e5c81612e43565b82525050565b600060c0820190508181036000830152612e7c8189612d32565b9050612e8b6020830188612ca8565b612e986040830187612e34565b612ea56060830186612e34565b612eb26080830185612e53565b612ebf60a0830184612e53565b979650505050505050565b600081519050919050565b600082825260208201905092915050565b6000819050602082019050919050565b612eff81612c9e565b82525050565b6000612f118383612ef6565b60208301905092915050565b6000602082019050919050565b6000612f3582612eca565b612f3f8185612ed5565b9350612f4a83612ee6565b8060005b83811015612f7b578151612f628882612f05565b9750612f6d83612f1d565b925050600181019050612f4e565b5085935050505092915050565b60006020820190508181036000830152612fa28184612f2a565b905092915050565b612fb381612c33565b82525050565b6000602082019050612fce6000830184612faa565b92915050565b600080fd5b600080fd5b7f4e487b7100000000000000000000000000000000000000000000000000000000600052604160045260246000fd5b61301682612d21565b810181811067ffffffffffffffff8211171561303557613034612fde565b5b80604052505050565b6000613048612bff565b9050613054828261300d565b919050565b600067ffffffffffffffff82111561307457613073612fde565b5b61307d82612d21565b9050602081019050919050565b82818337600083830152505050565b60006130ac6130a784613059565b61303e565b9050828152602081018484840111156130c8576130c7612fd9565b5b6130d384828561308a565b509392505050565b600082601f8301126130f0576130ef612fd4565b5b8135613100848260208601613099565b91505092915050565b60006020828403121561311f5761311e612c09565b5b600082013567ffffffffffffffff81111561313d5761313c612c0e565b5b613149848285016130db565b91505092915050565b6000806040838503121561316957613168612c09565b5b600061317785828601612da4565b925050602061318885828601612da4565b9150509250929050565b600080fd5b600080fd5b60008083601f8401126131b2576131b1612fd4565b5b8235905067ffffffffffffffff8111156131cf576131ce613192565b5b6020830191508360018202830111156131eb576131ea613197565b5b9250929050565b60008060006040848603121561320b5761320a612c09565b5b600061321986828701612da4565b935050602084013567ffffffffffffffff81111561323a57613239612c0e565b5b6132468682870161319c565b92509250509250925092565b600061325d82612c13565b9050919050565b61326d81613252565b82525050565b60006040820190506132886000830185613264565b6132956020830184612ca8565b9392505050565b7f5a6f6d626965206973206e6f7420796f75727300000000000000000000000000600082015250565b60006132d2601383612cdd565b91506132dd8261329c565b602082019050919050565b60006020820190508181036000830152613301816132c5565b9050919050565b7f4e487b7100000000000000000000000000000000000000000000000000000000600052602260045260246000fd5b6000600282049050600182168061334f57607f821691505b6020821081141561336357613362613308565b5b50919050565b7f4e6f20656e6f756768206d6f6e65790000000000000000000000000000000000600082015250565b600061339f600f83612cdd565b91506133aa82613369565b602082019050919050565b600060208201905081810360008301526133ce81613392565b9050919050565b7f4e487b7100000000000000000000000000000000000000000000000000000000600052601160045260246000fd5b600061340f82612c9e565b915061341a83612c9e565b92508282101561342d5761342c6133d5565b5b828203905092915050565b7f4f776e61626c653a2063616c6c6572206973206e6f7420746865206f776e6572600082015250565b600061346e602083612cdd565b915061347982613438565b602082019050919050565b6000602082019050818103600083015261349d81613461565b9050919050565b7f4e487b7100000000000000000000000000000000000000000000000000000000600052603260045260246000fd5b60006134de82612c9e565b91507fffffffffffffffffffffffffffffffffffffffffffffffffffffffffffffffff821415613511576135106133d5565b5b600182019050919050565b7f5265737472696374656420746f2072656365697665206f6e6500000000000000600082015250565b6000613552601983612cdd565b915061355d8261351c565b602082019050919050565b6000602082019050818103600083015261358181613545565b9050919050565b7f4e487b7100000000000000000000000000000000000000000000000000000000600052601260045260246000fd5b60006135c282612c9e565b91506135cd83612c9e565b9250826135dd576135dc613588565b5b828206905092915050565b60006135f382612e43565b915063ffffffff82141561360a576136096133d5565b5b600182019050919050565b600061362082612c9e565b915061362b83612c9e565b9250827fffffffffffffffffffffffffffffffffffffffffffffffffffffffffffffffff038211156136605761365f6133d5565b5b828201905092915050565b7f596f7572207072696365206d757374203e206d696e50726963652b7461780000600082015250565b60006136a1601e83612cdd565b91506136ac8261366b565b602082019050919050565b600060208201905081810360008301526136d081613694565b9050919050565b7f506c6561736520676f20616e6420676574206f6e6520666f7220667265650000600082015250565b600061370d601e83612cdd565b9150613718826136d7565b602082019050919050565b6000602082019050818103600083015261373c81613700565b9050919050565b7f496e73756666696369656e7420707572636861736520616d6f756e7400000000600082015250565b6000613779601c83612cdd565b915061378482613743565b602082019050919050565b600060208201905081810360008301526137a88161376c565b9050919050565b7f4c6576656c206973206e6f742073756666696369656e74000000000000000000600082015250565b60006137e5601783612cdd565b91506137f0826137af565b602082019050919050565b60006020820190508181036000830152613814816137d8565b9050919050565b7f54686520746172676574207a6f6d62696520697320796f757273210000000000600082015250565b6000613851601b83612cdd565b915061385c8261381b565b602082019050919050565b6000602082019050818103600083015261388081613844565b9050919050565b7f596f7572207a6f6d626965206973206e6f742072656164792100000000000000600082015250565b60006138bd601983612cdd565b91506138c882613887565b602082019050919050565b600060208201905081810360008301526138ec816138b0565b9050919050565b60006138fe82612e26565b915061ffff821415613913576139126133d5565b5b600182019050919050565b7f4f776e61626c653a206e6577206f776e657220697320746865207a65726f206160008201527f6464726573730000000000000000000000000000000000000000000000000000602082015250565b600061397a602683612cdd565b91506139858261391e565b604082019050919050565b600060208201905081810360008301526139a98161396d565b9050919050565b7f5a6f6d626965206973206e6f7420726561647900000000000000000000000000600082015250565b60006139e6601383612cdd565b91506139f1826139b0565b602082019050919050565b60006020820190508181036000830152613a15816139d9565b9050919050565b600081905092915050565b6000613a3282612cd2565b613a3c8185613a1c565b9350613a4c818560208601612cee565b80840191505092915050565b6000819050919050565b613a73613a6e82612c9e565b613a58565b82525050565b6000613a858285613a27565b9150613a918284613a62565b6020820191508190509392505050565b6000606082019050613ab66000830186612ca8565b8181036020830152613ac88185612d32565b9050613ad76040830184612ca8565b949350505050565b60008160601b9050919050565b6000613af782613adf565b9050919050565b6000613b0982613aec565b9050919050565b613b21613b1c82612c33565b613afe565b82525050565b6000613b338286613a62565b602082019150613b438285613b10565b601482019150613b538284613a62565b602082019150819050949350505050565b6000613b6f82612c9e565b9150613b7a83612c9e565b925082613b8a57613b89613588565b5b828204905092915050565b6000613ba082612e43565b9150613bab83612e43565b925082821015613bbe57613bbd6133d5565b5b82820390509291505056fea26469706673582212207932b65a766a78e398ac420bb9c39b126fa19c80c58447dbb2a179ec52e221cd64736f6c634300080a0033",
  "immutableReferences": {},
  "source": "// SPDX-License-Identifier: MIT\npragma solidity ^0.8.0;\n\nimport \"./ZombieMarket.sol\";\nimport \"./ZombieFeeding.sol\";\nimport \"./ZombieAttack.sol\";\n\n//\ncontract ZombieCore is ZombieMarket, ZombieFeeding, ZombieAttack {\n    string public constant name = \"MyCryptoZombie\";\n    string public constant symbol = \"MCZ\";\n\n    receive() external payable {}\n\n    function withdraw() external onlyOwner {\n        payable(owner()).transfer(address(this).balance);\n    }\n\n    function balance() external view onlyOwner returns (uint256) {\n        return address(this).balance;\n    }\n}\n",
  "sourcePath": "/Users/q/study/ethereum/game-zombie/contracts/ZombieCore.sol",
  "compiler": {
    "name": "solc",
    "version": "0.8.10+commit.fc410830.Emscripten.clang"
  },
  "schemaVersion": "3.4.1",
  "updatedAt": "2021-12-15T12:28:07.494Z",
  "networkType": "ethereum",
  "devdoc": {
    "kind": "dev",
    "methods": {
      "owner()": {
        "details": "Returns the address of the current owner."
      },
      "renounceOwnership()": {
        "details": "Leaves the contract without owner. It will not be possible to call `onlyOwner` functions anymore. Can only be called by the current owner. NOTE: Renouncing ownership will leave the contract without an owner, thereby removing any functionality that is only available to the owner."
      },
      "transferOwnership(address)": {
        "details": "Transfers ownership of the contract to a new account (`newOwner`). Can only be called by the current owner."
      }
    },
    "version": 1
  },
  "userdoc": {
    "kind": "user",
    "methods": {},
    "version": 1
  }
}