{
  "contractName": "ZombieOwnership",
  "abi": [
    {
      "anonymous": false,
      "inputs": [
        {
          "indexed": true,
          "internalType": "address",
          "name": "_owner",
          "type": "address"
        },
        {
          "indexed": true,
          "internalType": "address",
          "name": "_approved",
          "type": "address"
        },
        {
          "indexed": false,
          "internalType": "uint256",
          "name": "_tokenId",
          "type": "uint256"
        }
      ],
      "name": "Approval",
      "type": "event"
    },
    {
      "anonymous": false,
      "inputs": [
        {
          "indexed": false,
          "internalType": "uint256",
          "name": "zombieId",
          "type": "uint256"
        },
        {
          "indexed": false,
          "internalType": "string",
          "name": "name",
          "type": "string"
        },
        {
          "indexed": false,
          "internalType": "uint256",
          "name": "dna",
          "type": "uint256"
        }
      ],
      "name": "NewZombie",
      "type": "event"
    },
    {
      "anonymous": false,
      "inputs": [
        {
          "indexed": true,
          "internalType": "address",
          "name": "previousOwner",
          "type": "address"
        },
        {
          "indexed": true,
          "internalType": "address",
          "name": "newOwner",
          "type": "address"
        }
      ],
      "name": "OwnershipTransferred",
      "type": "event"
    },
    {
      "anonymous": false,
      "inputs": [
        {
          "indexed": true,
          "internalType": "address",
          "name": "_from",
          "type": "address"
        },
        {
          "indexed": true,
          "internalType": "address",
          "name": "_to",
          "type": "address"
        },
        {
          "indexed": false,
          "internalType": "uint256",
          "name": "_tokenId",
          "type": "uint256"
        }
      ],
      "name": "Transfer",
      "type": "event"
    },
    {
      "inputs": [
        {
          "internalType": "string",
          "name": "_name",
          "type": "string"
        }
      ],
      "name": "buyZombie",
      "outputs": [],
      "stateMutability": "payable",
      "type": "function"
    },
    {
      "inputs": [
        {
          "internalType": "uint256",
          "name": "_zombieId",
          "type": "uint256"
        },
        {
          "internalType": "string",
          "name": "_newName",
          "type": "string"
        }
      ],
      "name": "changeName",
      "outputs": [],
      "stateMutability": "nonpayable",
      "type": "function"
    },
    {
      "inputs": [],
      "name": "cooldownTime",
      "outputs": [
        {
          "internalType": "uint256",
          "name": "",
          "type": "uint256"
        }
      ],
      "stateMutability": "view",
      "type": "function"
    },
    {
      "inputs": [
        {
          "internalType": "string",
          "name": "_name",
          "type": "string"
        }
      ],
      "name": "freeZombie",
      "outputs": [],
      "stateMutability": "nonpayable",
      "type": "function"
    },
    {
      "inputs": [
        {
          "internalType": "address",
          "name": "_owner",
          "type": "address"
        }
      ],
      "name": "getZombiesByOwner",
      "outputs": [
        {
          "internalType": "uint256[]",
          "name": "",
          "type": "uint256[]"
        }
      ],
      "stateMutability": "view",
      "type": "function"
    },
    {
      "inputs": [
        {
          "internalType": "uint256",
          "name": "_zombieId",
          "type": "uint256"
        }
      ],
      "name": "levelup",
      "outputs": [],
      "stateMutability": "payable",
      "type": "function"
    },
    {
      "inputs": [],
      "name": "levelupFee",
      "outputs": [
        {
          "internalType": "uint256",
          "name": "",
          "type": "uint256"
        }
      ],
      "stateMutability": "view",
      "type": "function"
    },
    {
      "inputs": [],
      "name": "owner",
      "outputs": [
        {
          "internalType": "address",
          "name": "",
          "type": "address"
        }
      ],
      "stateMutability": "view",
      "type": "function"
    },
    {
      "inputs": [
        {
          "internalType": "address",
          "name": "",
          "type": "address"
        }
      ],
      "name": "ownerZombieCount",
      "outputs": [
        {
          "internalType": "uint256",
          "name": "",
          "type": "uint256"
        }
      ],
      "stateMutability": "view",
      "type": "function"
    },
    {
      "inputs": [],
      "name": "price",
      "outputs": [
        {
          "internalType": "uint256",
          "name": "",
          "type": "uint256"
        }
      ],
      "stateMutability": "view",
      "type": "function"
    },
    {
      "inputs": [],
      "name": "renounceOwnership",
      "outputs": [],
      "stateMutability": "nonpayable",
      "type": "function"
    },
    {
      "inputs": [
        {
          "internalType": "uint256",
          "name": "_fee",
          "type": "uint256"
        }
      ],
      "name": "setLevelupFee",
      "outputs": [],
      "stateMutability": "nonpayable",
      "type": "function"
    },
    {
      "inputs": [
        {
          "internalType": "uint256",
          "name": "_price",
          "type": "uint256"
        }
      ],
      "name": "setPrice",
      "outputs": [],
      "stateMutability": "nonpayable",
      "type": "function"
    },
    {
      "inputs": [],
      "name": "total",
      "outputs": [
        {
          "internalType": "uint256",
          "name": "",
          "type": "uint256"
        }
      ],
      "stateMutability": "view",
      "type": "function"
    },
    {
      "inputs": [
        {
          "internalType": "address",
          "name": "newOwner",
          "type": "address"
        }
      ],
      "name": "transferOwnership",
      "outputs": [],
      "stateMutability": "nonpayable",
      "type": "function"
    },
    {
      "inputs": [
        {
          "internalType": "uint256",
          "name": "",
          "type": "uint256"
        }
      ],
      "name": "zombieFeedCount",
      "outputs": [
        {
          "internalType": "uint256",
          "name": "",
          "type": "uint256"
        }
      ],
      "stateMutability": "view",
      "type": "function"
    },
    {
      "inputs": [
        {
          "internalType": "uint256",
          "name": "",
          "type": "uint256"
        }
      ],
      "name": "zombieToOwner",
      "outputs": [
        {
          "internalType": "address",
          "name": "",
          "type": "address"
        }
      ],
      "stateMutability": "view",
      "type": "function"
    },
    {
      "inputs": [
        {
          "internalType": "uint256",
          "name": "",
          "type": "uint256"
        }
      ],
      "name": "zombies",
      "outputs": [
        {
          "internalType": "string",
          "name": "name",
          "type": "string"
        },
        {
          "internalType": "uint256",
          "name": "dna",
          "type": "uint256"
        },
        {
          "internalType": "uint16",
          "name": "winCount",
          "type": "uint16"
        },
        {
          "internalType": "uint16",
          "name": "loseCount",
          "type": "uint16"
        },
        {
          "internalType": "uint32",
          "name": "level",
          "type": "uint32"
        },
        {
          "internalType": "uint32",
          "name": "readyTime",
          "type": "uint32"
        }
      ],
      "stateMutability": "view",
      "type": "function"
    },
    {
      "inputs": [
        {
          "internalType": "address",
          "name": "_owner",
          "type": "address"
        }
      ],
      "name": "balanceOf",
      "outputs": [
        {
          "internalType": "uint256",
          "name": "_balance",
          "type": "uint256"
        }
      ],
      "stateMutability": "view",
      "type": "function"
    },
    {
      "inputs": [
        {
          "internalType": "uint256",
          "name": "_tokenId",
          "type": "uint256"
        }
      ],
      "name": "ownerOf",
      "outputs": [
        {
          "internalType": "address",
          "name": "_owner",
          "type": "address"
        }
      ],
      "stateMutability": "view",
      "type": "function"
    },
    {
      "inputs": [
        {
          "internalType": "address",
          "name": "_to",
          "type": "address"
        },
        {
          "internalType": "uint256",
          "name": "_tokenId",
          "type": "uint256"
        }
      ],
      "name": "transfer",
      "outputs": [],
      "stateMutability": "nonpayable",
      "type": "function"
    },
    {
      "inputs": [
        {
          "internalType": "address",
          "name": "_to",
          "type": "address"
        },
        {
          "internalType": "uint256",
          "name": "_tokenId",
          "type": "uint256"
        }
      ],
      "name": "approve",
      "outputs": [],
      "stateMutability": "nonpayable",
      "type": "function"
    },
    {
      "inputs": [
        {
          "internalType": "uint256",
          "name": "_tokenId",
          "type": "uint256"
        }
      ],
      "name": "takeOwnership",
      "outputs": [],
      "stateMutability": "nonpayable",
      "type": "function"
    }
  ],
  "bytecode": "0x60806040526010600155600154600a6200001a9190620002b5565b60025562015180600355662386f26fc10000600455600060055566038d7ea4c68000600a553480156200004c57600080fd5b506200005e336200006460201b60201c565b62000306565b60008060009054906101000a900473ffffffffffffffffffffffffffffffffffffffff169050816000806101000a81548173ffffffffffffffffffffffffffffffffffffffff021916908373ffffffffffffffffffffffffffffffffffffffff1602179055508173ffffffffffffffffffffffffffffffffffffffff168173ffffffffffffffffffffffffffffffffffffffff167f8be0079c531659141344cd1fd0a4f28419497f9722a3daafe3b4186f6b6457e060405160405180910390a35050565b7f4e487b7100000000000000000000000000000000000000000000000000000000600052601160045260246000fd5b60008160011c9050919050565b6000808291508390505b6001851115620001b6578086048111156200018e576200018d62000128565b5b60018516156200019e5780820291505b8081029050620001ae8562000157565b94506200016e565b94509492505050565b600082620001d15760019050620002a4565b81620001e15760009050620002a4565b8160018114620001fa576002811462000205576200023b565b6001915050620002a4565b60ff8411156200021a576200021962000128565b5b8360020a91508482111562000234576200023362000128565b5b50620002a4565b5060208310610133831016604e8410600b8410161715620002755782820a9050838111156200026f576200026e62000128565b5b620002a4565b62000284848484600162000164565b925090508184048111156200029e576200029d62000128565b5b81810290505b9392505050565b6000819050919050565b6000620002c282620002ab565b9150620002cf83620002ab565b9250620002fe7fffffffffffffffffffffffffffffffffffffffffffffffffffffffffffffffff8484620001bf565b905092915050565b6124cf80620003166000396000f3fe6080604052600436106101405760003560e01c8063715018a6116100b6578063b319c6b71161006f578063b319c6b714610464578063b3f0ddb91461048f578063c39cbef1146104ab578063d2146f6a146104d4578063f242da1214610511578063f2fde38b1461053a57610140565b8063715018a61461037c5780638da5cb5b1461039357806391b7f5ed146103be578063a035b1fe146103e7578063a9059cbb14610412578063b2e6ceeb1461043b57610140565b80634412e104116101085780634412e10414610243578063528b7b8f146102805780636352211e146102bd57806368b429bb146102fa5780636cb80c6f1461032357806370a082311461033f57610140565b806301afd7e11461014557806306748d4414610182578063095ea7b3146101ad5780632052465e146101d65780632ddbd13a14610218575b600080fd5b34801561015157600080fd5b5061016c600480360381019061016791906118b2565b610563565b60405161017991906118f8565b60405180910390f35b34801561018e57600080fd5b5061019761057b565b6040516101a491906118f8565b60405180910390f35b3480156101b957600080fd5b506101d460048036038101906101cf919061193f565b610581565b005b3480156101e257600080fd5b506101fd60048036038101906101f8919061197f565b6106df565b60405161020f96959493929190611a81565b60405180910390f35b34801561022457600080fd5b5061022d6107ef565b60405161023a91906118f8565b60405180910390f35b34801561024f57600080fd5b5061026a600480360381019061026591906118b2565b6107f5565b6040516102779190611ba7565b60405180910390f35b34801561028c57600080fd5b506102a760048036038101906102a2919061197f565b610948565b6040516102b49190611bd8565b60405180910390f35b3480156102c957600080fd5b506102e460048036038101906102df919061197f565b61097b565b6040516102f19190611bd8565b60405180910390f35b34801561030657600080fd5b50610321600480360381019061031c9190611d28565b6109b8565b005b61033d6004803603810190610338919061197f565b610a6f565b005b34801561034b57600080fd5b50610366600480360381019061036191906118b2565b610bbe565b60405161037391906118f8565b60405180910390f35b34801561038857600080fd5b50610391610c07565b005b34801561039f57600080fd5b506103a8610c88565b6040516103b59190611bd8565b60405180910390f35b3480156103ca57600080fd5b506103e560048036038101906103e0919061197f565b610cb1565b005b3480156103f357600080fd5b506103fc610d30565b60405161040991906118f8565b60405180910390f35b34801561041e57600080fd5b506104396004803603810190610434919061193f565b610d36565b005b34801561044757600080fd5b50610462600480360381019061045d919061197f565b610de8565b005b34801561047057600080fd5b50610479610e6f565b60405161048691906118f8565b60405180910390f35b6104a960048036038101906104a49190611d28565b610e75565b005b3480156104b757600080fd5b506104d260048036038101906104cd9190611dd1565b610f7d565b005b3480156104e057600080fd5b506104fb60048036038101906104f6919061197f565b6110dd565b60405161050891906118f8565b60405180910390f35b34801561051d57600080fd5b506105386004803603810190610533919061197f565b6110f5565b005b34801561054657600080fd5b50610561600480360381019061055c91906118b2565b611174565b005b60086020528060005260406000206000915090505481565b600a5481565b806007600082815260200190815260200160002060009054906101000a900473ffffffffffffffffffffffffffffffffffffffff1673ffffffffffffffffffffffffffffffffffffffff163373ffffffffffffffffffffffffffffffffffffffff1614610623576040517f08c379a000000000000000000000000000000000000000000000000000000000815260040161061a90611e7d565b60405180910390fd5b82600b600084815260200190815260200160002060006101000a81548173ffffffffffffffffffffffffffffffffffffffff021916908373ffffffffffffffffffffffffffffffffffffffff1602179055508273ffffffffffffffffffffffffffffffffffffffff163373ffffffffffffffffffffffffffffffffffffffff167f8c5be1e5ebec7d5bd14f71427d1e84f3dd0314c0f7b2291e5b200ac8c7c3b925846040516106d291906118f8565b60405180910390a3505050565b600681815481106106ef57600080fd5b906000526020600020906003020160009150905080600001805461071290611ecc565b80601f016020809104026020016040519081016040528092919081815260200182805461073e90611ecc565b801561078b5780601f106107605761010080835404028352916020019161078b565b820191906000526020600020905b81548152906001019060200180831161076e57829003601f168201915b5050505050908060010154908060020160009054906101000a900461ffff16908060020160029054906101000a900461ffff16908060020160049054906101000a900463ffffffff16908060020160089054906101000a900463ffffffff16905086565b60055481565b60606000600860008473ffffffffffffffffffffffffffffffffffffffff1673ffffffffffffffffffffffffffffffffffffffff1681526020019081526020016000205467ffffffffffffffff81111561085257610851611bfd565b5b6040519080825280602002602001820160405280156108805781602001602082028036833780820191505090505b5090506000805b60068054905081101561093d578473ffffffffffffffffffffffffffffffffffffffff166007600083815260200190815260200160002060009054906101000a900473ffffffffffffffffffffffffffffffffffffffff1673ffffffffffffffffffffffffffffffffffffffff16141561092a578083838151811061090f5761090e611efe565b5b602002602001018181525050818061092690611f5c565b9250505b808061093590611f5c565b915050610887565b508192505050919050565b60076020528060005260406000206000915054906101000a900473ffffffffffffffffffffffffffffffffffffffff1681565b60006007600083815260200190815260200160002060009054906101000a900473ffffffffffffffffffffffffffffffffffffffff169050919050565b6000600860003373ffffffffffffffffffffffffffffffffffffffff1673ffffffffffffffffffffffffffffffffffffffff1681526020019081526020016000205414610a3a576040517f08c379a0000000000000000000000000000000000000000000000000000000008152600401610a3190611ff1565b60405180910390fd5b6000610a4582611265565b9050600a81610a549190612040565b81610a5f9190612071565b9050610a6b82826112a7565b5050565b806007600082815260200190815260200160002060009054906101000a900473ffffffffffffffffffffffffffffffffffffffff1673ffffffffffffffffffffffffffffffffffffffff163373ffffffffffffffffffffffffffffffffffffffff1614610b11576040517f08c379a0000000000000000000000000000000000000000000000000000000008152600401610b0890611e7d565b60405180910390fd5b600a54341015610b56576040517f08c379a0000000000000000000000000000000000000000000000000000000008152600401610b4d906120f1565b60405180910390fd5b60068281548110610b6a57610b69611efe565b5b9060005260206000209060030201600201600481819054906101000a900463ffffffff1680929190610b9b90612111565b91906101000a81548163ffffffff021916908363ffffffff160217905550505050565b6000600860008373ffffffffffffffffffffffffffffffffffffffff1673ffffffffffffffffffffffffffffffffffffffff168152602001908152602001600020549050919050565b3373ffffffffffffffffffffffffffffffffffffffff16610c26610c88565b73ffffffffffffffffffffffffffffffffffffffff1614610c7c576040517f08c379a0000000000000000000000000000000000000000000000000000000008152600401610c739061218a565b60405180910390fd5b610c8660006114e9565b565b60008060009054906101000a900473ffffffffffffffffffffffffffffffffffffffff16905090565b3373ffffffffffffffffffffffffffffffffffffffff16610cd0610c88565b73ffffffffffffffffffffffffffffffffffffffff1614610d26576040517f08c379a0000000000000000000000000000000000000000000000000000000008152600401610d1d9061218a565b60405180910390fd5b8060048190555050565b60045481565b806007600082815260200190815260200160002060009054906101000a900473ffffffffffffffffffffffffffffffffffffffff1673ffffffffffffffffffffffffffffffffffffffff163373ffffffffffffffffffffffffffffffffffffffff1614610dd8576040517f08c379a0000000000000000000000000000000000000000000000000000000008152600401610dcf90611e7d565b60405180910390fd5b610de33384846115ad565b505050565b3373ffffffffffffffffffffffffffffffffffffffff16600b600083815260200190815260200160002060009054906101000a900473ffffffffffffffffffffffffffffffffffffffff1673ffffffffffffffffffffffffffffffffffffffff1614610e5357600080fd5b6000610e5e8261097b565b9050610e6b8133846115ad565b5050565b60035481565b6000600860003373ffffffffffffffffffffffffffffffffffffffff1673ffffffffffffffffffffffffffffffffffffffff1681526020019081526020016000205411610ef7576040517f08c379a0000000000000000000000000000000000000000000000000000000008152600401610eee906121f6565b60405180910390fd5b600454341015610f3c576040517f08c379a0000000000000000000000000000000000000000000000000000000008152600401610f3390612262565b60405180910390fd5b6000610f4782611265565b90506001600a82610f589190612040565b82610f639190612071565b610f6d9190612282565b9050610f7982826112a7565b5050565b6002838160068281548110610f9557610f94611efe565b5b906000526020600020906003020160020160049054906101000a900463ffffffff1663ffffffff161015610ffe576040517f08c379a0000000000000000000000000000000000000000000000000000000008152600401610ff590612324565b60405180910390fd5b846007600082815260200190815260200160002060009054906101000a900473ffffffffffffffffffffffffffffffffffffffff1673ffffffffffffffffffffffffffffffffffffffff163373ffffffffffffffffffffffffffffffffffffffff16146110a0576040517f08c379a000000000000000000000000000000000000000000000000000000000815260040161109790611e7d565b60405180910390fd5b8484600688815481106110b6576110b5611efe565b5b906000526020600020906003020160000191906110d4929190611717565b50505050505050565b60096020528060005260406000206000915090505481565b3373ffffffffffffffffffffffffffffffffffffffff16611114610c88565b73ffffffffffffffffffffffffffffffffffffffff161461116a576040517f08c379a00000000000000000000000000000000000000000000000000000000081526004016111619061218a565b60405180910390fd5b80600a8190555050565b3373ffffffffffffffffffffffffffffffffffffffff16611193610c88565b73ffffffffffffffffffffffffffffffffffffffff16146111e9576040517f08c379a00000000000000000000000000000000000000000000000000000000081526004016111e09061218a565b60405180910390fd5b600073ffffffffffffffffffffffffffffffffffffffff168173ffffffffffffffffffffffffffffffffffffffff161415611259576040517f08c379a0000000000000000000000000000000000000000000000000000000008152600401611250906123b6565b60405180910390fd5b611262816114e9565b50565b6000600254824260405160200161127d929190612433565b6040516020818303038152906040528051906020012060001c6112a09190612040565b9050919050565b60066040518060c00160405280848152602001838152602001600061ffff168152602001600061ffff168152602001600163ffffffff168152602001600063ffffffff168152509080600181540180825580915050600190039060005260206000209060030201600090919091909150600082015181600001908051906020019061133392919061179d565b506020820151816001015560408201518160020160006101000a81548161ffff021916908361ffff16021790555060608201518160020160026101000a81548161ffff021916908361ffff16021790555060808201518160020160046101000a81548163ffffffff021916908363ffffffff16021790555060a08201518160020160086101000a81548163ffffffff021916908363ffffffff1602179055505050600060016006805490506113e89190612071565b9050336007600083815260200190815260200160002060006101000a81548173ffffffffffffffffffffffffffffffffffffffff021916908373ffffffffffffffffffffffffffffffffffffffff160217905550600860003373ffffffffffffffffffffffffffffffffffffffff1673ffffffffffffffffffffffffffffffffffffffff168152602001908152602001600020600081548092919061148c90611f5c565b9190505550600560008154809291906114a490611f5c565b91905055507f88f026aacbbecc90c18411df4b1185fd8d9be2470f1962f192bf84a27d0704b78184846040516114dc9392919061245b565b60405180910390a1505050565b60008060009054906101000a900473ffffffffffffffffffffffffffffffffffffffff169050816000806101000a81548173ffffffffffffffffffffffffffffffffffffffff021916908373ffffffffffffffffffffffffffffffffffffffff1602179055508173ffffffffffffffffffffffffffffffffffffffff168173ffffffffffffffffffffffffffffffffffffffff167f8be0079c531659141344cd1fd0a4f28419497f9722a3daafe3b4186f6b6457e060405160405180910390a35050565b6001600860008473ffffffffffffffffffffffffffffffffffffffff1673ffffffffffffffffffffffffffffffffffffffff16815260200190815260200160002060008282546115fd9190612282565b925050819055506001600860008573ffffffffffffffffffffffffffffffffffffffff1673ffffffffffffffffffffffffffffffffffffffff16815260200190815260200160002060008282546116549190612071565b92505081905550816007600083815260200190815260200160002060006101000a81548173ffffffffffffffffffffffffffffffffffffffff021916908373ffffffffffffffffffffffffffffffffffffffff1602179055508173ffffffffffffffffffffffffffffffffffffffff168373ffffffffffffffffffffffffffffffffffffffff167fddf252ad1be2c89b69c2b068fc378daa952ba7f163c4a11628f55a4df523b3ef8360405161170a91906118f8565b60405180910390a3505050565b82805461172390611ecc565b90600052602060002090601f016020900481019282611745576000855561178c565b82601f1061175e57803560ff191683800117855561178c565b8280016001018555821561178c579182015b8281111561178b578235825591602001919060010190611770565b5b5090506117999190611823565b5090565b8280546117a990611ecc565b90600052602060002090601f0160209004810192826117cb5760008555611812565b82601f106117e457805160ff1916838001178555611812565b82800160010185558215611812579182015b828111156118115782518255916020019190600101906117f6565b5b50905061181f9190611823565b5090565b5b8082111561183c576000816000905550600101611824565b5090565b6000604051905090565b600080fd5b600080fd5b600073ffffffffffffffffffffffffffffffffffffffff82169050919050565b600061187f82611854565b9050919050565b61188f81611874565b811461189a57600080fd5b50565b6000813590506118ac81611886565b92915050565b6000602082840312156118c8576118c761184a565b5b60006118d68482850161189d565b91505092915050565b6000819050919050565b6118f2816118df565b82525050565b600060208201905061190d60008301846118e9565b92915050565b61191c816118df565b811461192757600080fd5b50565b60008135905061193981611913565b92915050565b600080604083850312156119565761195561184a565b5b60006119648582860161189d565b92505060206119758582860161192a565b9150509250929050565b6000602082840312156119955761199461184a565b5b60006119a38482850161192a565b91505092915050565b600081519050919050565b600082825260208201905092915050565b60005b838110156119e65780820151818401526020810190506119cb565b838111156119f5576000848401525b50505050565b6000601f19601f8301169050919050565b6000611a17826119ac565b611a2181856119b7565b9350611a318185602086016119c8565b611a3a816119fb565b840191505092915050565b600061ffff82169050919050565b611a5c81611a45565b82525050565b600063ffffffff82169050919050565b611a7b81611a62565b82525050565b600060c0820190508181036000830152611a9b8189611a0c565b9050611aaa60208301886118e9565b611ab76040830187611a53565b611ac46060830186611a53565b611ad16080830185611a72565b611ade60a0830184611a72565b979650505050505050565b600081519050919050565b600082825260208201905092915050565b6000819050602082019050919050565b611b1e816118df565b82525050565b6000611b308383611b15565b60208301905092915050565b6000602082019050919050565b6000611b5482611ae9565b611b5e8185611af4565b9350611b6983611b05565b8060005b83811015611b9a578151611b818882611b24565b9750611b8c83611b3c565b925050600181019050611b6d565b5085935050505092915050565b60006020820190508181036000830152611bc18184611b49565b905092915050565b611bd281611874565b82525050565b6000602082019050611bed6000830184611bc9565b92915050565b600080fd5b600080fd5b7f4e487b7100000000000000000000000000000000000000000000000000000000600052604160045260246000fd5b611c35826119fb565b810181811067ffffffffffffffff82111715611c5457611c53611bfd565b5b80604052505050565b6000611c67611840565b9050611c738282611c2c565b919050565b600067ffffffffffffffff821115611c9357611c92611bfd565b5b611c9c826119fb565b9050602081019050919050565b82818337600083830152505050565b6000611ccb611cc684611c78565b611c5d565b905082815260208101848484011115611ce757611ce6611bf8565b5b611cf2848285611ca9565b509392505050565b600082601f830112611d0f57611d0e611bf3565b5b8135611d1f848260208601611cb8565b91505092915050565b600060208284031215611d3e57611d3d61184a565b5b600082013567ffffffffffffffff811115611d5c57611d5b61184f565b5b611d6884828501611cfa565b91505092915050565b600080fd5b600080fd5b60008083601f840112611d9157611d90611bf3565b5b8235905067ffffffffffffffff811115611dae57611dad611d71565b5b602083019150836001820283011115611dca57611dc9611d76565b5b9250929050565b600080600060408486031215611dea57611de961184a565b5b6000611df88682870161192a565b935050602084013567ffffffffffffffff811115611e1957611e1861184f565b5b611e2586828701611d7b565b92509250509250925092565b7f5a6f6d626965206973206e6f7420796f75727300000000000000000000000000600082015250565b6000611e676013836119b7565b9150611e7282611e31565b602082019050919050565b60006020820190508181036000830152611e9681611e5a565b9050919050565b7f4e487b7100000000000000000000000000000000000000000000000000000000600052602260045260246000fd5b60006002820490506001821680611ee457607f821691505b60208210811415611ef857611ef7611e9d565b5b50919050565b7f4e487b7100000000000000000000000000000000000000000000000000000000600052603260045260246000fd5b7f4e487b7100000000000000000000000000000000000000000000000000000000600052601160045260246000fd5b6000611f67826118df565b91507fffffffffffffffffffffffffffffffffffffffffffffffffffffffffffffffff821415611f9a57611f99611f2d565b5b600182019050919050565b7f5265737472696374656420746f2072656365697665206f6e6500000000000000600082015250565b6000611fdb6019836119b7565b9150611fe682611fa5565b602082019050919050565b6000602082019050818103600083015261200a81611fce565b9050919050565b7f4e487b7100000000000000000000000000000000000000000000000000000000600052601260045260246000fd5b600061204b826118df565b9150612056836118df565b92508261206657612065612011565b5b828206905092915050565b600061207c826118df565b9150612087836118df565b92508282101561209a57612099611f2d565b5b828203905092915050565b7f4e6f20656e6f756768206d6f6e65790000000000000000000000000000000000600082015250565b60006120db600f836119b7565b91506120e6826120a5565b602082019050919050565b6000602082019050818103600083015261210a816120ce565b9050919050565b600061211c82611a62565b915063ffffffff82141561213357612132611f2d565b5b600182019050919050565b7f4f776e61626c653a2063616c6c6572206973206e6f7420746865206f776e6572600082015250565b60006121746020836119b7565b915061217f8261213e565b602082019050919050565b600060208201905081810360008301526121a381612167565b9050919050565b7f506c6561736520676f20616e6420676574206f6e6520666f7220667265650000600082015250565b60006121e0601e836119b7565b91506121eb826121aa565b602082019050919050565b6000602082019050818103600083015261220f816121d3565b9050919050565b7f496e73756666696369656e7420707572636861736520616d6f756e7400000000600082015250565b600061224c601c836119b7565b915061225782612216565b602082019050919050565b6000602082019050818103600083015261227b8161223f565b9050919050565b600061228d826118df565b9150612298836118df565b9250827fffffffffffffffffffffffffffffffffffffffffffffffffffffffffffffffff038211156122cd576122cc611f2d565b5b828201905092915050565b7f4c6576656c206973206e6f742073756666696369656e74000000000000000000600082015250565b600061230e6017836119b7565b9150612319826122d8565b602082019050919050565b6000602082019050818103600083015261233d81612301565b9050919050565b7f4f776e61626c653a206e6577206f776e657220697320746865207a65726f206160008201527f6464726573730000000000000000000000000000000000000000000000000000602082015250565b60006123a06026836119b7565b91506123ab82612344565b604082019050919050565b600060208201905081810360008301526123cf81612393565b9050919050565b600081905092915050565b60006123ec826119ac565b6123f681856123d6565b93506124068185602086016119c8565b80840191505092915050565b6000819050919050565b61242d612428826118df565b612412565b82525050565b600061243f82856123e1565b915061244b828461241c565b6020820191508190509392505050565b600060608201905061247060008301866118e9565b81810360208301526124828185611a0c565b905061249160408301846118e9565b94935050505056fea2646970667358221220246ac36f40135665c8c9baedea8de4f4350115007cb1c2f9e87b6cbf32291d5464736f6c634300080a0033",
  "immutableReferences": {},
  "source": "// SPDX-License-Identifier: MIT\npragma solidity ^0.8.0;\n\nimport \"./ZombieHelper.sol\";\nimport \"./IERC721.sol\";\n\n//\ncontract ZombieOwnership is ZombieHelper, IERC721 {\n    mapping(uint256 => address) zombieApprovals;\n\n    //\n    function balanceOf(address _owner) public view returns (uint256 _balance) {\n        return ownerZombieCount[_owner];\n    }\n\n    //\n    function ownerOf(uint256 _tokenId) public view returns (address _owner) {\n        return zombieToOwner[_tokenId];\n    }\n\n    //\n    function transfer(address _to, uint256 _tokenId)\n        public\n        onlyOwnerOf(_tokenId)\n    {\n        _transfer(msg.sender, _to, _tokenId);\n    }\n\n    function _transfer(\n        address _from,\n        address _to,\n        uint256 _tokenId\n    ) internal {\n        ownerZombieCount[_to] += 1;\n        ownerZombieCount[_from] -= 1;\n        zombieToOwner[_tokenId] = _to;\n        emit Transfer(_from, _to, _tokenId);\n    }\n\n    function approve(address _to, uint256 _tokenId)\n        public\n        onlyOwnerOf(_tokenId)\n    {\n        zombieApprovals[_tokenId] = _to;\n        emit Approval(msg.sender, _to, _tokenId);\n    }\n\n    function takeOwnership(uint256 _tokenId) public {\n        require(zombieApprovals[_tokenId] == msg.sender);\n        address owner = ownerOf(_tokenId);\n        _transfer(owner, msg.sender, _tokenId);\n    }\n}\n",
  "sourcePath": "/Users/q/study/ethereum/game-zombie/contracts/ZombieOwnership.sol",
  "compiler": {
    "name": "solc",
    "version": "0.8.10+commit.fc410830.Emscripten.clang"
  },
  "schemaVersion": "3.4.1",
  "updatedAt": "2021-12-15T12:26:25.885Z",
  "devdoc": {
    "kind": "dev",
    "methods": {
      "owner()": {
        "details": "Returns the address of the current owner."
      },
      "renounceOwnership()": {
        "details": "Leaves the contract without owner. It will not be possible to call `onlyOwner` functions anymore. Can only be called by the current owner. NOTE: Renouncing ownership will leave the contract without an owner, thereby removing any functionality that is only available to the owner."
      },
      "transferOwnership(address)": {
        "details": "Transfers ownership of the contract to a new account (`newOwner`). Can only be called by the current owner."
      }
    },
    "version": 1
  },
  "userdoc": {
    "kind": "user",
    "methods": {},
    "version": 1
  }
}