{
  "contractName": "ZombieMarket",
  "abi": [
    {
      "anonymous": false,
      "inputs": [
        {
          "indexed": true,
          "internalType": "address",
          "name": "_owner",
          "type": "address"
        },
        {
          "indexed": true,
          "internalType": "address",
          "name": "_approved",
          "type": "address"
        },
        {
          "indexed": false,
          "internalType": "uint256",
          "name": "_tokenId",
          "type": "uint256"
        }
      ],
      "name": "Approval",
      "type": "event"
    },
    {
      "anonymous": false,
      "inputs": [
        {
          "indexed": true,
          "internalType": "uint256",
          "name": "zombieId",
          "type": "uint256"
        },
        {
          "indexed": true,
          "internalType": "address",
          "name": "buyer",
          "type": "address"
        },
        {
          "indexed": true,
          "internalType": "address",
          "name": "seller",
          "type": "address"
        }
      ],
      "name": "BuyShopZombie",
      "type": "event"
    },
    {
      "anonymous": false,
      "inputs": [
        {
          "indexed": false,
          "internalType": "uint256",
          "name": "zombieId",
          "type": "uint256"
        },
        {
          "indexed": false,
          "internalType": "string",
          "name": "name",
          "type": "string"
        },
        {
          "indexed": false,
          "internalType": "uint256",
          "name": "dna",
          "type": "uint256"
        }
      ],
      "name": "NewZombie",
      "type": "event"
    },
    {
      "anonymous": false,
      "inputs": [
        {
          "indexed": true,
          "internalType": "address",
          "name": "previousOwner",
          "type": "address"
        },
        {
          "indexed": true,
          "internalType": "address",
          "name": "newOwner",
          "type": "address"
        }
      ],
      "name": "OwnershipTransferred",
      "type": "event"
    },
    {
      "anonymous": false,
      "inputs": [
        {
          "indexed": true,
          "internalType": "address",
          "name": "_from",
          "type": "address"
        },
        {
          "indexed": true,
          "internalType": "address",
          "name": "_to",
          "type": "address"
        },
        {
          "indexed": false,
          "internalType": "uint256",
          "name": "_tokenId",
          "type": "uint256"
        }
      ],
      "name": "Transfer",
      "type": "event"
    },
    {
      "anonymous": false,
      "inputs": [
        {
          "indexed": true,
          "internalType": "uint256",
          "name": "zombieId",
          "type": "uint256"
        },
        {
          "indexed": true,
          "internalType": "address",
          "name": "seller",
          "type": "address"
        }
      ],
      "name": "ZombieInShop",
      "type": "event"
    },
    {
      "inputs": [
        {
          "internalType": "address",
          "name": "_to",
          "type": "address"
        },
        {
          "internalType": "uint256",
          "name": "_tokenId",
          "type": "uint256"
        }
      ],
      "name": "approve",
      "outputs": [],
      "stateMutability": "nonpayable",
      "type": "function"
    },
    {
      "inputs": [
        {
          "internalType": "address",
          "name": "_owner",
          "type": "address"
        }
      ],
      "name": "balanceOf",
      "outputs": [
        {
          "internalType": "uint256",
          "name": "_balance",
          "type": "uint256"
        }
      ],
      "stateMutability": "view",
      "type": "function"
    },
    {
      "inputs": [
        {
          "internalType": "string",
          "name": "_name",
          "type": "string"
        }
      ],
      "name": "buyZombie",
      "outputs": [],
      "stateMutability": "payable",
      "type": "function"
    },
    {
      "inputs": [
        {
          "internalType": "uint256",
          "name": "_zombieId",
          "type": "uint256"
        },
        {
          "internalType": "string",
          "name": "_newName",
          "type": "string"
        }
      ],
      "name": "changeName",
      "outputs": [],
      "stateMutability": "nonpayable",
      "type": "function"
    },
    {
      "inputs": [],
      "name": "cooldownTime",
      "outputs": [
        {
          "internalType": "uint256",
          "name": "",
          "type": "uint256"
        }
      ],
      "stateMutability": "view",
      "type": "function"
    },
    {
      "inputs": [
        {
          "internalType": "string",
          "name": "_name",
          "type": "string"
        }
      ],
      "name": "freeZombie",
      "outputs": [],
      "stateMutability": "nonpayable",
      "type": "function"
    },
    {
      "inputs": [
        {
          "internalType": "address",
          "name": "_owner",
          "type": "address"
        }
      ],
      "name": "getZombiesByOwner",
      "outputs": [
        {
          "internalType": "uint256[]",
          "name": "",
          "type": "uint256[]"
        }
      ],
      "stateMutability": "view",
      "type": "function"
    },
    {
      "inputs": [
        {
          "internalType": "uint256",
          "name": "_zombieId",
          "type": "uint256"
        }
      ],
      "name": "levelup",
      "outputs": [],
      "stateMutability": "payable",
      "type": "function"
    },
    {
      "inputs": [],
      "name": "levelupFee",
      "outputs": [
        {
          "internalType": "uint256",
          "name": "",
          "type": "uint256"
        }
      ],
      "stateMutability": "view",
      "type": "function"
    },
    {
      "inputs": [],
      "name": "minPrice",
      "outputs": [
        {
          "internalType": "uint256",
          "name": "",
          "type": "uint256"
        }
      ],
      "stateMutability": "view",
      "type": "function"
    },
    {
      "inputs": [],
      "name": "owner",
      "outputs": [
        {
          "internalType": "address",
          "name": "",
          "type": "address"
        }
      ],
      "stateMutability": "view",
      "type": "function"
    },
    {
      "inputs": [
        {
          "internalType": "uint256",
          "name": "_tokenId",
          "type": "uint256"
        }
      ],
      "name": "ownerOf",
      "outputs": [
        {
          "internalType": "address",
          "name": "_owner",
          "type": "address"
        }
      ],
      "stateMutability": "view",
      "type": "function"
    },
    {
      "inputs": [
        {
          "internalType": "address",
          "name": "",
          "type": "address"
        }
      ],
      "name": "ownerZombieCount",
      "outputs": [
        {
          "internalType": "uint256",
          "name": "",
          "type": "uint256"
        }
      ],
      "stateMutability": "view",
      "type": "function"
    },
    {
      "inputs": [],
      "name": "price",
      "outputs": [
        {
          "internalType": "uint256",
          "name": "",
          "type": "uint256"
        }
      ],
      "stateMutability": "view",
      "type": "function"
    },
    {
      "inputs": [],
      "name": "renounceOwnership",
      "outputs": [],
      "stateMutability": "nonpayable",
      "type": "function"
    },
    {
      "inputs": [
        {
          "internalType": "uint256",
          "name": "_fee",
          "type": "uint256"
        }
      ],
      "name": "setLevelupFee",
      "outputs": [],
      "stateMutability": "nonpayable",
      "type": "function"
    },
    {
      "inputs": [
        {
          "internalType": "uint256",
          "name": "_price",
          "type": "uint256"
        }
      ],
      "name": "setPrice",
      "outputs": [],
      "stateMutability": "nonpayable",
      "type": "function"
    },
    {
      "inputs": [
        {
          "internalType": "uint256",
          "name": "",
          "type": "uint256"
        }
      ],
      "name": "shop",
      "outputs": [
        {
          "internalType": "address payable",
          "name": "seller",
          "type": "address"
        },
        {
          "internalType": "uint256",
          "name": "price",
          "type": "uint256"
        }
      ],
      "stateMutability": "view",
      "type": "function"
    },
    {
      "inputs": [
        {
          "internalType": "uint256",
          "name": "_tokenId",
          "type": "uint256"
        }
      ],
      "name": "takeOwnership",
      "outputs": [],
      "stateMutability": "nonpayable",
      "type": "function"
    },
    {
      "inputs": [],
      "name": "tax",
      "outputs": [
        {
          "internalType": "uint256",
          "name": "",
          "type": "uint256"
        }
      ],
      "stateMutability": "view",
      "type": "function"
    },
    {
      "inputs": [],
      "name": "total",
      "outputs": [
        {
          "internalType": "uint256",
          "name": "",
          "type": "uint256"
        }
      ],
      "stateMutability": "view",
      "type": "function"
    },
    {
      "inputs": [
        {
          "internalType": "address",
          "name": "_to",
          "type": "address"
        },
        {
          "internalType": "uint256",
          "name": "_tokenId",
          "type": "uint256"
        }
      ],
      "name": "transfer",
      "outputs": [],
      "stateMutability": "nonpayable",
      "type": "function"
    },
    {
      "inputs": [
        {
          "internalType": "address",
          "name": "newOwner",
          "type": "address"
        }
      ],
      "name": "transferOwnership",
      "outputs": [],
      "stateMutability": "nonpayable",
      "type": "function"
    },
    {
      "inputs": [
        {
          "internalType": "uint256",
          "name": "",
          "type": "uint256"
        }
      ],
      "name": "zombieFeedCount",
      "outputs": [
        {
          "internalType": "uint256",
          "name": "",
          "type": "uint256"
        }
      ],
      "stateMutability": "view",
      "type": "function"
    },
    {
      "inputs": [
        {
          "internalType": "uint256",
          "name": "",
          "type": "uint256"
        }
      ],
      "name": "zombieToOwner",
      "outputs": [
        {
          "internalType": "address",
          "name": "",
          "type": "address"
        }
      ],
      "stateMutability": "view",
      "type": "function"
    },
    {
      "inputs": [
        {
          "internalType": "uint256",
          "name": "",
          "type": "uint256"
        }
      ],
      "name": "zombies",
      "outputs": [
        {
          "internalType": "string",
          "name": "name",
          "type": "string"
        },
        {
          "internalType": "uint256",
          "name": "dna",
          "type": "uint256"
        },
        {
          "internalType": "uint16",
          "name": "winCount",
          "type": "uint16"
        },
        {
          "internalType": "uint16",
          "name": "loseCount",
          "type": "uint16"
        },
        {
          "internalType": "uint32",
          "name": "level",
          "type": "uint32"
        },
        {
          "internalType": "uint32",
          "name": "readyTime",
          "type": "uint32"
        }
      ],
      "stateMutability": "view",
      "type": "function"
    },
    {
      "inputs": [
        {
          "internalType": "uint256",
          "name": "_zombieId",
          "type": "uint256"
        },
        {
          "internalType": "uint256",
          "name": "_price",
          "type": "uint256"
        }
      ],
      "name": "saleMyZombie",
      "outputs": [],
      "stateMutability": "nonpayable",
      "type": "function"
    },
    {
      "inputs": [
        {
          "internalType": "uint256",
          "name": "_zombieId",
          "type": "uint256"
        }
      ],
      "name": "buyShopZombie",
      "outputs": [],
      "stateMutability": "payable",
      "type": "function"
    },
    {
      "inputs": [],
      "name": "getShopZombies",
      "outputs": [
        {
          "internalType": "uint256[]",
          "name": "",
          "type": "uint256[]"
        }
      ],
      "stateMutability": "view",
      "type": "function"
    },
    {
      "inputs": [
        {
          "internalType": "uint256",
          "name": "_value",
          "type": "uint256"
        }
      ],
      "name": "setTax",
      "outputs": [],
      "stateMutability": "nonpayable",
      "type": "function"
    },
    {
      "inputs": [
        {
          "internalType": "uint256",
          "name": "_value",
          "type": "uint256"
        }
      ],
      "name": "setMinPrice",
      "outputs": [],
      "stateMutability": "nonpayable",
      "type": "function"
    }
  ],
  "bytecode": "0x60806040526010600155600154600a6200001a9190620002cb565b60025562015180600355662386f26fc10000600455600060055566038d7ea4c68000600a5566038d7ea4c68000600e5566038d7ea4c68000600f553480156200006257600080fd5b5062000074336200007a60201b60201c565b6200031c565b60008060009054906101000a900473ffffffffffffffffffffffffffffffffffffffff169050816000806101000a81548173ffffffffffffffffffffffffffffffffffffffff021916908373ffffffffffffffffffffffffffffffffffffffff1602179055508173ffffffffffffffffffffffffffffffffffffffff168173ffffffffffffffffffffffffffffffffffffffff167f8be0079c531659141344cd1fd0a4f28419497f9722a3daafe3b4186f6b6457e060405160405180910390a35050565b7f4e487b7100000000000000000000000000000000000000000000000000000000600052601160045260246000fd5b60008160011c9050919050565b6000808291508390505b6001851115620001cc57808604811115620001a457620001a36200013e565b5b6001851615620001b45780820291505b8081029050620001c4856200016d565b945062000184565b94509492505050565b600082620001e75760019050620002ba565b81620001f75760009050620002ba565b81600181146200021057600281146200021b5762000251565b6001915050620002ba565b60ff84111562000230576200022f6200013e565b5b8360020a9150848211156200024a57620002496200013e565b5b50620002ba565b5060208310610133831016604e8410600b84101617156200028b5782820a9050838111156200028557620002846200013e565b5b620002ba565b6200029a84848460016200017a565b92509050818404811115620002b457620002b36200013e565b5b81810290505b9392505050565b6000819050919050565b6000620002d882620002c1565b9150620002e583620002c1565b9250620003147fffffffffffffffffffffffffffffffffffffffffffffffffffffffffffffffff8484620001d5565b905092915050565b612dcd806200032c6000396000f3fe6080604052600436106101d85760003560e01c8063715018a611610102578063b32c012d11610095578063da69c08311610064578063da69c08314610696578063e45be8eb146106d4578063f242da12146106ff578063f2fde38b14610728576101d8565b8063b32c012d146105eb578063b3f0ddb914610614578063c39cbef114610630578063d2146f6a14610659576101d8565b8063a035b1fe116100d1578063a035b1fe14610543578063a9059cbb1461056e578063b2e6ceeb14610597578063b319c6b7146105c0576101d8565b8063715018a6146104ad5780638da5cb5b146104c457806391b7f5ed146104ef57806399c8d55614610518576101d8565b80634412e1041161017a57806368b429bb1161014957806368b429bb146104005780636cb80c6f146104295780636cc29f2e1461044557806370a0823114610470576101d8565b80634412e10414610320578063528b7b8f1461035d5780635ea8cd121461039a5780636352211e146103c3576101d8565b80632052465e116101b65780632052465e1461026e578063208c750e146102b05780632ddbd13a146102cc5780632e5bb6ff146102f7576101d8565b806301afd7e1146101dd57806306748d441461021a578063095ea7b314610245575b600080fd5b3480156101e957600080fd5b5061020460048036038101906101ff91906120ba565b610751565b6040516102119190612100565b60405180910390f35b34801561022657600080fd5b5061022f610769565b60405161023c9190612100565b60405180910390f35b34801561025157600080fd5b5061026c60048036038101906102679190612147565b61076f565b005b34801561027a57600080fd5b5061029560048036038101906102909190612187565b6108cd565b6040516102a796959493929190612289565b60405180910390f35b6102ca60048036038101906102c59190612187565b6109dd565b005b3480156102d857600080fd5b506102e1610bf4565b6040516102ee9190612100565b60405180910390f35b34801561030357600080fd5b5061031e60048036038101906103199190612187565b610bfa565b005b34801561032c57600080fd5b50610347600480360381019061034291906120ba565b610c79565b60405161035491906123af565b60405180910390f35b34801561036957600080fd5b50610384600480360381019061037f9190612187565b610dcc565b60405161039191906123e0565b60405180910390f35b3480156103a657600080fd5b506103c160048036038101906103bc9190612187565b610dff565b005b3480156103cf57600080fd5b506103ea60048036038101906103e59190612187565b610e7e565b6040516103f791906123e0565b60405180910390f35b34801561040c57600080fd5b5061042760048036038101906104229190612530565b610ebb565b005b610443600480360381019061043e9190612187565b610f72565b005b34801561045157600080fd5b5061045a6110c1565b60405161046791906123af565b60405180910390f35b34801561047c57600080fd5b50610497600480360381019061049291906120ba565b61118d565b6040516104a49190612100565b60405180910390f35b3480156104b957600080fd5b506104c26111d6565b005b3480156104d057600080fd5b506104d9611257565b6040516104e691906123e0565b60405180910390f35b3480156104fb57600080fd5b5061051660048036038101906105119190612187565b611280565b005b34801561052457600080fd5b5061052d6112ff565b60405161053a9190612100565b60405180910390f35b34801561054f57600080fd5b50610558611305565b6040516105659190612100565b60405180910390f35b34801561057a57600080fd5b5061059560048036038101906105909190612147565b61130b565b005b3480156105a357600080fd5b506105be60048036038101906105b99190612187565b6113bd565b005b3480156105cc57600080fd5b506105d5611444565b6040516105e29190612100565b60405180910390f35b3480156105f757600080fd5b50610612600480360381019061060d9190612579565b61144a565b005b61062e60048036038101906106299190612530565b611633565b005b34801561063c57600080fd5b5061065760048036038101906106529190612619565b61173b565b005b34801561066557600080fd5b50610680600480360381019061067b9190612187565b61189b565b60405161068d9190612100565b60405180910390f35b3480156106a257600080fd5b506106bd60048036038101906106b89190612187565b6118b3565b6040516106cb92919061269a565b60405180910390f35b3480156106e057600080fd5b506106e96118f7565b6040516106f69190612100565b60405180910390f35b34801561070b57600080fd5b5061072660048036038101906107219190612187565b6118fd565b005b34801561073457600080fd5b5061074f600480360381019061074a91906120ba565b61197c565b005b60086020528060005260406000206000915090505481565b600a5481565b806007600082815260200190815260200160002060009054906101000a900473ffffffffffffffffffffffffffffffffffffffff1673ffffffffffffffffffffffffffffffffffffffff163373ffffffffffffffffffffffffffffffffffffffff1614610811576040517f08c379a00000000000000000000000000000000000000000000000000000000081526004016108089061270f565b60405180910390fd5b82600b600084815260200190815260200160002060006101000a81548173ffffffffffffffffffffffffffffffffffffffff021916908373ffffffffffffffffffffffffffffffffffffffff1602179055508273ffffffffffffffffffffffffffffffffffffffff163373ffffffffffffffffffffffffffffffffffffffff167f8c5be1e5ebec7d5bd14f71427d1e84f3dd0314c0f7b2291e5b200ac8c7c3b925846040516108c09190612100565b60405180910390a3505050565b600681815481106108dd57600080fd5b90600052602060002090600302016000915090508060000180546109009061275e565b80601f016020809104026020016040519081016040528092919081815260200182805461092c9061275e565b80156109795780601f1061094e57610100808354040283529160200191610979565b820191906000526020600020905b81548152906001019060200180831161095c57829003601f168201915b5050505050908060010154908060020160009054906101000a900461ffff16908060020160029054906101000a900461ffff16908060020160049054906101000a900463ffffffff16908060020160089054906101000a900463ffffffff16905086565b600c600082815260200190815260200160002060010154341015610a36576040517f08c379a0000000000000000000000000000000000000000000000000000000008152600401610a2d906127dc565b60405180910390fd5b610a77600c600083815260200190815260200160002060000160009054906101000a900473ffffffffffffffffffffffffffffffffffffffff163383611a6d565b600c600082815260200190815260200160002060000160009054906101000a900473ffffffffffffffffffffffffffffffffffffffff1673ffffffffffffffffffffffffffffffffffffffff166108fc600e5434610ad5919061282b565b9081150290604051600060405180830381858888f19350505050158015610b00573d6000803e3d6000fd5b50600c6000828152602001908152602001600020600080820160006101000a81549073ffffffffffffffffffffffffffffffffffffffff0219169055600182016000905550506001600d6000828254610b59919061282b565b92505081905550600c600082815260200190815260200160002060000160009054906101000a900473ffffffffffffffffffffffffffffffffffffffff1673ffffffffffffffffffffffffffffffffffffffff163373ffffffffffffffffffffffffffffffffffffffff16827f2705da8f1145dc87c9e6b9aa3ecd69d3d64da132acba45c803563ad52f5c2b5f60405160405180910390a450565b60055481565b3373ffffffffffffffffffffffffffffffffffffffff16610c19611257565b73ffffffffffffffffffffffffffffffffffffffff1614610c6f576040517f08c379a0000000000000000000000000000000000000000000000000000000008152600401610c66906128ab565b60405180910390fd5b80600e8190555050565b60606000600860008473ffffffffffffffffffffffffffffffffffffffff1673ffffffffffffffffffffffffffffffffffffffff1681526020019081526020016000205467ffffffffffffffff811115610cd657610cd5612405565b5b604051908082528060200260200182016040528015610d045781602001602082028036833780820191505090505b5090506000805b600680549050811015610dc1578473ffffffffffffffffffffffffffffffffffffffff166007600083815260200190815260200160002060009054906101000a900473ffffffffffffffffffffffffffffffffffffffff1673ffffffffffffffffffffffffffffffffffffffff161415610dae5780838381518110610d9357610d926128cb565b5b6020026020010181815250508180610daa906128fa565b9250505b8080610db9906128fa565b915050610d0b565b508192505050919050565b60076020528060005260406000206000915054906101000a900473ffffffffffffffffffffffffffffffffffffffff1681565b3373ffffffffffffffffffffffffffffffffffffffff16610e1e611257565b73ffffffffffffffffffffffffffffffffffffffff1614610e74576040517f08c379a0000000000000000000000000000000000000000000000000000000008152600401610e6b906128ab565b60405180910390fd5b80600f8190555050565b60006007600083815260200190815260200160002060009054906101000a900473ffffffffffffffffffffffffffffffffffffffff169050919050565b6000600860003373ffffffffffffffffffffffffffffffffffffffff1673ffffffffffffffffffffffffffffffffffffffff1681526020019081526020016000205414610f3d576040517f08c379a0000000000000000000000000000000000000000000000000000000008152600401610f349061298f565b60405180910390fd5b6000610f4882611bd7565b9050600a81610f5791906129de565b81610f62919061282b565b9050610f6e8282611c19565b5050565b806007600082815260200190815260200160002060009054906101000a900473ffffffffffffffffffffffffffffffffffffffff1673ffffffffffffffffffffffffffffffffffffffff163373ffffffffffffffffffffffffffffffffffffffff1614611014576040517f08c379a000000000000000000000000000000000000000000000000000000000815260040161100b9061270f565b60405180910390fd5b600a54341015611059576040517f08c379a0000000000000000000000000000000000000000000000000000000008152600401611050906127dc565b60405180910390fd5b6006828154811061106d5761106c6128cb565b5b9060005260206000209060030201600201600481819054906101000a900463ffffffff168092919061109e90612a0f565b91906101000a81548163ffffffff021916908363ffffffff160217905550505050565b60606000600d5467ffffffffffffffff8111156110e1576110e0612405565b5b60405190808252806020026020018201604052801561110f5781602001602082028036833780820191505090505b5090506000805b600680549050811015611184576000600c60008381526020019081526020016000206001015411156111715780838381518110611156576111556128cb565b5b602002602001018181525050818061116d906128fa565b9250505b808061117c906128fa565b915050611116565b50819250505090565b6000600860008373ffffffffffffffffffffffffffffffffffffffff1673ffffffffffffffffffffffffffffffffffffffff168152602001908152602001600020549050919050565b3373ffffffffffffffffffffffffffffffffffffffff166111f5611257565b73ffffffffffffffffffffffffffffffffffffffff161461124b576040517f08c379a0000000000000000000000000000000000000000000000000000000008152600401611242906128ab565b60405180910390fd5b6112556000611e5b565b565b60008060009054906101000a900473ffffffffffffffffffffffffffffffffffffffff16905090565b3373ffffffffffffffffffffffffffffffffffffffff1661129f611257565b73ffffffffffffffffffffffffffffffffffffffff16146112f5576040517f08c379a00000000000000000000000000000000000000000000000000000000081526004016112ec906128ab565b60405180910390fd5b8060048190555050565b600e5481565b60045481565b806007600082815260200190815260200160002060009054906101000a900473ffffffffffffffffffffffffffffffffffffffff1673ffffffffffffffffffffffffffffffffffffffff163373ffffffffffffffffffffffffffffffffffffffff16146113ad576040517f08c379a00000000000000000000000000000000000000000000000000000000081526004016113a49061270f565b60405180910390fd5b6113b8338484611a6d565b505050565b3373ffffffffffffffffffffffffffffffffffffffff16600b600083815260200190815260200160002060009054906101000a900473ffffffffffffffffffffffffffffffffffffffff1673ffffffffffffffffffffffffffffffffffffffff161461142857600080fd5b600061143382610e7e565b9050611440813384611a6d565b5050565b60035481565b816007600082815260200190815260200160002060009054906101000a900473ffffffffffffffffffffffffffffffffffffffff1673ffffffffffffffffffffffffffffffffffffffff163373ffffffffffffffffffffffffffffffffffffffff16146114ec576040517f08c379a00000000000000000000000000000000000000000000000000000000081526004016114e39061270f565b60405180910390fd5b600e54600f546114fc9190612a3c565b82101561153e576040517f08c379a000000000000000000000000000000000000000000000000000000000815260040161153590612ade565b60405180910390fd5b60405180604001604052803373ffffffffffffffffffffffffffffffffffffffff16815260200183815250600c600085815260200190815260200160002060008201518160000160006101000a81548173ffffffffffffffffffffffffffffffffffffffff021916908373ffffffffffffffffffffffffffffffffffffffff160217905550602082015181600101559050506001600d60008282546115e39190612a3c565b925050819055503373ffffffffffffffffffffffffffffffffffffffff16837fb0a72715500d80dc04f72043ae2057be705c219c69eadadd7155ee8d750efb3360405160405180910390a3505050565b6000600860003373ffffffffffffffffffffffffffffffffffffffff1673ffffffffffffffffffffffffffffffffffffffff16815260200190815260200160002054116116b5576040517f08c379a00000000000000000000000000000000000000000000000000000000081526004016116ac90612b4a565b60405180910390fd5b6004543410156116fa576040517f08c379a00000000000000000000000000000000000000000000000000000000081526004016116f190612bb6565b60405180910390fd5b600061170582611bd7565b90506001600a8261171691906129de565b82611721919061282b565b61172b9190612a3c565b90506117378282611c19565b5050565b6002838160068281548110611753576117526128cb565b5b906000526020600020906003020160020160049054906101000a900463ffffffff1663ffffffff1610156117bc576040517f08c379a00000000000000000000000000000000000000000000000000000000081526004016117b390612c22565b60405180910390fd5b846007600082815260200190815260200160002060009054906101000a900473ffffffffffffffffffffffffffffffffffffffff1673ffffffffffffffffffffffffffffffffffffffff163373ffffffffffffffffffffffffffffffffffffffff161461185e576040517f08c379a00000000000000000000000000000000000000000000000000000000081526004016118559061270f565b60405180910390fd5b848460068881548110611874576118736128cb565b5b90600052602060002090600302016000019190611892929190611f1f565b50505050505050565b60096020528060005260406000206000915090505481565b600c6020528060005260406000206000915090508060000160009054906101000a900473ffffffffffffffffffffffffffffffffffffffff16908060010154905082565b600f5481565b3373ffffffffffffffffffffffffffffffffffffffff1661191c611257565b73ffffffffffffffffffffffffffffffffffffffff1614611972576040517f08c379a0000000000000000000000000000000000000000000000000000000008152600401611969906128ab565b60405180910390fd5b80600a8190555050565b3373ffffffffffffffffffffffffffffffffffffffff1661199b611257565b73ffffffffffffffffffffffffffffffffffffffff16146119f1576040517f08c379a00000000000000000000000000000000000000000000000000000000081526004016119e8906128ab565b60405180910390fd5b600073ffffffffffffffffffffffffffffffffffffffff168173ffffffffffffffffffffffffffffffffffffffff161415611a61576040517f08c379a0000000000000000000000000000000000000000000000000000000008152600401611a5890612cb4565b60405180910390fd5b611a6a81611e5b565b50565b6001600860008473ffffffffffffffffffffffffffffffffffffffff1673ffffffffffffffffffffffffffffffffffffffff1681526020019081526020016000206000828254611abd9190612a3c565b925050819055506001600860008573ffffffffffffffffffffffffffffffffffffffff1673ffffffffffffffffffffffffffffffffffffffff1681526020019081526020016000206000828254611b14919061282b565b92505081905550816007600083815260200190815260200160002060006101000a81548173ffffffffffffffffffffffffffffffffffffffff021916908373ffffffffffffffffffffffffffffffffffffffff1602179055508173ffffffffffffffffffffffffffffffffffffffff168373ffffffffffffffffffffffffffffffffffffffff167fddf252ad1be2c89b69c2b068fc378daa952ba7f163c4a11628f55a4df523b3ef83604051611bca9190612100565b60405180910390a3505050565b60006002548242604051602001611bef929190612d31565b6040516020818303038152906040528051906020012060001c611c1291906129de565b9050919050565b60066040518060c00160405280848152602001838152602001600061ffff168152602001600061ffff168152602001600163ffffffff168152602001600063ffffffff1681525090806001815401808255809150506001900390600052602060002090600302016000909190919091506000820151816000019080519060200190611ca5929190611fa5565b506020820151816001015560408201518160020160006101000a81548161ffff021916908361ffff16021790555060608201518160020160026101000a81548161ffff021916908361ffff16021790555060808201518160020160046101000a81548163ffffffff021916908363ffffffff16021790555060a08201518160020160086101000a81548163ffffffff021916908363ffffffff160217905550505060006001600680549050611d5a919061282b565b9050336007600083815260200190815260200160002060006101000a81548173ffffffffffffffffffffffffffffffffffffffff021916908373ffffffffffffffffffffffffffffffffffffffff160217905550600860003373ffffffffffffffffffffffffffffffffffffffff1673ffffffffffffffffffffffffffffffffffffffff1681526020019081526020016000206000815480929190611dfe906128fa565b919050555060056000815480929190611e16906128fa565b91905055507f88f026aacbbecc90c18411df4b1185fd8d9be2470f1962f192bf84a27d0704b7818484604051611e4e93929190612d59565b60405180910390a1505050565b60008060009054906101000a900473ffffffffffffffffffffffffffffffffffffffff169050816000806101000a81548173ffffffffffffffffffffffffffffffffffffffff021916908373ffffffffffffffffffffffffffffffffffffffff1602179055508173ffffffffffffffffffffffffffffffffffffffff168173ffffffffffffffffffffffffffffffffffffffff167f8be0079c531659141344cd1fd0a4f28419497f9722a3daafe3b4186f6b6457e060405160405180910390a35050565b828054611f2b9061275e565b90600052602060002090601f016020900481019282611f4d5760008555611f94565b82601f10611f6657803560ff1916838001178555611f94565b82800160010185558215611f94579182015b82811115611f93578235825591602001919060010190611f78565b5b509050611fa1919061202b565b5090565b828054611fb19061275e565b90600052602060002090601f016020900481019282611fd3576000855561201a565b82601f10611fec57805160ff191683800117855561201a565b8280016001018555821561201a579182015b82811115612019578251825591602001919060010190611ffe565b5b509050612027919061202b565b5090565b5b8082111561204457600081600090555060010161202c565b5090565b6000604051905090565b600080fd5b600080fd5b600073ffffffffffffffffffffffffffffffffffffffff82169050919050565b60006120878261205c565b9050919050565b6120978161207c565b81146120a257600080fd5b50565b6000813590506120b48161208e565b92915050565b6000602082840312156120d0576120cf612052565b5b60006120de848285016120a5565b91505092915050565b6000819050919050565b6120fa816120e7565b82525050565b600060208201905061211560008301846120f1565b92915050565b612124816120e7565b811461212f57600080fd5b50565b6000813590506121418161211b565b92915050565b6000806040838503121561215e5761215d612052565b5b600061216c858286016120a5565b925050602061217d85828601612132565b9150509250929050565b60006020828403121561219d5761219c612052565b5b60006121ab84828501612132565b91505092915050565b600081519050919050565b600082825260208201905092915050565b60005b838110156121ee5780820151818401526020810190506121d3565b838111156121fd576000848401525b50505050565b6000601f19601f8301169050919050565b600061221f826121b4565b61222981856121bf565b93506122398185602086016121d0565b61224281612203565b840191505092915050565b600061ffff82169050919050565b6122648161224d565b82525050565b600063ffffffff82169050919050565b6122838161226a565b82525050565b600060c08201905081810360008301526122a38189612214565b90506122b260208301886120f1565b6122bf604083018761225b565b6122cc606083018661225b565b6122d9608083018561227a565b6122e660a083018461227a565b979650505050505050565b600081519050919050565b600082825260208201905092915050565b6000819050602082019050919050565b612326816120e7565b82525050565b6000612338838361231d565b60208301905092915050565b6000602082019050919050565b600061235c826122f1565b61236681856122fc565b93506123718361230d565b8060005b838110156123a2578151612389888261232c565b975061239483612344565b925050600181019050612375565b5085935050505092915050565b600060208201905081810360008301526123c98184612351565b905092915050565b6123da8161207c565b82525050565b60006020820190506123f560008301846123d1565b92915050565b600080fd5b600080fd5b7f4e487b7100000000000000000000000000000000000000000000000000000000600052604160045260246000fd5b61243d82612203565b810181811067ffffffffffffffff8211171561245c5761245b612405565b5b80604052505050565b600061246f612048565b905061247b8282612434565b919050565b600067ffffffffffffffff82111561249b5761249a612405565b5b6124a482612203565b9050602081019050919050565b82818337600083830152505050565b60006124d36124ce84612480565b612465565b9050828152602081018484840111156124ef576124ee612400565b5b6124fa8482856124b1565b509392505050565b600082601f830112612517576125166123fb565b5b81356125278482602086016124c0565b91505092915050565b60006020828403121561254657612545612052565b5b600082013567ffffffffffffffff81111561256457612563612057565b5b61257084828501612502565b91505092915050565b600080604083850312156125905761258f612052565b5b600061259e85828601612132565b92505060206125af85828601612132565b9150509250929050565b600080fd5b600080fd5b60008083601f8401126125d9576125d86123fb565b5b8235905067ffffffffffffffff8111156125f6576125f56125b9565b5b602083019150836001820283011115612612576126116125be565b5b9250929050565b60008060006040848603121561263257612631612052565b5b600061264086828701612132565b935050602084013567ffffffffffffffff81111561266157612660612057565b5b61266d868287016125c3565b92509250509250925092565b60006126848261205c565b9050919050565b61269481612679565b82525050565b60006040820190506126af600083018561268b565b6126bc60208301846120f1565b9392505050565b7f5a6f6d626965206973206e6f7420796f75727300000000000000000000000000600082015250565b60006126f96013836121bf565b9150612704826126c3565b602082019050919050565b60006020820190508181036000830152612728816126ec565b9050919050565b7f4e487b7100000000000000000000000000000000000000000000000000000000600052602260045260246000fd5b6000600282049050600182168061277657607f821691505b6020821081141561278a5761278961272f565b5b50919050565b7f4e6f20656e6f756768206d6f6e65790000000000000000000000000000000000600082015250565b60006127c6600f836121bf565b91506127d182612790565b602082019050919050565b600060208201905081810360008301526127f5816127b9565b9050919050565b7f4e487b7100000000000000000000000000000000000000000000000000000000600052601160045260246000fd5b6000612836826120e7565b9150612841836120e7565b925082821015612854576128536127fc565b5b828203905092915050565b7f4f776e61626c653a2063616c6c6572206973206e6f7420746865206f776e6572600082015250565b60006128956020836121bf565b91506128a08261285f565b602082019050919050565b600060208201905081810360008301526128c481612888565b9050919050565b7f4e487b7100000000000000000000000000000000000000000000000000000000600052603260045260246000fd5b6000612905826120e7565b91507fffffffffffffffffffffffffffffffffffffffffffffffffffffffffffffffff821415612938576129376127fc565b5b600182019050919050565b7f5265737472696374656420746f2072656365697665206f6e6500000000000000600082015250565b60006129796019836121bf565b915061298482612943565b602082019050919050565b600060208201905081810360008301526129a88161296c565b9050919050565b7f4e487b7100000000000000000000000000000000000000000000000000000000600052601260045260246000fd5b60006129e9826120e7565b91506129f4836120e7565b925082612a0457612a036129af565b5b828206905092915050565b6000612a1a8261226a565b915063ffffffff821415612a3157612a306127fc565b5b600182019050919050565b6000612a47826120e7565b9150612a52836120e7565b9250827fffffffffffffffffffffffffffffffffffffffffffffffffffffffffffffffff03821115612a8757612a866127fc565b5b828201905092915050565b7f596f7572207072696365206d757374203e206d696e50726963652b7461780000600082015250565b6000612ac8601e836121bf565b9150612ad382612a92565b602082019050919050565b60006020820190508181036000830152612af781612abb565b9050919050565b7f506c6561736520676f20616e6420676574206f6e6520666f7220667265650000600082015250565b6000612b34601e836121bf565b9150612b3f82612afe565b602082019050919050565b60006020820190508181036000830152612b6381612b27565b9050919050565b7f496e73756666696369656e7420707572636861736520616d6f756e7400000000600082015250565b6000612ba0601c836121bf565b9150612bab82612b6a565b602082019050919050565b60006020820190508181036000830152612bcf81612b93565b9050919050565b7f4c6576656c206973206e6f742073756666696369656e74000000000000000000600082015250565b6000612c0c6017836121bf565b9150612c1782612bd6565b602082019050919050565b60006020820190508181036000830152612c3b81612bff565b9050919050565b7f4f776e61626c653a206e6577206f776e657220697320746865207a65726f206160008201527f6464726573730000000000000000000000000000000000000000000000000000602082015250565b6000612c9e6026836121bf565b9150612ca982612c42565b604082019050919050565b60006020820190508181036000830152612ccd81612c91565b9050919050565b600081905092915050565b6000612cea826121b4565b612cf48185612cd4565b9350612d048185602086016121d0565b80840191505092915050565b6000819050919050565b612d2b612d26826120e7565b612d10565b82525050565b6000612d3d8285612cdf565b9150612d498284612d1a565b6020820191508190509392505050565b6000606082019050612d6e60008301866120f1565b8181036020830152612d808185612214565b9050612d8f60408301846120f1565b94935050505056fea2646970667358221220deed85d8ad941ae240e458c5cc093e62853cd1f19282b0adf5854e3253467b5b64736f6c634300080a0033",
  "immutableReferences": {},
  "source": "// SPDX-License-Identifier: MIT\npragma solidity ^0.8.0;\n\nimport \"./ZombieOwnership.sol\";\n\n//\ncontract ZombieMarket is ZombieOwnership {\n    //\n    struct Sale {\n        address payable seller; //\n        uint256 price; //\n    }\n\n    //\n    mapping(uint256 => Sale) public shop;\n\n    //\n    uint256 shopZombieCount;\n\n    //\n    uint256 public tax = 0.001 ether;\n    //\n    uint256 public minPrice = 0.001 ether;\n\n    //\n    event ZombieInShop(uint256 indexed zombieId, address indexed seller);\n    //\n    event BuyShopZombie(\n        uint256 indexed zombieId,\n        address indexed buyer,\n        address indexed seller\n    );\n\n    //\n    function saleMyZombie(uint256 _zombieId, uint256 _price)\n        public\n        onlyOwnerOf(_zombieId)\n    {\n        require(_price >= minPrice + tax, \"Your price must > minPrice+tax\");\n        shop[_zombieId] = Sale(payable(msg.sender), _price);\n        shopZombieCount += 1;\n        emit ZombieInShop(_zombieId, msg.sender);\n    }\n\n    //\n    function buyShopZombie(uint256 _zombieId) public payable {\n        require(msg.value >= shop[_zombieId].price, \"No enough money\");\n        _transfer(shop[_zombieId].seller, msg.sender, _zombieId);\n        shop[_zombieId].seller.transfer(msg.value - tax);\n        delete shop[_zombieId];\n        shopZombieCount -= 1;\n        emit BuyShopZombie(_zombieId, msg.sender, shop[_zombieId].seller);\n    }\n\n    //\n    function getShopZombies() external view returns (uint256[] memory) {\n        uint256[] memory result = new uint256[](shopZombieCount);\n        uint256 counter = 0;\n        for (uint256 i = 0; i < zombies.length; i++) {\n            if (shop[i].price > 0) {\n                result[counter] = i;\n                counter++;\n            }\n        }\n        return result;\n    }\n\n    function setTax(uint256 _value) public onlyOwner {\n        tax = _value;\n    }\n\n    function setMinPrice(uint256 _value) public onlyOwner {\n        minPrice = _value;\n    }\n}\n",
  "sourcePath": "/Users/q/study/ethereum/game-zombie/contracts/ZombieMarket.sol",
  "compiler": {
    "name": "solc",
    "version": "0.8.10+commit.fc410830.Emscripten.clang"
  },
  "schemaVersion": "3.4.1",
  "updatedAt": "2021-12-15T12:26:25.875Z",
  "devdoc": {
    "kind": "dev",
    "methods": {
      "owner()": {
        "details": "Returns the address of the current owner."
      },
      "renounceOwnership()": {
        "details": "Leaves the contract without owner. It will not be possible to call `onlyOwner` functions anymore. Can only be called by the current owner. NOTE: Renouncing ownership will leave the contract without an owner, thereby removing any functionality that is only available to the owner."
      },
      "transferOwnership(address)": {
        "details": "Transfers ownership of the contract to a new account (`newOwner`). Can only be called by the current owner."
      }
    },
    "version": 1
  },
  "userdoc": {
    "kind": "user",
    "methods": {},
    "version": 1
  }
}