{
  "contractName": "ZombieHelper",
  "abi": [
    {
      "anonymous": false,
      "inputs": [
        {
          "indexed": false,
          "internalType": "uint256",
          "name": "zombieId",
          "type": "uint256"
        },
        {
          "indexed": false,
          "internalType": "string",
          "name": "name",
          "type": "string"
        },
        {
          "indexed": false,
          "internalType": "uint256",
          "name": "dna",
          "type": "uint256"
        }
      ],
      "name": "NewZombie",
      "type": "event"
    },
    {
      "anonymous": false,
      "inputs": [
        {
          "indexed": true,
          "internalType": "address",
          "name": "previousOwner",
          "type": "address"
        },
        {
          "indexed": true,
          "internalType": "address",
          "name": "newOwner",
          "type": "address"
        }
      ],
      "name": "OwnershipTransferred",
      "type": "event"
    },
    {
      "inputs": [
        {
          "internalType": "string",
          "name": "_name",
          "type": "string"
        }
      ],
      "name": "buyZombie",
      "outputs": [],
      "stateMutability": "payable",
      "type": "function"
    },
    {
      "inputs": [],
      "name": "cooldownTime",
      "outputs": [
        {
          "internalType": "uint256",
          "name": "",
          "type": "uint256"
        }
      ],
      "stateMutability": "view",
      "type": "function"
    },
    {
      "inputs": [
        {
          "internalType": "string",
          "name": "_name",
          "type": "string"
        }
      ],
      "name": "freeZombie",
      "outputs": [],
      "stateMutability": "nonpayable",
      "type": "function"
    },
    {
      "inputs": [],
      "name": "levelupFee",
      "outputs": [
        {
          "internalType": "uint256",
          "name": "",
          "type": "uint256"
        }
      ],
      "stateMutability": "view",
      "type": "function"
    },
    {
      "inputs": [],
      "name": "owner",
      "outputs": [
        {
          "internalType": "address",
          "name": "",
          "type": "address"
        }
      ],
      "stateMutability": "view",
      "type": "function"
    },
    {
      "inputs": [
        {
          "internalType": "address",
          "name": "",
          "type": "address"
        }
      ],
      "name": "ownerZombieCount",
      "outputs": [
        {
          "internalType": "uint256",
          "name": "",
          "type": "uint256"
        }
      ],
      "stateMutability": "view",
      "type": "function"
    },
    {
      "inputs": [],
      "name": "price",
      "outputs": [
        {
          "internalType": "uint256",
          "name": "",
          "type": "uint256"
        }
      ],
      "stateMutability": "view",
      "type": "function"
    },
    {
      "inputs": [],
      "name": "renounceOwnership",
      "outputs": [],
      "stateMutability": "nonpayable",
      "type": "function"
    },
    {
      "inputs": [
        {
          "internalType": "uint256",
          "name": "_price",
          "type": "uint256"
        }
      ],
      "name": "setPrice",
      "outputs": [],
      "stateMutability": "nonpayable",
      "type": "function"
    },
    {
      "inputs": [],
      "name": "total",
      "outputs": [
        {
          "internalType": "uint256",
          "name": "",
          "type": "uint256"
        }
      ],
      "stateMutability": "view",
      "type": "function"
    },
    {
      "inputs": [
        {
          "internalType": "address",
          "name": "newOwner",
          "type": "address"
        }
      ],
      "name": "transferOwnership",
      "outputs": [],
      "stateMutability": "nonpayable",
      "type": "function"
    },
    {
      "inputs": [
        {
          "internalType": "uint256",
          "name": "",
          "type": "uint256"
        }
      ],
      "name": "zombieFeedCount",
      "outputs": [
        {
          "internalType": "uint256",
          "name": "",
          "type": "uint256"
        }
      ],
      "stateMutability": "view",
      "type": "function"
    },
    {
      "inputs": [
        {
          "internalType": "uint256",
          "name": "",
          "type": "uint256"
        }
      ],
      "name": "zombieToOwner",
      "outputs": [
        {
          "internalType": "address",
          "name": "",
          "type": "address"
        }
      ],
      "stateMutability": "view",
      "type": "function"
    },
    {
      "inputs": [
        {
          "internalType": "uint256",
          "name": "",
          "type": "uint256"
        }
      ],
      "name": "zombies",
      "outputs": [
        {
          "internalType": "string",
          "name": "name",
          "type": "string"
        },
        {
          "internalType": "uint256",
          "name": "dna",
          "type": "uint256"
        },
        {
          "internalType": "uint16",
          "name": "winCount",
          "type": "uint16"
        },
        {
          "internalType": "uint16",
          "name": "loseCount",
          "type": "uint16"
        },
        {
          "internalType": "uint32",
          "name": "level",
          "type": "uint32"
        },
        {
          "internalType": "uint32",
          "name": "readyTime",
          "type": "uint32"
        }
      ],
      "stateMutability": "view",
      "type": "function"
    },
    {
      "inputs": [
        {
          "internalType": "uint256",
          "name": "_fee",
          "type": "uint256"
        }
      ],
      "name": "setLevelupFee",
      "outputs": [],
      "stateMutability": "nonpayable",
      "type": "function"
    },
    {
      "inputs": [
        {
          "internalType": "uint256",
          "name": "_zombieId",
          "type": "uint256"
        }
      ],
      "name": "levelup",
      "outputs": [],
      "stateMutability": "payable",
      "type": "function"
    },
    {
      "inputs": [
        {
          "internalType": "uint256",
          "name": "_zombieId",
          "type": "uint256"
        },
        {
          "internalType": "string",
          "name": "_newName",
          "type": "string"
        }
      ],
      "name": "changeName",
      "outputs": [],
      "stateMutability": "nonpayable",
      "type": "function"
    },
    {
      "inputs": [
        {
          "internalType": "address",
          "name": "_owner",
          "type": "address"
        }
      ],
      "name": "getZombiesByOwner",
      "outputs": [
        {
          "internalType": "uint256[]",
          "name": "",
          "type": "uint256[]"
        }
      ],
      "stateMutability": "view",
      "type": "function"
    }
  ],
  "bytecode": "0x60806040526010600155600154600a6200001a9190620002b5565b60025562015180600355662386f26fc10000600455600060055566038d7ea4c68000600a553480156200004c57600080fd5b506200005e336200006460201b60201c565b62000306565b60008060009054906101000a900473ffffffffffffffffffffffffffffffffffffffff169050816000806101000a81548173ffffffffffffffffffffffffffffffffffffffff021916908373ffffffffffffffffffffffffffffffffffffffff1602179055508173ffffffffffffffffffffffffffffffffffffffff168173ffffffffffffffffffffffffffffffffffffffff167f8be0079c531659141344cd1fd0a4f28419497f9722a3daafe3b4186f6b6457e060405160405180910390a35050565b7f4e487b7100000000000000000000000000000000000000000000000000000000600052601160045260246000fd5b60008160011c9050919050565b6000808291508390505b6001851115620001b6578086048111156200018e576200018d62000128565b5b60018516156200019e5780820291505b8081029050620001ae8562000157565b94506200016e565b94509492505050565b600082620001d15760019050620002a4565b81620001e15760009050620002a4565b8160018114620001fa576002811462000205576200023b565b6001915050620002a4565b60ff8411156200021a576200021962000128565b5b8360020a91508482111562000234576200023362000128565b5b50620002a4565b5060208310610133831016604e8410600b8410161715620002755782820a9050838111156200026f576200026e62000128565b5b620002a4565b62000284848484600162000164565b925090508184048111156200029e576200029d62000128565b5b81810290505b9392505050565b6000819050919050565b6000620002c282620002ab565b9150620002cf83620002ab565b9250620002fe7fffffffffffffffffffffffffffffffffffffffffffffffffffffffffffffffff8484620001bf565b905092915050565b611edc80620003166000396000f3fe6080604052600436106101095760003560e01c80638da5cb5b11610095578063b3f0ddb911610064578063b3f0ddb914610363578063c39cbef11461037f578063d2146f6a146103a8578063f242da12146103e5578063f2fde38b1461040e57610109565b80638da5cb5b146102b957806391b7f5ed146102e4578063a035b1fe1461030d578063b319c6b71461033857610109565b80634412e104116100dc5780634412e104146101e3578063528b7b8f1461022057806368b429bb1461025d5780636cb80c6f14610286578063715018a6146102a257610109565b806301afd7e11461010e57806306748d441461014b5780632052465e146101765780632ddbd13a146101b8575b600080fd5b34801561011a57600080fd5b50610135600480360381019061013091906112ff565b610437565b6040516101429190611345565b60405180910390f35b34801561015757600080fd5b5061016061044f565b60405161016d9190611345565b60405180910390f35b34801561018257600080fd5b5061019d6004803603810190610198919061138c565b610455565b6040516101af9695949392919061148e565b60405180910390f35b3480156101c457600080fd5b506101cd610565565b6040516101da9190611345565b60405180910390f35b3480156101ef57600080fd5b5061020a600480360381019061020591906112ff565b61056b565b60405161021791906115b4565b60405180910390f35b34801561022c57600080fd5b506102476004803603810190610242919061138c565b6106be565b60405161025491906115e5565b60405180910390f35b34801561026957600080fd5b50610284600480360381019061027f9190611735565b6106f1565b005b6102a0600480360381019061029b919061138c565b6107a8565b005b3480156102ae57600080fd5b506102b76108f7565b005b3480156102c557600080fd5b506102ce610978565b6040516102db91906115e5565b60405180910390f35b3480156102f057600080fd5b5061030b6004803603810190610306919061138c565b6109a1565b005b34801561031957600080fd5b50610322610a20565b60405161032f9190611345565b60405180910390f35b34801561034457600080fd5b5061034d610a26565b60405161035a9190611345565b60405180910390f35b61037d60048036038101906103789190611735565b610a2c565b005b34801561038b57600080fd5b506103a660048036038101906103a191906117de565b610b34565b005b3480156103b457600080fd5b506103cf60048036038101906103ca919061138c565b610c94565b6040516103dc9190611345565b60405180910390f35b3480156103f157600080fd5b5061040c6004803603810190610407919061138c565b610cac565b005b34801561041a57600080fd5b50610435600480360381019061043091906112ff565b610d2b565b005b60086020528060005260406000206000915090505481565b600a5481565b6006818154811061046557600080fd5b90600052602060002090600302016000915090508060000180546104889061186d565b80601f01602080910402602001604051908101604052809291908181526020018280546104b49061186d565b80156105015780601f106104d657610100808354040283529160200191610501565b820191906000526020600020905b8154815290600101906020018083116104e457829003601f168201915b5050505050908060010154908060020160009054906101000a900461ffff16908060020160029054906101000a900461ffff16908060020160049054906101000a900463ffffffff16908060020160089054906101000a900463ffffffff16905086565b60055481565b60606000600860008473ffffffffffffffffffffffffffffffffffffffff1673ffffffffffffffffffffffffffffffffffffffff1681526020019081526020016000205467ffffffffffffffff8111156105c8576105c761160a565b5b6040519080825280602002602001820160405280156105f65781602001602082028036833780820191505090505b5090506000805b6006805490508110156106b3578473ffffffffffffffffffffffffffffffffffffffff166007600083815260200190815260200160002060009054906101000a900473ffffffffffffffffffffffffffffffffffffffff1673ffffffffffffffffffffffffffffffffffffffff1614156106a057808383815181106106855761068461189f565b5b602002602001018181525050818061069c906118fd565b9250505b80806106ab906118fd565b9150506105fd565b508192505050919050565b60076020528060005260406000206000915054906101000a900473ffffffffffffffffffffffffffffffffffffffff1681565b6000600860003373ffffffffffffffffffffffffffffffffffffffff1673ffffffffffffffffffffffffffffffffffffffff1681526020019081526020016000205414610773576040517f08c379a000000000000000000000000000000000000000000000000000000000815260040161076a90611992565b60405180910390fd5b600061077e82610e1c565b9050600a8161078d91906119e1565b816107989190611a12565b90506107a48282610e5e565b5050565b806007600082815260200190815260200160002060009054906101000a900473ffffffffffffffffffffffffffffffffffffffff1673ffffffffffffffffffffffffffffffffffffffff163373ffffffffffffffffffffffffffffffffffffffff161461084a576040517f08c379a000000000000000000000000000000000000000000000000000000000815260040161084190611a92565b60405180910390fd5b600a5434101561088f576040517f08c379a000000000000000000000000000000000000000000000000000000000815260040161088690611afe565b60405180910390fd5b600682815481106108a3576108a261189f565b5b9060005260206000209060030201600201600481819054906101000a900463ffffffff16809291906108d490611b1e565b91906101000a81548163ffffffff021916908363ffffffff160217905550505050565b3373ffffffffffffffffffffffffffffffffffffffff16610916610978565b73ffffffffffffffffffffffffffffffffffffffff161461096c576040517f08c379a000000000000000000000000000000000000000000000000000000000815260040161096390611b97565b60405180910390fd5b61097660006110a0565b565b60008060009054906101000a900473ffffffffffffffffffffffffffffffffffffffff16905090565b3373ffffffffffffffffffffffffffffffffffffffff166109c0610978565b73ffffffffffffffffffffffffffffffffffffffff1614610a16576040517f08c379a0000000000000000000000000000000000000000000000000000000008152600401610a0d90611b97565b60405180910390fd5b8060048190555050565b60045481565b60035481565b6000600860003373ffffffffffffffffffffffffffffffffffffffff1673ffffffffffffffffffffffffffffffffffffffff1681526020019081526020016000205411610aae576040517f08c379a0000000000000000000000000000000000000000000000000000000008152600401610aa590611c03565b60405180910390fd5b600454341015610af3576040517f08c379a0000000000000000000000000000000000000000000000000000000008152600401610aea90611c6f565b60405180910390fd5b6000610afe82610e1c565b90506001600a82610b0f91906119e1565b82610b1a9190611a12565b610b249190611c8f565b9050610b308282610e5e565b5050565b6002838160068281548110610b4c57610b4b61189f565b5b906000526020600020906003020160020160049054906101000a900463ffffffff1663ffffffff161015610bb5576040517f08c379a0000000000000000000000000000000000000000000000000000000008152600401610bac90611d31565b60405180910390fd5b846007600082815260200190815260200160002060009054906101000a900473ffffffffffffffffffffffffffffffffffffffff1673ffffffffffffffffffffffffffffffffffffffff163373ffffffffffffffffffffffffffffffffffffffff1614610c57576040517f08c379a0000000000000000000000000000000000000000000000000000000008152600401610c4e90611a92565b60405180910390fd5b848460068881548110610c6d57610c6c61189f565b5b90600052602060002090600302016000019190610c8b929190611164565b50505050505050565b60096020528060005260406000206000915090505481565b3373ffffffffffffffffffffffffffffffffffffffff16610ccb610978565b73ffffffffffffffffffffffffffffffffffffffff1614610d21576040517f08c379a0000000000000000000000000000000000000000000000000000000008152600401610d1890611b97565b60405180910390fd5b80600a8190555050565b3373ffffffffffffffffffffffffffffffffffffffff16610d4a610978565b73ffffffffffffffffffffffffffffffffffffffff1614610da0576040517f08c379a0000000000000000000000000000000000000000000000000000000008152600401610d9790611b97565b60405180910390fd5b600073ffffffffffffffffffffffffffffffffffffffff168173ffffffffffffffffffffffffffffffffffffffff161415610e10576040517f08c379a0000000000000000000000000000000000000000000000000000000008152600401610e0790611dc3565b60405180910390fd5b610e19816110a0565b50565b60006002548242604051602001610e34929190611e40565b6040516020818303038152906040528051906020012060001c610e5791906119e1565b9050919050565b60066040518060c00160405280848152602001838152602001600061ffff168152602001600061ffff168152602001600163ffffffff168152602001600063ffffffff1681525090806001815401808255809150506001900390600052602060002090600302016000909190919091506000820151816000019080519060200190610eea9291906111ea565b506020820151816001015560408201518160020160006101000a81548161ffff021916908361ffff16021790555060608201518160020160026101000a81548161ffff021916908361ffff16021790555060808201518160020160046101000a81548163ffffffff021916908363ffffffff16021790555060a08201518160020160086101000a81548163ffffffff021916908363ffffffff160217905550505060006001600680549050610f9f9190611a12565b9050336007600083815260200190815260200160002060006101000a81548173ffffffffffffffffffffffffffffffffffffffff021916908373ffffffffffffffffffffffffffffffffffffffff160217905550600860003373ffffffffffffffffffffffffffffffffffffffff1673ffffffffffffffffffffffffffffffffffffffff1681526020019081526020016000206000815480929190611043906118fd565b91905055506005600081548092919061105b906118fd565b91905055507f88f026aacbbecc90c18411df4b1185fd8d9be2470f1962f192bf84a27d0704b781848460405161109393929190611e68565b60405180910390a1505050565b60008060009054906101000a900473ffffffffffffffffffffffffffffffffffffffff169050816000806101000a81548173ffffffffffffffffffffffffffffffffffffffff021916908373ffffffffffffffffffffffffffffffffffffffff1602179055508173ffffffffffffffffffffffffffffffffffffffff168173ffffffffffffffffffffffffffffffffffffffff167f8be0079c531659141344cd1fd0a4f28419497f9722a3daafe3b4186f6b6457e060405160405180910390a35050565b8280546111709061186d565b90600052602060002090601f01602090048101928261119257600085556111d9565b82601f106111ab57803560ff19168380011785556111d9565b828001600101855582156111d9579182015b828111156111d85782358255916020019190600101906111bd565b5b5090506111e69190611270565b5090565b8280546111f69061186d565b90600052602060002090601f016020900481019282611218576000855561125f565b82601f1061123157805160ff191683800117855561125f565b8280016001018555821561125f579182015b8281111561125e578251825591602001919060010190611243565b5b50905061126c9190611270565b5090565b5b80821115611289576000816000905550600101611271565b5090565b6000604051905090565b600080fd5b600080fd5b600073ffffffffffffffffffffffffffffffffffffffff82169050919050565b60006112cc826112a1565b9050919050565b6112dc816112c1565b81146112e757600080fd5b50565b6000813590506112f9816112d3565b92915050565b60006020828403121561131557611314611297565b5b6000611323848285016112ea565b91505092915050565b6000819050919050565b61133f8161132c565b82525050565b600060208201905061135a6000830184611336565b92915050565b6113698161132c565b811461137457600080fd5b50565b60008135905061138681611360565b92915050565b6000602082840312156113a2576113a1611297565b5b60006113b084828501611377565b91505092915050565b600081519050919050565b600082825260208201905092915050565b60005b838110156113f35780820151818401526020810190506113d8565b83811115611402576000848401525b50505050565b6000601f19601f8301169050919050565b6000611424826113b9565b61142e81856113c4565b935061143e8185602086016113d5565b61144781611408565b840191505092915050565b600061ffff82169050919050565b61146981611452565b82525050565b600063ffffffff82169050919050565b6114888161146f565b82525050565b600060c08201905081810360008301526114a88189611419565b90506114b76020830188611336565b6114c46040830187611460565b6114d16060830186611460565b6114de608083018561147f565b6114eb60a083018461147f565b979650505050505050565b600081519050919050565b600082825260208201905092915050565b6000819050602082019050919050565b61152b8161132c565b82525050565b600061153d8383611522565b60208301905092915050565b6000602082019050919050565b6000611561826114f6565b61156b8185611501565b935061157683611512565b8060005b838110156115a757815161158e8882611531565b975061159983611549565b92505060018101905061157a565b5085935050505092915050565b600060208201905081810360008301526115ce8184611556565b905092915050565b6115df816112c1565b82525050565b60006020820190506115fa60008301846115d6565b92915050565b600080fd5b600080fd5b7f4e487b7100000000000000000000000000000000000000000000000000000000600052604160045260246000fd5b61164282611408565b810181811067ffffffffffffffff821117156116615761166061160a565b5b80604052505050565b600061167461128d565b90506116808282611639565b919050565b600067ffffffffffffffff8211156116a05761169f61160a565b5b6116a982611408565b9050602081019050919050565b82818337600083830152505050565b60006116d86116d384611685565b61166a565b9050828152602081018484840111156116f4576116f3611605565b5b6116ff8482856116b6565b509392505050565b600082601f83011261171c5761171b611600565b5b813561172c8482602086016116c5565b91505092915050565b60006020828403121561174b5761174a611297565b5b600082013567ffffffffffffffff8111156117695761176861129c565b5b61177584828501611707565b91505092915050565b600080fd5b600080fd5b60008083601f84011261179e5761179d611600565b5b8235905067ffffffffffffffff8111156117bb576117ba61177e565b5b6020830191508360018202830111156117d7576117d6611783565b5b9250929050565b6000806000604084860312156117f7576117f6611297565b5b600061180586828701611377565b935050602084013567ffffffffffffffff8111156118265761182561129c565b5b61183286828701611788565b92509250509250925092565b7f4e487b7100000000000000000000000000000000000000000000000000000000600052602260045260246000fd5b6000600282049050600182168061188557607f821691505b602082108114156118995761189861183e565b5b50919050565b7f4e487b7100000000000000000000000000000000000000000000000000000000600052603260045260246000fd5b7f4e487b7100000000000000000000000000000000000000000000000000000000600052601160045260246000fd5b60006119088261132c565b91507fffffffffffffffffffffffffffffffffffffffffffffffffffffffffffffffff82141561193b5761193a6118ce565b5b600182019050919050565b7f5265737472696374656420746f2072656365697665206f6e6500000000000000600082015250565b600061197c6019836113c4565b915061198782611946565b602082019050919050565b600060208201905081810360008301526119ab8161196f565b9050919050565b7f4e487b7100000000000000000000000000000000000000000000000000000000600052601260045260246000fd5b60006119ec8261132c565b91506119f78361132c565b925082611a0757611a066119b2565b5b828206905092915050565b6000611a1d8261132c565b9150611a288361132c565b925082821015611a3b57611a3a6118ce565b5b828203905092915050565b7f5a6f6d626965206973206e6f7420796f75727300000000000000000000000000600082015250565b6000611a7c6013836113c4565b9150611a8782611a46565b602082019050919050565b60006020820190508181036000830152611aab81611a6f565b9050919050565b7f4e6f20656e6f756768206d6f6e65790000000000000000000000000000000000600082015250565b6000611ae8600f836113c4565b9150611af382611ab2565b602082019050919050565b60006020820190508181036000830152611b1781611adb565b9050919050565b6000611b298261146f565b915063ffffffff821415611b4057611b3f6118ce565b5b600182019050919050565b7f4f776e61626c653a2063616c6c6572206973206e6f7420746865206f776e6572600082015250565b6000611b816020836113c4565b9150611b8c82611b4b565b602082019050919050565b60006020820190508181036000830152611bb081611b74565b9050919050565b7f506c6561736520676f20616e6420676574206f6e6520666f7220667265650000600082015250565b6000611bed601e836113c4565b9150611bf882611bb7565b602082019050919050565b60006020820190508181036000830152611c1c81611be0565b9050919050565b7f496e73756666696369656e7420707572636861736520616d6f756e7400000000600082015250565b6000611c59601c836113c4565b9150611c6482611c23565b602082019050919050565b60006020820190508181036000830152611c8881611c4c565b9050919050565b6000611c9a8261132c565b9150611ca58361132c565b9250827fffffffffffffffffffffffffffffffffffffffffffffffffffffffffffffffff03821115611cda57611cd96118ce565b5b828201905092915050565b7f4c6576656c206973206e6f742073756666696369656e74000000000000000000600082015250565b6000611d1b6017836113c4565b9150611d2682611ce5565b602082019050919050565b60006020820190508181036000830152611d4a81611d0e565b9050919050565b7f4f776e61626c653a206e6577206f776e657220697320746865207a65726f206160008201527f6464726573730000000000000000000000000000000000000000000000000000602082015250565b6000611dad6026836113c4565b9150611db882611d51565b604082019050919050565b60006020820190508181036000830152611ddc81611da0565b9050919050565b600081905092915050565b6000611df9826113b9565b611e038185611de3565b9350611e138185602086016113d5565b80840191505092915050565b6000819050919050565b611e3a611e358261132c565b611e1f565b82525050565b6000611e4c8285611dee565b9150611e588284611e29565b6020820191508190509392505050565b6000606082019050611e7d6000830186611336565b8181036020830152611e8f8185611419565b9050611e9e6040830184611336565b94935050505056fea264697066735822122004e37876719a69d99553f94f057a2998fd8c523ec94e78c7520e091d8f1e4cf964736f6c634300080a0033",
  "immutableReferences": {},
  "source": "// SPDX-License-Identifier: MIT\npragma solidity ^0.8.0;\n\nimport \"./ZombieFactory.sol\";\n\n//\ncontract ZombieHelper is ZombieFactory {\n    //\n    uint256 public levelupFee = 0.001 ether;\n\n    //\n    modifier aboveLevel(uint256 _level, uint256 _zombieId) {\n        require(zombies[_zombieId].level >= _level, \"Level is not sufficient\");\n        _;\n    }\n\n    //\n    modifier onlyOwnerOf(uint256 _zombieId) {\n        require(msg.sender == zombieToOwner[_zombieId], \"Zombie is not yours\");\n        _;\n    }\n\n    //\n    function setLevelupFee(uint256 _fee) external onlyOwner {\n        levelupFee = _fee;\n    }\n\n    //\n    function levelup(uint256 _zombieId)\n        external\n        payable\n        onlyOwnerOf(_zombieId)\n    {\n        require(msg.value >= levelupFee, \"No enough money\");\n        zombies[_zombieId].level++;\n    }\n\n    //\n    function changeName(uint256 _zombieId, string calldata _newName)\n        external\n        aboveLevel(2, _zombieId)\n        onlyOwnerOf(_zombieId)\n    {\n        zombies[_zombieId].name = _newName;\n    }\n\n    //\n    function getZombiesByOwner(address _owner)\n        external\n        view\n        returns (uint256[] memory)\n    {\n        uint256[] memory result = new uint256[](ownerZombieCount[_owner]);\n        uint256 counter = 0;\n        for (uint256 i = 0; i < zombies.length; i++) {\n            if (zombieToOwner[i] == _owner) {\n                result[counter] = i;\n                counter++;\n            }\n        }\n        return result;\n    }\n\n    //\n    function _triggerCooldown(Zombie storage _zombie) internal {\n        _zombie.readyTime =\n            uint32(block.timestamp + cooldownTime) -\n            uint32((block.timestamp + cooldownTime) % 1 days);\n    }\n\n    //\n    function _isReady(Zombie storage _zombie) internal view returns (bool) {\n        return (_zombie.readyTime <= block.timestamp);\n    }\n\n    //\n    function multiply(uint256 _zombieId, uint256 _targetDna)\n        internal\n        onlyOwnerOf(_zombieId)\n    {\n        Zombie storage myZombie = zombies[_zombieId];\n        require(_isReady(myZombie), \"Zombie is not ready\");\n        _targetDna = _targetDna % dnaModulus;\n        uint256 dna = (myZombie.dna + _targetDna) / 2;\n        // dna  9\n        dna = dna - (dna % 10) + 9;\n        _createZombie(\"NoName\", dna);\n        _triggerCooldown(myZombie);\n    }\n}\n",
  "sourcePath": "/Users/q/study/ethereum/game-zombie/contracts/ZombieHelper.sol",
  "compiler": {
    "name": "solc",
    "version": "0.8.10+commit.fc410830.Emscripten.clang"
  },
  "schemaVersion": "3.4.1",
  "updatedAt": "2021-12-15T12:26:25.866Z",
  "devdoc": {
    "kind": "dev",
    "methods": {
      "owner()": {
        "details": "Returns the address of the current owner."
      },
      "renounceOwnership()": {
        "details": "Leaves the contract without owner. It will not be possible to call `onlyOwner` functions anymore. Can only be called by the current owner. NOTE: Renouncing ownership will leave the contract without an owner, thereby removing any functionality that is only available to the owner."
      },
      "transferOwnership(address)": {
        "details": "Transfers ownership of the contract to a new account (`newOwner`). Can only be called by the current owner."
      }
    },
    "version": 1
  },
  "userdoc": {
    "kind": "user",
    "methods": {},
    "version": 1
  }
}