{
  "contractName": "ZombieAttack",
  "abi": [
    {
      "anonymous": false,
      "inputs": [
        {
          "indexed": false,
          "internalType": "uint256",
          "name": "zombieId",
          "type": "uint256"
        },
        {
          "indexed": false,
          "internalType": "string",
          "name": "name",
          "type": "string"
        },
        {
          "indexed": false,
          "internalType": "uint256",
          "name": "dna",
          "type": "uint256"
        }
      ],
      "name": "NewZombie",
      "type": "event"
    },
    {
      "anonymous": false,
      "inputs": [
        {
          "indexed": true,
          "internalType": "address",
          "name": "previousOwner",
          "type": "address"
        },
        {
          "indexed": true,
          "internalType": "address",
          "name": "newOwner",
          "type": "address"
        }
      ],
      "name": "OwnershipTransferred",
      "type": "event"
    },
    {
      "inputs": [],
      "name": "attackWinRate",
      "outputs": [
        {
          "internalType": "uint256",
          "name": "",
          "type": "uint256"
        }
      ],
      "stateMutability": "view",
      "type": "function"
    },
    {
      "inputs": [
        {
          "internalType": "string",
          "name": "_name",
          "type": "string"
        }
      ],
      "name": "buyZombie",
      "outputs": [],
      "stateMutability": "payable",
      "type": "function"
    },
    {
      "inputs": [
        {
          "internalType": "uint256",
          "name": "_zombieId",
          "type": "uint256"
        },
        {
          "internalType": "string",
          "name": "_newName",
          "type": "string"
        }
      ],
      "name": "changeName",
      "outputs": [],
      "stateMutability": "nonpayable",
      "type": "function"
    },
    {
      "inputs": [],
      "name": "cooldownTime",
      "outputs": [
        {
          "internalType": "uint256",
          "name": "",
          "type": "uint256"
        }
      ],
      "stateMutability": "view",
      "type": "function"
    },
    {
      "inputs": [
        {
          "internalType": "string",
          "name": "_name",
          "type": "string"
        }
      ],
      "name": "freeZombie",
      "outputs": [],
      "stateMutability": "nonpayable",
      "type": "function"
    },
    {
      "inputs": [
        {
          "internalType": "address",
          "name": "_owner",
          "type": "address"
        }
      ],
      "name": "getZombiesByOwner",
      "outputs": [
        {
          "internalType": "uint256[]",
          "name": "",
          "type": "uint256[]"
        }
      ],
      "stateMutability": "view",
      "type": "function"
    },
    {
      "inputs": [
        {
          "internalType": "uint256",
          "name": "_zombieId",
          "type": "uint256"
        }
      ],
      "name": "levelup",
      "outputs": [],
      "stateMutability": "payable",
      "type": "function"
    },
    {
      "inputs": [],
      "name": "levelupFee",
      "outputs": [
        {
          "internalType": "uint256",
          "name": "",
          "type": "uint256"
        }
      ],
      "stateMutability": "view",
      "type": "function"
    },
    {
      "inputs": [],
      "name": "owner",
      "outputs": [
        {
          "internalType": "address",
          "name": "",
          "type": "address"
        }
      ],
      "stateMutability": "view",
      "type": "function"
    },
    {
      "inputs": [
        {
          "internalType": "address",
          "name": "",
          "type": "address"
        }
      ],
      "name": "ownerZombieCount",
      "outputs": [
        {
          "internalType": "uint256",
          "name": "",
          "type": "uint256"
        }
      ],
      "stateMutability": "view",
      "type": "function"
    },
    {
      "inputs": [],
      "name": "price",
      "outputs": [
        {
          "internalType": "uint256",
          "name": "",
          "type": "uint256"
        }
      ],
      "stateMutability": "view",
      "type": "function"
    },
    {
      "inputs": [],
      "name": "renounceOwnership",
      "outputs": [],
      "stateMutability": "nonpayable",
      "type": "function"
    },
    {
      "inputs": [
        {
          "internalType": "uint256",
          "name": "_fee",
          "type": "uint256"
        }
      ],
      "name": "setLevelupFee",
      "outputs": [],
      "stateMutability": "nonpayable",
      "type": "function"
    },
    {
      "inputs": [
        {
          "internalType": "uint256",
          "name": "_price",
          "type": "uint256"
        }
      ],
      "name": "setPrice",
      "outputs": [],
      "stateMutability": "nonpayable",
      "type": "function"
    },
    {
      "inputs": [],
      "name": "total",
      "outputs": [
        {
          "internalType": "uint256",
          "name": "",
          "type": "uint256"
        }
      ],
      "stateMutability": "view",
      "type": "function"
    },
    {
      "inputs": [
        {
          "internalType": "address",
          "name": "newOwner",
          "type": "address"
        }
      ],
      "name": "transferOwnership",
      "outputs": [],
      "stateMutability": "nonpayable",
      "type": "function"
    },
    {
      "inputs": [
        {
          "internalType": "uint256",
          "name": "",
          "type": "uint256"
        }
      ],
      "name": "zombieFeedCount",
      "outputs": [
        {
          "internalType": "uint256",
          "name": "",
          "type": "uint256"
        }
      ],
      "stateMutability": "view",
      "type": "function"
    },
    {
      "inputs": [
        {
          "internalType": "uint256",
          "name": "",
          "type": "uint256"
        }
      ],
      "name": "zombieToOwner",
      "outputs": [
        {
          "internalType": "address",
          "name": "",
          "type": "address"
        }
      ],
      "stateMutability": "view",
      "type": "function"
    },
    {
      "inputs": [
        {
          "internalType": "uint256",
          "name": "",
          "type": "uint256"
        }
      ],
      "name": "zombies",
      "outputs": [
        {
          "internalType": "string",
          "name": "name",
          "type": "string"
        },
        {
          "internalType": "uint256",
          "name": "dna",
          "type": "uint256"
        },
        {
          "internalType": "uint16",
          "name": "winCount",
          "type": "uint16"
        },
        {
          "internalType": "uint16",
          "name": "loseCount",
          "type": "uint16"
        },
        {
          "internalType": "uint32",
          "name": "level",
          "type": "uint32"
        },
        {
          "internalType": "uint32",
          "name": "readyTime",
          "type": "uint32"
        }
      ],
      "stateMutability": "view",
      "type": "function"
    },
    {
      "inputs": [
        {
          "internalType": "uint256",
          "name": "_rate",
          "type": "uint256"
        }
      ],
      "name": "setAttackWinRate",
      "outputs": [],
      "stateMutability": "nonpayable",
      "type": "function"
    },
    {
      "inputs": [
        {
          "internalType": "uint256",
          "name": "_zombieId",
          "type": "uint256"
        },
        {
          "internalType": "uint256",
          "name": "_targetId",
          "type": "uint256"
        }
      ],
      "name": "attack",
      "outputs": [
        {
          "internalType": "uint256",
          "name": "",
          "type": "uint256"
        }
      ],
      "stateMutability": "nonpayable",
      "type": "function"
    }
  ],
  "bytecode": "0x60806040526010600155600154600a6200001a9190620002bf565b60025562015180600355662386f26fc10000600455600060055566038d7ea4c68000600a556000600b556046600c553480156200005657600080fd5b5062000068336200006e60201b60201c565b62000310565b60008060009054906101000a900473ffffffffffffffffffffffffffffffffffffffff169050816000806101000a81548173ffffffffffffffffffffffffffffffffffffffff021916908373ffffffffffffffffffffffffffffffffffffffff1602179055508173ffffffffffffffffffffffffffffffffffffffff168173ffffffffffffffffffffffffffffffffffffffff167f8be0079c531659141344cd1fd0a4f28419497f9722a3daafe3b4186f6b6457e060405160405180910390a35050565b7f4e487b7100000000000000000000000000000000000000000000000000000000600052601160045260246000fd5b60008160011c9050919050565b6000808291508390505b6001851115620001c05780860481111562000198576200019762000132565b5b6001851615620001a85780820291505b8081029050620001b88562000161565b945062000178565b94509492505050565b600082620001db5760019050620002ae565b81620001eb5760009050620002ae565b81600181146200020457600281146200020f5762000245565b6001915050620002ae565b60ff84111562000224576200022362000132565b5b8360020a9150848211156200023e576200023d62000132565b5b50620002ae565b5060208310610133831016604e8410600b84101617156200027f5782820a90508381111562000279576200027862000132565b5b620002ae565b6200028e84848460016200016e565b92509050818404811115620002a857620002a762000132565b5b81810290505b9392505050565b6000819050919050565b6000620002cc82620002b5565b9150620002d983620002b5565b9250620003087fffffffffffffffffffffffffffffffffffffffffffffffffffffffffffffffff8484620001c9565b905092915050565b61289580620003206000396000f3fe60806040526004361061012a5760003560e01c80637ce70162116100ab578063b3f0ddb91161006f578063b3f0ddb9146103d8578063c39cbef1146103f4578063d2146f6a1461041d578063e1fa76381461045a578063f242da1214610497578063f2fde38b146104c05761012a565b80637ce70162146103055780638da5cb5b1461032e57806391b7f5ed14610359578063a035b1fe14610382578063b319c6b7146103ad5761012a565b806350f4d8f5116100f257806350f4d8f514610241578063528b7b8f1461026c57806368b429bb146102a95780636cb80c6f146102d2578063715018a6146102ee5761012a565b806301afd7e11461012f57806306748d441461016c5780632052465e146101975780632ddbd13a146101d95780634412e10414610204575b600080fd5b34801561013b57600080fd5b5061015660048036038101906101519190611a1f565b6104e9565b6040516101639190611a65565b60405180910390f35b34801561017857600080fd5b50610181610501565b60405161018e9190611a65565b60405180910390f35b3480156101a357600080fd5b506101be60048036038101906101b99190611aac565b610507565b6040516101d096959493929190611bae565b60405180910390f35b3480156101e557600080fd5b506101ee610617565b6040516101fb9190611a65565b60405180910390f35b34801561021057600080fd5b5061022b60048036038101906102269190611a1f565b61061d565b6040516102389190611cd4565b60405180910390f35b34801561024d57600080fd5b50610256610770565b6040516102639190611a65565b60405180910390f35b34801561027857600080fd5b50610293600480360381019061028e9190611aac565b610776565b6040516102a09190611d05565b60405180910390f35b3480156102b557600080fd5b506102d060048036038101906102cb9190611e55565b6107a9565b005b6102ec60048036038101906102e79190611aac565b610860565b005b3480156102fa57600080fd5b506103036109af565b005b34801561031157600080fd5b5061032c60048036038101906103279190611aac565b610a30565b005b34801561033a57600080fd5b50610343610aaf565b6040516103509190611d05565b60405180910390f35b34801561036557600080fd5b50610380600480360381019061037b9190611aac565b610ad8565b005b34801561038e57600080fd5b50610397610b57565b6040516103a49190611a65565b60405180910390f35b3480156103b957600080fd5b506103c2610b5d565b6040516103cf9190611a65565b60405180910390f35b6103f260048036038101906103ed9190611e55565b610b63565b005b34801561040057600080fd5b5061041b60048036038101906104169190611efe565b610c6b565b005b34801561042957600080fd5b50610444600480360381019061043f9190611aac565b610dcb565b6040516104519190611a65565b60405180910390f35b34801561046657600080fd5b50610481600480360381019061047c9190611f5e565b610de3565b60405161048e9190611a65565b60405180910390f35b3480156104a357600080fd5b506104be60048036038101906104b99190611aac565b61113b565b005b3480156104cc57600080fd5b506104e760048036038101906104e29190611a1f565b6111ba565b005b60086020528060005260406000206000915090505481565b600a5481565b6006818154811061051757600080fd5b906000526020600020906003020160009150905080600001805461053a90611fcd565b80601f016020809104026020016040519081016040528092919081815260200182805461056690611fcd565b80156105b35780601f10610588576101008083540402835291602001916105b3565b820191906000526020600020905b81548152906001019060200180831161059657829003601f168201915b5050505050908060010154908060020160009054906101000a900461ffff16908060020160029054906101000a900461ffff16908060020160049054906101000a900463ffffffff16908060020160089054906101000a900463ffffffff16905086565b60055481565b60606000600860008473ffffffffffffffffffffffffffffffffffffffff1673ffffffffffffffffffffffffffffffffffffffff1681526020019081526020016000205467ffffffffffffffff81111561067a57610679611d2a565b5b6040519080825280602002602001820160405280156106a85781602001602082028036833780820191505090505b5090506000805b600680549050811015610765578473ffffffffffffffffffffffffffffffffffffffff166007600083815260200190815260200160002060009054906101000a900473ffffffffffffffffffffffffffffffffffffffff1673ffffffffffffffffffffffffffffffffffffffff161415610752578083838151811061073757610736611fff565b5b602002602001018181525050818061074e9061205d565b9250505b808061075d9061205d565b9150506106af565b508192505050919050565b600c5481565b60076020528060005260406000206000915054906101000a900473ffffffffffffffffffffffffffffffffffffffff1681565b6000600860003373ffffffffffffffffffffffffffffffffffffffff1673ffffffffffffffffffffffffffffffffffffffff168152602001908152602001600020541461082b576040517f08c379a0000000000000000000000000000000000000000000000000000000008152600401610822906120f2565b60405180910390fd5b6000610836826112ab565b9050600a816108459190612141565b816108509190612172565b905061085c82826112ed565b5050565b806007600082815260200190815260200160002060009054906101000a900473ffffffffffffffffffffffffffffffffffffffff1673ffffffffffffffffffffffffffffffffffffffff163373ffffffffffffffffffffffffffffffffffffffff1614610902576040517f08c379a00000000000000000000000000000000000000000000000000000000081526004016108f9906121f2565b60405180910390fd5b600a54341015610947576040517f08c379a000000000000000000000000000000000000000000000000000000000815260040161093e9061225e565b60405180910390fd5b6006828154811061095b5761095a611fff565b5b9060005260206000209060030201600201600481819054906101000a900463ffffffff168092919061098c9061227e565b91906101000a81548163ffffffff021916908363ffffffff160217905550505050565b3373ffffffffffffffffffffffffffffffffffffffff166109ce610aaf565b73ffffffffffffffffffffffffffffffffffffffff1614610a24576040517f08c379a0000000000000000000000000000000000000000000000000000000008152600401610a1b906122f7565b60405180910390fd5b610a2e600061152f565b565b3373ffffffffffffffffffffffffffffffffffffffff16610a4f610aaf565b73ffffffffffffffffffffffffffffffffffffffff1614610aa5576040517f08c379a0000000000000000000000000000000000000000000000000000000008152600401610a9c906122f7565b60405180910390fd5b80600c8190555050565b60008060009054906101000a900473ffffffffffffffffffffffffffffffffffffffff16905090565b3373ffffffffffffffffffffffffffffffffffffffff16610af7610aaf565b73ffffffffffffffffffffffffffffffffffffffff1614610b4d576040517f08c379a0000000000000000000000000000000000000000000000000000000008152600401610b44906122f7565b60405180910390fd5b8060048190555050565b60045481565b60035481565b6000600860003373ffffffffffffffffffffffffffffffffffffffff1673ffffffffffffffffffffffffffffffffffffffff1681526020019081526020016000205411610be5576040517f08c379a0000000000000000000000000000000000000000000000000000000008152600401610bdc90612363565b60405180910390fd5b600454341015610c2a576040517f08c379a0000000000000000000000000000000000000000000000000000000008152600401610c21906123cf565b60405180910390fd5b6000610c35826112ab565b90506001600a82610c469190612141565b82610c519190612172565b610c5b91906123ef565b9050610c6782826112ed565b5050565b6002838160068281548110610c8357610c82611fff565b5b906000526020600020906003020160020160049054906101000a900463ffffffff1663ffffffff161015610cec576040517f08c379a0000000000000000000000000000000000000000000000000000000008152600401610ce390612491565b60405180910390fd5b846007600082815260200190815260200160002060009054906101000a900473ffffffffffffffffffffffffffffffffffffffff1673ffffffffffffffffffffffffffffffffffffffff163373ffffffffffffffffffffffffffffffffffffffff1614610d8e576040517f08c379a0000000000000000000000000000000000000000000000000000000008152600401610d85906121f2565b60405180910390fd5b848460068881548110610da457610da3611fff565b5b90600052602060002090600302016000019190610dc2929190611884565b50505050505050565b60096020528060005260406000206000915090505481565b6000826007600082815260200190815260200160002060009054906101000a900473ffffffffffffffffffffffffffffffffffffffff1673ffffffffffffffffffffffffffffffffffffffff163373ffffffffffffffffffffffffffffffffffffffff1614610e87576040517f08c379a0000000000000000000000000000000000000000000000000000000008152600401610e7e906121f2565b60405180910390fd5b6007600084815260200190815260200160002060009054906101000a900473ffffffffffffffffffffffffffffffffffffffff1673ffffffffffffffffffffffffffffffffffffffff163373ffffffffffffffffffffffffffffffffffffffff161415610f29576040517f08c379a0000000000000000000000000000000000000000000000000000000008152600401610f20906124fd565b60405180910390fd5b600060068581548110610f3f57610f3e611fff565b5b90600052602060002090600302019050610f58816115f3565b610f97576040517f08c379a0000000000000000000000000000000000000000000000000000000008152600401610f8e90612569565b60405180910390fd5b600060068581548110610fad57610fac611fff565b5b906000526020600020906003020190506000610fc9606461161a565b9050600c5481116110aa5782600201600081819054906101000a900461ffff1680929190610ff690612589565b91906101000a81548161ffff021916908361ffff1602179055505082600201600481819054906101000a900463ffffffff16809291906110359061227e565b91906101000a81548163ffffffff021916908363ffffffff1602179055505081600201600281819054906101000a900461ffff168092919061107690612589565b91906101000a81548161ffff021916908361ffff1602179055505061109f878360010154611676565b869450505050611134565b82600201600281819054906101000a900461ffff16809291906110cc90612589565b91906101000a81548161ffff021916908361ffff1602179055505081600201600081819054906101000a900461ffff168092919061110990612589565b91906101000a81548161ffff021916908361ffff1602179055505061112d8361182b565b8594505050505b5092915050565b3373ffffffffffffffffffffffffffffffffffffffff1661115a610aaf565b73ffffffffffffffffffffffffffffffffffffffff16146111b0576040517f08c379a00000000000000000000000000000000000000000000000000000000081526004016111a7906122f7565b60405180910390fd5b80600a8190555050565b3373ffffffffffffffffffffffffffffffffffffffff166111d9610aaf565b73ffffffffffffffffffffffffffffffffffffffff161461122f576040517f08c379a0000000000000000000000000000000000000000000000000000000008152600401611226906122f7565b60405180910390fd5b600073ffffffffffffffffffffffffffffffffffffffff168173ffffffffffffffffffffffffffffffffffffffff16141561129f576040517f08c379a000000000000000000000000000000000000000000000000000000000815260040161129690612626565b60405180910390fd5b6112a88161152f565b50565b600060025482426040516020016112c39291906126a3565b6040516020818303038152906040528051906020012060001c6112e69190612141565b9050919050565b60066040518060c00160405280848152602001838152602001600061ffff168152602001600061ffff168152602001600163ffffffff168152602001600063ffffffff168152509080600181540180825580915050600190039060005260206000209060030201600090919091909150600082015181600001908051906020019061137992919061190a565b506020820151816001015560408201518160020160006101000a81548161ffff021916908361ffff16021790555060608201518160020160026101000a81548161ffff021916908361ffff16021790555060808201518160020160046101000a81548163ffffffff021916908363ffffffff16021790555060a08201518160020160086101000a81548163ffffffff021916908363ffffffff16021790555050506000600160068054905061142e9190612172565b9050336007600083815260200190815260200160002060006101000a81548173ffffffffffffffffffffffffffffffffffffffff021916908373ffffffffffffffffffffffffffffffffffffffff160217905550600860003373ffffffffffffffffffffffffffffffffffffffff1673ffffffffffffffffffffffffffffffffffffffff16815260200190815260200160002060008154809291906114d29061205d565b9190505550600560008154809291906114ea9061205d565b91905055507f88f026aacbbecc90c18411df4b1185fd8d9be2470f1962f192bf84a27d0704b7818484604051611522939291906126cb565b60405180910390a1505050565b60008060009054906101000a900473ffffffffffffffffffffffffffffffffffffffff169050816000806101000a81548173ffffffffffffffffffffffffffffffffffffffff021916908373ffffffffffffffffffffffffffffffffffffffff1602179055508173ffffffffffffffffffffffffffffffffffffffff168173ffffffffffffffffffffffffffffffffffffffff167f8be0079c531659141344cd1fd0a4f28419497f9722a3daafe3b4186f6b6457e060405160405180910390a35050565b6000428260020160089054906101000a900463ffffffff1663ffffffff1611159050919050565b6000600b600081548092919061162f9061205d565b9190505550814233600b5460405160200161164c93929190612751565b6040516020818303038152906040528051906020012060001c61166f9190612141565b9050919050565b816007600082815260200190815260200160002060009054906101000a900473ffffffffffffffffffffffffffffffffffffffff1673ffffffffffffffffffffffffffffffffffffffff163373ffffffffffffffffffffffffffffffffffffffff1614611718576040517f08c379a000000000000000000000000000000000000000000000000000000000815260040161170f906121f2565b60405180910390fd5b60006006848154811061172e5761172d611fff565b5b90600052602060002090600302019050611747816115f3565b611786576040517f08c379a000000000000000000000000000000000000000000000000000000000815260040161177d906127da565b60405180910390fd5b600254836117949190612141565b9250600060028483600101546117aa91906123ef565b6117b491906127fa565b90506009600a826117c59190612141565b826117d09190612172565b6117da91906123ef565b905061181b6040518060400160405280600681526020017f4e6f4e616d650000000000000000000000000000000000000000000000000000815250826112ed565b6118248261182b565b5050505050565b620151806003544261183d91906123ef565b6118479190612141565b6003544261185591906123ef565b61185f919061282b565b8160020160086101000a81548163ffffffff021916908363ffffffff16021790555050565b82805461189090611fcd565b90600052602060002090601f0160209004810192826118b257600085556118f9565b82601f106118cb57803560ff19168380011785556118f9565b828001600101855582156118f9579182015b828111156118f85782358255916020019190600101906118dd565b5b5090506119069190611990565b5090565b82805461191690611fcd565b90600052602060002090601f016020900481019282611938576000855561197f565b82601f1061195157805160ff191683800117855561197f565b8280016001018555821561197f579182015b8281111561197e578251825591602001919060010190611963565b5b50905061198c9190611990565b5090565b5b808211156119a9576000816000905550600101611991565b5090565b6000604051905090565b600080fd5b600080fd5b600073ffffffffffffffffffffffffffffffffffffffff82169050919050565b60006119ec826119c1565b9050919050565b6119fc816119e1565b8114611a0757600080fd5b50565b600081359050611a19816119f3565b92915050565b600060208284031215611a3557611a346119b7565b5b6000611a4384828501611a0a565b91505092915050565b6000819050919050565b611a5f81611a4c565b82525050565b6000602082019050611a7a6000830184611a56565b92915050565b611a8981611a4c565b8114611a9457600080fd5b50565b600081359050611aa681611a80565b92915050565b600060208284031215611ac257611ac16119b7565b5b6000611ad084828501611a97565b91505092915050565b600081519050919050565b600082825260208201905092915050565b60005b83811015611b13578082015181840152602081019050611af8565b83811115611b22576000848401525b50505050565b6000601f19601f8301169050919050565b6000611b4482611ad9565b611b4e8185611ae4565b9350611b5e818560208601611af5565b611b6781611b28565b840191505092915050565b600061ffff82169050919050565b611b8981611b72565b82525050565b600063ffffffff82169050919050565b611ba881611b8f565b82525050565b600060c0820190508181036000830152611bc88189611b39565b9050611bd76020830188611a56565b611be46040830187611b80565b611bf16060830186611b80565b611bfe6080830185611b9f565b611c0b60a0830184611b9f565b979650505050505050565b600081519050919050565b600082825260208201905092915050565b6000819050602082019050919050565b611c4b81611a4c565b82525050565b6000611c5d8383611c42565b60208301905092915050565b6000602082019050919050565b6000611c8182611c16565b611c8b8185611c21565b9350611c9683611c32565b8060005b83811015611cc7578151611cae8882611c51565b9750611cb983611c69565b925050600181019050611c9a565b5085935050505092915050565b60006020820190508181036000830152611cee8184611c76565b905092915050565b611cff816119e1565b82525050565b6000602082019050611d1a6000830184611cf6565b92915050565b600080fd5b600080fd5b7f4e487b7100000000000000000000000000000000000000000000000000000000600052604160045260246000fd5b611d6282611b28565b810181811067ffffffffffffffff82111715611d8157611d80611d2a565b5b80604052505050565b6000611d946119ad565b9050611da08282611d59565b919050565b600067ffffffffffffffff821115611dc057611dbf611d2a565b5b611dc982611b28565b9050602081019050919050565b82818337600083830152505050565b6000611df8611df384611da5565b611d8a565b905082815260208101848484011115611e1457611e13611d25565b5b611e1f848285611dd6565b509392505050565b600082601f830112611e3c57611e3b611d20565b5b8135611e4c848260208601611de5565b91505092915050565b600060208284031215611e6b57611e6a6119b7565b5b600082013567ffffffffffffffff811115611e8957611e886119bc565b5b611e9584828501611e27565b91505092915050565b600080fd5b600080fd5b60008083601f840112611ebe57611ebd611d20565b5b8235905067ffffffffffffffff811115611edb57611eda611e9e565b5b602083019150836001820283011115611ef757611ef6611ea3565b5b9250929050565b600080600060408486031215611f1757611f166119b7565b5b6000611f2586828701611a97565b935050602084013567ffffffffffffffff811115611f4657611f456119bc565b5b611f5286828701611ea8565b92509250509250925092565b60008060408385031215611f7557611f746119b7565b5b6000611f8385828601611a97565b9250506020611f9485828601611a97565b9150509250929050565b7f4e487b7100000000000000000000000000000000000000000000000000000000600052602260045260246000fd5b60006002820490506001821680611fe557607f821691505b60208210811415611ff957611ff8611f9e565b5b50919050565b7f4e487b7100000000000000000000000000000000000000000000000000000000600052603260045260246000fd5b7f4e487b7100000000000000000000000000000000000000000000000000000000600052601160045260246000fd5b600061206882611a4c565b91507fffffffffffffffffffffffffffffffffffffffffffffffffffffffffffffffff82141561209b5761209a61202e565b5b600182019050919050565b7f5265737472696374656420746f2072656365697665206f6e6500000000000000600082015250565b60006120dc601983611ae4565b91506120e7826120a6565b602082019050919050565b6000602082019050818103600083015261210b816120cf565b9050919050565b7f4e487b7100000000000000000000000000000000000000000000000000000000600052601260045260246000fd5b600061214c82611a4c565b915061215783611a4c565b92508261216757612166612112565b5b828206905092915050565b600061217d82611a4c565b915061218883611a4c565b92508282101561219b5761219a61202e565b5b828203905092915050565b7f5a6f6d626965206973206e6f7420796f75727300000000000000000000000000600082015250565b60006121dc601383611ae4565b91506121e7826121a6565b602082019050919050565b6000602082019050818103600083015261220b816121cf565b9050919050565b7f4e6f20656e6f756768206d6f6e65790000000000000000000000000000000000600082015250565b6000612248600f83611ae4565b915061225382612212565b602082019050919050565b600060208201905081810360008301526122778161223b565b9050919050565b600061228982611b8f565b915063ffffffff8214156122a05761229f61202e565b5b600182019050919050565b7f4f776e61626c653a2063616c6c6572206973206e6f7420746865206f776e6572600082015250565b60006122e1602083611ae4565b91506122ec826122ab565b602082019050919050565b60006020820190508181036000830152612310816122d4565b9050919050565b7f506c6561736520676f20616e6420676574206f6e6520666f7220667265650000600082015250565b600061234d601e83611ae4565b915061235882612317565b602082019050919050565b6000602082019050818103600083015261237c81612340565b9050919050565b7f496e73756666696369656e7420707572636861736520616d6f756e7400000000600082015250565b60006123b9601c83611ae4565b91506123c482612383565b602082019050919050565b600060208201905081810360008301526123e8816123ac565b9050919050565b60006123fa82611a4c565b915061240583611a4c565b9250827fffffffffffffffffffffffffffffffffffffffffffffffffffffffffffffffff0382111561243a5761243961202e565b5b828201905092915050565b7f4c6576656c206973206e6f742073756666696369656e74000000000000000000600082015250565b600061247b601783611ae4565b915061248682612445565b602082019050919050565b600060208201905081810360008301526124aa8161246e565b9050919050565b7f54686520746172676574207a6f6d62696520697320796f757273210000000000600082015250565b60006124e7601b83611ae4565b91506124f2826124b1565b602082019050919050565b60006020820190508181036000830152612516816124da565b9050919050565b7f596f7572207a6f6d626965206973206e6f742072656164792100000000000000600082015250565b6000612553601983611ae4565b915061255e8261251d565b602082019050919050565b6000602082019050818103600083015261258281612546565b9050919050565b600061259482611b72565b915061ffff8214156125a9576125a861202e565b5b600182019050919050565b7f4f776e61626c653a206e6577206f776e657220697320746865207a65726f206160008201527f6464726573730000000000000000000000000000000000000000000000000000602082015250565b6000612610602683611ae4565b915061261b826125b4565b604082019050919050565b6000602082019050818103600083015261263f81612603565b9050919050565b600081905092915050565b600061265c82611ad9565b6126668185612646565b9350612676818560208601611af5565b80840191505092915050565b6000819050919050565b61269d61269882611a4c565b612682565b82525050565b60006126af8285612651565b91506126bb828461268c565b6020820191508190509392505050565b60006060820190506126e06000830186611a56565b81810360208301526126f28185611b39565b90506127016040830184611a56565b949350505050565b60008160601b9050919050565b600061272182612709565b9050919050565b600061273382612716565b9050919050565b61274b612746826119e1565b612728565b82525050565b600061275d828661268c565b60208201915061276d828561273a565b60148201915061277d828461268c565b602082019150819050949350505050565b7f5a6f6d626965206973206e6f7420726561647900000000000000000000000000600082015250565b60006127c4601383611ae4565b91506127cf8261278e565b602082019050919050565b600060208201905081810360008301526127f3816127b7565b9050919050565b600061280582611a4c565b915061281083611a4c565b9250826128205761281f612112565b5b828204905092915050565b600061283682611b8f565b915061284183611b8f565b9250828210156128545761285361202e565b5b82820390509291505056fea2646970667358221220ae2ee1cc83b6faa2628e5474903cc9fa6f336a28ceaa42332aefc20cbd2f5adc64736f6c634300080a0033",
  "immutableReferences": {},
  "source": "// SPDX-License-Identifier: MIT\npragma solidity ^0.8.0;\n\nimport \"./ZombieHelper.sol\";\n\n//\ncontract ZombieAttack is ZombieHelper {\n    //\n    uint256 randNonce = 0;\n\n    //\n    uint256 public attackWinRate = 70;\n\n    //\n    function _rand(uint256 _modulus) internal returns (uint256) {\n        randNonce++;\n        return\n            uint256(\n                keccak256(\n                    abi.encodePacked(block.timestamp, msg.sender, randNonce)\n                )\n            ) % _modulus;\n    }\n\n    //\n    function setAttackWinRate(uint256 _rate) public onlyOwner {\n        attackWinRate = _rate;\n    }\n\n    //\n    function attack(uint256 _zombieId, uint256 _targetId)\n        external\n        onlyOwnerOf(_zombieId)\n        returns (uint256)\n    {\n        require(\n            msg.sender != zombieToOwner[_targetId],\n            \"The target zombie is yours!\"\n        );\n        Zombie storage myZombie = zombies[_zombieId];\n        require(_isReady(myZombie), \"Your zombie is not ready!\");\n        Zombie storage enemyZombie = zombies[_targetId];\n        uint256 rand = _rand(100);\n        if (rand <= attackWinRate) {\n            //\n            myZombie.winCount++;\n            myZombie.level++;\n            enemyZombie.loseCount++;\n            multiply(_zombieId, enemyZombie.dna);\n            return _zombieId;\n        }\n        //\n        myZombie.loseCount++;\n        enemyZombie.winCount++;\n        _triggerCooldown(myZombie);\n        return _targetId;\n    }\n}\n",
  "sourcePath": "/Users/q/study/ethereum/game-zombie/contracts/ZombieAttack.sol",
  "compiler": {
    "name": "solc",
    "version": "0.8.10+commit.fc410830.Emscripten.clang"
  },
  "schemaVersion": "3.4.1",
  "updatedAt": "2021-12-15T12:26:25.678Z",
  "devdoc": {
    "kind": "dev",
    "methods": {
      "owner()": {
        "details": "Returns the address of the current owner."
      },
      "renounceOwnership()": {
        "details": "Leaves the contract without owner. It will not be possible to call `onlyOwner` functions anymore. Can only be called by the current owner. NOTE: Renouncing ownership will leave the contract without an owner, thereby removing any functionality that is only available to the owner."
      },
      "transferOwnership(address)": {
        "details": "Transfers ownership of the contract to a new account (`newOwner`). Can only be called by the current owner."
      }
    },
    "version": 1
  },
  "userdoc": {
    "kind": "user",
    "methods": {},
    "version": 1
  }
}