{
  "contractName": "ZombieFactory",
  "abi": [
    {
      "anonymous": false,
      "inputs": [
        {
          "indexed": false,
          "internalType": "uint256",
          "name": "zombieId",
          "type": "uint256"
        },
        {
          "indexed": false,
          "internalType": "string",
          "name": "name",
          "type": "string"
        },
        {
          "indexed": false,
          "internalType": "uint256",
          "name": "dna",
          "type": "uint256"
        }
      ],
      "name": "NewZombie",
      "type": "event"
    },
    {
      "anonymous": false,
      "inputs": [
        {
          "indexed": true,
          "internalType": "address",
          "name": "previousOwner",
          "type": "address"
        },
        {
          "indexed": true,
          "internalType": "address",
          "name": "newOwner",
          "type": "address"
        }
      ],
      "name": "OwnershipTransferred",
      "type": "event"
    },
    {
      "inputs": [],
      "name": "cooldownTime",
      "outputs": [
        {
          "internalType": "uint256",
          "name": "",
          "type": "uint256"
        }
      ],
      "stateMutability": "view",
      "type": "function"
    },
    {
      "inputs": [],
      "name": "owner",
      "outputs": [
        {
          "internalType": "address",
          "name": "",
          "type": "address"
        }
      ],
      "stateMutability": "view",
      "type": "function"
    },
    {
      "inputs": [
        {
          "internalType": "address",
          "name": "",
          "type": "address"
        }
      ],
      "name": "ownerZombieCount",
      "outputs": [
        {
          "internalType": "uint256",
          "name": "",
          "type": "uint256"
        }
      ],
      "stateMutability": "view",
      "type": "function"
    },
    {
      "inputs": [],
      "name": "price",
      "outputs": [
        {
          "internalType": "uint256",
          "name": "",
          "type": "uint256"
        }
      ],
      "stateMutability": "view",
      "type": "function"
    },
    {
      "inputs": [],
      "name": "renounceOwnership",
      "outputs": [],
      "stateMutability": "nonpayable",
      "type": "function"
    },
    {
      "inputs": [],
      "name": "total",
      "outputs": [
        {
          "internalType": "uint256",
          "name": "",
          "type": "uint256"
        }
      ],
      "stateMutability": "view",
      "type": "function"
    },
    {
      "inputs": [
        {
          "internalType": "address",
          "name": "newOwner",
          "type": "address"
        }
      ],
      "name": "transferOwnership",
      "outputs": [],
      "stateMutability": "nonpayable",
      "type": "function"
    },
    {
      "inputs": [
        {
          "internalType": "uint256",
          "name": "",
          "type": "uint256"
        }
      ],
      "name": "zombieFeedCount",
      "outputs": [
        {
          "internalType": "uint256",
          "name": "",
          "type": "uint256"
        }
      ],
      "stateMutability": "view",
      "type": "function"
    },
    {
      "inputs": [
        {
          "internalType": "uint256",
          "name": "",
          "type": "uint256"
        }
      ],
      "name": "zombieToOwner",
      "outputs": [
        {
          "internalType": "address",
          "name": "",
          "type": "address"
        }
      ],
      "stateMutability": "view",
      "type": "function"
    },
    {
      "inputs": [
        {
          "internalType": "uint256",
          "name": "",
          "type": "uint256"
        }
      ],
      "name": "zombies",
      "outputs": [
        {
          "internalType": "string",
          "name": "name",
          "type": "string"
        },
        {
          "internalType": "uint256",
          "name": "dna",
          "type": "uint256"
        },
        {
          "internalType": "uint16",
          "name": "winCount",
          "type": "uint16"
        },
        {
          "internalType": "uint16",
          "name": "loseCount",
          "type": "uint16"
        },
        {
          "internalType": "uint32",
          "name": "level",
          "type": "uint32"
        },
        {
          "internalType": "uint32",
          "name": "readyTime",
          "type": "uint32"
        }
      ],
      "stateMutability": "view",
      "type": "function"
    },
    {
      "inputs": [
        {
          "internalType": "string",
          "name": "_name",
          "type": "string"
        }
      ],
      "name": "freeZombie",
      "outputs": [],
      "stateMutability": "nonpayable",
      "type": "function"
    },
    {
      "inputs": [
        {
          "internalType": "string",
          "name": "_name",
          "type": "string"
        }
      ],
      "name": "buyZombie",
      "outputs": [],
      "stateMutability": "payable",
      "type": "function"
    },
    {
      "inputs": [
        {
          "internalType": "uint256",
          "name": "_price",
          "type": "uint256"
        }
      ],
      "name": "setPrice",
      "outputs": [],
      "stateMutability": "nonpayable",
      "type": "function"
    }
  ],
  "bytecode": "0x60806040526010600155600154600a6200001a9190620002aa565b60025562015180600355662386f26fc1000060045560006005553480156200004157600080fd5b5062000053336200005960201b60201c565b620002fb565b60008060009054906101000a900473ffffffffffffffffffffffffffffffffffffffff169050816000806101000a81548173ffffffffffffffffffffffffffffffffffffffff021916908373ffffffffffffffffffffffffffffffffffffffff1602179055508173ffffffffffffffffffffffffffffffffffffffff168173ffffffffffffffffffffffffffffffffffffffff167f8be0079c531659141344cd1fd0a4f28419497f9722a3daafe3b4186f6b6457e060405160405180910390a35050565b7f4e487b7100000000000000000000000000000000000000000000000000000000600052601160045260246000fd5b60008160011c9050919050565b6000808291508390505b6001851115620001ab578086048111156200018357620001826200011d565b5b6001851615620001935780820291505b8081029050620001a3856200014c565b945062000163565b94509492505050565b600082620001c6576001905062000299565b81620001d6576000905062000299565b8160018114620001ef5760028114620001fa5762000230565b600191505062000299565b60ff8411156200020f576200020e6200011d565b5b8360020a9150848211156200022957620002286200011d565b5b5062000299565b5060208310610133831016604e8410600b84101617156200026a5782820a9050838111156200026457620002636200011d565b5b62000299565b62000279848484600162000159565b925090508184048111156200029357620002926200011d565b5b81810290505b9392505050565b6000819050919050565b6000620002b782620002a0565b9150620002c483620002a0565b9250620002f37fffffffffffffffffffffffffffffffffffffffffffffffffffffffffffffffff8484620001b4565b905092915050565b611572806200030b6000396000f3fe6080604052600436106100c25760003560e01c80638da5cb5b1161007f578063b319c6b711610059578063b319c6b71461026d578063b3f0ddb914610298578063d2146f6a146102b4578063f2fde38b146102f1576100c2565b80638da5cb5b146101ee57806391b7f5ed14610219578063a035b1fe14610242576100c2565b806301afd7e1146100c75780632052465e146101045780632ddbd13a14610146578063528b7b8f1461017157806368b429bb146101ae578063715018a6146101d7575b600080fd5b3480156100d357600080fd5b506100ee60048036038101906100e99190610cd5565b61031a565b6040516100fb9190610d1b565b60405180910390f35b34801561011057600080fd5b5061012b60048036038101906101269190610d62565b610332565b60405161013d96959493929190610e64565b60405180910390f35b34801561015257600080fd5b5061015b610442565b6040516101689190610d1b565b60405180910390f35b34801561017d57600080fd5b5061019860048036038101906101939190610d62565b610448565b6040516101a59190610edb565b60405180910390f35b3480156101ba57600080fd5b506101d560048036038101906101d0919061102b565b61047b565b005b3480156101e357600080fd5b506101ec610532565b005b3480156101fa57600080fd5b506102036105b3565b6040516102109190610edb565b60405180910390f35b34801561022557600080fd5b50610240600480360381019061023b9190610d62565b6105dc565b005b34801561024e57600080fd5b5061025761065b565b6040516102649190610d1b565b60405180910390f35b34801561027957600080fd5b50610282610661565b60405161028f9190610d1b565b60405180910390f35b6102b260048036038101906102ad919061102b565b610667565b005b3480156102c057600080fd5b506102db60048036038101906102d69190610d62565b61076f565b6040516102e89190610d1b565b60405180910390f35b3480156102fd57600080fd5b5061031860048036038101906103139190610cd5565b610787565b005b60086020528060005260406000206000915090505481565b6006818154811061034257600080fd5b9060005260206000209060030201600091509050806000018054610365906110a3565b80601f0160208091040260200160405190810160405280929190818152602001828054610391906110a3565b80156103de5780601f106103b3576101008083540402835291602001916103de565b820191906000526020600020905b8154815290600101906020018083116103c157829003601f168201915b5050505050908060010154908060020160009054906101000a900461ffff16908060020160029054906101000a900461ffff16908060020160049054906101000a900463ffffffff16908060020160089054906101000a900463ffffffff16905086565b60055481565b60076020528060005260406000206000915054906101000a900473ffffffffffffffffffffffffffffffffffffffff1681565b6000600860003373ffffffffffffffffffffffffffffffffffffffff1673ffffffffffffffffffffffffffffffffffffffff16815260200190815260200160002054146104fd576040517f08c379a00000000000000000000000000000000000000000000000000000000081526004016104f490611121565b60405180910390fd5b600061050882610878565b9050600a816105179190611170565b8161052291906111d0565b905061052e82826108ba565b5050565b3373ffffffffffffffffffffffffffffffffffffffff166105516105b3565b73ffffffffffffffffffffffffffffffffffffffff16146105a7576040517f08c379a000000000000000000000000000000000000000000000000000000000815260040161059e90611250565b60405180910390fd5b6105b16000610afc565b565b60008060009054906101000a900473ffffffffffffffffffffffffffffffffffffffff16905090565b3373ffffffffffffffffffffffffffffffffffffffff166105fb6105b3565b73ffffffffffffffffffffffffffffffffffffffff1614610651576040517f08c379a000000000000000000000000000000000000000000000000000000000815260040161064890611250565b60405180910390fd5b8060048190555050565b60045481565b60035481565b6000600860003373ffffffffffffffffffffffffffffffffffffffff1673ffffffffffffffffffffffffffffffffffffffff16815260200190815260200160002054116106e9576040517f08c379a00000000000000000000000000000000000000000000000000000000081526004016106e0906112bc565b60405180910390fd5b60045434101561072e576040517f08c379a000000000000000000000000000000000000000000000000000000000815260040161072590611328565b60405180910390fd5b600061073982610878565b90506001600a8261074a9190611170565b8261075591906111d0565b61075f9190611348565b905061076b82826108ba565b5050565b60096020528060005260406000206000915090505481565b3373ffffffffffffffffffffffffffffffffffffffff166107a66105b3565b73ffffffffffffffffffffffffffffffffffffffff16146107fc576040517f08c379a00000000000000000000000000000000000000000000000000000000081526004016107f390611250565b60405180910390fd5b600073ffffffffffffffffffffffffffffffffffffffff168173ffffffffffffffffffffffffffffffffffffffff16141561086c576040517f08c379a000000000000000000000000000000000000000000000000000000000815260040161086390611410565b60405180910390fd5b61087581610afc565b50565b6000600254824260405160200161089092919061148d565b6040516020818303038152906040528051906020012060001c6108b39190611170565b9050919050565b60066040518060c00160405280848152602001838152602001600061ffff168152602001600061ffff168152602001600163ffffffff168152602001600063ffffffff1681525090806001815401808255809150506001900390600052602060002090600302016000909190919091506000820151816000019080519060200190610946929190610bc0565b506020820151816001015560408201518160020160006101000a81548161ffff021916908361ffff16021790555060608201518160020160026101000a81548161ffff021916908361ffff16021790555060808201518160020160046101000a81548163ffffffff021916908363ffffffff16021790555060a08201518160020160086101000a81548163ffffffff021916908363ffffffff1602179055505050600060016006805490506109fb91906111d0565b9050336007600083815260200190815260200160002060006101000a81548173ffffffffffffffffffffffffffffffffffffffff021916908373ffffffffffffffffffffffffffffffffffffffff160217905550600860003373ffffffffffffffffffffffffffffffffffffffff1673ffffffffffffffffffffffffffffffffffffffff1681526020019081526020016000206000815480929190610a9f906114b5565b919050555060056000815480929190610ab7906114b5565b91905055507f88f026aacbbecc90c18411df4b1185fd8d9be2470f1962f192bf84a27d0704b7818484604051610aef939291906114fe565b60405180910390a1505050565b60008060009054906101000a900473ffffffffffffffffffffffffffffffffffffffff169050816000806101000a81548173ffffffffffffffffffffffffffffffffffffffff021916908373ffffffffffffffffffffffffffffffffffffffff1602179055508173ffffffffffffffffffffffffffffffffffffffff168173ffffffffffffffffffffffffffffffffffffffff167f8be0079c531659141344cd1fd0a4f28419497f9722a3daafe3b4186f6b6457e060405160405180910390a35050565b828054610bcc906110a3565b90600052602060002090601f016020900481019282610bee5760008555610c35565b82601f10610c0757805160ff1916838001178555610c35565b82800160010185558215610c35579182015b82811115610c34578251825591602001919060010190610c19565b5b509050610c429190610c46565b5090565b5b80821115610c5f576000816000905550600101610c47565b5090565b6000604051905090565b600080fd5b600080fd5b600073ffffffffffffffffffffffffffffffffffffffff82169050919050565b6000610ca282610c77565b9050919050565b610cb281610c97565b8114610cbd57600080fd5b50565b600081359050610ccf81610ca9565b92915050565b600060208284031215610ceb57610cea610c6d565b5b6000610cf984828501610cc0565b91505092915050565b6000819050919050565b610d1581610d02565b82525050565b6000602082019050610d306000830184610d0c565b92915050565b610d3f81610d02565b8114610d4a57600080fd5b50565b600081359050610d5c81610d36565b92915050565b600060208284031215610d7857610d77610c6d565b5b6000610d8684828501610d4d565b91505092915050565b600081519050919050565b600082825260208201905092915050565b60005b83811015610dc9578082015181840152602081019050610dae565b83811115610dd8576000848401525b50505050565b6000601f19601f8301169050919050565b6000610dfa82610d8f565b610e048185610d9a565b9350610e14818560208601610dab565b610e1d81610dde565b840191505092915050565b600061ffff82169050919050565b610e3f81610e28565b82525050565b600063ffffffff82169050919050565b610e5e81610e45565b82525050565b600060c0820190508181036000830152610e7e8189610def565b9050610e8d6020830188610d0c565b610e9a6040830187610e36565b610ea76060830186610e36565b610eb46080830185610e55565b610ec160a0830184610e55565b979650505050505050565b610ed581610c97565b82525050565b6000602082019050610ef06000830184610ecc565b92915050565b600080fd5b600080fd5b7f4e487b7100000000000000000000000000000000000000000000000000000000600052604160045260246000fd5b610f3882610dde565b810181811067ffffffffffffffff82111715610f5757610f56610f00565b5b80604052505050565b6000610f6a610c63565b9050610f768282610f2f565b919050565b600067ffffffffffffffff821115610f9657610f95610f00565b5b610f9f82610dde565b9050602081019050919050565b82818337600083830152505050565b6000610fce610fc984610f7b565b610f60565b905082815260208101848484011115610fea57610fe9610efb565b5b610ff5848285610fac565b509392505050565b600082601f83011261101257611011610ef6565b5b8135611022848260208601610fbb565b91505092915050565b60006020828403121561104157611040610c6d565b5b600082013567ffffffffffffffff81111561105f5761105e610c72565b5b61106b84828501610ffd565b91505092915050565b7f4e487b7100000000000000000000000000000000000000000000000000000000600052602260045260246000fd5b600060028204905060018216806110bb57607f821691505b602082108114156110cf576110ce611074565b5b50919050565b7f5265737472696374656420746f2072656365697665206f6e6500000000000000600082015250565b600061110b601983610d9a565b9150611116826110d5565b602082019050919050565b6000602082019050818103600083015261113a816110fe565b9050919050565b7f4e487b7100000000000000000000000000000000000000000000000000000000600052601260045260246000fd5b600061117b82610d02565b915061118683610d02565b92508261119657611195611141565b5b828206905092915050565b7f4e487b7100000000000000000000000000000000000000000000000000000000600052601160045260246000fd5b60006111db82610d02565b91506111e683610d02565b9250828210156111f9576111f86111a1565b5b828203905092915050565b7f4f776e61626c653a2063616c6c6572206973206e6f7420746865206f776e6572600082015250565b600061123a602083610d9a565b915061124582611204565b602082019050919050565b600060208201905081810360008301526112698161122d565b9050919050565b7f506c6561736520676f20616e6420676574206f6e6520666f7220667265650000600082015250565b60006112a6601e83610d9a565b91506112b182611270565b602082019050919050565b600060208201905081810360008301526112d581611299565b9050919050565b7f496e73756666696369656e7420707572636861736520616d6f756e7400000000600082015250565b6000611312601c83610d9a565b915061131d826112dc565b602082019050919050565b6000602082019050818103600083015261134181611305565b9050919050565b600061135382610d02565b915061135e83610d02565b9250827fffffffffffffffffffffffffffffffffffffffffffffffffffffffffffffffff03821115611393576113926111a1565b5b828201905092915050565b7f4f776e61626c653a206e6577206f776e657220697320746865207a65726f206160008201527f6464726573730000000000000000000000000000000000000000000000000000602082015250565b60006113fa602683610d9a565b91506114058261139e565b604082019050919050565b60006020820190508181036000830152611429816113ed565b9050919050565b600081905092915050565b600061144682610d8f565b6114508185611430565b9350611460818560208601610dab565b80840191505092915050565b6000819050919050565b61148761148282610d02565b61146c565b82525050565b6000611499828561143b565b91506114a58284611476565b6020820191508190509392505050565b60006114c082610d02565b91507fffffffffffffffffffffffffffffffffffffffffffffffffffffffffffffffff8214156114f3576114f26111a1565b5b600182019050919050565b60006060820190506115136000830186610d0c565b81810360208301526115258185610def565b90506115346040830184610d0c565b94935050505056fea26469706673582212201bfbb70d857df72bff6b426c60da16545af5d883530bb18289f2dcd2415d4ca264736f6c634300080a0033",
  "immutableReferences": {},
  "source": "// SPDX-License-Identifier: MIT\npragma solidity ^0.8.0;\n\nimport \"./Ownable.sol\";\n\n//\ncontract ZombieFactory is Ownable {\n    //\n    event NewZombie(uint256 zombieId, string name, uint256 dna);\n\n    //\n    uint256 dnaDigits = 16;\n\n    uint256 dnaModulus = 10**dnaDigits;\n\n    //\n    uint256 public cooldownTime = 1 days;\n\n    //\n    uint256 public price = 0.01 ether;\n\n    //\n    uint256 public total = 0;\n\n    //\n    struct Zombie {\n        string name; //\n        uint256 dna;\n        uint16 winCount; //\n        uint16 loseCount; //\n        uint32 level; //\n        uint32 readyTime; //\n    }\n\n    //\n    Zombie[] public zombies;\n\n    // id => \n    mapping(uint256 => address) public zombieToOwner;\n    //  => \n    mapping(address => uint256) public ownerZombieCount;\n    // id => \n    mapping(uint256 => uint256) public zombieFeedCount;\n\n    //\n    function _createZombie(string memory _name, uint256 _dna) internal {\n        zombies.push(\n            Zombie({\n                name: _name,\n                dna: _dna,\n                winCount: 0,\n                loseCount: 0,\n                level: 1,\n                readyTime: 0\n            })\n        );\n        uint256 id = zombies.length - 1;\n        zombieToOwner[id] = msg.sender;\n        ownerZombieCount[msg.sender]++;\n        total++;\n        emit NewZombie(id, _name, _dna);\n    }\n\n    //dna\n    function _generateRandomDna(string memory _str)\n        private\n        view\n        returns (uint256)\n    {\n        return\n            uint256(keccak256(abi.encodePacked(_str, block.timestamp))) %\n            dnaModulus;\n    }\n\n    //\n    function freeZombie(string memory _name) public {\n        require(ownerZombieCount[msg.sender] == 0, \"Restricted to receive one\");\n        uint256 dna = _generateRandomDna(_name);\n        // dna  0\n        dna = dna - (dna % 10);\n        _createZombie(_name, dna);\n    }\n\n    //\n    function buyZombie(string memory _name) public payable {\n        require(\n            ownerZombieCount[msg.sender] > 0,\n            \"Please go and get one for free\"\n        );\n        require(msg.value >= price, \"Insufficient purchase amount\");\n        uint256 dna = _generateRandomDna(_name);\n        // dna  1\n        dna = dna - (dna % 10) + 1;\n        _createZombie(_name, dna);\n    }\n\n    //\n    function setPrice(uint256 _price) external onlyOwner {\n        price = _price;\n    }\n}\n",
  "sourcePath": "/Users/q/study/ethereum/game-zombie/contracts/ZombieFactory.sol",
  "compiler": {
    "name": "solc",
    "version": "0.8.10+commit.fc410830.Emscripten.clang"
  },
  "schemaVersion": "3.4.1",
  "updatedAt": "2021-12-15T12:26:25.774Z",
  "devdoc": {
    "kind": "dev",
    "methods": {
      "owner()": {
        "details": "Returns the address of the current owner."
      },
      "renounceOwnership()": {
        "details": "Leaves the contract without owner. It will not be possible to call `onlyOwner` functions anymore. Can only be called by the current owner. NOTE: Renouncing ownership will leave the contract without an owner, thereby removing any functionality that is only available to the owner."
      },
      "transferOwnership(address)": {
        "details": "Transfers ownership of the contract to a new account (`newOwner`). Can only be called by the current owner."
      }
    },
    "version": 1
  },
  "userdoc": {
    "kind": "user",
    "methods": {},
    "version": 1
  }
}