{
  "contractName": "ZombieFeeding",
  "abi": [
    {
      "anonymous": false,
      "inputs": [
        {
          "indexed": false,
          "internalType": "uint256",
          "name": "zombieId",
          "type": "uint256"
        },
        {
          "indexed": false,
          "internalType": "string",
          "name": "name",
          "type": "string"
        },
        {
          "indexed": false,
          "internalType": "uint256",
          "name": "dna",
          "type": "uint256"
        }
      ],
      "name": "NewZombie",
      "type": "event"
    },
    {
      "anonymous": false,
      "inputs": [
        {
          "indexed": true,
          "internalType": "address",
          "name": "previousOwner",
          "type": "address"
        },
        {
          "indexed": true,
          "internalType": "address",
          "name": "newOwner",
          "type": "address"
        }
      ],
      "name": "OwnershipTransferred",
      "type": "event"
    },
    {
      "inputs": [
        {
          "internalType": "string",
          "name": "_name",
          "type": "string"
        }
      ],
      "name": "buyZombie",
      "outputs": [],
      "stateMutability": "payable",
      "type": "function"
    },
    {
      "inputs": [
        {
          "internalType": "uint256",
          "name": "_zombieId",
          "type": "uint256"
        },
        {
          "internalType": "string",
          "name": "_newName",
          "type": "string"
        }
      ],
      "name": "changeName",
      "outputs": [],
      "stateMutability": "nonpayable",
      "type": "function"
    },
    {
      "inputs": [],
      "name": "cooldownTime",
      "outputs": [
        {
          "internalType": "uint256",
          "name": "",
          "type": "uint256"
        }
      ],
      "stateMutability": "view",
      "type": "function"
    },
    {
      "inputs": [
        {
          "internalType": "string",
          "name": "_name",
          "type": "string"
        }
      ],
      "name": "freeZombie",
      "outputs": [],
      "stateMutability": "nonpayable",
      "type": "function"
    },
    {
      "inputs": [
        {
          "internalType": "address",
          "name": "_owner",
          "type": "address"
        }
      ],
      "name": "getZombiesByOwner",
      "outputs": [
        {
          "internalType": "uint256[]",
          "name": "",
          "type": "uint256[]"
        }
      ],
      "stateMutability": "view",
      "type": "function"
    },
    {
      "inputs": [
        {
          "internalType": "uint256",
          "name": "_zombieId",
          "type": "uint256"
        }
      ],
      "name": "levelup",
      "outputs": [],
      "stateMutability": "payable",
      "type": "function"
    },
    {
      "inputs": [],
      "name": "levelupFee",
      "outputs": [
        {
          "internalType": "uint256",
          "name": "",
          "type": "uint256"
        }
      ],
      "stateMutability": "view",
      "type": "function"
    },
    {
      "inputs": [],
      "name": "owner",
      "outputs": [
        {
          "internalType": "address",
          "name": "",
          "type": "address"
        }
      ],
      "stateMutability": "view",
      "type": "function"
    },
    {
      "inputs": [
        {
          "internalType": "address",
          "name": "",
          "type": "address"
        }
      ],
      "name": "ownerZombieCount",
      "outputs": [
        {
          "internalType": "uint256",
          "name": "",
          "type": "uint256"
        }
      ],
      "stateMutability": "view",
      "type": "function"
    },
    {
      "inputs": [],
      "name": "price",
      "outputs": [
        {
          "internalType": "uint256",
          "name": "",
          "type": "uint256"
        }
      ],
      "stateMutability": "view",
      "type": "function"
    },
    {
      "inputs": [],
      "name": "renounceOwnership",
      "outputs": [],
      "stateMutability": "nonpayable",
      "type": "function"
    },
    {
      "inputs": [
        {
          "internalType": "uint256",
          "name": "_fee",
          "type": "uint256"
        }
      ],
      "name": "setLevelupFee",
      "outputs": [],
      "stateMutability": "nonpayable",
      "type": "function"
    },
    {
      "inputs": [
        {
          "internalType": "uint256",
          "name": "_price",
          "type": "uint256"
        }
      ],
      "name": "setPrice",
      "outputs": [],
      "stateMutability": "nonpayable",
      "type": "function"
    },
    {
      "inputs": [],
      "name": "total",
      "outputs": [
        {
          "internalType": "uint256",
          "name": "",
          "type": "uint256"
        }
      ],
      "stateMutability": "view",
      "type": "function"
    },
    {
      "inputs": [
        {
          "internalType": "address",
          "name": "newOwner",
          "type": "address"
        }
      ],
      "name": "transferOwnership",
      "outputs": [],
      "stateMutability": "nonpayable",
      "type": "function"
    },
    {
      "inputs": [
        {
          "internalType": "uint256",
          "name": "",
          "type": "uint256"
        }
      ],
      "name": "zombieFeedCount",
      "outputs": [
        {
          "internalType": "uint256",
          "name": "",
          "type": "uint256"
        }
      ],
      "stateMutability": "view",
      "type": "function"
    },
    {
      "inputs": [
        {
          "internalType": "uint256",
          "name": "",
          "type": "uint256"
        }
      ],
      "name": "zombieToOwner",
      "outputs": [
        {
          "internalType": "address",
          "name": "",
          "type": "address"
        }
      ],
      "stateMutability": "view",
      "type": "function"
    },
    {
      "inputs": [
        {
          "internalType": "uint256",
          "name": "",
          "type": "uint256"
        }
      ],
      "name": "zombies",
      "outputs": [
        {
          "internalType": "string",
          "name": "name",
          "type": "string"
        },
        {
          "internalType": "uint256",
          "name": "dna",
          "type": "uint256"
        },
        {
          "internalType": "uint16",
          "name": "winCount",
          "type": "uint16"
        },
        {
          "internalType": "uint16",
          "name": "loseCount",
          "type": "uint16"
        },
        {
          "internalType": "uint32",
          "name": "level",
          "type": "uint32"
        },
        {
          "internalType": "uint32",
          "name": "readyTime",
          "type": "uint32"
        }
      ],
      "stateMutability": "view",
      "type": "function"
    },
    {
      "inputs": [
        {
          "internalType": "uint256",
          "name": "_zombieId",
          "type": "uint256"
        }
      ],
      "name": "feed",
      "outputs": [],
      "stateMutability": "nonpayable",
      "type": "function"
    }
  ],
  "bytecode": "0x60806040526010600155600154600a6200001a9190620002b5565b60025562015180600355662386f26fc10000600455600060055566038d7ea4c68000600a553480156200004c57600080fd5b506200005e336200006460201b60201c565b62000306565b60008060009054906101000a900473ffffffffffffffffffffffffffffffffffffffff169050816000806101000a81548173ffffffffffffffffffffffffffffffffffffffff021916908373ffffffffffffffffffffffffffffffffffffffff1602179055508173ffffffffffffffffffffffffffffffffffffffff168173ffffffffffffffffffffffffffffffffffffffff167f8be0079c531659141344cd1fd0a4f28419497f9722a3daafe3b4186f6b6457e060405160405180910390a35050565b7f4e487b7100000000000000000000000000000000000000000000000000000000600052601160045260246000fd5b60008160011c9050919050565b6000808291508390505b6001851115620001b6578086048111156200018e576200018d62000128565b5b60018516156200019e5780820291505b8081029050620001ae8562000157565b94506200016e565b94509492505050565b600082620001d15760019050620002a4565b81620001e15760009050620002a4565b8160018114620001fa576002811462000205576200023b565b6001915050620002a4565b60ff8411156200021a576200021962000128565b5b8360020a91508482111562000234576200023362000128565b5b50620002a4565b5060208310610133831016604e8410600b8410161715620002755782820a9050838111156200026f576200026e62000128565b5b620002a4565b62000284848484600162000164565b925090508184048111156200029e576200029d62000128565b5b81810290505b9392505050565b6000819050919050565b6000620002c282620002ab565b9150620002cf83620002ab565b9250620002fe7fffffffffffffffffffffffffffffffffffffffffffffffffffffffffffffffff8484620001bf565b905092915050565b61221080620003166000396000f3fe6080604052600436106101145760003560e01c80638da5cb5b116100a0578063c39cbef111610064578063c39cbef11461038a578063d2146f6a146103b3578063f242da12146103f0578063f2fde38b14610419578063f59dfdfb1461044257610114565b80638da5cb5b146102c457806391b7f5ed146102ef578063a035b1fe14610318578063b319c6b714610343578063b3f0ddb91461036e57610114565b80634412e104116100e75780634412e104146101ee578063528b7b8f1461022b57806368b429bb146102685780636cb80c6f14610291578063715018a6146102ad57610114565b806301afd7e11461011957806306748d44146101565780632052465e146101815780632ddbd13a146101c3575b600080fd5b34801561012557600080fd5b50610140600480360381019061013b9190611593565b61046b565b60405161014d91906115d9565b60405180910390f35b34801561016257600080fd5b5061016b610483565b60405161017891906115d9565b60405180910390f35b34801561018d57600080fd5b506101a860048036038101906101a39190611620565b610489565b6040516101ba96959493929190611722565b60405180910390f35b3480156101cf57600080fd5b506101d8610599565b6040516101e591906115d9565b60405180910390f35b3480156101fa57600080fd5b5061021560048036038101906102109190611593565b61059f565b6040516102229190611848565b60405180910390f35b34801561023757600080fd5b50610252600480360381019061024d9190611620565b6106f2565b60405161025f9190611879565b60405180910390f35b34801561027457600080fd5b5061028f600480360381019061028a91906119c9565b610725565b005b6102ab60048036038101906102a69190611620565b6107dc565b005b3480156102b957600080fd5b506102c261092b565b005b3480156102d057600080fd5b506102d96109ac565b6040516102e69190611879565b60405180910390f35b3480156102fb57600080fd5b5061031660048036038101906103119190611620565b6109d5565b005b34801561032457600080fd5b5061032d610a54565b60405161033a91906115d9565b60405180910390f35b34801561034f57600080fd5b50610358610a5a565b60405161036591906115d9565b60405180910390f35b610388600480360381019061038391906119c9565b610a60565b005b34801561039657600080fd5b506103b160048036038101906103ac9190611a72565b610b68565b005b3480156103bf57600080fd5b506103da60048036038101906103d59190611620565b610cc8565b6040516103e791906115d9565b60405180910390f35b3480156103fc57600080fd5b5061041760048036038101906104129190611620565b610ce0565b005b34801561042557600080fd5b50610440600480360381019061043b9190611593565b610d5f565b005b34801561044e57600080fd5b5061046960048036038101906104649190611620565b610e50565b005b60086020528060005260406000206000915090505481565b600a5481565b6006818154811061049957600080fd5b90600052602060002090600302016000915090508060000180546104bc90611b01565b80601f01602080910402602001604051908101604052809291908181526020018280546104e890611b01565b80156105355780601f1061050a57610100808354040283529160200191610535565b820191906000526020600020905b81548152906001019060200180831161051857829003601f168201915b5050505050908060010154908060020160009054906101000a900461ffff16908060020160029054906101000a900461ffff16908060020160049054906101000a900463ffffffff16908060020160089054906101000a900463ffffffff16905086565b60055481565b60606000600860008473ffffffffffffffffffffffffffffffffffffffff1673ffffffffffffffffffffffffffffffffffffffff1681526020019081526020016000205467ffffffffffffffff8111156105fc576105fb61189e565b5b60405190808252806020026020018201604052801561062a5781602001602082028036833780820191505090505b5090506000805b6006805490508110156106e7578473ffffffffffffffffffffffffffffffffffffffff166007600083815260200190815260200160002060009054906101000a900473ffffffffffffffffffffffffffffffffffffffff1673ffffffffffffffffffffffffffffffffffffffff1614156106d457808383815181106106b9576106b8611b33565b5b60200260200101818152505081806106d090611b91565b9250505b80806106df90611b91565b915050610631565b508192505050919050565b60076020528060005260406000206000915054906101000a900473ffffffffffffffffffffffffffffffffffffffff1681565b6000600860003373ffffffffffffffffffffffffffffffffffffffff1673ffffffffffffffffffffffffffffffffffffffff16815260200190815260200160002054146107a7576040517f08c379a000000000000000000000000000000000000000000000000000000000815260040161079e90611c26565b60405180910390fd5b60006107b282611030565b9050600a816107c19190611c75565b816107cc9190611ca6565b90506107d88282611072565b5050565b806007600082815260200190815260200160002060009054906101000a900473ffffffffffffffffffffffffffffffffffffffff1673ffffffffffffffffffffffffffffffffffffffff163373ffffffffffffffffffffffffffffffffffffffff161461087e576040517f08c379a000000000000000000000000000000000000000000000000000000000815260040161087590611d26565b60405180910390fd5b600a543410156108c3576040517f08c379a00000000000000000000000000000000000000000000000000000000081526004016108ba90611d92565b60405180910390fd5b600682815481106108d7576108d6611b33565b5b9060005260206000209060030201600201600481819054906101000a900463ffffffff168092919061090890611db2565b91906101000a81548163ffffffff021916908363ffffffff160217905550505050565b3373ffffffffffffffffffffffffffffffffffffffff1661094a6109ac565b73ffffffffffffffffffffffffffffffffffffffff16146109a0576040517f08c379a000000000000000000000000000000000000000000000000000000000815260040161099790611e2b565b60405180910390fd5b6109aa60006112b4565b565b60008060009054906101000a900473ffffffffffffffffffffffffffffffffffffffff16905090565b3373ffffffffffffffffffffffffffffffffffffffff166109f46109ac565b73ffffffffffffffffffffffffffffffffffffffff1614610a4a576040517f08c379a0000000000000000000000000000000000000000000000000000000008152600401610a4190611e2b565b60405180910390fd5b8060048190555050565b60045481565b60035481565b6000600860003373ffffffffffffffffffffffffffffffffffffffff1673ffffffffffffffffffffffffffffffffffffffff1681526020019081526020016000205411610ae2576040517f08c379a0000000000000000000000000000000000000000000000000000000008152600401610ad990611e97565b60405180910390fd5b600454341015610b27576040517f08c379a0000000000000000000000000000000000000000000000000000000008152600401610b1e90611f03565b60405180910390fd5b6000610b3282611030565b90506001600a82610b439190611c75565b82610b4e9190611ca6565b610b589190611f23565b9050610b648282611072565b5050565b6002838160068281548110610b8057610b7f611b33565b5b906000526020600020906003020160020160049054906101000a900463ffffffff1663ffffffff161015610be9576040517f08c379a0000000000000000000000000000000000000000000000000000000008152600401610be090611fc5565b60405180910390fd5b846007600082815260200190815260200160002060009054906101000a900473ffffffffffffffffffffffffffffffffffffffff1673ffffffffffffffffffffffffffffffffffffffff163373ffffffffffffffffffffffffffffffffffffffff1614610c8b576040517f08c379a0000000000000000000000000000000000000000000000000000000008152600401610c8290611d26565b60405180910390fd5b848460068881548110610ca157610ca0611b33565b5b90600052602060002090600302016000019190610cbf9291906113f8565b50505050505050565b60096020528060005260406000206000915090505481565b3373ffffffffffffffffffffffffffffffffffffffff16610cff6109ac565b73ffffffffffffffffffffffffffffffffffffffff1614610d55576040517f08c379a0000000000000000000000000000000000000000000000000000000008152600401610d4c90611e2b565b60405180910390fd5b80600a8190555050565b3373ffffffffffffffffffffffffffffffffffffffff16610d7e6109ac565b73ffffffffffffffffffffffffffffffffffffffff1614610dd4576040517f08c379a0000000000000000000000000000000000000000000000000000000008152600401610dcb90611e2b565b60405180910390fd5b600073ffffffffffffffffffffffffffffffffffffffff168173ffffffffffffffffffffffffffffffffffffffff161415610e44576040517f08c379a0000000000000000000000000000000000000000000000000000000008152600401610e3b90612057565b60405180910390fd5b610e4d816112b4565b50565b806007600082815260200190815260200160002060009054906101000a900473ffffffffffffffffffffffffffffffffffffffff1673ffffffffffffffffffffffffffffffffffffffff163373ffffffffffffffffffffffffffffffffffffffff1614610ef2576040517f08c379a0000000000000000000000000000000000000000000000000000000008152600401610ee990611d26565b60405180910390fd5b600060068381548110610f0857610f07611b33565b5b90600052602060002090600302019050610f2181611378565b610f60576040517f08c379a0000000000000000000000000000000000000000000000000000000008152600401610f57906120c3565b60405180910390fd5b600960008481526020019081526020016000206000815480929190610f8490611b91565b9190505550610f928161139f565b6000600a6009600086815260200190815260200160002054610fb49190611c75565b141561102b5760006008600a8360010154610fcf9190611c75565b8360010154610fde9190611ca6565b610fe89190611f23565b90506110296040518060400160405280600c81526020017f7a6f6d626965277320736f6e000000000000000000000000000000000000000081525082611072565b505b505050565b60006002548242604051602001611048929190612140565b6040516020818303038152906040528051906020012060001c61106b9190611c75565b9050919050565b60066040518060c00160405280848152602001838152602001600061ffff168152602001600061ffff168152602001600163ffffffff168152602001600063ffffffff16815250908060018154018082558091505060019003906000526020600020906003020160009091909190915060008201518160000190805190602001906110fe92919061147e565b506020820151816001015560408201518160020160006101000a81548161ffff021916908361ffff16021790555060608201518160020160026101000a81548161ffff021916908361ffff16021790555060808201518160020160046101000a81548163ffffffff021916908363ffffffff16021790555060a08201518160020160086101000a81548163ffffffff021916908363ffffffff1602179055505050600060016006805490506111b39190611ca6565b9050336007600083815260200190815260200160002060006101000a81548173ffffffffffffffffffffffffffffffffffffffff021916908373ffffffffffffffffffffffffffffffffffffffff160217905550600860003373ffffffffffffffffffffffffffffffffffffffff1673ffffffffffffffffffffffffffffffffffffffff168152602001908152602001600020600081548092919061125790611b91565b91905055506005600081548092919061126f90611b91565b91905055507f88f026aacbbecc90c18411df4b1185fd8d9be2470f1962f192bf84a27d0704b78184846040516112a793929190612168565b60405180910390a1505050565b60008060009054906101000a900473ffffffffffffffffffffffffffffffffffffffff169050816000806101000a81548173ffffffffffffffffffffffffffffffffffffffff021916908373ffffffffffffffffffffffffffffffffffffffff1602179055508173ffffffffffffffffffffffffffffffffffffffff168173ffffffffffffffffffffffffffffffffffffffff167f8be0079c531659141344cd1fd0a4f28419497f9722a3daafe3b4186f6b6457e060405160405180910390a35050565b6000428260020160089054906101000a900463ffffffff1663ffffffff1611159050919050565b62015180600354426113b19190611f23565b6113bb9190611c75565b600354426113c99190611f23565b6113d391906121a6565b8160020160086101000a81548163ffffffff021916908363ffffffff16021790555050565b82805461140490611b01565b90600052602060002090601f016020900481019282611426576000855561146d565b82601f1061143f57803560ff191683800117855561146d565b8280016001018555821561146d579182015b8281111561146c578235825591602001919060010190611451565b5b50905061147a9190611504565b5090565b82805461148a90611b01565b90600052602060002090601f0160209004810192826114ac57600085556114f3565b82601f106114c557805160ff19168380011785556114f3565b828001600101855582156114f3579182015b828111156114f25782518255916020019190600101906114d7565b5b5090506115009190611504565b5090565b5b8082111561151d576000816000905550600101611505565b5090565b6000604051905090565b600080fd5b600080fd5b600073ffffffffffffffffffffffffffffffffffffffff82169050919050565b600061156082611535565b9050919050565b61157081611555565b811461157b57600080fd5b50565b60008135905061158d81611567565b92915050565b6000602082840312156115a9576115a861152b565b5b60006115b78482850161157e565b91505092915050565b6000819050919050565b6115d3816115c0565b82525050565b60006020820190506115ee60008301846115ca565b92915050565b6115fd816115c0565b811461160857600080fd5b50565b60008135905061161a816115f4565b92915050565b6000602082840312156116365761163561152b565b5b60006116448482850161160b565b91505092915050565b600081519050919050565b600082825260208201905092915050565b60005b8381101561168757808201518184015260208101905061166c565b83811115611696576000848401525b50505050565b6000601f19601f8301169050919050565b60006116b88261164d565b6116c28185611658565b93506116d2818560208601611669565b6116db8161169c565b840191505092915050565b600061ffff82169050919050565b6116fd816116e6565b82525050565b600063ffffffff82169050919050565b61171c81611703565b82525050565b600060c082019050818103600083015261173c81896116ad565b905061174b60208301886115ca565b61175860408301876116f4565b61176560608301866116f4565b6117726080830185611713565b61177f60a0830184611713565b979650505050505050565b600081519050919050565b600082825260208201905092915050565b6000819050602082019050919050565b6117bf816115c0565b82525050565b60006117d183836117b6565b60208301905092915050565b6000602082019050919050565b60006117f58261178a565b6117ff8185611795565b935061180a836117a6565b8060005b8381101561183b57815161182288826117c5565b975061182d836117dd565b92505060018101905061180e565b5085935050505092915050565b6000602082019050818103600083015261186281846117ea565b905092915050565b61187381611555565b82525050565b600060208201905061188e600083018461186a565b92915050565b600080fd5b600080fd5b7f4e487b7100000000000000000000000000000000000000000000000000000000600052604160045260246000fd5b6118d68261169c565b810181811067ffffffffffffffff821117156118f5576118f461189e565b5b80604052505050565b6000611908611521565b905061191482826118cd565b919050565b600067ffffffffffffffff8211156119345761193361189e565b5b61193d8261169c565b9050602081019050919050565b82818337600083830152505050565b600061196c61196784611919565b6118fe565b90508281526020810184848401111561198857611987611899565b5b61199384828561194a565b509392505050565b600082601f8301126119b0576119af611894565b5b81356119c0848260208601611959565b91505092915050565b6000602082840312156119df576119de61152b565b5b600082013567ffffffffffffffff8111156119fd576119fc611530565b5b611a098482850161199b565b91505092915050565b600080fd5b600080fd5b60008083601f840112611a3257611a31611894565b5b8235905067ffffffffffffffff811115611a4f57611a4e611a12565b5b602083019150836001820283011115611a6b57611a6a611a17565b5b9250929050565b600080600060408486031215611a8b57611a8a61152b565b5b6000611a998682870161160b565b935050602084013567ffffffffffffffff811115611aba57611ab9611530565b5b611ac686828701611a1c565b92509250509250925092565b7f4e487b7100000000000000000000000000000000000000000000000000000000600052602260045260246000fd5b60006002820490506001821680611b1957607f821691505b60208210811415611b2d57611b2c611ad2565b5b50919050565b7f4e487b7100000000000000000000000000000000000000000000000000000000600052603260045260246000fd5b7f4e487b7100000000000000000000000000000000000000000000000000000000600052601160045260246000fd5b6000611b9c826115c0565b91507fffffffffffffffffffffffffffffffffffffffffffffffffffffffffffffffff821415611bcf57611bce611b62565b5b600182019050919050565b7f5265737472696374656420746f2072656365697665206f6e6500000000000000600082015250565b6000611c10601983611658565b9150611c1b82611bda565b602082019050919050565b60006020820190508181036000830152611c3f81611c03565b9050919050565b7f4e487b7100000000000000000000000000000000000000000000000000000000600052601260045260246000fd5b6000611c80826115c0565b9150611c8b836115c0565b925082611c9b57611c9a611c46565b5b828206905092915050565b6000611cb1826115c0565b9150611cbc836115c0565b925082821015611ccf57611cce611b62565b5b828203905092915050565b7f5a6f6d626965206973206e6f7420796f75727300000000000000000000000000600082015250565b6000611d10601383611658565b9150611d1b82611cda565b602082019050919050565b60006020820190508181036000830152611d3f81611d03565b9050919050565b7f4e6f20656e6f756768206d6f6e65790000000000000000000000000000000000600082015250565b6000611d7c600f83611658565b9150611d8782611d46565b602082019050919050565b60006020820190508181036000830152611dab81611d6f565b9050919050565b6000611dbd82611703565b915063ffffffff821415611dd457611dd3611b62565b5b600182019050919050565b7f4f776e61626c653a2063616c6c6572206973206e6f7420746865206f776e6572600082015250565b6000611e15602083611658565b9150611e2082611ddf565b602082019050919050565b60006020820190508181036000830152611e4481611e08565b9050919050565b7f506c6561736520676f20616e6420676574206f6e6520666f7220667265650000600082015250565b6000611e81601e83611658565b9150611e8c82611e4b565b602082019050919050565b60006020820190508181036000830152611eb081611e74565b9050919050565b7f496e73756666696369656e7420707572636861736520616d6f756e7400000000600082015250565b6000611eed601c83611658565b9150611ef882611eb7565b602082019050919050565b60006020820190508181036000830152611f1c81611ee0565b9050919050565b6000611f2e826115c0565b9150611f39836115c0565b9250827fffffffffffffffffffffffffffffffffffffffffffffffffffffffffffffffff03821115611f6e57611f6d611b62565b5b828201905092915050565b7f4c6576656c206973206e6f742073756666696369656e74000000000000000000600082015250565b6000611faf601783611658565b9150611fba82611f79565b602082019050919050565b60006020820190508181036000830152611fde81611fa2565b9050919050565b7f4f776e61626c653a206e6577206f776e657220697320746865207a65726f206160008201527f6464726573730000000000000000000000000000000000000000000000000000602082015250565b6000612041602683611658565b915061204c82611fe5565b604082019050919050565b6000602082019050818103600083015261207081612034565b9050919050565b7f5a6f6d626965206973206e6f7420726561647900000000000000000000000000600082015250565b60006120ad601383611658565b91506120b882612077565b602082019050919050565b600060208201905081810360008301526120dc816120a0565b9050919050565b600081905092915050565b60006120f98261164d565b61210381856120e3565b9350612113818560208601611669565b80840191505092915050565b6000819050919050565b61213a612135826115c0565b61211f565b82525050565b600061214c82856120ee565b91506121588284612129565b6020820191508190509392505050565b600060608201905061217d60008301866115ca565b818103602083015261218f81856116ad565b905061219e60408301846115ca565b949350505050565b60006121b182611703565b91506121bc83611703565b9250828210156121cf576121ce611b62565b5b82820390509291505056fea2646970667358221220fab8f0465a70bc56645b5150197edd7268aa9f2c87a71ba857752d3ac56bf7a664736f6c634300080a0033",
  "immutableReferences": {},
  "source": "// SPDX-License-Identifier: MIT\npragma solidity ^0.8.0;\n\nimport \"./ZombieHelper.sol\";\n\n//\ncontract ZombieFeeding is ZombieHelper {\n    //\n    function feed(uint256 _zombieId) public onlyOwnerOf(_zombieId) {\n        Zombie storage myZombie = zombies[_zombieId];\n        require(_isReady(myZombie), \"Zombie is not ready\");\n        zombieFeedCount[_zombieId]++;\n        _triggerCooldown(myZombie);\n        //10\n        if (zombieFeedCount[_zombieId] % 10 == 0) {\n            uint256 dna = myZombie.dna - (myZombie.dna % 10) + 8;\n            _createZombie(\"zombie's son\", dna);\n        }\n    }\n}\n",
  "sourcePath": "/Users/q/study/ethereum/game-zombie/contracts/ZombieFeeding.sol",
  "compiler": {
    "name": "solc",
    "version": "0.8.10+commit.fc410830.Emscripten.clang"
  },
  "schemaVersion": "3.4.1",
  "updatedAt": "2021-12-15T12:26:25.779Z",
  "devdoc": {
    "kind": "dev",
    "methods": {
      "owner()": {
        "details": "Returns the address of the current owner."
      },
      "renounceOwnership()": {
        "details": "Leaves the contract without owner. It will not be possible to call `onlyOwner` functions anymore. Can only be called by the current owner. NOTE: Renouncing ownership will leave the contract without an owner, thereby removing any functionality that is only available to the owner."
      },
      "transferOwnership(address)": {
        "details": "Transfers ownership of the contract to a new account (`newOwner`). Can only be called by the current owner."
      }
    },
    "version": 1
  },
  "userdoc": {
    "kind": "user",
    "methods": {},
    "version": 1
  }
}